:020000040800F2
:1000000000000824252B0008DD290008DF2900084E
:10001000E1290008E3290008E529000800000000A4
:10002000000000000000000000000000E7290008B8
:10003000E929000800000000EB290008ED2900086C
:10004000752B0008752B0008752B0008752B000810
:10005000752B0008752B0008752B0008752B000800
:10006000752B0008752B0008752B0008F529000872
:10007000752B0008752B0008752B0008752B0008E0
:10008000752B0008752B0008052A0008752B000841
:10009000752B0008752B0008752B00081D2A000819
:1000A000752B0008752B0008752B0008752B0008B0
:1000B000292A0008752B0008752B0008752B0008ED
:1000C000752B0008752B0008752B0008752B000890
:1000D000752B0008752B0008752B0008752B000880
:1000E000752B0008752B000800000000752B000818
:1000F000752B0008752B0008752B0008752B000860
:10010000752B0008752B0008392A0008752B00088C
:10011000752B0008752B0008752B0008752B00083F
:10012000752B0008752B0008752B0008752B00082F
:10013000752B0008752B0008752B0008752B00081F
:1001400000000000000000000000000000000000AF
:10015000752B0008752B0008752B0008752B0008FF
:10016000752B0008752B0008752B0008752B0008EF
:10017000752B0008752B0008752B00080000000087
:10018000752B0008752B0008752B0008752B0008CF
:10019000752B0008752B0008752B0008752B0008BF
:1001A000752B0008752B0008752B0008752B0008AF
:1001B000752B0008752B0008752B0008752B00089F
:1001C000752B0008752B0008752B0008752B00088F
:1001D000752B0008752B0008752B0008752B00087F
:1001E000752B0008752B0008752B0008752B00086F
:1001F000752B0008752B0008752B0008752B00085F
:10020000752B0008752B0008752B0008752B00084E
:10021000752B0008752B0008492A0008752B00086B
:10022000752B0008752B0008752B000800000000D6
:10023000752B0008752B000800000000752B0008C6
:10024000752B0008752B0008752B0008752B00080E
:10025000752B0008752B0008752B0008752B0008FE
:10026000752B0008752B0008752B0008752B0008EE
:10027000752B0008752B0008752B00080000000086
:10028000752B0008752B0008752B00080000000076
:0802900000000000752B0008BE
:1002980010B5054C237833B9044B13B10448AFF3B8
:1002A80000800123237010BD10010024000000000D
:1002B800BCB0000808B5034B1BB103490348AFF3B2
:1002C800008008BD0000000014010024BCB0000834
:1002D80081F0004102E000BF83F0004330B54FEAEF
:1002E80041044FEA430594EA050F08BF90EA020F5C
:1002F8001FBF54EA000C55EA020C7FEA645C7FEAEF
:10030800655C00F0E2804FEA5454D4EB5555B8BF11
:100318006D420CDD2C4480EA020281EA030382EA82
:10032800000083EA010180EA020281EA0303362D14
:1003380088BF30BD11F0004F4FEA01314FF4801CE7
:100348004CEA113102D0404261EB410113F0004FF9
:100358004FEA03334CEA133302D0524263EB4303B0
:1003680094EA050F00F0A780A4F10104D5F1200E4E
:100378000DDB02FA0EFC22FA05F2801841F10001A9
:1003880003FA0EF2801843FA05F359410EE0A5F17D
:1003980020050EF1200E012A03FA0EFC28BF4CF0AE
:1003A800020C43FA05F3C01851EBE37101F0004564
:1003B80007D54FF0000EDCF1000C7EEB00006EEB71
:1003C8000101B1F5801F1BD3B1F5001F0CD34908FB
:1003D8005FEA30004FEA3C0C04F101044FEA445252
:1003E80012F5800F80F09A80BCF1004F08BF5FEAD9
:1003F800500C50F1000041EB045141EA050130BDB9
:100408005FEA4C0C404141EB0101013C28BFB1F5CA
:10041800801FE9D291F0000F04BF01460020B1FA15
:1004280081F308BF2033A3F10B03B3F120020CDAE8
:100438000C3208DD02F1140CC2F10C0201FA0CF0C6
:1004480021FA02F10CE002F11402D8BFC2F1200C2B
:1004580001FA02F120FA0CFCDCBF41EA0C019040E1
:10046800E41AA2BF01EB0451294330BD6FEA04042A
:100478001F3C1CDA0C340EDC04F11404C4F1200215
:1004880020FA04F001FA02F340EA030021FA04F327
:1004980045EA030130BDC4F10C04C4F1200220FA7E
:1004A80002F001FA04F340EA0300294630BD21FABC
:1004B80004F0294630BD94F0000F83F4801306BF82
:1004C80081F480110134013D4EE77FEA645C18BF76
:1004D8007FEA655C29D094EA050F08BF90EA020F0D
:1004E80005D054EA000C04BF1946104630BD91EA05
:1004F800030F1EBF0021002030BD5FEA545C05D108
:100508004000494128BF41F0004130BD14F5800446
:100518003CBF01F5801130BD01F0004545F0FE41BA
:1005280041F470014FF0000030BD7FEA645C1ABFEF
:10053800194610467FEA655C1CBF0B46024650EA26
:10054800013406BF52EA033591EA030F41F4002152
:1005580030BD00BF90F0000F04BF0021704730B5D8
:100568004FF4806404F132044FF000054FF00001AD
:1005780050E700BF90F0000F04BF0021704730B56E
:100588004FF4806404F1320410F0004548BF404243
:100598004FF000013EE700BF42004FEAE2014FEA98
:1005A80031014FEA02701FBF12F07F4393F07F4F73
:1005B80081F06051704732F07F4208BF704793F076
:1005C8007F4F04BF41F40021704730B54FF4607489
:1005D80001F0004521F000411CE700BF50EA01028C
:1005E80008BF704730B54FF000050AE050EA010235
:1005F80008BF704730B511F0004502D5404261EBA5
:1006080041014FF4806404F132045FEA915C3FF4E5
:10061800D8AE4FF003025FEADC0C18BF03325FEA82
:10062800DC0C18BF033202EBDC02C2F1200300FA33
:1006380003FC20FA02F001FA03FE40EA0E0021FA58
:1006480002F11444BDE600BF10B52DED108B96B035
:100658006B4B1B790133DBB2092B00F2B980684A76
:100668001371684C94ED1EBAB7EECBBA664B83EDA6
:1006780010BB94ED0A8B94ED0CDB38EE0DAB3AEE23
:100688000DAB9FED5D7B2AEE07AB94ED08CBB0EE8A
:100698004C0B09F0B1FDB0EE409BB0EE4C0B09F0ED
:1006A8005FFD2AEE09CB08EE00CBF7EECC6BCDED63
:1006B800146A28EE097B1AEE007BF7EEC72BD4EDFF
:1006C800287AB7EE00AA3AEE67AA504B93ED127A51
:1006D8002AEE07AA67EEA67A3AEE27FA8DED15FA02
:1006E80083ED12FA94ED291AB5EEC01AF1EE10FA5C
:1006F800D8BFB0EE66FA434B93ED2C7B8DED007BB3
:10070800B7EECFFA37EE4FFB3F4A82ED18FB3F4A70
:1007180092ED026B8DED066B93ED127AB7EEC77A08
:1007280017EE0F6B93ED137AB7EEC77A26EE075BD9
:100738008DED105B92ED006B8DED086B93ED107AEB
:10074800B7EEC77A07EE0F6B36EE056B8DED026BD1
:10075800B4EEC6BBF1EE10FA0BD493ED1F7AB7EEE8
:10076800C77AB4EEC67BF1EE10FA35DD264B83ED81
:10077800107B244B93ED342ADFED251A62EE211A03
:100788001F4B1B79012B2DD01E4B93ED067B8DED56
:100798000A7BB0EE084B27EE044B1B4A92ED0A3B4E
:1007A80093ED307B23EE077B24EE477BB7EEE16ABF
:1007B800B4EEC76BF1EE10FA2CD4B1EE615AB7EE75
:1007C800C55AB4EE475BF1EE10FA35FE077B23E01D
:1007D8000B4B00221A7144E70B4B9DED027B83ED16
:1007E800107BC6E7094BD3E91001074BC3E90A019F
:1007F800CAE700BFAFF300801D339045A779E23FF9
:10080800D8010024E0010024C002002430010024A3
:100818003ACD133FB0EE467BD94B93ED10CB3CEE6F
:10082800077B83ED147BB4EEC7BBF1EE10FA40F101
:10083800778283ED14BBD34B93ED2E5B93ED327B24
:100848009DED00AB0AEE057B27EE047B93ED205A65
:10085800B7EEC55ACA4A82ED125BD3ED2A4AF7EEC3
:1008680000AA7AEEE4AAC84A92ED134A2AEE844A0C
:1008780064EEA24A74EE244AC2ED134A93ED2B4A61
:10088800B5EE404AF1EE10FA74FEA22AB7EEE2AADB
:1008980033EE4ABBBA4B83ED1ABB92ED063B8DEDA6
:1008A8000C3BB84B93ED1A4AB7EEC44A14EE0B3B17
:1008B80093ED1B4AB7EEC44A23EE04EB8DED12EB21
:1008C80092ED043B8DED0E3B93ED184AB7EEC44A0A
:1008D80004EE0B3B33EE0E3B8DED043BB4EEC35BF5
:1008E800F1EE10FA0CD493ED214AB7EEC44AB4EEF7
:1008F800C34BF1EE10FA40F32282A14B83ED124B69
:10090800B4EEC76BF1EE10FA09D4B1EE616AB7EE36
:10091800C66AB4EEC76BF1EE10FA36FE076B984B59
:1009280093ED12EB3EEE066B83ED166BB4EEC65BF1
:10093800F1EE10FA40F1098283ED165B904B93EDCE
:10094800146B93ED164B24EE097B16EE007BB6EE86
:10095800005B27EE055B26EE096B04EE006B9FED4E
:100968007E9B26EE096B36EE454B9FED7D3B33EEC5
:10097800455B35EE465B87FE043B83FE053B87FE01
:10098800446B86FE456B33EE066BBEEE003B26EEEF
:10099800036B37EE067B9FED743B27EE037B83EDFD
:1009A800007B34EE064B24EE034B83ED024B35EE11
:1009B800065B25EE035B83ED045B724BD3ED357A62
:1009C80093ED367AC7FE877A88FE0D8B93ED0EDBA2
:1009D80088FE0D8B6C4B93F8A030002B40F0C4813F
:1009E800694B012083F8A00000221A65032183F8CF
:1009F800A110634981F87820C3F88020052483F882
:100A0800A24081F879205A6683F8A30081F87A20F9
:100A18009FED5E7AF4EEC77AF1EE10FA40F3E983BF
:100A2800594B1B6D0133584A13659FED587AF4EE04
:100A3800C77AF1EE10FA40F1DE831346526D0132A7
:100A48005A659A6D01329A659FED517AF4EEC77A2C
:100A5800F1EE10FA40F1D4834B4BDB6D01334A4A77
:100A6800D3659FED4B7AF4EEC77AF1EE10FA40F3B6
:100A7800C983136E0133444A13669FED3D7BB4EE80
:100A8800C78BF1EE10FA40F3BF83536E01333E4A31
:100A980053669FED377BB4EEC78BF1EE10FA40F149
:100AA800B5831346926E01329A66DA6E0132DA66BF
:100AB8009FED317BB4EEC78BF1EE10FA40F1AB83BA
:100AC800314B1B6F0133304A13679FED2B7BB4EE1C
:100AD800C78BF1EE10FA40F3A083536F01332A4A13
:100AE8005367DFED2C7AB4EEE72AF1EE10FA40F303
:100AF8009683936F0133244A9367DFED267AB4EE29
:100B0800E72AF1EE10FA40F18C83D36F01331E4AC5
:100B1800D367DFED217AB4EEE72AF1EE10FA40F15F
:100B28008283D2F880300133174AC2F88030DFED73
:100B38001A7AB4EEE72AF1EE10FA40F376831346F8
:100B4800D2F884200132C3F88420D3F888200132F7
:100B5800C3F8882022E000BFAA4C58E87AB6EB3FD9
:100B680000000000000000001D339045A779F23F07
:100B78000000000000C072400000000000E0754066
:100B8800C0020024E0010024300100240000A0423B
:100B98000000C8420000A0C2000070C2C24B002181
:100BA800C3F88C10D3F890200132C3F89020D3F802
:100BB80094200132C3F89420D3F898200132C3F866
:100BC8009820C3F89C10B94B83ED08ABB5EEC01A5A
:100BD800F1EE10FACCBFDDED157ADDED147AB7EE43
:100BE800E7AAB24B83ED06ABB14B93ED024B9FEDF9
:100BF800A87B24EE077BAC4B93F8A4302BB1AC4B0D
:100C0800D3E90001A84BC3E90801A74B93ED086B92
:100C1800A74B93ED005B35EE465BB4EEC57BF1EE7A
:100C280010FA0CD493ED044B9FED997B24EE077BCF
:100C3800B4EEC75BF1EE10FA58BFB0EE457B36EE66
:100C4800077B994B83ED087B984B9FED935B9DED5C
:100C58000A6B17EE056B83ED1C6B9DED007B83ED36
:100C68000C7B934B93ED115AB7EEC55A3CEE4C7B77
:100C780005EE0F7B9DED026B3CEE466B37EE067B77
:100C88009FED836B9DED085B07EE065B9FED847B14
:100C9800B4EEC75BF1EE10FA40F3CE82824B83EDDF
:100CA800007B9FED7B7B9DED066B9DED105B05EE5C
:100CB800076B7D4B83ED026B3EEE4E6B7C4B93EDE9
:100CC800193AB7EEC33A23EE0B3BBAEE045B06EED5
:100CD800053B9DED046B3EEE46EB33EE0E3B9DED82
:100CE8000E6B03EE076B9FED6E7BB4EEC76BF1EEF8
:100CF80010FA40F3B3826C4B83ED047B6A4B9FED93
:100D0800646B9DED0C7B9DED125B05EE067B83ED20
:100D1800067B002283F8A42016B0BDEC108B10BD12
:100D2800634B93ED1F5AB7EEC55AB4EEC57BF1EE8F
:100D380010FA7FF580AD5D4B83ED145B7BE55B4B73
:100D48009DED044B83ED124BDAE5594B93ED217A77
:100D5800B7EEC77AB4EEC76BF1EE10FA7FF5EEADD9
:100D6800524B83ED167BE9E54F4B93F8A130012BED
:100D780010D0022B53D04D4B002283F878209FEDE2
:100D88004D7AF4EEC77AF1EE10FA00F39780464BED
:100D98001A6526E0454B022283F878209FED457AB4
:100DA800F4EEC77AF1EE10FA0DD43F4B00225A65E3
:100DB8009FED417AF4EEC77AF1EE10FA1ED43A4B61
:100DC8000022DA650DE0384B5B6DB3F57A7FEFD919
:100DD800354A00231365032182F8A110334A82F8AB
:100DE8007830314B93F8A230013B032B00F251814C
:100DF800DFE813F07500BF00D40011012A4BDB6D4A
:100E0800B3F57A7FEDD9284B00221A669A6502223B
:100E180083F8A120254B012283F87820E1E7234BB2
:100E2800012283F878209FED247AF4EEC77AF1EE58
:100E380010FA0DDC1C4B00221A669FED1E7AF4EEA8
:100E4800C77AF1EE10FA14D4174B00229A65C8E756
:100E5800154B1B6EB3F57A7FEFD9134B0022DA6579
:100E68005A65012283F8A120104B022283F87820CA
:100E7800B7E70D4B9B6DB3F57A7FB2D90A4A0023C9
:100E88001365032182F8A110084A82F87830A8E790
:100E98002D431CEBE2361A3FD5EB7BF3E9CEBA3F84
:100EA800000000803FBE404030010024C002002402
:100EB800E00100240000A0420000C842B84B1B6DAE
:100EC800B3F57A7F8DD9B64B00221A669A6502224D
:100ED80083F8A120B34B012283F8782081E7B14B36
:100EE800022283F87920AE4BD3F89030B3F57A7F9D
:100EF8002DD9AB4A0023C2F88030052182F8A21010
:100F0800A84A82F87930A64B93F8A330012B00F059
:100F1800E380022B00F00081A24B012283F87A20A3
:100F28009FED9B6BB4EEC68BF1EE10FA00F3408197
:100F38009B4B00225A679FED986BB4EEC68BF1EE7F
:100F480010FA00F14681964B0022DA6660E5944B70
:100F5800D3F89830B3F57A7FD5D9914B0022C3F8EE
:100F68009420022283F8A2208E4B012283F8792054
:100F7800C9E78C4B012283F87920894BD3F8943048
:100F8800B3F57A7FBFD9864A0023C2F8803005219D
:100F980082F8A210834A82F87930B4E7814B0422A0
:100FA80083F879209FED807AB4EEC72AF1EE10FA23
:100FB8000EDC7B4B00229A679FED7C7AB4EEC72A41
:100FC800F1EE10FA16DC764B0022C3F888209AE777
:100FD800734B9B6FB3F57A7FEED9714B0022C3F840
:100FE8008420DA67042283F8A2206E4B032283F858
:100FF800792088E76A4BD3F88830B3F57A7F82D9AD
:10100800674A0023C2F88030052182F8A210654A99
:1010180082F8793077E7634B032283F879209FEDD4
:10102800627AB4EEC72AF1EE10FA0ED45C4B0022B5
:10103800DA679FED5E7AB4EEC72AF1EE10FA16DC95
:10104800574B0022C3F884205DE7554BDB6FB3F59F
:101058007A7FEED9524B0022C3F888209A67032280
:1010680083F8A2204F4B042283F879204BE74C4B9E
:10107800D3F88430B3F57A7F7FF645AF484A00232A
:10108800C2F88030052182F8A210464A82F87930E9
:1010980039E7444B002283F879209FED447AB4EE77
:1010A800C72AF1EE10FA03D43D4BC3F880202AE793
:1010B8003B4BD3F88030B3F57A7F7FF624AF384BBB
:1010C8000022C3F88420DA67042283F8A220354B73
:1010D800032283F8792016E7324B002283F87A201E
:1010E8009FED2D6BB4EEC68BF1EE10FA02DC2C4BA3
:1010F8005A668DE42A4B5B6EB3F57A7F7FF688AC2F
:10110800274B00225A67DA66032283F8A320254B6F
:10111800012283F87A207BE4224B022283F87A208A
:101128009FED1D6BB4EEC68BF1EE10FA0DD41C4B7F
:1011380000229A669FED166BB4EEC68BF1EE10FA9C
:1011480012D4174B00221A6762E4154B9B6EB3F555
:101158007A7FEFD9124A00235366012182F8A3103F
:10116800104A82F87A3053E40D4B1B6FB3F57A7F3F
:101178007FF64EAC0A4B00225A67DA66032283F8E0
:10118800A320084B012283F87A2041E4AFF30080C2
:101198000000000000E075400000000000C0724040
:1011A80030010024C00200240000A0C2000070C268
:1011B800354B5B6FB3F57A7F7FF6BDAE324B0022BD
:1011C8001A679A66022283F8A320304B83F87A20A4
:1011D8001EE42D4BDB6EB3F57A7F7FF619AC2A4AF5
:1011E80000235366012182F8A310284A82F87A3036
:1011F8000EE4002317E4244B00225A659A6523E481
:1012080000232CE4002336E4002340E41E4B002294
:101218009A66DA664CE4002355E400235FE4002371
:1012280069E4002373E400237EE4174B0022C3F82B
:101238008420C3F88820B1E49FED117BB4EEC75B2E
:10124800F1EE10FA03D4104B83ED005B29E50E4B49
:101258000BA1D1E90001C3E9000122E59FED087B5C
:10126800B4EEC76BF1EE10FA03D4074B83ED046BB1
:1012780044E5054B02A1D1E90001C3E904013DE5BC
:10128800000000803FBE40C030010024C00200249E
:101298002DED048B664B93ED1C0B664A92ED0C2BDF
:1012A800654B93ED167AB7EEC77AB0EE421B17EE90
:1012B800001B93ED177AB7EEC77A21EE071B92ED64
:1012C8000A4B93ED147AB7EEC77AB0EE443B07EEBB
:1012D800003B33EE013B93ED1C7AB7EEC77AB4EED0
:1012E800C37BF1EE10FA6AD5514B83ED0E7B534B5D
:1012F8009B88B3F5807F06D0012B72D04C4B002021
:101308000021C3E90E014B4B93F8A5302BB1484B94
:10131800D3E90E01474BC3E90E01454B93ED0E6B24
:10132800444B93ED0E5B36EE458B434B93ED267A9B
:10133800B7EEC77A9FED389B27EE097BB4EEC78BD3
:10134800F1EE10FA0CDC93ED277AB7EEC77A27EEA8
:10135800097BB4EEC78BF1EE10FA58BFB0EE487BAC
:1013680035EE077B334B83ED0E7B83ED107B324BE1
:1013780093ED155AB7EEC55A36EE467B05EE007B5F
:1013880036EE436B37EE066B9FED237B06EE074B7D
:101398009FED237BB4EEC74BF1EE10FA29DD254B08
:1013A80083ED0A7B234B9FED1C7B01EE072B83ED1E
:1013B8000C2B002283F8A520BDEC048B70471E4B34
:1013C80093ED1D7AB7EEC77AB4EEC37BF1EE10FA4F
:1013D80003DD174B83ED0E7B89E7154B83ED0E3B41
:1013E80085E7134B93ED0E7BB1EE477B83ED0E7BC8
:1013F80089E79FED0D7BB4EEC74BF1EE10FA03D4ED
:101408000C4B83ED0A4BCDE70A4B07A1D1E900014C
:10141800C3E90A01C6E700BFFCA9F1D24D62503FFB
:101428000000000000407F400000000000407FC036
:10143800C002002430010024E00100240000002440
:1014480000B5414B012283F8A42083F8A5203F4B27
:101458003F4AC3F8D0203F4AC3F8D820C3F8D42065
:1014680031A1D1E90001C3E9320131A1D1E900017B
:10147800C3E92E0130A1D1E90001C3E93001002000
:101488003549C3E902012EA1D1E90001C3E90401EC
:10149800324AC3F89820324AC3F89C20314AC3F82C
:1014A8009020314AC3F89420304AC3F88820304A43
:1014B800C3F88C204FF07E52C3F8A420C3F8AC20A8
:1014C8002C4AC3F8A020C3F8A8202B4919652B4A39
:1014D8005A652B4A9A652B4ADA652B48186700200B
:1014E80058672A4818665966DFF8ACC0C3F868C060
:1014F800DA662748C3F880002649C3F88410DFF865
:101508009CE0C3F840E0DFF898E0C3F844E0C3F893
:1015180048C0DA649867D96700200021C3E92C0124
:101528005DF804FBAFF30080000000E0BFB2A23F0B
:1015380000000020812F1A3F000000004A27323F98
:1015480000000000006AF8C030010024E001002417
:10155800000068420000204200408F400024744987
:10156800002474C90024F4480024F4C80050C34778
:10157800007C92C96666663F0000A04000001041EA
:10158800ACC52737000020410000FA43CDCC4C3EC3
:10159800FCF10542FCF105C217B7D1389A99993E7A
:1015A8000000C0400000000008B507EE900AF8EE01
:1015B800E77ADFED196A67EEA66A9FED187A77EE8B
:1015C800677A86EEA77AB7EEC77AB7EEC00A87EED3
:1015D800000B08F07DFC9FED0A6B80EE067B9FED0B
:1015E8000A6B37EE067BB7EE006B86EE070B9FEDB6
:1015F800087B30EE470BB7EEC00B08BDAFF3008099
:10160800000000000040AF4045A725E6E1796B3FA8
:10161800666666666612714000401C460000804798
:101628000F4AD2ED007A70EE277A9FED0E7A67EEB8
:10163800877A0D4B93ED007ADFED0C6A27EE267A58
:1016480077EE877A0A49C1ED1F7ADFED0A6A87EEDD
:10165800A67A81ED217A82ED000AC3ED007A7047FF
:10166800480300240017DA3A44030024E8257F3FA2
:1016780000000024F46CD63D10B52DED048BB0EEBF
:10168800409A08F031FEF0EE408A1F4C94ED008A33
:1016980030EE488ADFED1D9A28EE298AB0EE490A15
:1016A80008F072FB1A4BD3ED007A70EE677A67EE9A
:1016B800A97AC4ED008A83ED000A28EE008A28EE94
:1016C800A70A38EE400ADFED137AB4EEE70AF1EE26
:1016D80010FA0ADB104BC3ED1E7A0F4B93ED1E0A6E
:1016E800FFF79EFFBDEC048B10BDDFED0C7AB4EE66
:1016F800E70AF1EE10FA03D9074B83ED1E0AECE76F
:10170800054B074A9A67E8E74C03002400401C464B
:10171800400300245A141D44000000245A141DC418
:101728005A141DC400B59DB04C22002109A808F028
:10173800F7FA2022002101A808F0F2FA022004F0AA
:10174800D1FB00230093274BDA6A22F00102DA6208
:10175800DB6A03F001030093234A936923F44043AF
:1017680043F480439361936903F440430093009BDF
:10177800936913F4005FFBD01C4A936A23F00303B8
:1017880093620223099301220C9240220D92129334
:1017980000221392042114910C211591169317938A
:1017A800189319911A924FF480531B9309A804F0C7
:1017B800C1FB90B93F2301930323029300230393B2
:1017C80004930593069307930893022101A805F053
:1017D80003F820B91DB05DF804FB72B6FEE772B6D7
:1017E800FEE700BF000400580048025800440258B1
:1017F80000B5B1B0982200210AA808F091FA4FF478
:1018080000220023CDE90023042302930922039236
:101818000493022305930693C02307932023089378
:101828004FF440630993684605F066FA10B931B081
:101838005DF804FB72B6FEE72DE9F0432DED068B4B
:10184800A5B001F0BBF9FFF76DFFFFF7D1FF00244A
:1018580015941694179418941994B64DD5F8E03049
:1018680043F00103C5F8E030D5F8E03003F0010398
:101878000193019BD5F8E03043F00403C5F8E0304C
:10188800D5F8E03003F004030293029BD5F8E0306A
:1018980043F02003C5F8E030D5F8E03003F020032A
:1018A8000393039BD5F8E03043F01003C5F8E0300C
:1018B800D5F8E03003F010030493049BD5F8E0302A
:1018C80043F00803C5F8E030D5F8E03003F008032A
:1018D8000593059BD5F8E03043F00203C5F8E030E6
:1018E800D5F8E03003F002030693069B924E224699
:1018F8004FF4E051304604F0DFFA01224FF4004182
:10190800304604F0D9FA4FF08008CDF854804FF4EF
:1019180088131693179415A9884804F0F3F84FF420
:10192800E0531593012716971794189415A9304674
:1019380004F0E8F84FF4004315931697179403231F
:10194800189315A9304604F0DDF81823159316945A
:10195800179715A9304604F0D5F82246022117201A
:1019680002F042FD172002F073FDD5F8D8303B4352
:10197800C5F8D830D5F8D8303B400093009B2246B4
:1019880005210B2002F030FD0B2002F061FD0A94C6
:101998000B940C940D940794089409940E940F9446
:1019A800109411941294139414942C22214615A87F
:1019B80008F0B6F96248634B0360132343602023A1
:1019C800836040F6C313C36004614761C0F81880A0
:1019D80007F056F8002840F074824FF480530A93B9
:1019E8000AA9574807F004FB002840F06C825448C5
:1019F80007F076F8002840F0688220230793002338
:101A08000893099307A94E4808F0B6F8002840F053
:101A18005E8260230E9300220F921092119212920E
:101A280013924FF4007314930EA9454807F054F924
:101A3800002840F04E8204220EA9414807F04CF9D4
:101A4800002840F0488208220EA93D4807F044F9D2
:101A5800002840F0428200231593169317936422BE
:101A6800189219934FF400521A921B931C934FF03B
:101A780000721D921E931F9315A9314808F0DAF8D9
:101A8800002840F02C822E4800F03EFF3C22002126
:101A980015A808F045F92C482C4B03604FF4802317
:101AA8004360002383600122C26004210161037541
:101AB800437582610377C3620363436380F83830F8
:101AC80001F0C2FE002840F00C821F4C204602F0B4
:101AD80063FC1F4B1593092316930523179340F2B4
:101AE800FF7318930423199300231A938DF8703009
:101AF80002221D9201228DF878208DF879308DF818
:101B08007A3080221F9220928DF8843015A92046C1
:101B180002F0C8F8002840F0E6810E4B159340F219
:101B28000F13169315A9084802F0BCF8002840F0D6
:101B3800DC8111E000440258000C025800100258E1
:101B4800A804002400000140CC0300240021024026
:101B58000800900C0000B84F00230A930B930C93D5
:101B68000D93159316931793189319930E930F9338
:101B780010931193079308930993B448B44A0260E9
:101B88006322426083604FF0FF32C2600361836169
:101B980006F076FF002840F0AA814FF480530A939C
:101BA8000AA9AA4807F024FA002840F0A281A74809
:101BB80006F0C6FF002840F09E81042315935023A9
:101BC80016930023179318930A23199315A99F486E
:101BD80007F092FB002840F0908100220E9201232A
:101BE8000F9310920A2311930EA9984807F050F901
:101BF800002840F0848102230E930F9304220EA93B
:101C0800924807F045F9002840F07B8100230793AC
:101C1800099307A98D4807F0AFFF002840F07381AA
:101C280000218A4807F0CAFC002840F06E81042190
:101C3800864807F0C3FC002840F069818548864B38
:101C48000360032343600023836040F6C312C2602D
:101C5800036143618023836106F012FF002840F08E
:101C6800588100230E930F9310931593169317938F
:101C7800189319931A931B937848794A02604FF482
:101C88008022426083600122C260042101610375E1
:101C9800427503228261037743628362C2620363EF
:101CA800436380F8383001F0CFFD002840F03381DD
:101CB80000230E930EA9694802F0DCFA002840F0D0
:101CC8002C81684B1593062316930523179340F22E
:101CD800FF7318930423199300231A938DF86D301A
:101CE80015A95E4801F07AF9002840F0188104230C
:101CF80017935D4B15930C23169315A9574801F0BC
:101D08006DF9002840F00D81584B15931223169356
:101D180015A9524801F062F9002840F00481002317
:101D2800169318931A931C930E930F93109350487D
:101D38004FF0804202604360836040F6FF72C260E9
:101D480003618023836103231593012217920A23D9
:101D580019931B921D9315A906F022FF002840F045
:101D6800E48000230E9310930EA9414807F004FF66
:101D7800002840F0DC803C213D4807F0BAFD0028EF
:101D880040F0D780642000F059FF3A4C08212046E3
:101D980007F0AEFB0421204607F0AAFB00212046ED
:101DA80007F0A6FB0821204607F0AAFE04212046DA
:101DB80007F0A6FE0021204607F0A2FE2E4B1B7856
:101DC800002B00F0B8802B4C0821204607F0CCFAF5
:101DD8000421204607F0C8FA0021204607F0C4FA7B
:101DE8000821204607F002FE0421204607F0FEFDE8
:101DF8000021204607F0FAFD23680024DC639C6379
:101E08005C631E4D40F2FF722146284601F034FE05
:101E180040F2FF722146114801F02EFE4FF47A700D
:101E280000F00CFFFFF70CFB284601F079FE144E7A
:101E3800DFED148A9FED148A0821304604F036F845
:101E4800124C20711021304622E000BF8C0500247E
:101E5800000C0040F40400240048014068030024FA
:101E680000200240400020191000C010000180210D
:101E780040050024A80400245A030024CC030024AD
:101E8800000C025800401C46009837470000002408
:101E980004F00CF860717A4DB0EE680A6888FFF7B4
:101EA80083FB84ED070AB0EE480AA888FFF77CFB9D
:101EB80084ED060A734BE269C3F8D42083ED360A31
:101EC800BAE772B6FEE772B6FEE772B6FEE772B61A
:101ED800FEE772B6FEE772B6FEE772B6FEE772B6C6
:101EE800FEE772B6FEE772B6FEE772B6FEE772B6B6
:101EF800FEE772B6FEE772B6FEE772B6FEE772B6A6
:101F0800FEE772B6FEE772B6FEE772B6FEE772B695
:101F1800FEE772B6FEE772B6FEE772B6FEE772B685
:101F2800FEE772B6FEE772B6FEE772B6FEE772B675
:101F3800FEE772B6FEE700224FF40041524803F074
:101F4800BBFF524F26469FED4A9B9FED4B8BDFF818
:101F5800408113E033680024DC639C635C630821E0
:101F6800304607F0C5FA0421304607F0C9FD21467E
:101F7800304607F0C5FD3B78092B29D8B8F8023060
:101F8800012B7FF420AF3B7801333B7008213046AA
:101F980007F0EAF90421304607F028FD0021304611
:101FA80007F024FD33680022DA639A635A63042435
:101FB80040F2EE254FF028093368DD639D635D63C9
:101FC800484600F03BFE631E13F0FF04F4D1C1E75E
:101FD8002F4C4FF0000884F802800125E5702D4B46
:101FE8001B685B6AE360D4ED0D7A9FED2B7A37EEC0
:101FF800677ADFED2A7A27EE277A37EE077AB7EE87
:10200800C77AB0EE480B17EE090BB7EEC00B84ED9C
:102018000E0A9FED23AAF0EE4A0A08F0FDF984EDB6
:102028000E0AC0EE0A7A9FED1F7A67EE877AFCEEF9
:10203800E77A17EE903A9BB263612A464FF4004163
:10204800114803F039FF184C4146204607F0B8FB09
:102058000421204607F0B4FB204606F088FB204602
:1020680000F080FC114B1D7071E700BFAFF30080DA
:10207800182D4454FB21094000000040ED29993FE8
:1020880054030024E0010024000C02585E030024DD
:1020980000000024400500240000C8420AD7233C61
:1020A800DA0FC940000080458C0500245A0300243B
:1020B800802800D070470E4B1A7882F001021A70FF
:1020C8005B780133DBB2FF2B0DD0094A5370094B03
:1020D8001B78022BEED1064B0022DA65064B1B68F3
:1020E80000225A62E6E7024B00225A70EFE700BF6F
:1020F800000000245A03002440050024037F012B1C
:1021080000D0704710B50446002106F063FB07EEC7
:10211800900AF8EE677A114BC3ED0C7AF5EE407A27
:10212800F1EE10FA00D110BD0421204606F052FB52
:102138000A4B93ED0C7A642202FB00F007EE900A3A
:10214800F8EE677AC7EE876AC3ED0D6ADFED046AB9
:10215800C6EE877AC3ED0F7AE5E700BF00000024DA
:1021680000247449B0EEC00A254B9B88B3F5807FE4
:102178001CD0012B3BD1DFED237AB4EEE70AF1EE58
:1021880010FA37D9DFED207AB4EEE70AF1EE10FA4B
:1021980033DADFED1C7A30EE670A9FED1C7AC0EE69
:1021A800077AB0EE080A27EE800A7047DFED157A45
:1021B800B4EEE70AF1EE10FA13D9DFED137AB4EEB4
:1021C800E70AF1EE10FA0FDADFED0E7A30EE670A61
:1021D8009FED0E7AC0EE077AB8EE080A27EE800A5D
:1021E80070479FED0B0A7047B8EE080A70479FEDDD
:1021F800080A70479FED060A7047B0EE080A704754
:102208000000002400803B4400803B4500A00C45B2
:102218000000000038B50268144B9A4200D038BD5F
:10222800134C94ED170AFFF727FA124D94ED1F7A15
:10223800B0EEC77AB7EEC77A85ED067B0E4B1B88E2
:1022480007EE903AF8EEE77A9FED0C7A67EE877A18
:1022580077EEA77AC4ED267A94ED210AFFF782FF7C
:10226800B7EEC00A85ED2C0BD9E700BF0048014046
:1022780000000024E0010024540300240A0253381B
:102288001E4B1B7873B91D4B01221A701C4B5B68DF
:10229800BBB91C4B5B7853B901231A4A5370184ACF
:1022A800536014E0184B1B68184A1A607047134BA8
:1022B80000221A7001225A70134B1B68134A1A60C5
:1022C80070475A1C092B0E4B08BF00225A6010B5E4
:1022D800FEF7BAF9094B00221A705B7813B9094B5B
:1022E8005B7803B910BD054C01236370FEF7D0FF7E
:1022F80000236370034A5370F4E700BF50030024BF
:10230800E405002464030024D8B00008DCB0000809
:1023180038B52DED028B02689B4B9A4202D0BDEC7A
:10232800028B38BD0446092101F09CFC974D28809A
:1023380040F20F11204601F095FC6880944B1B7801
:10234800012B02D0022BEAD13DE02A88914B196873
:102358000A441A60904B196811FA80F018608F4986
:102368000B8801339BB20B80B3F5805FD7D38C4BBE
:10237800120B1A80000B58800022864B1A60864B7D
:102388001A600A80874B18680121816240F6C311E0
:10239800C162D960844B1968844B5869486200212E
:1023A8009966596619664FF40041814803F084FD27
:1023B80003228049804801F0B5F8804806F07CF98E
:1023C800734B02221A7001224FF4E051784803F04F
:1023D80073FD6E490B88724A10881B1A07EE103A73
:1023E800B8EEC77ADFED766A27EE267AB7EEC77AB7
:1023F800744D85ED0E7B4B8852889B1A06EE103A79
:10240800B8EEC66A26EE266AB7EEC66A85ED0C6B8C
:102418009FED5B5B35EE466B36EE477B85ED0A7BC1
:10242800614B1B685B6A614C236107EE903AB8EE1A
:10243800670ADFED657A20EE270A84ED170A9FED1B
:10244800638AF0EE480A07F0E7FF84ED170AF0EE1A
:10245800087A20EE270A84ED180AF0EE480A07F0F9
:10246800DBFF84ED180AB7EEC00A85ED080BFFF70D
:1024780007FF574B93ED007BF7EEC75BC4ED1B5A84
:1024880093ED026BB7EEC66B84ED1C6A93ED047B8B
:10249800B7EEC77B84ED1D7AD4ED166AF4EEE65AE2
:1024A800F1EE10FA4ADDC4ED1B6AB4EEE66AF1EE0D
:1024B80010FA4EDD3D4BC3ED1C6AB4EEE67AF1EE40
:1024C80010FA51DD394BC3ED1D6A3848D0ED1B7A3F
:1024D80087EEA67A9FED3F6A27EE067A37EE067AF0
:1024E800BCEEC77A17EE103A99B2C180D0ED1C7ACB
:1024F80087EEA67A27EE067A37EE067ABCEEC77A1A
:1025080017EE103A9AB2028190ED1D7AC7EE267A3C
:1025180067EE867A77EE867AFCEEE77A17EE903ADF
:102528009BB243811F48006841638263C3630022F2
:102538004FF4E0511E4803F0BFFCF0E6F1EE667A76
:10254800F4EEE75AF1EE10FAAFD5184BC3ED1B7A4B
:10255800ABE7F1EE667AB4EEE76AF1EE10FAACD5C5
:10256800124BC3ED1C7AA8E7F1EE667AB4EEE77A6F
:10257800F1EE10FAA9D50D4BC3ED1D7AA5E700BF02
:10258800000000000000000000210240E0050024D7
:102598005A030024D8050024DC0500245C03002429
:1025A80060030024A804002440050024000000243F
:1025B800000C02585403002468030024F404002487
:1025C800FDD8243DE0010024DC0FC93ADA0FC940E8
:1025D800C002002400409C4472B6FEE782B0074B5C
:1025E800D3F8F42042F00202C3F8F420D3F8F43010
:1025F80003F002030193019B02B0704700440258A4
:1026080030B58BB00023059306930793089309937D
:102618000368514A934204D0504A93426AD00BB09F
:1026280030BD04464E4A136801331360012B50D065
:102638004C4BD3F8E02042F00402C3F8E020D3F872
:10264800E02002F004020192019AD3F8E02042F05F
:102658002002C3F8E020D3F8E03003F0200302930F
:10266800029B302305930325069505A93E4803F0F0
:1026780049FA4FF48053059306950025079505A957
:102688003A4803F03FFA3A483A4B0360092343605B
:102698008560C5604FF4806303614FF40063436154
:1026A8004FF4005383614FF48073C3614FF4803358
:1026B8000362456202F060F9C8B92D4BE3649C637C
:1026C80000221146122001F08FFE122001F0C0FEF8
:1026D800A5E7244BD3F8D82042F02002C3F8D8202D
:1026E800D3F8D83003F020030093009BA0E7FFF74E
:1026F80073FFE2E71A4A136801331360012B1DD0F8
:10270800184BD3F8E02042F00102C3F8E020D3F8D8
:10271800E03003F001030493049B60230593032333
:10272800069305A9144803F0EDF90022114612207A
:1027380001F05AFE122001F08BFE70E7094BD3F826
:10274800D82042F02002C3F8D820D3F8D83003F0BC
:1027580020030393039BD3E700200240002102409B
:10276800EC050024004402580008025800140258DE
:1027780030040024100002400000025800B58BB05D
:1027880000230593069307930893099303682D4A3A
:10279800934208D02C4A934213D02C4A93423BD000
:1027A8000BB05DF804FB2A4BD3F8F02042F001028D
:1027B800C3F8F020D3F8F03003F001030193019B34
:1027C800EEE7234BD3F8E82042F00802C3F8E820EC
:1027D800D3F8E82002F008020292029AD3F8E02027
:1027E80042F00102C3F8E020D3F8E03003F001031F
:1027F8000393039B0123059302230693099305A9D9
:10280800144803F07FF900220421322001F0ECFD86
:10281800322001F01DFEC3E70D4BD3F8F02042F43F
:102828008022C3F8F020D3F8F03003F48023049317
:10283800049B00220321762001F0D6FD762001F0CA
:1028480007FEADE700000140000C004000480140D1
:10285800004402580000025830B589B000230393A1
:1028680004930593069307930368B3F1804F01D04F
:1028780009B030BD214BD3F8E82042F00102C3F87B
:10288800E820D3F8E82002F001020092009AD3F879
:10289800E02042F00102C3F8E020D3F8E02002F083
:1028A80001020192019AD3F8E02042F00202C3F833
:1028B800E020D3F8E03003F002030293029B4FF4C8
:1028C80000430393022504950124079403A90C48A7
:1028D80003F018F908230393049500250595069538
:1028E800079403A9074803F00DF92A4621461C203E
:1028F80001F07AFD1C2001F0ABFDB9E70044025855
:10290800000002580004025800B587B00023019364
:10291800029303930493059302680F4B9A4202D0E3
:1029280007B05DF804FB0D4BD3F8E02042F010022D
:10293800C3F8E020D3F8E03003F010030093009BC5
:102948004FF47C530193022302930123059301A9B9
:10295800034803F0D7F8E3E70000014000440258B9
:102968000010025808B50368154A934206D0154A64
:1029780093420BD0144A934217D008BD134AD2F899
:10298800F03023F00103C2F8F030F6E70F4AD2F82E
:10299800E83023F00803C2F8E83001210C4803F0BE
:1029A800CFF9322001F062FDE7E7084AD2F8F030AB
:1029B80023F48023C2F8F030762001F057FDDCE7DD
:1029C80000000140000C004000480140004402584B
:1029D80000000258FEE7FEE7FEE7FEE7FEE7704765
:1029E8007047704708B500F017F908BD08B50248E8
:1029F80002F0CCFB08BD00BF3004002408B5034832
:102A080000F040F9024800F03DF908BD68030024D1
:102A1800CC03002408B5802003F054FA08BD000058
:102A280008B5024805F0F2FE08BD00BF40050024C5
:102A380008B5024805F0EAFE08BD00BF8C05002471
:102A480008B5024805F0E2FE08BD00BFF404002402
:102A5800274AD2F8883043F47003C2F88830254BEF
:102A68001B6803F00F03062B06D8224A136823F0CD
:102A78000F0343F0070313601F4B1A6842F001026B
:102A88001A6000221A6119681C4A0A401A60194B18
:102A98001B6813F0080F06D0164A136823F00F03BB
:102AA80043F007031360144B00229A61DA611A623B
:102AB800134999621349D962134919635A6399638F
:102AC800DA6319645A64196821F4802119601A6656
:102AD8000E4B1A680E4B1340B3F1005F03D20D4B37
:102AE8000122C3F808210C4B43F2D2021A60704746
:102AF80000ED00E000200052004402587FEDF6EAA5
:102B0800000202020000FF01800201010010005CC7
:102B18000000FFFF0080005100400052DFF834D071
:102B2800FFF796FF0C480D490D4A002302E0D458E0
:102B3800C4500433C4188C42F9D30A4A0A4C0023FF
:102B480001E013600432A242FBD307F0C5F8FEF798
:102B580073FE7047000008240000002410010024C0
:102B6800B8BC000810010024F4050024FEE70000AA
:102B78000F4B1B780BB90120704710B504464FF472
:102B88007A70B0FBF3F30B4A1068B0FBF3F001F076
:102B980081FC0F2C00D808B1012010BD002221466D
:102BA8004FF0FF3001F020FC034B1C600020F4E7DD
:102BB800A40000249C000024A800002410B50320D1
:102BC80001F000FC03F010FD0F498B690F4AC3F3B5
:102BD8000323D35C03F01F03D8408B6903F00F0372
:102BE800D35C03F01F0320FA03F3094A1360094B6F
:102BF80018600F20FFF7BCFF10B10124204610BD5C
:102C08000446FFF7EBFCF9E700440258E4B000087B
:102C1800A00000249C000024034A1168034B1B7881
:102C28000B441360704700BFF0050024A400002483
:102C3800014B1868704700BFF005002438B50446FA
:102C4800FFF7F6FF0546B4F1FF3F02D0044B1B78AF
:102C58001C44FFF7EDFF401BA042FAD338BD00BF6C
:102C6800A4000024014B1868000C70470010005C99
:102C78007047704708B5806BFFF7FBFF08BD7047CA
:102C880070470000F8B5044603681D685E689F4AEF
:102C9800934255D002F58072934251D09C4B9F6865
:102CA80007F01F0715F0020F10D016F0020F0DD015
:102CB800636D13F0100F03D1636D43F40063636514
:102CC800204600F0EEFF236802221A6015F0040F78
:102CD80002D016F0040F05D115F0080F40D016F0F9
:102CE800080F3DD0636D13F0100F03D1636D43F4EB
:102CF800007363652368DA6812F4406F2AD1854A45
:102D0800934200F00B81DA6812F4005F22D11A684E
:102D180012F0080F1ED09A6812F0040F12D15A68E8
:102D280022F00C025A60636D23F480736365636D4F
:102D380013F4805F0ED1636D43F00103636509E00E
:102D4800754BACE7636D43F010036365A36D43F007
:102D58000103A3652046FFF78BFF23680C221A6046
:102D680015F0200F02D016F0200F05D115F0400FF6
:102D780048D016F0400F45D0636D13F0100F03D103
:102D8800636D43F4005363652368DA6C02F4C07220
:102D9800D86860498B4200F0AE80D96862BB11F0F8
:102DA800007F05D001F4005200F44060024323D1B3
:102DB8001A6812F0400F1FD011F4001F1CD19A6836
:102DC80012F0080F10D15A6822F060025A60636D41
:102DD80023F480536365636D13F4807F0CD1636DB6
:102DE80043F00103636507E0636D43F01003636517
:102DF800A36D43F00103A3652046FFF789FA236812
:102E080060221A6015F0800F02D016F0800F37D1BB
:102E180015F4807F02D016F4807F3CD115F4007F32
:102E280002D016F4007F42D115F0100F21D016F011
:102E3800100F1ED0236B73B1002F46D02368334A7E
:102E4800934240D002F5807293423CD0304B9B684D
:102E580013F4404F0AD0636D43F480636365A36D38
:102E680043F00203A3652046FFF70AFF23681022F8
:102E78001A6015F4806F02D016F4806F2BD1F8BD5C
:102E8800636D43F4803363652046FFF7F8FE2368DB
:102E980080221A60BCE7636D43F400336365204603
:102EA80000F0FDFE23684FF480721A60B6E7636D88
:102EB80043F480236365204600F0F2FE23684FF454
:102EC80000721A60B0E7144BC1E72368DB6813F09F
:102ED800030FCBD0BFE7636D43F480436365A36DF5
:102EE80043F00803A36523684FF480621A60204604
:102EF80000F0D4FEC3E7B91F01297FF64EAF002FBB
:102F08003FF44BAF0149C96848E700BF00200240C1
:102F1800006302580021024000230240092F06D80E
:102F280040F22122FA4012F0010F7FF4ECAE014A80
:102F3800D268E9E60020024008B50346806B426D7E
:102F480012F0500F30D1436D43F4007343650368AA
:102F58001A6812F0080F14D0DA6812F4406F20D102
:102F6800DB6813F4005F1CD1436D23F48073436561
:102F7800436D13F4805F14D1436D43F0010343653F
:102F88000FE0DB6813F0030F0BD1436D23F480735C
:102F98004365436D13F4805F03D1436D43F0010330
:102FA8004365FFF765FE08BD426D12F0100F04D1AE
:102FB800C26CD26C18469047F5E7FFF761FEF2E75E
:102FC80008B5806B436D43F040034365836D43F060
:102FD80004038365FFF754FE08BD000070B582B096
:102FE8000022019290F85020012A00F01082034636
:102FF800012280F850200068826812F0040F09D07E
:103008005A6D42F020025A650120002283F85020B0
:1030180002B070BD0A68002A09DBC2F31304002C51
:1030280048D1920E01249440C2692243C261486883
:103038004FEA901E0EF00C0E1A6802F1300C5EF882
:103048000C4000F01F000A68C2F3846282401F250A
:1030580005FA00F024EA000002434EF80C201C6830
:10306800A268A06800F0080002F0040202432AD017
:103078001868826812F0010F40F0BF810C68D0F820
:10308800C050CA6802F0180CB74A22FA0CF2224063
:10309800C4F3130425EA04042243C0F8C020C86816
:1030A800B24A904200F0B0800A68002AC0F22E812D
:1030B8000020AAE792FAA2F2B2FA82F202F01F0204
:1030C80001249440B0E70D684FEAD55C0CF0040C7D
:1030D80014345CF80400C5F304554FF0070E0EFADB
:1030E80005FE20EA0E008E6806FA05F528434CF81E
:1030F80004009F48006800F07040B0F1805F0CD079
:103108001868C46814F0100F41D1C468C4F382046D
:103118006400486900FA04F407E01868C468C4F356
:1031280082046400486900FA04F40D69042D36D05D
:10313800186800F1600C5CF82560086800F0F84039
:1031480006F0004E40EA0E0020434CF825001C68AB
:103158000D69487E012814BF16464FF000466034BA
:1031680054F8250020F00040304344F825001D683D
:103178000C69087E012808BF4FF40062286904F032
:103188001F04A24020F4F04002432A6170E7C4689B
:10319800640804F00804486900FA04F4C5E71868EC
:1031A800026E02F0F8420C68B2EB846F1DD018680A
:1031B800426E02F0F8420C68B2EB846F1AD01868BD
:1031C800826E02F0F8420C68B2EB846F17D0186870
:1031D800C26E02F0F8420C68B2EB846F7FF448AF1D
:1031E800C26E22F00042C26642E7026E22F000423E
:1031F8000266DCE7426E22F000424266DFE7826E3A
:1032080022F000428266E2E71C680A68C2F31300F3
:10321800B8B9900E013000F01F05092D3ED9920E65
:10322800013202F01F00920602F0F84201258540A3
:10323800154300EB40021E3A120542F000722A4381
:1032480036E092FAA2F0002843D0B0FA80F00130BC
:1032580000F01F0009283CD992FAA2F5B5FA85F5C5
:103268000135AD0605F0F84092FAA2F5B5FA85F5F4
:10327800013505F01F05012606FA05F5054392FA02
:10328800A2F0B0FA80F0304400F01F0000EB4000DC
:10329800A0F11E02120542F00072D0E7800600F08D
:1032A800F8400122AA40104305EB450212050243EB
:1032B800D50D05F0040514342859C2F30452072625
:1032C800964020EA06008E6806FA02F202432A5166
:1032D800EAE692FAA2F0B0FA80F00130800600F037
:1032E800F84592FAA2F0B0FA80F0013000F01F061B
:1032F8000120B040284392FAA2F2B2FA82F20132D7
:1033080002F01F0202EB42021205D0E719681948C1
:1033180081427ED000F5807081427AD0164880685C
:1033280000F0E075154CA46814F0010F7ED1124E20
:1033380000E0134E134CA2420DD0134CA24242D0CF
:10334800124CA24261D110F4800F02D10B4A914273
:103358004AD0002059E610F4000F50D1074A914294
:1033680016D0002051E600BFFFFF0F000000FF4706
:103378000010005C00200240006302580060025800
:1033880000230240000084CB000052C70000B8CFE1
:10339800B26822F0E0722A4342F40002B260264A80
:1033A800126892092549A1FB0212920901325200C2
:1033B8000192019A2AB3019A013A0192019A002ACC
:1033C800F9D1002021E610F0807F1CD11C4A9142DF
:1033D80001D0002019E6B26822F0E0722A4342F0D8
:1033E8008072B260002010E6B26822F0E0722A43D0
:1033F80042F48002B260002007E6002005E60020C3
:1034080003E6002001E60020FFE50020FDE502209C
:10341800FEE50C48806800F0E0750B4CA66804F5E2
:103428008074A468344314F0010F82D05A6D42F0BE
:1034380020025A650120E8E59C000024632D3E0522
:1034480000600258002302400020024003689A6886
:1034580012F0010F57D170B5044699682C4A1142F1
:1034680009D0436D43F010034365836D43F00103B6
:103478008365012070BD9968264A0A4042F001021E
:103488009A60FFF7D5FB05462368234A93420BD081
:1034980002F58072934207D0204A92681A6812F0A7
:1034A800010F32D11B4E0FE01D4A9168A2F5007240
:1034B8009342F3D111F01F0FF0D00020DAE7236810
:1034C8001A6812F0010F1CD19A6812F0010F04D18A
:1034D8009A68324042F001029A60FFF7A9FB401B4C
:1034E8000228ECD923681B6813F0010FE7D1636D3C
:1034F80043F010036365A36D43F00103A365012046
:10350800B8E70020B6E7002070470020B2E700BF08
:103518003F000080C0FFFF7F002002400063025888
:1035280000230240F8B504460D46164600683D499A
:10353800884262D03C4B98425FD001F1C05101F5FE
:1035480086418F68816811F0040F67D194F8502084
:10355800012A65D007F01F07012384F85030092F8E
:1035680057D840F22123FB4013F0010F51D02046D9
:10357800FFF76CFF002848D1626DA0F60273134074
:1035880043F4807363652268274B9A4237D0636D92
:1035980023F480136365636D13F4805F32D0A36DE9
:1035A80023F00603A365E36C204ADA63E36C204A40
:1035B8001A64E36C1F4ADA6423681C221A60002329
:1035C80084F850302268536843F01003536022682F
:1035D800D36823F00303E16A0B43D36021683346C1
:1035E8002A464031E06C01F0F1FB22689168124BE9
:1035F8000B4043F00403936011E01049A1E7002F4A
:10360800C9D1C4E70023A365CDE7002384F850306F
:1036180005E0002384F85030012000E00220F8BDC6
:103628000220FCE70020024000210240412F000850
:103638007D2C0008C92F0008C0FFFF7F002302402F
:1036480038B503689A68996812F0020F03D10446E6
:1036580011F0010F01D1002038BD9A6802F00D0267
:10366800012A09D0436D43F010034365836D43F08D
:10367800010383650120EFE79968164A0A4042F082
:1036880002029A60036803221A60FFF7D1FA05461E
:1036980023689B6813F0010F06D10020DCE723683C
:1036A8009B6813F0010F13D0FFF7C2FA401B0228E2
:1036B800F5D923689B6813F0010FF0D0636D43F0D0
:1036C80010036365A36D43F00103A3650120C3E7FD
:1036D8000020C1E7C0FFFF7F38B504460368524A9F
:1036E80093420BD002F58072934207D04F4B9B68F0
:1036F80013F4403F14BF0123002306E04C4B9B68A2
:1037080013F4403F14BF012300239BB94FF400205A
:10371800002104F043FB05466368B3F5101F57D03A
:1037280042D8B3F5E01F51D026D9B3F5001F0ED10A
:1037380045090CE003F0A8F905466368B3F5003FB6
:1037480014D0B3F5403F15D0B3F5803F0ED0FFF746
:1037580089FA41F20303984249D8364B9D422FD942
:103768002268936843F48073936038BD1B0CB5FBE3
:10377800F3F5ECE78508EAE7B3F5801F0FD006D923
:10378800B3F5A01F0BD0B3F5C01F08D0DFE7B3F522
:10379800002F04D023F40022B2F5802FD7D19B0C40
:1037A8005B00B5FBF3F5D2E7B3F5201F12D0B3F5F4
:1037B800301FCCD1FFF756FA41F2030398420BD8D9
:1037C8002268936823F480739360CEE70509BEE707
:1037D8008509BCE7C509BAE7174B9D420AD9226893
:1037E800936823F4407343F480739360BDE7134BED
:1037F8009D4205D82268936823F440739360B4E728
:103808000F4B9D42EBD90F4B9D4207D82268936816
:1038180023F4407343F400739360A6E72268936827
:1038280043F440739360A0E700200240006302580D
:1038380000230240002D3101FF21BCBE21BCBE0087
:1038480041787D0181F0FA0270B582B000230193BE
:10385800002800F0F8800446436D002B42D023680E
:103868009A6812F0005F03D09968784A0A409A6013
:1038780023689A6812F0805F16D19968744A0A40E2
:1038880042F080529A60734B1B689B09724AA2FBF4
:1038980003239B0901330193019B2BB1019B013B3E
:1038A8000193019B002BF9D121688B6813F0805F8D
:1038B8001FD1636D43F010036365A36D43F00103EB
:1038C800A36501258B68626D02F0100203F0040302
:1038D800134310D0636D43F0100363650125284638
:1038E80002B070BDFEF78CFE0023A36584F850304B
:1038F800B5E70025E6E7636D23F4817343F002031F
:1039080063658B6813F0010F12D1544B994265D04F
:1039180003F58073994261D0514B9B6813F0010FF6
:1039280006D1504A936823F47C1361680B43936073
:10393800FFF798F941F20303984202D9A368102BC4
:1039480057D0236BA2681343627D43EA4233227F38
:1039580043EA0243227F012A55D0626A22B102F467
:103968007872A16A0A4313432168C8683E4A024034
:103978001343CB6021688B688A6802F0080203F061
:10398800040313431BD1C868227D384B034043EA24
:103998008233E26A1343CB6094F83830012B37D076
:1039A8002268136923F0010313612268136923F065
:1039B8007043616B0B4313612046FFF78DFEE3688C
:1039C800012B37D02268136B23F00F031363636D49
:1039D80023F0030343F00103636580E71F4B9A68F4
:1039E80003F580739B68134313F0010FA0D1204A9D
:1039F80098E7627D237F1B0443EA4233226B13431B
:103A080043F01C03A6E7226A013A43EA4243A4E7CB
:103A180021680869E36B5A1E236C666C334343EADA
:103A28000243A26C1343134A0240134343F00103B9
:103A38000B61BAE721680A6BA369013B22F00F0208
:103A480013430B63C3E7012549E700BFC0FFFF5FCE
:103A5800C0FFFF6F9C000024632D3E05002002403C
:103A6800006002580063025803C0F0FFFCBFFFFF6C
:103A7800002302401EF800FC70B582B000230193B9
:103A880090F85030012B42D004460D4616460123CB
:103A980080F85030FFF7D4FD00282FD1626D1D4B00
:103AA800134043F002036365226891681A4B0B4088
:103AB80006F08046334305F480352B4343F000433A
:103AC8009360226815499368002B06DB636D23F029
:103AD800030343F00103636514E0019B0133019381
:103AE800019B8B42EFD3636D23F0120343F0100365
:103AF8006365002384F85030012006E0636D43F0CD
:103B080010036365002384F8503002B070BD0220B2
:103B1800FBE700BFFDEEFFFFC0FFFE3F00F8C32537
:103B280038B5044603684A4A934264D002F5807265
:103B3800934260D002F1C05202F5844295689A68B7
:103B480012F0080F76D1DA68DB6C13F4C07F01D16C
:103B5800002A52DA94F85030012B6DD0012384F8F2
:103B680050302046FFF772FC00285FD1636D13F4D4
:103B7800807F48D0A36D23F00803A36505F01F05D7
:103B8800626D344B134043F4805363652368324AB3
:103B980093423BD0B5FA85F25209616D21F4801148
:103BA800616560211960002384F850302368D96862
:103BB80011F4001F03D0596841F4806159602369EA
:103BC800082B28D021684B6823F040034B602168FC
:103BD8004B6843F020034B6023681F498B422DD06C
:103BE800DA6812F0007F26D199681C4A0A4042F030
:103BF80008029A601FE01A4AA0E7636D43F02003A9
:103C08006365012017E00023A365B7E70DB1002223
:103C1800C7E70122C1E721684B6823F020034B6006
:103C280021684B6843F040034B60D5E7002384F8D4
:103C3800503000E0022038BD0220FCE7063D012D8F
:103C4800CED9002ACCD1636D43F480136365F2E7C3
:103C580000200240FECFFFFF00210240C0FFFF7F8F
:103C68000023024040F2152399420FD040F21B3343
:103C7800994207D040F20F1399420BD00368D3F84A
:103C8800800070470368D3F88C0070470368D3F846
:103C9800880070470368D3F88400704770477047FE
:103CA80070477047F0B583B0034600220192C068A0
:103CB80093F85020012A00F0C882012283F850208E
:103CC800A8B10A6A012A12D0186E002840F0A8800C
:103CD8001A660022DA658D6A002D00F09E800A6A55
:103CE800013A05F07C052A43CD6A154399E04A68F4
:103CF800092A74D01868826812F0080F1FD10A6860
:103D0800002A0ADBC2F31304002C40F0A980920EAB
:103D180001249440C2692243C26191F82520002AF7
:103D280040F0A7801C68E06891F8265091F824209C
:103D3800120542EA455220F440100243E2601C6832
:103D4800A268A06800F0080002F00402024340F0F4
:103D58005581886A18B1C86A002840F0948091F8A3
:103D680025000128E0680CBF40F0007020F00070CA
:103D7800E060002091F83040012C00F093801D682D
:103D88002C6924F002042C610D684FEAD55E0EF010
:103D9800040E1C6804F1140C5EF80C40C5F30455BD
:103DA8000726AE4024EA06048E6806FA05F52C4379
:103DB8004EF80C40B44C246804F07044B4F1805FB1
:103DC8007ED01C68E56815F0100F40F0A380E56808
:103DD800C5F382056D004C6904FA05F578E0886A38
:103DE800B0B10A68520C02F4785200F07C00CC6A38
:103DF800204302431C68E06C20F07B4020F46F00F5
:103E080020F43F4020F0FF001043E064DA6571E7DA
:103E18000A68520C02F47852ECE70A6A551E00E070
:103E280000250868C0F384604A6802F01F0200FA9F
:103E380002F21C6E013C1C66D86D02432A43DA6507
:103E4800002C7FF457AF1C68E06C20F07B4020F416
:103E58006F0020F43F4020F0FF000243E26449E78E
:103E680092FAA2F2B2FA82F202F01F0201249440FE
:103E780050E71868C26891F8264022F4401242EAD6
:103E88004452C2605BE791F82500012805D0E0683C
:103E980020F00070E06000206CE75C6D44F02004C6
:103EA8005C6567E71E6837694C6B651E774C3C405C
:103EB8008F6B3C4344EA054444F00204346163E7F1
:103EC8001C68E568C5F382056D004C6904FA05F5C0
:103ED8000E69042E26D01C6804F1600C5CF826706C
:103EE8000C6804F0F84407F0004E44EA0E042C4332
:103EF8004CF826401D680E690C7F012C08BF4FF056
:103F08000042603555F8264024F00044224345F825
:103F1800262074E0E5686D0805F008054C6904FA88
:103F280005F5D5E71E68326E356EC5F384650A68F7
:103F3800C2F31304002C35D1C2F38464A54236D0F1
:103F48001E68726E756EC5F384650A68C2F3130441
:103F5800002C34D1C2F38464A54235D01A6802F12A
:103F68006006946E956EC5F384650A68C2F31304FF
:103F780094BBC2F38464A54233D01E68F26EF56E1A
:103F8800C5F384650A68C2F3130494BBC2F384645E
:103F9800A54234D1F46E04F0004402F0F842224302
:103FA800F2662CE092FAA2F4B4FA84F4C6E7346E0E
:103FB80004F0004402F0F84222433266C0E792FA65
:103FC800A2F4B4FA84F4C7E7746E04F0004402F073
:103FD800F84222437266C1E792FAA2F4B4FA84F472
:103FE800C9E7F46804F0004402F0F8422243F260A2
:103FF800C3E792FAA2F4B4FA84F4C9E700201C6873
:10400800A26812F0010F18D10D68D4F8C060CA6810
:1040180002F0180C1E4A22FA0CF22A40C5F31305C6
:1040280026EA05052A43C4F8C020CC68194A9442F8
:1040380008D00A68002AC0F29880002283F850202D
:1040480003B0F0BD1D680A68C2F3130424BB940EC4
:10405800013404F01F06092E4FD9920E013202F0E6
:104068001F04920602F0F8424FF0010C0CFA04FC0F
:1040780042EA0C0C04EB44021E3A120542F00072AC
:1040880042EA0C0243E000BF0010005C1DFE00FC89
:10409800FFFF0F000000FF4792FAA2F4002C47D060
:1040A800B4FA84F4013404F01F04092C40D992FABC
:1040B800A2FCBCFA8CFC0CF1010C4FEA8C6C0CF0E5
:1040C800F84492FAA2F6B6FA86F6013606F01F060A
:1040D8004FF0010C0CFA06FC4CEA040C92FAA2F41C
:1040E800B4FA84F4013404F01F0404EB4404A4F18A
:1040F8001E02120542F00072C2E7A40604F0F8445A
:104108000122B240144306EB460212052243D60DA3
:1041180006F0040614357459C2F304520727974071
:1041280024EA07048F6807FA02F22243725180E7F3
:1041380092FAA2F4B4FA84F40134A40604F0F8461E
:1041480092FAA2F4B4FA84F4013404F01F070124AB
:10415800BC40344392FAA2F2B2FA82F2013202F07F
:104168001F0202EB42021205D0E71968384CA1423F
:1041780026D004F58074A14222D0364CA46814F0ED
:10418800010F26D1344DAC6804F0E077334EB242CB
:1041980027D0334EB24248D0324EB2427FF44DAFB0
:1041A80014F4800F7FF449AF2A4A91427FF445AF57
:1041B800AA6822F0E0723A4342F48002AA603CE71F
:1041C800234CA56804F58074A4682C4314F0010FEF
:1041D80005D05A6D42F020025A6501202DE7224D84
:1041E800D1E714F4000F7FF428AF1A4A91427FF404
:1041F80024AFAA6822F0E0723A4342F40002AA60AF
:104208001A4A126892091A49A1FB0212920901324C
:1042180052000192019A002A3FF40FAF019A013A25
:104228000192019A002AF9D107E714F0807F7FF400
:1042380004AF084A91427FF400AFAA6822F0E07206
:104248003A4342F08072AA60F7E60220F8E600BF1F
:10425800002002400060025800630258000084CB2E
:10426800000052C70000B8CF002302409C00002481
:10427800632D3E0590F85020012A6BD010B49BB0F6
:104288000346012280F850200022169217920068F7
:104298003C4A904260D05A6D42F020025A65002292
:1042A80083F85020012068E00A6852B336488268D3
:1042B80022F440424C68224382601A68A0F540709C
:1042C800824213D000F5807082420FD02F4A926844
:1042D80012F0010F3AD12C4884680A6889680A43A9
:1042E8002B4921400A438260002043E0254A906818
:1042F80002F580729268024312F0010FEBD00020A1
:1043080038E021498A6822F440428A601A68A1F597
:1043180040718A420FD001F580718A420BD01B4A46
:10432800926812F0010F13D117498868184A0240A1
:104338008A6000201EE0134A916802F58072926834
:104348000A4312F0010FEFD0002013E0002011E023
:1043580000200FE0022070470E4A9068A2F5807294
:104368009268024312F0040F9ED05A6D42F0200268
:104378005A650120002283F850201BB05DF8044BD9
:10438800704700BF0020024000230240006002582E
:10439800E0F0FFFF0021024003689A68996801F085
:1043A800080102F004020A4309D1DA6822F0004247
:1043B800DA60436D23F48043436500207047012091
:1043C80070470000064AD368000200F4E06023F456
:1043D800E0631B041B0C1843024B0343D360704774
:1043E80000ED00E00000FA0500B5164BDB68C3F3EA
:1043F8000223C3F1070CBCF1040F28BF4FF0040CD3
:1044080003F1040EBEF1060F8CBF033B00234FF0EF
:10441800FF3E0EFA0CFC21EA0C0199400EFA03F358
:1044280022EA03021143002805DB0901C9B2064B41
:1044380019545DF804FB00F00F000901C9B2034BE1
:104448001954F6E700ED00E000E400E014ED00E0A8
:10445800002808DB420900F01F00012303FA00F0DE
:10446800014B43F82200704700E100E000280DDB13
:10447800430900F01F00012202FA00F02033044A29
:1044880042F82300BFF34F8FBFF36F8F704700BF11
:1044980000E100E00138B0F1807F0BD24FF0E0235B
:1044A8005861054AF02182F82310002098610722FC
:1044B8001A6170470120704700ED00E0F0B4866D86
:1044C8000568914C914FBD4218BFA5420CBF01240D
:1044D80000241837BD4208BF44F001041837BD4214
:1044E80008BF44F001041837BD4208BF44F0010476
:1044F8001837BD4208BF44F001041837BD4208BF51
:1045080044F001041837BD4208BF44F0010407F520
:104518005677BD4208BF44F001041837BD4208BFB2
:1045280044F001041837BD4208BF44F001041837AD
:10453800BD4208BF44F001041837BD4208BF44F02B
:1045480001041837BD4208BF44F001041837BD42C2
:1045580008BF44F001041837BD4208BF44F0010405
:104568006B4FBD4208BF44F001041437BD4208BF79
:1045780044F001041437BD4208BF44F00104143765
:10458800BD4208BF44F001041437BD4208BF44F0DF
:1045980001041437BD4208BF44F001041437BD427A
:1045A80008BF44F0010414B95A4CA54207D1446E1F
:1045B800856E6560C46E14B1046F456F65600568EB
:1045C800514C524FBD4218BFA5420CBF01240024D4
:1045D8001837BD4208BF44F001041837BD4208BF70
:1045E80044F001041837BD4208BF44F001041837ED
:1045F800BD4208BF44F001041837BD4208BF44F06B
:1046080001041837BD4208BF44F0010407F5567786
:10461800BD4208BF44F001041837BD4208BF44F04A
:1046280001041837BD4208BF44F001041837BD42E1
:1046380008BF44F001041837BD4208BF44F0010424
:104648001837BD4208BF44F001041837BD4208BFFF
:1046580044F0010414B9304CA54215D1C46D04F0DE
:104668001F053F24AC40B46005682C6824F48024FE
:104678002C60046863608368402B3AD003689960B3
:104688000368DA60F0BC7047214C244FBD4218BF64
:10469800A5420CBF012400241437BD4208BF44F0D2
:1046A80001041437BD4208BF44F001041437BD4269
:1046B80008BF44F001041437BD4208BF44F00104A8
:1046C8001437BD4208BF44F0010414B9114CA54287
:1046D800D8D1C46D04F01F050124AC40746004688F
:1046E80063608368402B09D0036899600368DA60C7
:1046F800C8E703689A600368D960C3E703689A60EB
:104708000368D960BEE700BF1000024028000240DD
:104718000854025894540258B80402401C540258D1
:104728000268344B34498A4218BF9A420CBF0123AD
:10473800002318318A4208BF43F0010318318A4226
:1047480008BF43F0010318318A4208BF43F0010350
:1047580018318A4208BF43F0010318318A4208BF62
:1047680043F0010318318A4208BF43F0010301F501
:1047780056718A4208BF43F0010318318A4208BFC4
:1047880043F0010318318A4208BF43F0010318318E
:104798008A4208BF43F0010318318A4208BF43F038
:1047A800010318318A4208BF43F0010318318A42D5
:1047B80008BF43F0010313B9104B9A4215D110B446
:1047C800D1B210390E4BA3FB0143C3F302130D4CB6
:1047D800E35CC3655F290C4B03EA020388BF04331B
:1047E8008365806D5DF8044B704722F0FF02826597
:1047F800806D70471000024028000240B804024053
:10480800ABAAAAAAF4B0000800FCFFFF0368284A74
:1048180028498B4218BF93420CBF01220022143151
:104828008B4208BF42F0010214318B4208BF42F0AC
:10483800010214318B4208BF42F0010214318B424D
:1048480008BF42F0010214318B4208BF42F0010256
:1048580012B9194A934212D1DBB2083B174AA2FB9C
:104868000323174A02EB131292000266154A4266A6
:10487800C3F30413012202FA03F383667047DAB222
:10488800103A1149A1FB0212120910491944A8292A
:104898000CD90F4B13449B0003660E4B436602F082
:1048A8001F02012303FA02F2826670470832F0E71A
:1048B800085402581C54025894540258CDCCCCCCFD
:1048C8000096001680580258ABAAAAAAF0FBFDBFB2
:1048D800008200108008024090F804C00CF1FF31FB
:1048E80007293AD810B402681C4B1D4CA24218BFC5
:1048F8009A420CBF012300231434A24208BF43F09C
:1049080001031434A24208BF43F001031434A24245
:1049180008BF43F001031434A24208BF43F0010367
:104928001434A24208BF43F0010313B90D4B9A4255
:104938000CD10D4B63449B00C3660C4B03670123EA
:1049480003FA01F141675DF8044B7047084B634473
:104958009B00C366074B0367F1E77047085402588A
:104968001C540258945402583F9600164059025855
:104978003F8200104009024038B50446FEF758F956
:10498800002C00F00C8205462268644B64498A4278
:1049980018BF9A420CBF0123002318318A4208BF6E
:1049A80043F0010318318A4208BF43F0010318316C
:1049B8008A4208BF43F0010318318A4208BF43F016
:1049C800010318318A4208BF43F0010318318A42B3
:1049D80008BF43F0010301F556718A4208BF43F04E
:1049E800010318318A4208BF43F0010318318A4293
:1049F80008BF43F0010318318A4208BF43F001039E
:104A080018318A4208BF43F0010318318A4208BFAF
:104A180043F0010318318A4208BF43F0010313B978
:104A2800404B9A421AD1022384F83530002384F887
:104A38003430136823F00103136023681A6812F0F6
:104A4800010F7DD0FEF7F4F8431B052BF5D9202381
:104A58006365032384F83530012038BD324B334970
:104A68008A4218BF9A420CBF0123002314318A429C
:104A780008BF43F0010314318A4208BF43F0010321
:104A880014318A4208BF43F0010314318A4208BF37
:104A980043F0010314318A4208BF43F001031BB9F4
:104AA800234B9A4240F06581022384F83530002375
:104AB80084F8343013681F481840A368402B00F06E
:104AC8005F81802B0CBF4FF480410021E56823698A
:104AD800DB0843EAD503656943EAD503A56943EAD8
:104AE800D503E56943EAD503256A43EA1513034369
:104AF8000B4313602268104B1344104AA2FB032394
:104B08001B099B00E3652046FFF70AFEE26D02F0F1
:104B18001F0101228A4042605EE000BF100002408F
:104B280028000240B8040240085402581C54025895
:104B3800945402580F00FEFFF8ABFDA7CDCCCCCCA7
:104B48001A689A481040A168E2680A4321690A4332
:104B580061690A43A1690A43E1690A43216A0A4370
:104B68000243616A042900F0C880914908689149A4
:104B78000140B1F1005F0DD36168A1F129001F2840
:104B880000F20F818C4921FA00F010F0010F01D0DA
:104B980042F480121A6021684A6922F00702636AA7
:104BA8001A43042B0ED1A06A0243E36A53B1A569E4
:104BB800002D40F0B880012800F0AF8030F00200EE
:104BC80000F0A0804A612046FFF7AAFDE36D03F0DC
:104BD8001F023F23934083602268784B78498A42BA
:104BE80018BF9A420CBF0123002318318A4208BF1C
:104BF80043F0010318318A4208BF43F0010318311A
:104C08008A4208BF43F0010318318A4208BF43F0C3
:104C1800010318318A4208BF43F0010318318A4260
:104C280008BF43F0010301F556718A4208BF43F0FB
:104C3800010318318A4208BF43F0010318318A4240
:104C480008BF43F0010318318A4208BF43F001034B
:104C580018318A4208BF43F0010318318A4208BF5D
:104C680043F0010318318A4208BF43F001031831A9
:104C78008A4208BF43F0010352498A4208BF43F001
:104C8800010314318A4208BF43F0010314318A42F8
:104C980008BF43F0010314318A4208BF43F00103FF
:104CA80014318A4208BF43F0010314318A4208BF15
:104CB80043F0010314318A4208BF43F0010313B9DA
:104CC800414B9A4213D12046FFF7A0FDA368802BE1
:104CD80058D0236E22791A60636EA26E5A60636898
:104CE800013B072B51D90023E36623676367002044
:104CF8006065012384F83530AFE6E16A206B014333
:104D08000A4332E7C3F30063002B3FF45BAF402351
:104D18006365012084F835009FE6B3F1C07F14BFB6
:104D280000230123F0E7B5F5005F0AD00228EED989
:104D380003287FF447AFC3F30063002B3FF442AF6F
:104D4800E5E703283FF63EAF01A555F820F000BF80
:104D5800174D0008694D0008174D00086F4D0008F1
:104D6800C3F30063E9E7B3F1C07F14BF0023012355
:104D7800E3E740236365032384F8353001206CE6BC
:104D88001021A3E600236360A3E72046FFF7A4FDF4
:104D9800E36E00221A60236F626F5A60A7E7012052
:104DA8005BE64F3903297FF6F3AEF3E63F8010FE4A
:104DB8000010005C0000FFFF3F00C0C3100002406D
:104DC800280002400854025894540258002800F061
:104DD800D28170B5044690F83400012800F0CD81E6
:104DE800012084F8340094F83500C0B2012807D0B7
:104DF8004FF400636365002384F83430012070BDEC
:104E0800022084F835000020606525689548964E94
:104E1800B54218BF85420CBF012000201836B542A4
:104E280008BF40F001001836B54208BF40F0010045
:104E38001836B54208BF40F001001836B54208BF21
:104E480040F001001836B54208BF40F0010018369E
:104E5800B54208BF40F0010006F55676B54208BFD6
:104E680040F001001836B54208BF40F0010018367E
:104E7800B54208BF40F001001836B54208BF40F0FF
:104E880001001836B54208BF40F001001836B54297
:104E980008BF40F001001836B54208BF40F00100D5
:104EA80018B97248854240F04B81286820F001000B
:104EB80028602046FFF702FB22686A4B6A498A424B
:104EC80018BF9A420CBF0123002318318A4208BF39
:104ED80043F0010318318A4208BF43F00103183137
:104EE8008A4208BF43F0010318318A4208BF43F0E1
:104EF800010318318A4208BF43F0010318318A427E
:104F080008BF43F0010301F556718A4208BF43F018
:104F1800010318318A4208BF43F0010318318A425D
:104F280008BF43F0010318318A4208BF43F0010368
:104F380018318A4208BF43F0010318318A4208BF7A
:104F480043F0010318318A4208BF43F001031BB93B
:104F5800464B9A4240F0F980136823F01E0343F051
:104F680016031360236C23B12268136843F0080307
:104F7800136022683B4B3C498A4218BF9A420CBFD7
:104F88000123002318318A4208BF43F00103183176
:104F98008A4208BF43F0010318318A4208BF43F030
:104FA800010318318A4208BF43F0010318318A42CD
:104FB80008BF43F0010318318A4208BF43F00103D8
:104FC80001F556718A4208BF43F0010318318A423D
:104FD80008BF43F0010318318A4208BF43F00103B8
:104FE80018318A4208BF43F0010318318A4208BFCA
:104FF80043F0010318318A4208BF43F00103183116
:105008008A4208BF43F0010318318A4208BF43F0BF
:10501800010317498A4208BF43F0010314318A4249
:1050280008BF43F0010314318A4208BF43F001036B
:1050380014318A4208BF43F0010314318A4208BF81
:1050480043F0010314318A4208BF43F001031431CD
:105058008A4208BF43F0010373B9064B9A421AD13A
:105068000AE000BF1000024028000240B8040240D5
:105078000854025894540258236E1A6812F4803F58
:1050880003D01A6842F480721A60E36E1BB11A6882
:1050980042F480721A602268394B3A498A4218BF32
:1050A8009A420CBF0123002318318A4208BF43F0FB
:1050B800010318318A4208BF43F0010318318A42BC
:1050C80008BF43F0010318318A4208BF43F00103C7
:1050D80018318A4208BF43F0010318318A4208BFD9
:1050E80043F0010301F556718A4208BF43F00103FA
:1050F80018318A4208BF43F0010318318A4208BFB9
:1051080043F0010318318A4208BF43F00103183104
:105118008A4208BF43F0010318318A4208BF43F0AE
:10512800010318318A4208BF43F0010313B9164B33
:105138009A421AD1136843F00103136000205EE617
:10514800286820F001002860B3E6136823F00E03F6
:1051580043F00A031360236C002B3FF40AAF226864
:10516800136843F00403136003E7136843F0010373
:105178001360002043E60120704702203FE600BF8D
:105188001000024028000240B8040240F0B583B085
:10519800044600230193954B1F68866D3568316876
:1051A8000268934B9348824218BF9A420CBF01236E
:1051B80000231830824208BF43F0010318308242AE
:1051C80008BF43F001031830824208BF43F00103CF
:1051D8001830824208BF43F001031830824208BFEA
:1051E80043F001031830824208BF43F0010300F581
:1051F8005670824208BF43F001031830824208BF4C
:1052080043F001031830824208BF43F0010318300D
:10521800824208BF43F001031830824208BF43F0BE
:1052280001031830824208BF43F00103183082425C
:1052380008BF43F001031BB96F4B9A4240F08280CC
:10524800E36D03F01F0308219940294200F0BE8353
:10525800116811F0040F00F0B983136823F00403F8
:105268001360E36D03F01F0208239340B360636D7E
:1052780043F001036365E36D03F01F0325FA03F2AE
:1052880012F0010F00F0C88022685949594882423B
:1052980018BF8A420CBF012100211830824208BF82
:1052A80041F001011830824208BF41F00101183075
:1052B800824208BF41F001011830824208BF41F024
:1052C80001011830824208BF41F0010118308242C2
:1052D80008BF41F0010100F55670824208BF41F055
:1052E80001011830824208BF41F0010118308242A2
:1052F80008BF41F001011830824208BF41F00101A6
:105308001830824208BF41F001011830824208BFBC
:1053180041F001011830824208BF41F0010111B982
:1053280035498A4251D1526912F0800F6CD1E16D32
:1053380001F01F01042303FA01F10D4200F0D980A6
:10534800226853E32D4B2E48824218BF9A420CBF65
:10535800012300231430824208BF43F001031430B4
:10536800824208BF43F001031430824208BF43F071
:1053780001031430824208BF43F001031430824213
:1053880008BF43F001031BB91E4B9A4240F0FD8150
:105398001368E06D00F01F00042585400D4200F001
:1053A800628213F0040F00F05E82756013F4004F00
:1053B80000F0F88113F4803F40F0EE81A36C002BDD
:1053C80000F0E38120469847DFE11168042101FAE3
:1053D80003F32B427AD1E36D03F01F0310219940A8
:1053E8000D4200F0108322687AE000BF9C00002480
:1053F8001000024028000240B80402400854025835
:105408001C54025894540258012202FA03F3B36060
:10541800636D43F002036365E16D01F01F0104232E
:1054280003FA01F1294264D022688E4B8E488242E9
:1054380018BF9A420CBF012300231830824208BFCC
:1054480043F001031830824208BF43F001031830CB
:10545800824208BF43F001031830824208BF43F07C
:1054680001031830824208BF43F00103183082421A
:1054780008BF43F0010300F55670824208BF43F0AD
:1054880001031830824208BF43F0010318308242FA
:1054980008BF43F001031830824208BF43F00103FC
:1054A8001830824208BF43F001031830824208BF17
:1054B80043F001031830824208BF43F00103002B78
:1054C80040F09482694B9A4200F090821368E36D31
:1054D80003F01F03102199400D4200F094822268C6
:1054E8001368C3F3800362E0B160636D43F00403A3
:1054F8006365E16D01F01F01102303FA01F12942F0
:1055080000F08182226803F1804303F50033564896
:10551800824218BF9A420CBF0123002318308242EE
:1055280008BF43F001031830824208BF43F001036B
:105538001830824208BF43F001031830824208BF86
:1055480043F001031830824208BF43F001031830CA
:10555800824208BF43F0010300F55670824208BF3B
:1055680043F001031830824208BF43F001031830AA
:10557800824208BF43F001031830824208BF43F05B
:1055880001031830824208BF43F0010318308242F9
:1055980008BF43F001031830824208BF43F00103FB
:1055A80013B9324B9A429BD11368C3F3C003002B43
:1055B80000F02982B16023681A6812F4802F11D094
:1055C8001B6813F4002F06D1236C002B00F01B82FC
:1055D8002046984717E2A36C002B00F0148220465F
:1055E800984710E21A6812F4807F03D11A6822F0F3
:1055F80008021A60236C002B00F0058220469847A9
:1056080001E20B68C3F3400359E22268136823F0F0
:10561800160313602268536923F080035361236CD7
:10562800BBB12268136823F008031360E36D03F02D
:105638001F023F239340B360012384F835300023D1
:1056480084F83430236D002B00F09F802046984763
:105658009BE0A36C002BE4D1E8E7E36BD3B12046D1
:10566800984717E01000024028000240B8040240A2
:105678001A6812F4807F09D11A6822F010021A60A1
:10568800012384F83530002384F83430E36B0BB100
:1056980020469847636D002B77D0636D13F0010F98
:1056A8006FD0042384F8353022687E4B7E498A42C5
:1056B80018BF9A420CBF0123002318318A4208BF41
:1056C80043F0010318318A4208BF43F0010318313F
:1056D8008A4208BF43F0010318318A4208BF43F0E9
:1056E800010318318A4208BF43F0010318318A4286
:1056F80008BF43F0010301F556718A4208BF43F021
:10570800010318318A4208BF43F0010318318A4265
:1057180008BF43F0010318318A4208BF43F0010370
:1057280018318A4208BF43F0010318318A4208BF82
:1057380043F0010318318A4208BF43F0010313B94B
:105748005A4B9A4223D1136823F001031360584B34
:10575800A3FB0737BF0A019B01330193BB4204D85F
:1057680023681B6813F0010FF5D123681B6813F039
:10577800010F14BF0323012384F83530002384F874
:105788003430E36C0BB12046984703B0F0BD136882
:1057980023F001031360DAE7236C002BF5D02046D1
:1057A8009847F2E713F0200F52D122683D4B3E494B
:1057B8008A4218BF9A420CBF0123002318318A423B
:1057C80008BF43F0010318318A4208BF43F00103C0
:1057D80018318A4208BF43F0010318318A4208BFD2
:1057E80043F0010318318A4208BF43F0010318311E
:1057F8008A4208BF43F0010301F556718A4208BF87
:1058080043F0010318318A4208BF43F001031831FD
:105818008A4208BF43F0010318318A4208BF43F0A7
:10582800010318318A4208BF43F0010318318A4244
:1058380008BF43F0010318318A4208BF43F001034F
:1058480013B91A4B9A4209D1136823F0080313605D
:10585800236C002B99D02046984796E7136823F0CD
:1058680004031360F4E7022585400D4200F08A80A6
:1058780013F0020F00F08680756013F4004F19D002
:1058880013F4803F06D1636C002B3FF47EAF2046B3
:1058980098477AE7E36B002B3FF477AF20469847A9
:1058A80073E700BF1000024028000240B80402401D
:1058B800B5814E1B13F0200F58D122688E4B8F49AB
:1058C8008A4218BF9A420CBF0123002318318A422A
:1058D80008BF43F0010318318A4208BF43F00103AF
:1058E80018318A4208BF43F0010318318A4208BFC1
:1058F80043F0010318318A4208BF43F0010318310D
:105908008A4208BF43F0010301F556718A4208BF75
:1059180043F0010318318A4208BF43F001031831EC
:105928008A4208BF43F0010318318A4208BF43F096
:10593800010318318A4208BF43F0010318318A4233
:1059480008BF43F0010318318A4208BF43F001033E
:1059580013B96B4B9A4210D1136823F014031360E8
:10596800012384F83530002384F83430E36B002BAE
:105978003FF40BAF2046984707E7136823F00A0364
:105988001360EDE7082505FA00F008423FF4FDAE84
:1059980013F0080F3FF4F9AE136823F00E031360F9
:1059A800E36D03F01F03012202FA03F373606265DB
:1059B80084F83520002384F83430E36C002B3FF45E
:1059C800E4AE20469847E0E62268EDE525FA03F1C3
:1059D80011F0010F7FF4A7ACE16D01F01F01042362
:1059E80003FA01F10D423FF484AD2268136813F005
:1059F800020F7FF479ADE16D01F01F01102303FA66
:105A080001F10D42E0D1E26D02F01F02202303FAFA
:105A180002F22A423FF43EAE2168374B37488142B2
:105A280018BF99420CBF012300231830814208BFD8
:105A380043F001031830814208BF43F001031830D6
:105A4800814208BF43F001031830814208BF43F088
:105A580001031830814208BF43F001031830814226
:105A680008BF43F0010300F55670814208BF43F0B8
:105A780001031830814208BF43F001031830814206
:105A880008BF43F001031830814208BF43F0010307
:105A98001830814208BF43F001031830814208BF23
:105AA80043F001031830814208BF43F001031BB9DA
:105AB800134B99427FF4A5AD0B68C3F30013002B79
:105AC8003FF4E8ADB26094F83530DBB2042B3FF414
