:020000040800F2
:1000000000000824D1200008891F00088B1F000869
:100010008D1F00088F1F0008911F000800000000BE
:10002000000000000000000000000000931F000816
:10003000951F000800000000971F0008991F000886
:100040002121000821210008212100082121000888
:100050002121000821210008212100082121000878
:10006000212100082121000821210008A11F0008EA
:100070002121000821210008212100082121000858
:100080002121000821210008B11F000821210008BA
:10009000212100082121000821210008C91F000892
:1000A0002121000821210008212100082121000828
:1000B000D51F000821210008212100082121000866
:1000C0002121000821210008212100082121000808
:1000D00021210008212100082121000821210008F8
:1000E0002121000821210008000000002121000832
:1000F00021210008212100082121000821210008D8
:100100002121000821210008E51F00082121000805
:1001100021210008212100082121000821210008B7
:1001200021210008212100082121000821210008A7
:100130002121000821210008212100082121000897
:1001400000000000000000000000000000000000AF
:100150002121000821210008212100082121000877
:100160002121000821210008212100082121000867
:1001700021210008212100082121000800000000A1
:100180002121000821210008212100082121000847
:100190002121000821210008212100082121000837
:1001A0002121000821210008212100082121000827
:1001B0002121000821210008212100082121000817
:1001C0002121000821210008212100082121000807
:1001D00021210008212100082121000821210008F7
:1001E00021210008212100082121000821210008E7
:1001F00021210008212100082121000821210008D7
:1002000021210008212100082121000821210008C6
:100210002121000821210008F51F000821210008E4
:1002200021210008212100082121000800000000F0
:1002300021210008212100080000000021210008E0
:100240002121000821210008212100082121000886
:100250002121000821210008212100082121000876
:100260002121000821210008212100082121000866
:1002700021210008212100082121000800000000A0
:100280002121000821210008212100080000000090
:0802900000000000212100081C
:1002980010B5054C237833B9044B13B10448AFF3B8
:1002A80000800123237010BD080100240000000015
:1002B80004A4000808B5034B1BB103490348AFF376
:1002C800008008BD000000000C01002404A4000800
:1002D80081F0004102E000BF83F0004330B54FEAEF
:1002E80041044FEA430594EA050F08BF90EA020F5C
:1002F8001FBF54EA000C55EA020C7FEA645C7FEAEF
:10030800655C00F0E2804FEA5454D4EB5555B8BF11
:100318006D420CDD2C4480EA020281EA030382EA82
:10032800000083EA010180EA020281EA0303362D14
:1003380088BF30BD11F0004F4FEA01314FF4801CE7
:100348004CEA113102D0404261EB410113F0004FF9
:100358004FEA03334CEA133302D0524263EB4303B0
:1003680094EA050F00F0A780A4F10104D5F1200E4E
:100378000DDB02FA0EFC22FA05F2801841F10001A9
:1003880003FA0EF2801843FA05F359410EE0A5F17D
:1003980020050EF1200E012A03FA0EFC28BF4CF0AE
:1003A800020C43FA05F3C01851EBE37101F0004564
:1003B80007D54FF0000EDCF1000C7EEB00006EEB71
:1003C8000101B1F5801F1BD3B1F5001F0CD34908FB
:1003D8005FEA30004FEA3C0C04F101044FEA445252
:1003E80012F5800F80F09A80BCF1004F08BF5FEAD9
:1003F800500C50F1000041EB045141EA050130BDB9
:100408005FEA4C0C404141EB0101013C28BFB1F5CA
:10041800801FE9D291F0000F04BF01460020B1FA15
:1004280081F308BF2033A3F10B03B3F120020CDAE8
:100438000C3208DD02F1140CC2F10C0201FA0CF0C6
:1004480021FA02F10CE002F11402D8BFC2F1200C2B
:1004580001FA02F120FA0CFCDCBF41EA0C019040E1
:10046800E41AA2BF01EB0451294330BD6FEA04042A
:100478001F3C1CDA0C340EDC04F11404C4F1200215
:1004880020FA04F001FA02F340EA030021FA04F327
:1004980045EA030130BDC4F10C04C4F1200220FA7E
:1004A80002F001FA04F340EA0300294630BD21FABC
:1004B80004F0294630BD94F0000F83F4801306BF82
:1004C80081F480110134013D4EE77FEA645C18BF76
:1004D8007FEA655C29D094EA050F08BF90EA020F0D
:1004E80005D054EA000C04BF1946104630BD91EA05
:1004F800030F1EBF0021002030BD5FEA545C05D108
:100508004000494128BF41F0004130BD14F5800446
:100518003CBF01F5801130BD01F0004545F0FE41BA
:1005280041F470014FF0000030BD7FEA645C1ABFEF
:10053800194610467FEA655C1CBF0B46024650EA26
:10054800013406BF52EA033591EA030F41F4002152
:1005580030BD00BF90F0000F04BF0021704730B5D8
:100568004FF4806404F132044FF000054FF00001AD
:1005780050E700BF90F0000F04BF0021704730B56E
:100588004FF4806404F1320410F0004548BF404243
:100598004FF000013EE700BF42004FEAE2014FEA98
:1005A80031014FEA02701FBF12F07F4393F07F4F73
:1005B80081F06051704732F07F4208BF704793F076
:1005C8007F4F04BF41F40021704730B54FF4607489
:1005D80001F0004521F000411CE700BF50EA01028C
:1005E80008BF704730B54FF000050AE050EA010235
:1005F80008BF704730B511F0004502D5404261EBA5
:1006080041014FF4806404F132045FEA915C3FF4E5
:10061800D8AE4FF003025FEADC0C18BF03325FEA82
:10062800DC0C18BF033202EBDC02C2F1200300FA33
:1006380003FC20FA02F001FA03FE40EA0E0021FA58
:1006480002F11444BDE600BF10B52DED108B8CB03F
:100658008F4B1B790133DBB2092B02D88C4A1371FB
:1006680002E08B4B00221A718A4C94ED0AEB94ED50
:100678000C7B3EEE079B39EE079B9FED837B29EEB3
:10068800079B94ED08ABB0EE4A0B08F059FFB0EEAB
:10069800408BB0EE4A0B08F007FF29EE087B0EEE00
:1006A800007BB7EEC77B2EEE08EB19EE00EBB7EE3A
:1006B800CEEBD4ED3A6AF7EE007A77EEE67A764B2F
:1006C80093ED126A67EE867A66EE876A77EEA67A07
:1006D800C3ED127AD4ED3B1AF5EEC01AF1EE10FA1A
:1006E800CCBFB0EE675AB0EE475A6A4B93ED3EFB6B
:1006F800B7EEC55A3FEE455B684A82ED185B664A1D
:1007080092ED026BB0EE464B8DED006B93ED1C6BDA
:1007180015EE064B93ED1E6B24EE064B8DED084B44
:1007280092ED006BB0EE46DB8DED026B93ED186B2E
:1007380005EE06DB3DEE04DB93ED2C6BB4EECD6BE2
:10074800F1EE10FA10D5554B83ED106B514B93ED2C
:100758002E4BB4EEC64BF1EE10FA77DD4F4B83ED1E
:10076800144BB0EE46BB12E04A4B93ED2EBBB4EEF1
:10077800CDBBF1EE10FA6FDD484B83ED10BBB4EE44
:10078800CB6BF1EE10FA5FD5444B83ED146B404B05
:100798001B79012B6ED03F4B93ED3C6AF7EE006A54
:1007A80076EEC66A3C4AD2ED134A66EEA46A26EE95
:1007B8000E6A76EE866AC2ED136A93ED3D6AB5EE6F
:1007C800406AF1EE10FA36FE8EEAB7EECEEA334B07
:1007D80093ED0A3B33EE4E3B83ED1A3B92ED066BED
:1007E800B0EE464B8DED046B2A4B93ED246B13EE64
:1007F800064B93ED266B24EE064B8DED0A4B92EDDE
:10080800046BB0EE46CB8DED066B93ED206B03EEDB
:1008180006CB3CEE04CB93ED306BB4EECC6BF1EE33
:1008280010FA3DD51D4B83ED126B1A4B93ED324BED
:10083800B4EEC64BF1EE10FA40F32681174B83ED68
:10084800164BB0EE464B40E0B0EE4B6B134B83EDCE
:10085800146BB0EE46BB9AE7104B83ED10DBB4EE99
:10086800CD6BF1EE10FA02D5B0EE4DBB8CE7B0EED1
:100878004D6B6BE7084BD3E91001084BC3E90A013C
:1008880089E700BFAFF300801D339045A779E23FA9
:100898008001002488010024280100248802002403
:1008A800A34B93ED324BB4EECC4BF1EE10FA40F380
:1008B800F180A04B83ED124BB4EEC46BF1EE10FA4D
:1008C80040F1E0809B4B83ED166B9A4B93ED142B14
:1008D80093ED16AB2AEE086B12EE006BB6EE009B9A
:1008E80026EE099B22EE082B0AEE002B9FED828B49
:1008F80022EE082B32EE49AB9FED810B30EE499B7F
:1009080039EE429B86FE0A0B80FE090B86FE4A2BB7
:1009180082FE492B30EE022BBEEE000B22EE002B9E
:1009280036EE026B9FED780B26EE006B83ED006BC5
:100938003AEE02AB2AEE00AB83ED02AB39EE029B36
:1009480029EE009B83ED049B83ED08EBF5EEC01ABE
:10095800F1EE10FACCBFB7EEE77AB7EEC77A754B6F
:1009680083ED067B724B93ED021B9FED697B21EEB5
:10097800077B714B93F850302BB16D4BD3E90001D5
:100988006D4BC3E908016C4B93ED082B684B93ED55
:10099800006B36EE426BB4EEC67BF1EE10FA0CD467
:1009A80093ED041B9FED5A7B21EE077BB4EEC76BDA
:1009B800F1EE10FA58BFB0EE467B32EE072B5E4BD5
:1009C80083ED082B5B4A5A4B93ED067B9FED526BE8
:1009D80012EE067B82ED1C7B82ED0CFB93ED1A6B0D
:1009E8003BEE4B7B05EE067B3BEE4DBB37EE0B7BC0
:1009F8009FED476B9DED025B07EE065B9FED487B25
:100A0800B4EEC75BF1EE10FA52DD4B4B83ED007B81
:100A18009FED3F6B9DED007B9DED085B05EE067B32
:100A2800454B83ED027B424B93ED225B34EE447BD6
:100A3800BAEE042B27EE027B03EE057B34EE4C4B1B
:100A480037EE044B9DED067B04EE067B9FED346B81
:100A5800B4EEC67BF1EE10FA3BDD374B83ED046B49
:100A6800354B9FED2B6B9DED047B9DED0A5B05EEF1
:100A7800067B83ED067B002283F850200CB0BDEC8A
:100A8800108B10BDB0EE446B2A4B83ED166BB0EEA5
:100A9800464B1AE7274B83ED12CBB4EECC6BF1EE45
:100AA80010FA02D5B0EE4C4B0CE7B0EE4C6BBCE63E
:100AB8009FED1D7BB4EEC75BF1EE10FA03D41E4B1D
:100AC80083ED005BA4E71C4B00201C49C3E900012F
:100AD8009EE79FED156BB4EEC67BF1EE10FA03D4DA
:100AE800154B83ED047BBBE7134B00201349C3E987
:100AF8000401B5E7AFF30080AA4C58E87AB6EB3F9B
:100B080000000000000000001D339045A779F23F67
:100B18002D431CEBE2361A3FD5EB7BF3E9CEBA3F07
:100B28000000000000004D400000000000004DC023
:100B380088010024880200242801002400004DC0F8
:100B48002DED048B564B93ED1C0B564A92ED0C2B56
:100B5800554B93ED147BB0EE421B10EE071B93ED43
:100B6800167B21EE071B92ED0A4B93ED107BB0EE3E
:100B7800443B00EE073B33EE013B93ED287BB4EE9C
:100B8800C37BF1EE10FA5CD5454B83ED0E7B454BEC
:100B980093F851302BB1424BD3E90E01414BC3E9D5
:100BA8000E013F4B93ED0E6B3E4B93ED0E5B36EE15
:100BB800458B3D4B93ED387AB7EEC77A9FED329B64
:100BC80027EE097BB4EEC78BF1EE10FA0CDC93ED3F
:100BD800397AB7EEC77A27EE097BB4EEC78BF1EE08
:100BE80010FA58BFB0EE487B35EE077B2D4B83EDEE
:100BF8000E7B83ED107B2C4B93ED125B36EE467B20
:100C080000EE057B36EE436B37EE066B9FED1E7BE1
:100C180006EE074B9FED1E7BB4EEC74BF1EE10FAC4
:100C28001FDD204B83ED0A7B1E4B9FED177B01EEEA
:100C3800072B83ED0C2B002283F85120BDEC048B8D
:100C48007047194B93ED2A7BB4EEC37BF1EE10FA93
:100C580003DD134B83ED0E7B99E7114B83ED0E3BC0
:100C680095E79FED0D7BB4EEC74BF1EE10FA03D478
:100C78000C4B83ED0A4BD7E70A4B07A1D1E90001DA
:100C8800C3E90A01D0E700BFFCA9F1D24D62503F89
:100C98000000000000407F400000000000407FC0CE
:100CA8008802002428010024880100240000000094
:100CB8004B4B012283F8502083F85120494B34A133
:100CC800D1E90001C3E9020133A1D1E90001C3E977
:100CD80004014549C3F8E010444AC3F8E420C3F8C6
:100CE800D810C3F8DC20C3F8D010C3F8D4204FF0D4
:100CF8007E52C3F8EC20C3F8F4203D4AC3F8E8203C
:100D0800C3F8F020B1EE046B83ED106B0020394975
:100D1800C3E9120122A1D1E90001C3E914010020AD
:100D28003549C3E916019FED207B83ED287B9FEDB4
:100D3800207B83ED2A7B9FED205B83ED205B83ED99
:100D4800226B9FED1F4B83ED244BC3E926019FEDDA
:100D58001E5B83ED305B9FED1E6B83ED326B9FED69
:100D68001E3B83ED183BB1EE083B83ED1A3B83ED48
:100D78001C4BC3E91E0183ED2C5B83ED2E6B83EDC9
:100D88003E7B00201D49C3E900017047AFF3008096
:100D980000000000006AF84000000000006AF8C087
:100DA800F168E388B5F8E43E0000000000006940FF
:100DB8000000000000000000000000A09999C93F51
:100DC800000000E0E2361A3F000000A099394640D2
:100DD800000000A0993946C0000000403333D33FDB
:100DE800280100248801002400247449002474C9BF
:100DF8006666663F0000224000002440000059401B
:100E08000F4AD2ED007A70EE277A9FED0E7A67EEE0
:100E1800877A0D4B93ED007ADFED0C6A27EE267A80
:100E280077EE877A0A49C1ED1D7ADFED0A6A87EE07
:100E3800A67A81ED1F7A82ED000AC3ED007A704729
:100E4800080300240017DA3A04030024E8257F3F4A
:100E580000000024F46CD63D10B52DED048BB0EEE7
:100E6800409A08F0E5FBF0EE408A1F4C94ED008AAA
:100E780030EE488ADFED1D9A28EE298AB0EE490A3D
:100E880008F052FA1A4BD3ED007A70EE677A67EEE3
:100E9800A97AC4ED008A83ED000A28EE008A28EEBC
:100EA800A70A38EE400ADFED137AB4EEE70AF1EE4E
:100EB80010FA0ADB104BC3ED1C7A0F4B93ED1C0A9A
:100EC800FFF79EFFBDEC048B10BDDFED0C7AB4EE8E
:100ED800E70AF1EE10FA03D9074B83ED1C0AECE799
:100EE800054B074A1A67E8E70C03002400401C4634
:100EF800000300245A141D44000000245A141DC481
:100F08005A141DC400B59DB04C22002109A808F050
:100F1800D7F92022002101A808F0D2F9022004F014
:100F2800B1FA00230093274BDA6A22F00102DA6251
:100F3800DB6A03F001030093234A936923F44043D7
:100F480043F480439361936903F440430093009B07
:100F5800936913F4005FFBD01C4A936A23F00303E0
:100F680093620223099301220C9240220D9212935C
:100F780000221392042114910C21159116931793B2
:100F8800189319911A924FF480531B9309A804F0EF
:100F9800A1FA90B93F2301930323029300230393FB
:100FA80004930593069307930893022101A804F07C
:100FB800E3FE20B91DB05DF804FB72B6FEE772B619
:100FC800FEE700BF000400580048025800440258D9
:100FD80000B5B1B0982200210AA808F071F94FF4C1
:100FE80000220023CDE9002304230293092203925F
:100FF8000493022305930693C023079320230893A1
:101008004FF440630993684605F046F910B931B0CA
:101018005DF804FB72B6FEE72DE9F047A4B001F0D5
:10102800A3F8FFF76FFFFFF7D3FF0024159416947A
:10103800179418941994B04DD5F8E03043F0010393
:10104800C5F8E030D5F8E03003F001030293029BC5
:10105800D5F8E03043F02003C5F8E030D5F8E030AB
:1010680003F020030393039BD5F8E03043F010030B
:10107800C5F8E030D5F8E03003F010030493049B82
:10108800D5F8E03043F00803C5F8E030D5F8E03093
:1010980003F008030593059BD5F8E03043F00203FD
:1010A800C5F8E030D5F8E03003F002030693069B5C
:1010B800924E22464FF4E051304604F0CDF9012219
:1010C8004FF40041304604F0C7F94FF08008CDF8DE
:1010D80054804FF488131693179415A9884803F081
:1010E800E7FF4FF4E05315930127169717941894C8
:1010F80015A9304603F0DCFF4FF40043159316970B
:1011080017940323189315A9304603F0D1FF182329
:1011180015931694179715A9304603F0C9FF224670
:101128000221172002F036FC172002F067FCD5F8E0
:10113800D8303B43C5F8D830D5F8D8303B40019378
:10114800019B224605210B2002F024FC0B2002F013
:1011580055FC0A940B940C940D94079408940994E4
:101168000E940F94109411941294139414942C22A6
:10117800214615A808F0A4F86248634B03601323BE
:1011880043602023836040F6C313C3600461476152
:10119800C0F8188006F044FF002840F013824FF48E
:1011A80080530A930AA9574807F0F2F9002840F03B
:1011B8000B82544806F064FF002840F00782202381
:1011C800079300230893099307A94E4807F0A4FF43
:1011D800002840F0FD8160230E9300220F921092A8
:1011E8001192129213924FF4007314930EA945486A
:1011F80007F042F8002840F0ED8104220EA941488A
:1012080007F03AF8002840F0E78108220EA93D4887
:1012180007F032F8002840F0E18100231593169377
:1012280017936422189219934FF400521A921B9341
:101238001C934FF000721D921E931F9315A93148FD
:1012480007F0C8FF002840F0CB812E4800F032FE9E
:101258003C22002115A808F033F82C482C4B0360D9
:101268004FF480234360002383600122C26004217D
:1012780001610375437582610377C3620363436346
:1012880080F8383001F0B6FD002840F0AB811F4CE3
:10129800204602F057FB1F4B15930923169305238D
:1012A800179340F2FF7318930423199300231A939A
:1012B8008DF8703002221D9201228DF878208DF869
:1012C80079308DF87A3080221F9220928DF8843000
:1012D80015A9204601F0BCFF002840F085810E4B7F
:1012E800159340F20F13169315A9084801F0B0FFA3
:1012F800002840F07B8111E000440258000C02589D
:1013080000100258640400240000014088030024EF
:10131800002102400800900C0000B84F00230A93F7
:101328000B930C930D931593169317931893199386
:101338000E930F9310931193079308930993AE4854
:10134800AE4A02606322426083604FF0FF32C2609F
:101358000361836106F064FE002840F049814FF480
:1013680080530A930AA9A44807F012F9002840F00C
:101378004181A14806F0B4FE002840F053810423BF
:101388001593502316930023179318930A23199340
:1013980015A9994807F080FA002840F045810022F5
:1013A8000E9201230F9310920A2311930EA99248CB
:1013B80007F03EF8002840F0398102230E930F937E
:1013C80004220EA98C4807F033F8002840F0308139
:1013D80000230793099307A9874807F09DFE002873
:1013E80040F028810021844807F0B8FB002840F02D
:1013F80023810421804807F0B1FB002840F01E81BA
:101408007F48804B0360032343600023836040F6DA
:10141800C312C260036143618023836106F000FE4A
:10142800002840F00D8100230E930F93109315931D
:1014380016931793189319931A931B937248734A28
:1014480002604FF4802242608360C360042202611C
:101458000375012242758261037743628362032226
:10146800C2620363436380F8383001F0C3FC00288C
:1014780040F0E88000230E930EA9634802F0D0F9EB
:10148800002840F0E180624B15930623169305234C
:10149800179340F2FF7318930423199300231A93A8
:1014A8008DF86D3015A9584801F06EF8002840F005
:1014B800CD800023169318931A931C930E930F93C1
:1014C800109354484FF0804202604360836043F6B3
:1014D800FF72C26003618023836103231593012295
:1014E80017920A2319931B921D9315A906F028FE3B
:1014F800002840F0AD8000230E9310930EA94548B4
:1015080007F00AFE002840F0A5803C21414807F07A
:10151800C0FC002840F0A080642000F065FE3E4C2E
:101528000821204607F0B4FA0421204607F0B0FA53
:101538000021204607F0ACFA0821204607F0B0FD4C
:101548000421204607F0ACFD0021204607F0A8FD45
:10155800324B1B78002B00F081802F4C082120464D
:1015680007F0D2F90421204607F0CEF900212046E1
:1015780007F0CAF90821204607F008FD0421204693
:1015880007F004FD0021204607F000FD2368002431
:10159800DC639C635C63224D40F2FF72214628465F
:1015A80001F040FD40F2FF722146174801F03AFD74
:1015B8004FF47A7000F018FEFFF77AFB284601F026
:1015C80085FDFEE772B6FEE772B6FEE772B6FEE785
:1015D80072B6FEE772B6FEE772B6FEE772B6FEE7CF
:1015E80072B6FEE772B6FEE772B6FEE772B6FEE7BF
:1015F80072B6FEE772B6FEE748050024000C00400C
:10160800B0040024004801402403002400200240C4
:1016180040002019FC04002464040024160300245C
:101628008803002472B6FEE772B6FEE772B6FEE7DC
:1016380072B6FEE772B6FEE772B6FEE772B6FEE76E
:1016480072B6FEE772B6FEE772B6FEE772B6FEE75E
:1016580072B6FEE772B6FEE772B6FEE700224FF4F6
:101668000041374803F0F8FEDFF8E090DFF8E0804B
:101678002646DFF8E0A014E033680024DC639C63AE
:101688005C630821304607F003FA0421304607F06E
:1016980007FD2146304607F003FD98F80030042B7B
:1016A8002AD8B9F80230012B7FF457AF98F80030E8
:1016B800013388F800300821304607F025F9042165
:1016C800304607F063FC0021304607F05FFC3368C2
:1016D8000022DA639A635A63042440F2EE2528272D
:1016E8003368DD639D635D63384600F07DFD631EEE
:1016F80013F0FF04F4D1BFE7274689F8024001251B
:1017080089F80350DAF800305B6AC9F80C302A46C9
:101718004FF400410A4803F09FFE0A4C3946204620
:1017280007F01EFB0421204607F01AFB204606F0AE
:10173800EEFA204600F0ECFB034B1D70B1E700BF4A
:10174800000C025848050024160300240000002459
:101758001A030024FC0400240268114B9A4200D0AA
:10176800704710B50F4C94ED150AFFF775FB94ED13
:101778001D7AB0EEC77AB7EEC77A0B4B83ED067BBE
:101788000A4B1B8807EE903AF8EEE77A9FED087A45
:1017980067EE877A77EEA77AC4ED247A10BD00BF8A
:1017A800004801400000002488010024140300249C
:1017B8000A025338802800D070470A4B1A7882F002
:1017C80001021A705A7801325A70074B1B78022BA3
:1017D800F2D1044B00229A65044B00200021C3E992
:1017E8000801E9E70000002416030024880100240A
:1017F800037F012B00D0704710B50446002106F086
:10180800B9FA07EE900AF8EE677A114BC3ED0A7A37
:10181800F5EE407AF1EE10FA00D110BD0421204611
:1018280006F0A8FA0A4B93ED0A7A642202FB00F04C
:1018380007EE900AF8EE677AC7EE876AC3ED0B6A7F
:10184800DFED046AC6EE877AC3ED0D7AE5E700BFDF
:1018580000000024002474491E4B1B7873B91D4BEB
:1018680001221A701C4B5B68BBB91C4B5B7853B9DF
:1018780001231A4A5370184A536014E0184B1B6826
:10188800184A1A607047134B00221A7001225A70C6
:10189800134B1B68134A1A6070475A1C092B0E4BCE
:1018A80008BF00225A6010B5FEF7CEFE094B002291
:1018B8001A705B7813B9094B5B7803B910BD054CF6
:1018C80001236370FFF73CF900236370034A5370E8
:1018D800F4E700BF10030024A0050024200300241F
:1018E80020A4000824A4000838B52DED028B026856
:1018F8009B4B9A4202D0BDEC028B38BD04460921AD
:1019080001F086FC974D288040F20F11204601F027
:101918007FFC6880944B1B78012B02D0022BEAD104
:101928003CE02A88914B19680A441A60904B196860
:1019380011FA80F018608F490B8801339BB20B8035
:10194800B3F5805FD7D38C4B120B1A80000B5880ED
:101958000022864B1A60864B1A600A80874B1868EB
:101968000124846240F6C311C162D960844B1B68AC
:101978005A62844B00211966D96599654FF4004174
:10198800814803F069FD22468049814801F0A0F8AA
:10199800804806F061F9744B02221A7001224FF454
:1019A800E051794803F058FD6E490B88724A108857
:1019B8001B1A07EE103AB8EEC77ADFED776A27EE02
:1019C800267AB7EEC77A754D85ED0E7B4B8852881F
:1019D8009B1A06EE103AB8EEC66A26EE266AB7EEED
:1019E800C66A85ED0C6B9FED5C5B35EE466B36EE9B
:1019F800477B85ED0A7B624B1B685B6A614C236100
:101A080007EE903AB8EE670ADFED657A20EE270A0E
:101A180084ED150A9FED638AF0EE480A07F0A0FEF0
:101A280084ED150AF1EE007A20EE270A84ED160AF5
:101A3800F0EE480A07F094FE84ED160AB7EEC00AE5
:101A480085ED080BFFF708FF574B93ED007BF7EE8A
:101A5800C75BC4ED195A93ED026BB7EEC66B84ED04
:101A68001A6A93ED047BB7EEC77B84ED1B7AD4ED3D
:101A7800146AF4EEE65AF1EE10FA4ADDC4ED196A7A
:101A8800B4EEE66AF1EE10FA4EDD3E4BC3ED1A6A8B
:101A9800B4EEE67AF1EE10FA51DD3A4BC3ED1B6A6B
:101AA8003848D0ED197A87EEA67A9FED406A27EE7E
:101AB800067A37EE067ABCEEC77A17EE103A99B274
:101AC800C180D0ED1A7A87EEA67A27EE067A37EE2D
:101AD800067ABCEEC77A17EE103A9AB2028190EDF8
:101AE8001B7AC7EE267A67EE867A77EE867AFCEE60
:101AF800E77A17EE903A9BB2438120480068416329
:101B08008263C36300224FF4E0511F4803F0A4FC32
:101B1800F1E6F1EE667AF4EEE75AF1EE10FAAFD597
:101B2800184BC3ED197AABE7F1EE667AB4EEE76AC3
:101B3800F1EE10FAACD5134BC3ED1A7AA8E7F1EE23
:101B4800667AB4EEE77AF1EE10FAA9D50D4BC3ED3B
:101B58001B7AA5E7AFF3008000000000000000003A
:101B6800002102409C05002416030024940500244B
:101B780098050024180300241C030024640400248E
:101B8800FC04002400000024000C02581403002464
:101B980024030024B0040024FDD8243D8801002437
:101BA800DB0FC939DA0FC9408802002400409C4481
:101BB80072B6FEE782B0074BD3F8F42042F0020277
:101BC800C3F8F420D3F8F43003F002030193019B27
:101BD80002B070470044025810B58AB0002305933C
:101BE80006930793089309930368474A934204D0DE
:101BF800464A934256D00AB010BD0446444A136878
:101C080001331360012B3CD0424BD3F8E02042F063
:101C18002002C3F8E020D3F8E03003F02003029359
:101C2800029B4FF4805305930323069305A93A4872
:101C380003F03EFA39483A4B036009234360002316
:101C48008360C3604FF4806202614FF400624261B6
:101C58004FF4005282614FF48072C2614FF48032B7
:101C68000262436202F05EF9C8B92C4BE3649C63DC
:101C780000221146122001F08DFE122001F0BEFE56
:101C8800B9E7244BD3F8D82042F02002C3F8D82073
:101C9800D3F8D83003F020030193019BB4E7FFF792
:101CA80087FFE2E71A4A136801331360012B1DD03E
:101CB800184BD3F8E02042F00102C3F8E020D3F833
:101CC800E03003F001030493049B6023059303238E
:101CD800069305A9134803F0EBF9002211461220D8
:101CE80001F058FE122001F089FE84E7094BD3F871
:101CF800D82042F02002C3F8D820D3F8D83003F017
:101D080020030393039BD3E70020024000210240F5
:101D1800A80500240044025800140258EC030024CB
:101D2800100002400000025800B58BB00023059354
:101D3800069307930893099303682D4A934208D0A2
:101D48002C4A934213D02C4A93423BD00BB05DF8F7
:101D580004FB2A4BD3F8F02042F00102C3F8F0202C
:101D6800D3F8F03003F001030193019BEEE7234B16
:101D7800D3F8E82042F00802C3F8E820D3F8E820B6
:101D880002F008020292029AD3F8E02042F001021F
:101D9800C3F8E020D3F8E03003F001030393039B7A
:101DA8000123059302230693099305A9144803F018
:101DB8007FF900220421322001F0ECFD322001F0ED
:101DC8001DFEC3E70D4BD3F8F02042F48022C3F880
:101DD800F020D3F8F03003F480230493049B00220E
:101DE8000321762001F0D6FD762001F007FEADE74D
:101DF80000000140000C0040004801400044025827
:101E08000000025830B589B000230393049305936A
:101E1800069307930368B3F1804F01D009B030BD32
:101E2800214BD3F8E82042F00102C3F8E820D3F8A8
:101E3800E82002F001020092009AD3F8E02042F074
:101E48000102C3F8E020D3F8E02002F00102019279
:101E5800019AD3F8E02042F00202C3F8E020D3F858
:101E6800E03003F002030293029B4FF40043039314
:101E7800022504950124079403A90C4803F018F9D6
:101E8800082303930495002505950695079403A94F
:101E9800074803F00DF92A4621461C2001F07AFD77
:101EA8001C2001F0ABFDB9E70044025800000258BD
:101EB8000004025800B587B00023019302930393EE
:101EC8000493059302680F4B9A4202D007B05DF85D
:101ED80004FB0D4BD3F8E02042F01002C3F8E020D9
:101EE800D3F8E03003F010030093009B4FF47C53C9
:101EF8000193022302930123059301A9034803F0E8
:101F0800D7F8E3E7000001400044025800100258E7
:101F180008B50368154A934206D0154A93420BD078
:101F2800144A934217D008BD134AD2F8F03023F070
:101F38000103C2F8F030F6E70F4AD2F8E83023F090
:101F48000803C2F8E83001210C4803F0CFF9322029
:101F580001F062FDE7E7084AD2F8F03023F4802365
:101F6800C2F8F030762001F057FDDCE700000140B0
:101F7800000C00400048014000440258000002588C
:101F8800FEE7FEE7FEE7FEE7FEE7704770477047AB
:101F980008B500F017F908BD08B5024802F0CCFBF7
:101FA80008BD00BFEC03002408B5034800F040F961
:101FB800024800F03DF908BD2403002488030024EA
:101FC80008B5802003F04EFA08BD000008B50248A5
:101FD80005F0ECFE08BD00BFFC04002408B502486B
:101FE80005F0E4FE08BD00BF4805002408B5024816
:101FF80005F0DCFE08BD00BFB0040024274AD2F873
:10200800883043F47003C2F88830254B1B6803F00E
:102018000F03062B06D8224A136823F00F0343F058
:10202800070313601F4B1A6842F001021A6000226E
:102038001A6119681C4A0A401A60194B1B6813F088
:10204800080F06D0164A136823F00F0343F007035E
:102058001360144B00229A61DA611A62134999627B
:102068001349D962134919635A639963DA63196486
:102078005A64196821F4802119601A660E4B1A688F
:102088000E4B1340B3F1005F03D20D4B0122C3F88E
:1020980008210C4B43F2D2021A60704700ED00E0B1
:1020A80000200052004402587FEDF6EA00020202C6
:1020B8000000FF01800201010010005C0000FFFF2A
:1020C8000080005100400052DFF834D0FFF796FF3F
:1020D8000C480D490D4A002302E0D458C45004337B
:1020E800C4188C42F9D30A4A0A4C002301E0136051
:1020F8000432A242FBD307F0BFF8FEF78DFF70470A
:1021080000000824000000240801002470A700082B
:1021180008010024B0050024FEE700000F4B1B78DF
:102128000BB90120704710B504464FF47A70B0FB24
:10213800F3F30B4A1068B0FBF3F001F081FC0F2CAD
:1021480000D808B1012010BD002221464FF0FF3011
:1021580001F020FC034B1C600020F4E79C000024E5
:1021680094000024A000002410B5032001F000FC16
:1021780003F00AFD0F498B690F4AC3F30323D35CAD
:1021880003F01F03D8408B6903F00F03D35C03F0FF
:102198001F0320FA03F3094A1360094B18600F2044
:1021A800FFF7BCFF10B10124204610BD0446FFF71D
:1021B80001FDF9E7004402582CA400089800002407
:1021C80094000024034A1168034B1B780B441360E6
:1021D800704700BFAC0500249C000024014B186820
:1021E800704700BFAC05002438B50446FFF7F6FF7A
:1021F8000546B4F1FF3F02D0044B1B781C44FFF79F
:10220800EDFF401BA042FAD338BD00BF9C0000245C
:10221800014B1868000C70470010005C704770474D
:1022280008B5806BFFF7FBFF08BD704770470000DB
:10223800F8B5044603681D685E689F4A934255D006
:1022480002F58072934251D09C4B9F6807F01F079C
:1022580015F0020F10D016F0020F0DD0636D13F0B9
:10226800100F03D1636D43F400636365204600F0EB
:10227800EEFF236802221A6015F0040F02D016F050
:10228800040F05D115F0080F40D016F0080F3DD007
:10229800636D13F0100F03D1636D43F4007363652E
:1022A8002368DA6812F4406F2AD1854A934200F015
:1022B8000B81DA6812F4005F22D11A6812F0080F55
:1022C8001ED09A6812F0040F12D15A6822F00C023C
:1022D8005A60636D23F480736365636D13F4805FE4
:1022E8000ED1636D43F00103636509E0754BACE7FC
:1022F800636D43F010036365A36D43F00103A365A9
:102308002046FFF78BFF23680C221A6015F0200F78
:1023180002D016F0200F05D115F0400F48D016F066
:10232800400F45D0636D13F0100F03D1636D43F474
:10233800005363652368DA6C02F4C072D868604998
:102348008B4200F0AE80D96862BB11F0007F05D0E7
:1023580001F4005200F44060024323D11A6812F0DD
:10236800400F1FD011F4001F1CD19A6812F0080FFB
:1023780010D15A6822F060025A60636D23F48053CA
:102388006365636D13F4807F0CD1636D43F00103C3
:10239800636507E0636D43F010036365A36D43F065
:1023A8000103A3652046FFF79FFA236860221A609D
:1023B80015F0800F02D016F0800F37D115F4807F0A
:1023C80002D016F4807F3CD115F4007F02D016F4B9
:1023D800007F42D115F0100F21D016F0100F1ED03B
:1023E800236B73B1002F46D02368334A934240D001
:1023F80002F5807293423CD0304B9B6813F4404FF7
:102408000AD0636D43F480636365A36D43F00203F0
:10241800A3652046FFF70AFF236810221A6015F407
:10242800806F02D016F4806F2BD1F8BD636D43F432
:10243800803363652046FFF7F8FE236880221A6020
:10244800BCE7636D43F400336365204600F0FDFE8E
:1024580023684FF480721A60B6E7636D43F48023F3
:102468006365204600F0F2FE23684FF400721A609C
:10247800B0E7144BC1E72368DB6813F0030FCBD038
:10248800BFE7636D43F480436365A36D43F00803BE
:10249800A36523684FF480621A60204600F0D4FEDA
:1024A800C3E7B91F01297FF64EAF002F3FF44BAFAA
:1024B8000149C96848E700BF00200240006302588C
:1024C8000021024000230240092F06D840F22122B1
:1024D800FA4012F0010F7FF4ECAE014AD268E9E647
:1024E8000020024008B50346806B426D12F0500F81
:1024F80030D1436D43F40073436503681A6812F0E2
:10250800080F14D0DA6812F4406F20D1DB6813F496
:10251800005F1CD1436D23F480734365436D13F44E
:10252800805F14D1436D43F0010343650FE0DB681E
:1025380013F0030F0BD1436D23F480734365436D90
:1025480013F4805F03D1436D43F001034365FFF744
:1025580065FE08BD426D12F0100F04D1C26CD26C3A
:1025680018469047F5E7FFF761FEF2E708B5806B7C
:10257800436D43F040034365836D43F00403836573
:10258800FFF754FE08BD000070B582B0002201922A
:1025980090F85020012A00F010820346012280F8AA
:1025A80050200068826812F0040F09D05A6D42F07A
:1025B80020025A650120002283F8502002B070BD25
:1025C8000A68002A09DBC2F31304002C48D1920ED2
:1025D80001249440C2692243C26148684FEA901EB0
:1025E8000EF00C0E1A6802F1300C5EF80C4000F088
:1025F8001F000A68C2F3846282401F2505FA00F0B2
:1026080024EA000002434EF80C201C68A268A06867
:1026180000F0080002F0040202432AD01868826819
:1026280012F0010F40F0BF810C68D0F8C050CA68A2
:1026380002F0180CB74A22FA0CF22240C4F3130431
:1026480025EA04042243C0F8C020C868B24A904270
:1026580000F0B0800A68002AC0F22E810020AAE7A4
:1026680092FAA2F2B2FA82F202F01F020124944016
:10267800B0E70D684FEAD55C0CF0040C14345CF834
:102688000400C5F304554FF0070E0EFA05FE20EAC4
:102698000E008E6806FA05F528434CF804009F489A
:1026A800006800F07040B0F1805F0CD01868C46812
:1026B80014F0100F41D1C468C4F38204640048695F
:1026C80000FA04F407E01868C468C4F382046400DC
:1026D800486900FA04F40D69042D36D0186800F131
:1026E800600C5CF82560086800F0F84006F0004EC1
:1026F80040EA0E0020434CF825001C680D69487E0E
:10270800012814BF16464FF00046603454F82500DF
:1027180020F00040304344F825001D680C69087E0D
:10272800012808BF4FF40062286904F01F04A24082
:1027380020F4F04002432A6170E7C468640804F09A
:102748000804486900FA04F4C5E71868026E02F044
:10275800F8420C68B2EB846F1DD01868426E02F024
:10276800F8420C68B2EB846F1AD01868826E02F0D7
:10277800F8420C68B2EB846F17D01868C26E02F08A
:10278800F8420C68B2EB846F7FF448AFC26E22F057
:102798000042C26642E7026E22F000420266DCE7AF
:1027A800426E22F000424266DFE7826E22F000426B
:1027B8008266E2E71C680A68C2F31300B8B9900E93
:1027C800013000F01F05092D3ED9920E013202F0AA
:1027D8001F00920602F0F84201258540154300EBE0
:1027E80040021E3A120542F000722A4336E092FA7D
:1027F800A2F0002843D0B0FA80F0013000F01F00AA
:1028080009283CD992FAA2F5B5FA85F50135AD0645
:1028180005F0F84092FAA2F5B5FA85F5013505F00C
:102828001F05012606FA05F5054392FAA2F0B0FA4B
:1028380080F0304400F01F0000EB4000A0F11E02C1
:10284800120542F00072D0E7800600F0F84001223D
:10285800AA40104305EB450212050243D50D05F0C9
:10286800040514342859C2F304520726964020EA76
:1028780006008E6806FA02F202432A51EAE692FA44
:10288800A2F0B0FA80F00130800600F0F84592FA24
:10289800A2F0B0FA80F0013000F01F060120B0402D
:1028A800284392FAA2F2B2FA82F2013202F01F022F
:1028B80002EB42021205D0E71968194881427ED01E
:1028C80000F5807081427AD01648806800F0E07583
:1028D800154CA46814F0010F7ED1124E00E0134E7F
:1028E800134CA2420DD0134CA24242D0124CA24229
:1028F80061D110F4800F02D10B4A91424AD00020D6
:1029080059E610F4000F50D1074A914216D0002022
:1029180051E600BFFFFF0F000000FF470010005CFA
:102928000020024000630258006002580023024061
:10293800000084CB000052C70000B8CFB26822F074
:10294800E0722A4342F40002B260264A12689209F1
:102958002549A1FB02129209013252000192019A03
:102968002AB3019A013A0192019A002AF9D100206A
:1029780021E610F0807F1CD11C4A914201D0002032
:1029880019E6B26822F0E0722A4342F08072B2601F
:10299800002010E6B26822F0E0722A4342F4800276
:1029A800B260002007E6002005E6002003E60020CC
:1029B80001E60020FFE50020FDE50220FEE50C48C9
:1029C800806800F0E0750B4CA66804F58074A46874
:1029D800344314F0010F82D05A6D42F020025A6538
:1029E8000120E8E594000024632D3E0500600258AC
:1029F800002302400020024003689A6812F0010F89
:102A080057D170B5044699682C4A114209D0436DD4
:102A180043F010034365836D43F001038365012090
:102A280070BD9968264A0A4042F001029A60FFF791
:102A3800D5FB05462368234A93420BD002F58072E2
:102A4800934207D0204A92681A6812F0010F32D1D7
:102A58001B4E0FE01D4A9168A2F500729342F3D114
:102A680011F01F0FF0D00020DAE723681A6812F07F
:102A7800010F1CD19A6812F0010F04D19A683240F4
:102A880042F001029A60FFF7A9FB401B0228ECD92B
:102A980023681B6813F0010FE7D1636D43F010033F
:102AA8006365A36D43F00103A3650120B8E7002027
:102AB800B6E7002070470020B2E700BF3F00008063
:102AC800C0FFFF7F0020024000630258002302403D
:102AD800F8B504460D46164600683D49884262D05E
:102AE8003C4B98425FD001F1C05101F586418F6897
:102AF800816811F0040F67D194F85020012A65D03D
:102B080007F01F07012384F85030092F57D840F2E7
:102B18002123FB4013F0010F51D02046FFF76CFF33
:102B2800002848D1626DA0F60273134043F4807305
:102B380063652268274B9A4237D0636D23F480136C
:102B48006365636D13F4805F32D0A36D23F00603D1
:102B5800A365E36C204ADA63E36C204A1A64E36CE9
:102B68001F4ADA6423681C221A60002384F8503054
:102B78002268536843F0100353602268D36823F037
:102B88000303E16A0B43D360216833462A46403188
:102B9800E06C01F0F1FB22689168124B0B4043F0A6
:102BA8000403936011E01049A1E7002FC9D1C4E7DD
:102BB8000023A365CDE7002384F8503005E0002307
:102BC80084F85030012000E00220F8BD0220FCE724
:102BD8000020024000210240ED24000829220008BC
:102BE80075250008C0FFFF7F0023024038B5036841
:102BF8009A68996812F0020F03D1044611F0010F88
:102C080001D1002038BD9A6802F00D02012A09D0CE
:102C1800436D43F010034365836D43F001038365FF
:102C28000120EFE79968164A0A4042F002029A60CA
:102C3800036803221A60FFF7D1FA054623689B68E8
:102C480013F0010F06D10020DCE723689B6813F01E
:102C5800010F13D0FFF7C2FA401B0228F5D92368E9
:102C68009B6813F0010FF0D0636D43F010036365A8
:102C7800A36D43F00103A3650120C3E70020C1E76A
:102C8800C0FFFF7F38B504460368524A93420BD011
:102C980002F58072934207D04F4B9B6813F4403F74
:102CA80014BF0123002306E04C4B9B6813F4403FFC
:102CB80014BF012300239BB94FF40020002104F026
:102CC8003DFB05466368B3F5101F57D042D8B3F5EE
:102CD800E01F51D026D9B3F5001F0ED145090CE0ED
:102CE80003F0A2F905466368B3F5003F14D0B3F5C5
:102CF800403F15D0B3F5803F0ED0FFF789FA41F277
:102D08000303984249D8364B9D422FD922689368CD
:102D180043F48073936038BD1B0CB5FBF3F5ECE707
:102D28008508EAE7B3F5801F0FD006D9B3F5A01FD1
:102D38000BD0B3F5C01F08D0DFE7B3F5002F04D0E0
:102D480023F40022B2F5802FD7D19B0C5B00B5FB92
:102D5800F3F5D2E7B3F5201F12D0B3F5301FCCD16D
:102D6800FFF756FA41F2030398420BD8226893689A
:102D780023F480739360CEE70509BEE78509BCE7B5
:102D8800C509BAE7174B9D420AD92268936823F40C
:102D9800407343F480739360BDE7134B9D4205D89D
:102DA8002268936823F440739360B4E70F4B9D4205
:102DB800EBD90F4B9D4207D82268936823F44073E0
:102DC80043F400739360A6E72268936843F4407362
:102DD8009360A0E7002002400063025800230240ED
:102DE800002D3101FF21BCBE21BCBE0041787D0110
:102DF80081F0FA0270B582B000230193002800F038
:102E0800F8800446436D002B42D023689A6812F07C
:102E1800005F03D09968784A0A409A6023689A68E4
:102E280012F0805F16D19968744A0A4042F08052C5
:102E38009A60734B1B689B09724AA2FB03239B0988
:102E480001330193019B2BB1019B013B0193019B32
:102E5800002BF9D121688B6813F0805F1FD1636D57
:102E680043F010036365A36D43F00103A3650125D7
:102E78008B68626D02F0100203F00403134310D054
:102E8800636D43F0100363650125284602B070BDE9
:102E9800FEF7A2FE0023A36584F85030B5E70025AD
:102EA800E6E7636D23F4817343F0020363658B687F
:102EB80013F0010F12D1544B994265D003F580737A
:102EC800994261D0514B9B6813F0010F06D1504ACB
:102ED800936823F47C1361680B439360FFF798F9B8
:102EE80041F20303984202D9A368102B57D0236BF1
:102EF800A2681343627D43EA4233227F43EA0243D6
:102F0800227F012A55D0626A22B102F47872A16A3E
:102F18000A4313432168C8683E4A02401343CB6002
:102F280021688B688A6802F0080203F004031343DF
:102F38001BD1C868227D384B034043EA8233E26ADA
:102F48001343CB6094F83830012B37D022681369CB
:102F580023F0010313612268136923F07043616B46
:102F68000B4313612046FFF78DFEE368012B37D032
:102F78002268136B23F00F031363636D23F00303BD
:102F880043F00103636580E71F4B9A6803F580737C
:102F98009B68134313F0010FA0D1204A98E7627D84
:102FA800237F1B0443EA4233226B134343F01C0381
:102FB800A6E7226A013A43EA4243A4E7216808697E
:102FC800E36B5A1E236C666C334343EA0243A26CDC
:102FD8001343134A0240134343F001030B61BAE75A
:102FE80021680A6BA369013B22F00F0213430B63AC
:102FF800C3E7012549E700BFC0FFFF5FC0FFFF6FC0
:1030080094000024632D3E05002002400060025811
:103018000063025803C0F0FFFCBFFFFF002302401B
:103028001EF800FC70B582B00023019390F8503070
:10303800012B42D004460D461646012380F8503035
:10304800FFF7D4FD00282FD1626D1D4B134043F0CC
:1030580002036365226891681A4B0B4006F08046AC
:10306800334305F480352B4343F0004393602268D3
:1030780015499368002B06DB636D23F0030343F0C7
:103088000103636514E0019B01330193019B8B42AB
:10309800EFD3636D23F0120343F01003636500233D
:1030A80084F85030012006E0636D43F01003636537
:1030B800002384F8503002B070BD0220FBE700BF47
:1030C800FDEEFFFFC0FFFE3F00F8C32538B50446FC
:1030D80003684A4A934264D002F58072934260D0F2
:1030E80002F1C05202F5844295689A6812F0080FFE
:1030F80076D1DA68DB6C13F4C07F01D1002A52DA8A
:1031080094F85030012B6DD0012384F850302046BC
:10311800FFF772FC00285FD1636D13F4807F48D0FD
:10312800A36D23F00803A36505F01F05626D344BFA
:10313800134043F4805363652368324A93423BD07B
:10314800B5FA85F25209616D21F48011616560213B
:103158001960002384F850302368D96811F4001FDF
:1031680003D0596841F4806159602369082B28D03D
:1031780021684B6823F040034B6021684B6843F09B
:1031880020034B6023681F498B422DD0DA6812F068
:10319800007F26D199681C4A0A4042F008029A60CA
:1031A8001FE01A4AA0E7636D43F02003636501201E
:1031B80017E00023A365B7E70DB10022C7E7012296
:1031C800C1E721684B6823F020034B6021684B68F6
:1031D80043F040034B60D5E7002384F8503000E00B
:1031E800022038BD0220FCE7063D012DCED9002A79
:1031F800CCD1636D43F480136365F2E7002002408D
:10320800FECFFFFF00210240C0FFFF7F00230240E6
:1032180040F2152399420FD040F21B33994207D050
:1032280040F20F1399420BD00368D3F8800070471F
:103238000368D3F88C0070470368D3F88800704798
:103248000368D3F884007047704770477047704729
:10325800F0B583B0034600220192C06893F850206D
:10326800012A00F0C882012283F85020A8B10A6A16
:10327800012A12D0186E002840F0A8801A66002291
:10328800DA658D6A002D00F09E800A6A013A05F021
:103298007C052A43CD6A154399E04A68092A74D007
:1032A8001868826812F0080F1FD10A68002A0ADB22
:1032B800C2F31304002C40F0A980920E012494401C
:1032C800C2692243C26191F82520002A40F0A780F4
:1032D8001C68E06891F8265091F82420120542EA0B
:1032E800455220F440100243E2601C68A268A068BE
:1032F80000F0080002F00402024340F05581886A99
:1033080018B1C86A002840F0948091F82500012877
:10331800E0680CBF40F0007020F00070E060002012
:1033280091F83040012C00F093801D682C6924F03E
:1033380002042C610D684FEAD55E0EF0040E1C687D
:1033480004F1140C5EF80C40C5F304550726AE4092
:1033580024EA06048E6806FA05F52C434EF80C405C
:10336800B44C246804F07044B4F1805F7ED01C68CB
:10337800E56815F0100F40F0A380E568C5F38205F5
:103388006D004C6904FA05F578E0886AB0B10A68FE
:10339800520C02F4785200F07C00CC6A20430243BD
:1033A8001C68E06C20F07B4020F46F0020F43F4064
:1033B80020F0FF001043E064DA6571E70A68520CF8
:1033C80002F47852ECE70A6A551E00E00025086806
:1033D800C0F384604A6802F01F0200FA02F21C6E11
:1033E800013C1C66D86D02432A43DA65002C7FF441
:1033F80057AF1C68E06C20F07B4020F46F0020F48D
:103408003F4020F0FF000243E26449E792FAA2F24B
:10341800B2FA82F202F01F020124944050E71868C1
:10342800C26891F8264022F4401242EA4452C2602F
:103438005BE791F82500012805D0E06820F00070CE
:10344800E06000206CE75C6D44F020045C6567E791
:103458001E6837694C6B651E774C3C408F6B3C434C
:1034680044EA054444F00204346163E71C68E568F3
:10347800C5F382056D004C6904FA05F50E69042E42
:1034880026D01C6804F1600C5CF826700C6804F007
:10349800F84407F0004E44EA0E042C434CF826404A
:1034A8001D680E690C7F012C08BF4FF00042603583
:1034B80055F8264024F00044224345F8262074E0BD
:1034C800E5686D0805F008054C6904FA05F5D5E7C7
:1034D8001E68326E356EC5F384650A68C2F313043C
:1034E800002C35D1C2F38464A54236D01E68726EB2
:1034F800756EC5F384650A68C2F31304002C34D1D1
:10350800C2F38464A54235D01A6802F16006946E4D
:10351800956EC5F384650A68C2F3130494BBC2F3BD
:103528008464A54233D01E68F26EF56EC5F38465D7
:103538000A68C2F3130494BBC2F38464A54234D16D
:10354800F46E04F0004402F0F8422243F2662CE0E4
:1035580092FAA2F4B4FA84F4C6E7346E04F0004494
:1035680002F0F84222433266C0E792FAA2F4B4FAB3
:1035780084F4C7E7746E04F0004402F0F842224372
:103588007266C1E792FAA2F4B4FA84F4C9E7F4685F
:1035980004F0004402F0F8422243F260C3E792FAD2
:1035A800A2F4B4FA84F4C9E700201C68A26812F0F7
:1035B800010F18D10D68D4F8C060CA6802F0180C61
:1035C8001E4A22FA0CF22A40C5F3130526EA05051D
:1035D8002A43C4F8C020CC68194A944208D00A6823
:1035E800002AC0F29880002283F8502003B0F0BD72
:1035F8001D680A68C2F3130424BB940E013404F056
:103608001F06092E4FD9920E013202F01F049206AE
:1036180002F0F8424FF0010C0CFA04FC42EA0C0CE0
:1036280004EB44021E3A120542F0007242EA0C0210
:1036380043E000BF0010005C1DFE00FCFFFF0F0010
:103648000000FF4792FAA2F4002C47D0B4FA84F4A1
:10365800013404F01F04092C40D992FAA2FCBCFAE8
:103668008CFC0CF1010C4FEA8C6C0CF0F84492FACB
:10367800A2F6B6FA86F6013606F01F064FF0010CE0
:103688000CFA06FC4CEA040C92FAA2F4B4FA84F49C
:10369800013404F01F0404EB4404A4F11E021205D3
:1036A80042F00072C2E7A40604F0F8440122B240D6
:1036B800144306EB460212052243D60D06F0040613
:1036C80014357459C2F304520727974024EA0704B3
:1036D8008F6807FA02F22243725180E792FAA2F445
:1036E800B4FA84F40134A40604F0F84692FAA2F479
:1036F800B4FA84F4013404F01F070124BC403443B5
:1037080092FAA2F2B2FA82F2013202F01F0202EB3E
:1037180042021205D0E71968384CA14226D004F5B8
:103728008074A14222D0364CA46814F0010F26D12F
:10373800344DAC6804F0E077334EB24227D0334EB4
:10374800B24248D0324EB2427FF44DAF14F4800FEB
:103758007FF449AF2A4A91427FF445AFAA6822F024
:10376800E0723A4342F48002AA603CE7234CA56821
:1037780004F58074A4682C4314F0010F05D05A6D29
:1037880042F020025A6501202DE7224DD1E714F4BA
:10379800000F7FF428AF1A4A91427FF424AFAA6839
:1037A80022F0E0723A4342F40002AA601A4A126810
:1037B80092091A49A1FB02129209013252000192A0
:1037C800019A002A3FF40FAF019A013A0192019A37
:1037D800002AF9D107E714F0807F7FF404AF084A84
:1037E80091427FF400AFAA6822F0E0723A4342F0B7
:1037F8008072AA60F7E60220F8E600BF00200240C7
:103808000060025800630258000084CB000052C7D1
:103818000000B8CF0023024094000024632D3E0529
:1038280090F85020012A6BD010B49BB003460122B7
:1038380080F8502000221692179200683C4A904265
:1038480060D05A6D42F020025A65002283F8502059
:10385800012068E00A6852B33648826822F4404280
:103868004C68224382601A68A0F54070824213D0E7
:1038780000F5807082420FD02F4A926812F0010F33
:103888003AD12C4884680A6889680A432B49214040
:103898000A438260002043E0254A906802F580725E
:1038A8009268024312F0010FEBD0002038E0214962
:1038B8008A6822F440428A601A68A1F540718A42F7
:1038C8000FD001F580718A420BD01B4A926812F022
:1038D800010F13D117498868184A02408A600020EE
:1038E8001EE0134A916802F5807292680A4312F04A
:1038F800010FEFD0002013E0002011E000200FE0BE
:10390800022070470E4A9068A2F5807292680243BE
:1039180012F0040F9ED05A6D42F020025A65012021
:10392800002283F850201BB05DF8044B704700BF9D
:10393800002002400023024000600258E0F0FFFF30
:103948000021024003689A68996801F0080102F0B2
:1039580004020A4309D1DA6822F00042DA60436DB2
:1039680023F480434365002070470120704700001E
:10397800064AD368000200F4E06023F4E0631B0405
:103988001B0C1843024B0343D360704700ED00E063
:103998000000FA0500B5164BDB68C3F30223C3F138
:1039A800070CBCF1040F28BF4FF0040C03F1040E00
:1039B800BEF1060F8CBF033B00234FF0FF3E0EFA0B
:1039C8000CFC21EA0C0199400EFA03F322EA0302E7
:1039D8001143002805DB0901C9B2064B19545DF8EB
:1039E80004FB00F00F000901C9B2034B1954F6E7B4
:1039F80000ED00E000E400E014ED00E0002808DB42
:103A0800420900F01F00012303FA00F0014B43F8BC
:103A18002200704700E100E000280DDB430900F0B8
:103A28001F00012202FA00F02033044A42F8230062
:103A3800BFF34F8FBFF36F8F704700BF00E100E007
:103A48000138B0F1807F0BD24FF0E0235861054A6E
:103A5800F02182F823100020986107221A6170472C
:103A68000120704700ED00E0F0B4866D0568914CC8
:103A7800914FBD4218BFA5420CBF0124002418373E
:103A8800BD4208BF44F001041837BD4208BF44F0E6
:103A980001041837BD4208BF44F001041837BD427D
:103AA80008BF44F001041837BD4208BF44F00104C0
:103AB8001837BD4208BF44F0010407F55677BD42E8
:103AC80008BF44F001041837BD4208BF44F00104A0
:103AD8001837BD4208BF44F001041837BD4208BF7B
:103AE80044F001041837BD4208BF44F001041837F8
:103AF800BD4208BF44F001041837BD4208BF44F076
:103B080001041837BD4208BF44F001046B4FBD42A1
:103B180008BF44F001041437BD4208BF44F0010453
:103B28001437BD4208BF44F001041437BD4208BF32
:103B380044F001041437BD4208BF44F001041437AF
:103B4800BD4208BF44F001041437BD4208BF44F029
:103B5800010414B95A4CA54207D1446E856E6560BC
:103B6800C46E14B1046F456F65600568514C524FBF
:103B7800BD4218BFA5420CBF012400241837BD421E
:103B880008BF44F001041837BD4208BF44F00104DF
:103B98001837BD4208BF44F001041837BD4208BFBA
:103BA80044F001041837BD4208BF44F00104183737
:103BB800BD4208BF44F0010407F55677BD4208BF6F
:103BC80044F001041837BD4208BF44F00104183717
:103BD800BD4208BF44F001041837BD4208BF44F095
:103BE80001041837BD4208BF44F001041837BD422C
:103BF80008BF44F001041837BD4208BF44F001046F
:103C080014B9304CA54215D1C46D04F01F053F24EA
:103C1800AC40B46005682C6824F480242C600468E7
:103C280063608368402B3AD0036899600368DA6060
:103C3800F0BC7047214C244FBD4218BFA5420CBFB1
:103C4800012400241437BD4208BF44F0010414378E
:103C5800BD4208BF44F001041437BD4208BF44F018
:103C680001041437BD4208BF44F001041437BD42B3
:103C780008BF44F0010414B9114CA542D8D1C46D51
:103C880004F01F050124AC40746004686360836815
:103C9800402B09D0036899600368DA60C8E70368B5
:103CA8009A600368D960C3E703689A600368D960BB
:103CB800BEE700BF10000240280002400854025826
:103CC80094540258B80402401C5402580268344BF9
:103CD80034498A4218BF9A420CBF01230023183185
:103CE8008A4208BF43F0010318318A4208BF43F0F3
:103CF800010318318A4208BF43F0010318318A4290
:103D080008BF43F0010318318A4208BF43F001039A
:103D180018318A4208BF43F0010301F556718A42FF
:103D280008BF43F0010318318A4208BF43F001037A
:103D380018318A4208BF43F0010318318A4208BF8C
:103D480043F0010318318A4208BF43F001031831D8
:103D58008A4208BF43F0010318318A4208BF43F082
:103D6800010313B9104B9A4215D110B4D1B21039CE
:103D78000E4BA3FB0143C3F302130D4CE35CC36575
:103D88005F290C4B03EA020388BF04338365806D07
:103D98005DF8044B704722F0FF028265806D704722
:103DA8001000024028000240B8040240ABAAAAAAA8
:103DB8003CA4000800FCFFFF0368284A28498B42FE
:103DC80018BF93420CBF0122002214318B4208BF56
:103DD80042F0010214318B4208BF42F00102143153
:103DE8008B4208BF42F0010214318B4208BF42F0F7
:103DF800010214318B4208BF42F0010212B9194A7C
:103E0800934212D1DBB2083B174AA2FB0323174A9D
:103E180002EB131292000266154A4266C3F30413BA
:103E2800012202FA03F383667047DAB2103A1149A5
:103E3800A1FB0212120910491944A8290CD90F4BE9
:103E480013449B0003660E4B436602F01F020123D6
:103E580003FA02F2826670470832F0E70854025803
:103E68001C54025894540258CDCCCCCC0096001661
:103E780080580258ABAAAAAAF0FBFDBF0082001026
:103E88008008024090F804C00CF1FF3107293AD8A5
:103E980010B402681C4B1D4CA24218BF9A420CBFBA
:103EA800012300231434A24208BF43F00103143451
:103EB800A24208BF43F001031434A24208BF43F0F2
:103EC80001031434A24208BF43F001031434A24290
:103ED80008BF43F0010313B90D4B9A420CD10D4BA7
:103EE80063449B00C3660C4B0367012303FA01F18B
:103EF80041675DF8044B7047084B63449B00C366F9
:103F0800074B0367F1E77047085402581C540258DE
:103F1800945402583F960016405902583F820010A8
:103F28004009024038B50446FEF758F9002C00F065
:103F38000C8205462268644B64498A4218BF9A423B
:103F48000CBF0123002318318A4208BF43F0010344
:103F580018318A4208BF43F0010318318A4208BF6A
:103F680043F0010318318A4208BF43F001031831B6
:103F78008A4208BF43F0010318318A4208BF43F060
:103F8800010301F556718A4208BF43F00103183155
:103F98008A4208BF43F0010318318A4208BF43F040
:103FA800010318318A4208BF43F0010318318A42DD
:103FB80008BF43F0010318318A4208BF43F00103E8
:103FC80018318A4208BF43F0010313B9404B9A42A3
:103FD8001AD1022384F83530002384F8343013686A
:103FE80023F00103136023681A6812F0010F7DD0D3
:103FF800FEF7F4F8431B052BF5D92023636503234B
:1040080084F83530012038BD324B33498A4218BF15
:104018009A420CBF0123002314318A4208BF43F09F
:10402800010314318A4208BF43F0010314318A4264
:1040380008BF43F0010314318A4208BF43F001036B
:1040480014318A4208BF43F001031BB9234B9A423B
:1040580040F06581022384F83530002384F8343039
:1040680013681F481840A368402B00F05F81802B1D
:104078000CBF4FF480410021E5682369DB0843EA5F
:10408800D503656943EAD503A56943EAD503E5691C
:1040980043EAD503256A43EA151303430B43136028
:1040A8002268104B1344104AA2FB03231B099B00F0
:1040B800E3652046FFF70AFEE26D02F01F010122C8
:1040C8008A4042605EE000BF1000024028000240C3
:1040D800B8040240085402581C5402589454025818
:1040E8000F00FEFFF8ABFDA7CDCCCCCC1A689A48E0
:1040F8001040A168E2680A4321690A4361690A43DA
:10410800A1690A43E1690A43216A0A430243616AD1
:10411800042900F0C8809149086891490140B1F12B
:10412800005F0DD36168A1F129001F2800F20F81FB
:104138008C4921FA00F010F0010F01D042F48012EE
:104148001A6021684A6922F00702636A1A43042B3D
:104158000ED1A06A0243E36A53B1A569002D40F06D
:10416800B880012800F0AF8030F0020000F0A08095
:104178004A612046FFF7AAFDE36D03F01F023F23C3
:10418800934083602268784B78498A4218BF9A42E4
:104198000CBF0123002318318A4208BF43F00103F2
:1041A80018318A4208BF43F0010318318A4208BF18
:1041B80043F0010318318A4208BF43F00103183164
:1041C8008A4208BF43F0010318318A4208BF43F00E
:1041D800010301F556718A4208BF43F00103183103
:1041E8008A4208BF43F0010318318A4208BF43F0EE
:1041F800010318318A4208BF43F0010318318A428B
:1042080008BF43F0010318318A4208BF43F0010395
:1042180018318A4208BF43F0010318318A4208BFA7
:1042280043F0010352498A4208BF43F001031431A5
:104238008A4208BF43F0010314318A4208BF43F0A1
:10424800010314318A4208BF43F0010314318A4242
:1042580008BF43F0010314318A4208BF43F0010349
:1042680014318A4208BF43F0010313B9414B9A4203
:1042780013D12046FFF7A0FDA368802B58D0236EEA
:1042880022791A60636EA26E5A606368013B072B3D
:1042980051D90023E3662367636700206065012323
:1042A80084F83530AFE6E16A206B01430A4332E710
:1042B800C3F30063002B3FF45BAF40236365012029
:1042C80084F835009FE6B3F1C07F14BF00230123B3
:1042D800F0E7B5F5005F0AD00228EED903287FF48D
:1042E80047AFC3F30063002B3FF442AFE5E7032871
:1042F8003FF63EAF01A555F820F000BFC3420008C5
:1043080015430008C34200081B430008C3F30063B9
:10431800E9E7B3F1C07F14BF00230123E3E740239B
:104328006365032384F8353001206CE61021A3E689
:1043380000236360A3E72046FFF7A4FDE36E002295
:104348001A60236F626F5A60A7E701205BE64F3956
:1043580003297FF6F3AEF3E63F8010FE0010005C01
:104368000000FFFF3F00C0C31000024028000240C9
:104378000854025894540258002800F0D28170B5AD
:10438800044690F83400012800F0CD81012084F81B
:10439800340094F83500C0B2012807D04FF4006308
:1043A8006365002384F83430012070BD022084F84E
:1043B80035000020606525689548964EB54218BFBF
:1043C80085420CBF012000201836B54208BF40F0D6
:1043D80001001836B54208BF40F001001836B54252
:1043E80008BF40F001001836B54208BF40F0010090
:1043F8001836B54208BF40F001001836B54208BF6C
:1044080040F0010006F55676B54208BF40F00100BD
:104418001836B54208BF40F001001836B54208BF4B
:1044280040F001001836B54208BF40F001001836C8
:10443800B54208BF40F001001836B54208BF40F049
:1044480001001836B54208BF40F0010018B972489B
:10445800854240F04B81286820F001002860204602
:10446800FFF702FB22686A4B6A498A4218BF9A42E0
:104478000CBF0123002318318A4208BF43F001030F
:1044880018318A4208BF43F0010318318A4208BF35
:1044980043F0010318318A4208BF43F00103183181
:1044A8008A4208BF43F0010318318A4208BF43F02B
:1044B800010301F556718A4208BF43F00103183120
:1044C8008A4208BF43F0010318318A4208BF43F00B
:1044D800010318318A4208BF43F0010318318A42A8
:1044E80008BF43F0010318318A4208BF43F00103B3
:1044F80018318A4208BF43F001031BB9464B9A4260
:1045080040F0F980136823F01E0343F0160313608C
:10451800236C23B12268136843F0080313602268F0
:104528003B4B3C498A4218BF9A420CBF01230023E7
:1045380018318A4208BF43F0010318318A4208BF84
:1045480043F0010318318A4208BF43F001031831D0
:104558008A4208BF43F0010318318A4208BF43F07A
:10456800010318318A4208BF43F0010301F556716F
:104578008A4208BF43F0010318318A4208BF43F05A
:10458800010318318A4208BF43F0010318318A42F7
:1045980008BF43F0010318318A4208BF43F0010302
:1045A80018318A4208BF43F0010318318A4208BF14
:1045B80043F0010318318A4208BF43F00103174949
:1045C8008A4208BF43F0010314318A4208BF43F00E
:1045D800010314318A4208BF43F0010314318A42AF
:1045E80008BF43F0010314318A4208BF43F00103B6
:1045F80014318A4208BF43F0010314318A4208BFCC
:1046080043F0010373B9064B9A421AD10AE000BF7E
:104618001000024028000240B80402400854025822
:1046280094540258236E1A6812F4803F03D01A6813
:1046380042F480721A60E36E1BB11A6842F4807209
:104648001A602268394B3A498A4218BF9A420CBF0D
:104658000123002318318A4208BF43F001031831AF
:104668008A4208BF43F0010318318A4208BF43F069
:10467800010318318A4208BF43F0010318318A4206
:1046880008BF43F0010318318A4208BF43F0010311
:1046980001F556718A4208BF43F0010318318A4276
:1046A80008BF43F0010318318A4208BF43F00103F1
:1046B80018318A4208BF43F0010318318A4208BF03
:1046C80043F0010318318A4208BF43F0010318314F
:1046D8008A4208BF43F0010313B9164B9A421AD114
:1046E800136843F00103136000205EE6286820F099
:1046F80001002860B3E6136823F00E0343F00A03B1
:104708001360236C002B3FF40AAF2268136843F050
:104718000403136003E7136843F0010313600020E8
:1047280043E60120704702203FE600BF1000024028
:1047380028000240B8040240F0B583B004460023C4
:104748000193954B1F68866D356831680268934BF5
:104758009348824218BF9A420CBF012300231830A5
:10476800824208BF43F001031830824208BF43F079
:1047780001031830824208BF43F001031830824217
:1047880008BF43F001031830824208BF43F0010319
:104798001830824208BF43F0010300F55670824288
:1047A80008BF43F001031830824208BF43F00103F9
:1047B8001830824208BF43F001031830824208BF14
:1047C80043F001031830824208BF43F00103183058
:1047D800824208BF43F001031830824208BF43F009
:1047E80001031BB96F4B9A4240F08280E36D03F0DE
:1047F8001F0308219940294200F0BE83116811F077
:10480800040F00F0B983136823F004031360E36D09
:1048180003F01F0208239340B360636D43F0010364
:104828006365E36D03F01F0325FA03F212F0010F2D
:1048380000F0C880226859495948824218BF8A4204
:104848000CBF012100211830824208BF41F001014C
:104858001830824208BF41F001011830824208BF77
:1048680041F001011830824208BF41F001011830BF
:10487800824208BF41F001011830824208BF41F06E
:10488800010100F55670824208BF41F0010118305D
:10489800824208BF41F001011830824208BF41F04E
:1048A80001011830824208BF41F0010118308242EC
:1048B80008BF41F001011830824208BF41F00101F0
:1048C8001830824208BF41F0010111B935498A42C6
:1048D80051D1526912F0800F6CD1E16D01F01F01C6
:1048E800042303FA01F10D4200F0D980226853E352
:1048F8002D4B2E48824218BF9A420CBF0123002339
:104908001430824208BF43F001031430824208BFCA
:1049180043F001031430824208BF43F0010314300E
:10492800824208BF43F001031430824208BF43F0BB
:1049380001031BB91E4B9A4240F0FD811368E06DDC
:1049480000F01F00042585400D4200F0628213F03C
:10495800040F00F05E82756013F4004F00F0F881D8
:1049680013F4803F40F0EE81A36C002B00F0E3814C
:1049780020469847DFE11168042101FA03F32B422E
:104988007AD1E36D03F01F03102199400D4200F026
:10499800108322687AE000BF9400002410000240CF
:1049A80028000240B8040240085402581C54025817
:1049B80094540258012202FA03F3B360636D43F082
:1049C80002036365E16D01F01F01042303FA01F19D
:1049D800294264D022688E4B8E48824218BF9A4280
:1049E8000CBF012300231830824208BF43F00103A3
:1049F8001830824208BF43F001031830824208BFD2
:104A080043F001031830824208BF43F00103183015
:104A1800824208BF43F001031830824208BF43F0C6
:104A2800010300F55670824208BF43F001031830B5
:104A3800824208BF43F001031830824208BF43F0A6
:104A480001031830824208BF43F001031830824244
:104A580008BF43F001031830824208BF43F0010346
:104A68001830824208BF43F00103002B40F09482C3
:104A7800694B9A4200F090821368E36D03F01F03BC
:104A8800102199400D4200F0948222681368C3F304
:104A9800800362E0B160636D43F004036365E16D18
:104AA80001F01F01102303FA01F1294200F081826D
:104AB800226803F1804303F500335648824218BF49
:104AC8009A420CBF012300231830824208BF43F0EA
:104AD80001031830824208BF43F0010318308242B4
:104AE80008BF43F001031830824208BF43F00103B6
:104AF8001830824208BF43F001031830824208BFD1
:104B080043F0010300F55670824208BF43F00103E9
:104B18001830824208BF43F001031830824208BFB0
:104B280043F001031830824208BF43F001031830F4
:104B3800824208BF43F001031830824208BF43F0A5
:104B480001031830824208BF43F0010313B9324B06
:104B58009A429BD11368C3F3C003002B00F029824B
:104B6800B16023681A6812F4802F11D01B6813F4FF
:104B7800002F06D1236C002B00F01B82204698479B
:104B880017E2A36C002B00F014822046984710E22D
:104B98001A6812F4807F03D11A6822F008021A609A
:104BA800236C002B00F005822046984701E20B6831
:104BB800C3F3400359E22268136823F01603136015
:104BC8002268536923F080035361236CBBB12268C8
:104BD800136823F008031360E36D03F01F023F23FB
:104BE8009340B360012384F83530002384F83430CF
:104BF800236D002B00F09F80204698479BE0A36C14
:104C0800002BE4D1E8E7E36BD3B12046984717E0DF
:104C18001000024028000240B80402401A6812F44A
:104C2800807F09D11A6822F010021A60012384F8E3
:104C38003530002384F83430E36B0BB120469847B5
:104C4800636D002B77D0636D13F0010F6FD00423D1
:104C580084F8353022687E4B7E498A4218BF9A42D2
:104C68000CBF0123002318318A4208BF43F0010317
:104C780018318A4208BF43F0010318318A4208BF3D
:104C880043F0010318318A4208BF43F00103183189
:104C98008A4208BF43F0010318318A4208BF43F033
:104CA800010301F556718A4208BF43F00103183128
:104CB8008A4208BF43F0010318318A4208BF43F013
:104CC800010318318A4208BF43F0010318318A42B0
:104CD80008BF43F0010318318A4208BF43F00103BB
:104CE80018318A4208BF43F0010313B95A4B9A425C
:104CF80023D1136823F001031360584BA3FB073734
:104D0800BF0A019B01330193BB4204D823681B6887
:104D180013F0010FF5D123681B6813F0010F14BFBE
:104D28000323012384F83530002384F83430E36CFE
:104D38000BB12046984703B0F0BD136823F0010378
:104D48001360DAE7236C002BF5D020469847F2E78A
:104D580013F0200F52D122683D4B3E498A4218BFBA
:104D68009A420CBF0123002318318A4208BF43F03E
:104D7800010318318A4208BF43F0010318318A42FF
:104D880008BF43F0010318318A4208BF43F001030A
:104D980018318A4208BF43F0010318318A4208BF1C
:104DA80043F0010301F556718A4208BF43F001033D
:104DB80018318A4208BF43F0010318318A4208BFFC
:104DC80043F0010318318A4208BF43F00103183148
:104DD8008A4208BF43F0010318318A4208BF43F0F2
:104DE800010318318A4208BF43F0010313B91A4B73
:104DF8009A4209D1136823F008031360236C002B2F
:104E080099D02046984796E7136823F00403136067
:104E1800F4E7022585400D4200F08A8013F0020F66
:104E280000F08680756013F4004F19D013F4803FAA
:104E380006D1636C002B3FF47EAF204698477AE793
:104E4800E36B002B3FF477AF2046984773E700BF2A
:104E58001000024028000240B8040240B5814E1BF1
:104E680013F0200F58D122688E4B8F498A4218BF01
:104E78009A420CBF0123002318318A4208BF43F02D
:104E8800010318318A4208BF43F0010318318A42EE
:104E980008BF43F0010318318A4208BF43F00103F9
:104EA80018318A4208BF43F0010318318A4208BF0B
:104EB80043F0010301F556718A4208BF43F001032C
:104EC80018318A4208BF43F0010318318A4208BFEB
:104ED80043F0010318318A4208BF43F00103183137
:104EE8008A4208BF43F0010318318A4208BF43F0E1
:104EF800010318318A4208BF43F0010313B96B4B11
:104F08009A4210D1136823F014031360012384F824
:104F18003530002384F83430E36B002B3FF40BAFBB
:104F28002046984707E7136823F00A031360EDE764
:104F3800082505FA00F008423FF4FDAE13F0080F0B
:104F48003FF4F9AE136823F00E031360E36D03F02A
:104F58001F03012202FA03F37360626584F83520A7
:104F6800002384F83430E36C002B3FF4E4AE204691
:104F78009847E0E62268EDE525FA03F111F0010F04
:104F88007FF4A7ACE16D01F01F01042303FA01F1DE
:104F98000D423FF484AD2268136813F0020F7FF4CA
:104FA80079ADE16D01F01F01102303FA01F10D4203
:104FB800E0D1E26D02F01F02202303FA02F22A4236
:104FC8003FF43EAE2168374B3748814218BF9942BB
:104FD8000CBF012300231830814208BF43F00103AE
:104FE8001830814208BF43F001031830814208BFDE
:104FF80043F001031830814208BF43F00103183021
:10500800814208BF43F001031830814208BF43F0D2
:10501800010300F55670814208BF43F001031830C0
:10502800814208BF43F001031830814208BF43F0B2
:1050380001031830814208BF43F001031830814250
:1050480008BF43F001031830814208BF43F0010351
:105058001830814208BF43F001031BB9134B994232
:105068007FF4A5AD0B68C3F30013002B3FF4E8AD44
:10507800B26094F83530DBB2042B3FF49CAD236862
:105088001A6812F4802F3FF4C9AD1B6813F4002F7F
:105098007FF4B9AD636C002B3FF4D2AD204698473E
:1050A800CEE500BF1000024028000240B8040240CC
:1050B8000B68002B00F00F812DE9F04F83B04FF003
:1050C800000C6246844C854D854EDFF81C8261E0F9
:1050D80083684FF0030A0AFA0CFA23EA0A0ACB6833
:1050E80003FA0CF343EA0A038360436823EA0E0ECB
:1050F8004B68C3F30013934043EA0E03436056E042
:10510800002303FA0BF343EA0A03CEF808304FF002
:10511800B0431B686FEA090E4F6817F4801F0CBF75
:105128000EEA030349EA03034FF0B04ACAF8003015
:10513800DAF804304F6817F4001F0CBF0EEA0303B7
:1051480049EA03034FF0B04ACAF80430DAF8843069
:105158004F6817F4003F0CBF0EEA030349EA030344
:105168004FF0B04ACAF88430DAF880304F6817F444
:10517800803F0CBF0EEA030349EA03034FF0B04E29
:10518800CEF8803001320B680CF1020C33FA02F7CA
:1051980000F09E804FF0010E0EFA02FE1EEA03098F
:1051A800F0D04B6803F00303013B012B90D94B6807
:1051B80003F00303032B27D0C3684FF0030E0EFA46
:1051C8000CFE23EA0E0E8B6803FA0CF343EA0E0377
:1051D800C3604B6803F00303022B15D14FEAD20ECC
:1051E80000EB8E0EDEF820A002F007034FEA830BD7
:1051F8000F2303FA0BF32AEA030A0B6903FA0BF3EA
:1052080043EA0A03CEF8203003684FF0030E0EFA83
:105218000CFE23EA0E0E4B6803F0030303FA0CF3AB
:1052280043EA0E0303604B6813F4403FAAD0D4F856
:10523800F43043F00203C4F8F430D4F8F43003F047
:1052480002030193019B22F0030EAE44DEF808A08E
:1052580002F003034FEA830B0F2303FA0BF32AEA46
:10526800030AB0423FF44CAF1E4B984220D0404551
:1052780020D003F5006398421ED003F5806398425E
:105288001CD003F5806398421AD003F580639842D6
:1052980018D003F58063984216D003F580639842CE
:1052A80014D003F5806398420CBF09230A2328E72A
:1052B800012326E7022324E7032322E7042320E728
:1052C80005231EE706231CE707231AE7082318E728
:1052D80003B0BDE8F08F704700440258000400583E
:1052E800000002580004025800080258002900F083
:1052F800A5802DE9F04F83B08C460023DFF8449158
:10530800DFF84481DFF844A1DFF844B12AE04FF028
:10531800000E0EFA01F1019EB14271D004685900E5
:10532800032505FA01F10C43046023FA05F400EBA8
:105338008404256A03F00706B7000F26BE4025EA55
:1053480006052562C46824EA0104C460446824EAA6
:1053580002024260826822EA0101816001333CFA5C
:1053680003F268D001229A4012EA0C07F6D023F023
:1053780003044C44A66803F0030189000F258D40FF
:105388002E4001964045C2D0504521D0584522D0E4
:105398002B4EB04222D006F58066B04221D006F5E9
:1053A8008066B04220D006F58066B0421FD006F570
:1053B8008066B0421ED0DFF89CE070451DD00EF527
:1053C800806E70450CBF4FF0090E4FF00A0EA0E733
:1053D8004FF0010E9DE74FF0020E9AE74FF0030ED3
:1053E80097E74FF0040E94E74FF0050E91E74FF062
:1053F800060E8EE74FF0070E8BE74FF0080E88E792
:105408004FF0B041D1F8806026EA0706C1F8806005
:10541800D1F8846026EA0706C1F884604E6826EA57
:1054280007064E600E6826EA07070F60A16821EAA2
:105438000505A56072E703B0BDE8F08F704700BFAF
:10544800000C0258000400580000025800040258DA
:1054580000080258002002580AB181617047090407
:105468008161704708B54FF0B043D3F888300342E4
:1054780000D108BD4FF0B043C3F88800FCF79AF993
:10548800F7E7000038B5124BDB6813F0040F07D1BB
:105498000F4BDB6803F00703181A18BF012038BD4B
:1054A8000B4AD36823F007031843D060FCF796FE35
:1054B8000446074D6B6813F4005F07D1FCF78EFEB6
:1054C800001BB0F57A7FF5D90120E8E70020E6E770
:1054D80000480258002800F03983F8B504460368EC
:1054E80013F0010F25D0944A136903F03803926A28
:1054F800102B15D0182B0FD06368B3F5803F3FD021
:10550800002B53D18C4B1A6822F480321A601A6827
:1055180022F480221A6038E002F00302022AEBD15A
:10552800854B1B6813F4003F03D06368002B00F021
:105538000F83236813F0020F00F0A1807E4A1369DD
:10554800926A13F038035AD0182B55D0E268002A13
:1055580000F0DE8078490B6823F0190313430B60D1
:10556800FCF73CFE0546744E336813F0040F40F018
:10557800AD80FCF733FE401B0228F5D90320EEE28C
:105588006D4A136843F48033136063682BB3FCF7E8
:1055980025FE0546684E336813F4003FC9D1FCF771
:1055A8001DFE401B6428F6D90320D8E2B3F5A02FCE
:1055B80009D0614B1A6822F480321A601A6822F402
:1055C80080221A60E1E75C4B1A6842F480221A6074
:1055D8001A6842F480321A60D7E7FCF7FFFD0546E7
:1055E800554E336813F4003FA3D0FCF7F7FD401B7A
:1055F8006428F6D90320B2E212F0030FA6D14E4B6D
:105608001B6813F0040F03D0E368002B00F0A2829C
:10561800494A136823F01903E1680B431360FCF748
:10562800DDFD0546444E336813F0040F06D1FCF740
:10563800D5FD401B0228F6D9032090E2FCF7E8FDCF
:1056480041F20303984212D82269402A07D03A4906
:105658004B6823F47C3343EA02334B600FE0364A4D
:10566800536823F47C3343F40033536007E0324A31
:105678005368216923F0FE4343EA016353602368BA
:1056880013F0100F00F088802B4A136903F03803D9
:10569800926A082B56D0182B50D0E369002B00F0E3
:1056A800B880254A136843F080031360FCF796FD21
:1056B8000546214E336813F4807F40F08880FCF75C
:1056C8008DFD401B0228F5D9032048E2FCF7A0FD18
:1056D80041F20303984212D82269402A07D016499A
:1056E8004B6823F47C3343EA02334B60C7E7124A22
:1056F800536823F47C3343F400335360BFE70E4A06
:105708005368216923F0FE4343EA01635360B6E717
:10571800094A136823F001031360FCF75FFD05468F
:10572800054E336813F0040FA9D0FCF757FD401B52
:105738000228F6D9032012E20044025802F00302BC
:10574800012AAAD1A14B1B6813F4807F03D0E36917
:10575800802B40F00182FCF75BFD41F20303984285
:1057680012D8226A202A07D098494B6823F0F843B8
:1057780043EA82634B600FE0944A536823F0F8438E
:1057880043F08043536007E0904AD368216A23F0CE
:105798007C5343EA0163D360236813F0080F60D099
:1057A8006369002B49D0894A536F43F0010353675B
:1057B800FCF714FD0546854E736F13F0020F50D1A8
:1057C800FCF70CFD401B0228F6D90320C7E1FCF7C3
:1057D8001FFD41F20303984212D8226A202A07D0FB
:1057E8007A494B6823F0F84343EA82634B60D3E776
:1057F800764A536823F0F84343F080435360CBE77D
:10580800724AD368216A23F07C5343EA0163D36068
:10581800C2E76E4A136823F080031360FCF7DEFCCE
:1058280005466A4E336813F4807FB5D0FCF7D6FC82
:10583800401B0228F6D9032091E1644A536F23F0F4
:1058480001035367FCF7CAFC0546604E736F13F0FB
:10585800020F06D0FCF7C2FC401B0228F6D9032031
:105868007DE1236813F0200F29D0A3699BB1574A23
:10587800136843F480531360FCF7B0FC0546534E9D
:10588800336813F4005F1AD1FCF7A8FC401B022808
:10589800F6D9032063E14D4A136823F4805313605B
:1058A800FCF79CFC0546494E336813F4005F06D0AC
:1058B800FCF794FC401B0228F6D903204FE123682B
:1058C80013F0040F21D1636A002B00F047813F4A8F
:1058D800126902F03802182A00F0EE80022B79D003
:1058E8003A4A136823F080731360FCF777FC044688
:1058F800364D2B6813F0007F00F0DC80FCF76EFC5F
:10590800001B0228F5D9032029E1314A136843F422
:1059180080731360FCF762FC05462D4E336813F460
:10592800807F06D1FCF75AFC401B6428F6D9032077
:1059380015E1A368012B0AD00BBB244B1A6F22F088
:1059480001021A671A6F22F004021A6704E01F4A5C
:10595800136F43F001031367A36833B3FCF73EFCEE
:1059680005461A4E41F28837336F13F0020FAAD159
:10597800FCF734FC401BB842F6D90320EFE0052BB6
:1059880009D0124B1A6F22F001021A671A6F22F01F
:1059980004021A67E0E70D4B1A6F42F004021A6717
:1059A8001A6F42F001021A67D6E7FCF717FC0546A2
:1059B800064E41F28837336F13F0020F83D0FCF79D
:1059C8000DFC401BB842F6D90320C8E00044025839
:1059D80000480258694A136823F080731360FCF783
:1059E800FDFB0546654E336813F0007F06D0FCF7D3
:1059F800F5FB401B0228F6D90320B0E05F4B996AFB
:105A08005F4A0A40A16A0A43E16A42EA01129A62BD
:105A1800626B013A520292B2A16B0139090401F496
:105A2800FE010A43216B0139C1F308010A43E16B06
:105A38000139090601F0FE410A431A63DA6A22F0C5
:105A48000102DA62586BA16C4E4A024042EAC10276
:105A58005A63DA6A22F00C02216C0A43DA62DA6AC3
:105A680022F00202616C0A43DA62DA6A42F4803296
:105A7800DA62DA6A42F40032DA62DA6A42F48022DE
:105A8800DA62DA6A42F00102DA621A6842F0807277
:105A98001A60FCF7A3FB0446384D2B6813F0007F0F
:105AA80006D1FCF79BFB001B0228F6D9032056E021
:105AB800002054E0002052E0304A916A106B012B1C
:105AC8004ED001F00303A26A93424BD1C1F30511F2
