:020000040800F2
:1000000000000824B1530008595200085B52000850
:100010005D5200085F5200086152000800000000B5
:100020000000000000000000000000006352000813
:10003000655200080000000067520008695200087D
:10004000015400080154000801540008015400083C
:10005000015400080154000801540008015400082C
:1000600001540008015400080154000871520008AE
:10007000015400080154000801540008015400080C
:10008000015400080154000881520008015400087E
:10009000015400080154000899520008A9520008B0
:1000A00001540008015400080154000801540008DC
:1000B000B55200080154000801540008015400081A
:1000C00001540008015400080154000801540008BC
:1000D00001540008015400080154000801540008AC
:1000E00001540008015400080000000001540008F9
:1000F000015400080154000801540008015400088C
:100100000154000801540008C552000801540008B9
:10011000015400080154000801540008015400086B
:10012000015400080154000801540008015400085B
:10013000015400080154000801540008015400084B
:1001400000000000000000000000000000000000AF
:10015000015400080154000801540008015400082B
:10016000015400080154000801540008015400081B
:100170000154000801540008015400080000000068
:1001800001540008015400080154000801540008FB
:1001900001540008015400080154000801540008EB
:1001A00001540008015400080154000801540008DB
:1001B00001540008015400080154000801540008CB
:1001C00001540008015400080154000801540008BB
:1001D00001540008015400080154000801540008AB
:1001E000015400080154000801540008015400089B
:1001F000015400080154000801540008015400088B
:10020000015400080154000801540008015400087A
:100210000154000801540008D55200080154000898
:1002200001540008015400080154000800000000B7
:1002300001540008015400080000000001540008A7
:10024000015400080154000801540008015400083A
:10025000015400080154000801540008015400082A
:10026000015400080154000801540008015400081A
:100270000154000801540008015400080000000067
:100280000154000801540008015400080000000057
:08029000000000000154000809
:1002980010B5054C237833B9044B13B10448AFF3B8
:1002A80000800123237010BD6001002400000000BD
:1002B800C4EE000808B5034B1BB103490348AFF36C
:1002C800008008BD0000000064010024C4EE00089E
:1002D80081F0004102E000BF83F0004330B54FEAEF
:1002E80041044FEA430594EA050F08BF90EA020F5C
:1002F8001FBF54EA000C55EA020C7FEA645C7FEAEF
:10030800655C00F0E2804FEA5454D4EB5555B8BF11
:100318006D420CDD2C4480EA020281EA030382EA82
:10032800000083EA010180EA020281EA0303362D14
:1003380088BF30BD11F0004F4FEA01314FF4801CE7
:100348004CEA113102D0404261EB410113F0004FF9
:100358004FEA03334CEA133302D0524263EB4303B0
:1003680094EA050F00F0A780A4F10104D5F1200E4E
:100378000DDB02FA0EFC22FA05F2801841F10001A9
:1003880003FA0EF2801843FA05F359410EE0A5F17D
:1003980020050EF1200E012A03FA0EFC28BF4CF0AE
:1003A800020C43FA05F3C01851EBE37101F0004564
:1003B80007D54FF0000EDCF1000C7EEB00006EEB71
:1003C8000101B1F5801F1BD3B1F5001F0CD34908FB
:1003D8005FEA30004FEA3C0C04F101044FEA445252
:1003E80012F5800F80F09A80BCF1004F08BF5FEAD9
:1003F800500C50F1000041EB045141EA050130BDB9
:100408005FEA4C0C404141EB0101013C28BFB1F5CA
:10041800801FE9D291F0000F04BF01460020B1FA15
:1004280081F308BF2033A3F10B03B3F120020CDAE8
:100438000C3208DD02F1140CC2F10C0201FA0CF0C6
:1004480021FA02F10CE002F11402D8BFC2F1200C2B
:1004580001FA02F120FA0CFCDCBF41EA0C019040E1
:10046800E41AA2BF01EB0451294330BD6FEA04042A
:100478001F3C1CDA0C340EDC04F11404C4F1200215
:1004880020FA04F001FA02F340EA030021FA04F327
:1004980045EA030130BDC4F10C04C4F1200220FA7E
:1004A80002F001FA04F340EA0300294630BD21FABC
:1004B80004F0294630BD94F0000F83F4801306BF82
:1004C80081F480110134013D4EE77FEA645C18BF76
:1004D8007FEA655C29D094EA050F08BF90EA020F0D
:1004E80005D054EA000C04BF1946104630BD91EA05
:1004F800030F1EBF0021002030BD5FEA545C05D108
:100508004000494128BF41F0004130BD14F5800446
:100518003CBF01F5801130BD01F0004545F0FE41BA
:1005280041F470014FF0000030BD7FEA645C1ABFEF
:10053800194610467FEA655C1CBF0B46024650EA26
:10054800013406BF52EA033591EA030F41F4002152
:1005580030BD00BF90F0000F04BF0021704730B5D8
:100568004FF4806404F132044FF000054FF00001AD
:1005780050E700BF90F0000F04BF0021704730B56E
:100588004FF4806404F1320410F0004548BF404243
:100598004FF000013EE700BF42004FEAE2014FEA98
:1005A80031014FEA02701FBF12F07F4393F07F4F73
:1005B80081F06051704732F07F4208BF704793F076
:1005C8007F4F04BF41F40021704730B54FF4607489
:1005D80001F0004521F000411CE700BF50EA01028C
:1005E80008BF704730B54FF000050AE050EA010235
:1005F80008BF704730B511F0004502D5404261EBA5
:1006080041014FF4806404F132045FEA915C3FF4E5
:10061800D8AE4FF003025FEADC0C18BF03325FEA82
:10062800DC0C18BF033202EBDC02C2F1200300FA33
:1006380003FC20FA02F001FA03FE40EA0E0021FA58
:1006480002F11444BDE600BF70B584B04FF0FF332B
:1006580002930192009101230246A0210A4808F062
:1006680007FF70B9084E052501242B462246A02114
:10067800304609F0FDF803460028F6D1184604B0C4
:1006880070BD0123FAE700BF7C0C002400B583B0DD
:1006980021238DF80030030A8DF801308DF802000F
:1006A80001238DF803306B4601A8002213F8011BC3
:1006B8004A408342FAD18DF8042005226946002079
:1006C800FFF7C2FF03B05DF804FB000000B585B07A
:1006D8004FF0FF3302930192009101230246A021BB
:1006E800044808F0C3FF003818BF012005B05DF8C2
:1006F80004FB00BF7C0C002410B582B00446052220
:1007080069460020FFF7E2FFF8B986469DF80330F6
:10071800012B26D0224B00221A706A460DF1040CD8
:10072800734612F8011B4B40DBB26245F9D19DF8C4
:1007380004209A421ED00022194B1A70194B4FF010
:10074800010E83F805E09A7108E00022144B1A7034
:10075800144B4FF0010E83F805E09A71704602B011
:1007680010BD0F4B02221A700E4B00225A71012243
:100778009A71D2E79DF80030212B07D19DF801200E
:100788009DF8023043EA02232380E7E70022044B66
:100798001A70044B012159719A714FF0020EDDE76E
:1007A800000000240400002408B50D48FFF7A4FF4A
:1007B80060B90C4B1A8A07EE902AF8EE677ADFEDDB
:1007C8000A6A87EEA67A83ED0F7A08BD074B0122E5
:1007D8001A73074B0D221A70024B064ADA63F4E7C4
:1007E80014000024040000240000C842840A0024E5
:1007F800970A0024857C983F70B5049D90ED007B96
:10080800B4EEC07BF1EE10FA35DB30EE470B90ED1D
:10081800026B36EE477B80EE076B4FF0000E91EDD2
:10082800007BB4EEC17BF1EE10FA65DB31EE471BBD
:1008380091ED025B35EE477B81EE074B002405FB0B
:1008480004EE02EBCE0393ED000B93ED027B37EE43
:10085800407B07EE060BAE4402EBCE0292ED007B26
:1008680092ED025B35EE475B05EE067B37EE407B8B
:1008780007EE040B70BD1C684FEAC40C00EBC406FD
:1008880096ED007BB4EEC07BF1EE10FA28DD4FEA5E
:10089800540C012C21D94FF0000E00EBCC0696ED3C
:1008A800007BB4EEC07BF1EE10FAD4BFE646644696
:1008B8000EEB040C4FEA5C0CA4EB0E06012EECD8F0
:1008C80000EBCE0090ED006B30EE460B90ED027B16
:1008D80037EE467B80EE076BA1E74FF0000EEFE79F
:1008E80004F1FF3E604410ED026B30EE460B37EE2C
:1008F800467B80EE076B92E75868C60001EBC003A1
:1009080093ED007BB4EEC17BF1EE10FA24DD4308D1
:1009180001281FD9002401EBC30C9CED007BB4EE29
:10092800C17BF1EE10FAD4BF1C46184623185B08A9
:10093800A0EB040CBCF1010FEDD801EBC40191ED63
:10094800005B31EE451B91ED027B37EE457B81EE76
:10095800074B74E70024F0E7441E314411ED025BB5
:1009680031EE451B37EE457B81EE074B67E700000C
:100978002DE9F0412DED108BA4B0D94A137901333C
:10098800DBB21371092B40F2DC83134600221A7183
:10099800D44B93ED067B8DED027B9FEDC78B27EE45
:1009A800088BD04B93ED467BB5EEC07BF1EE10FA89
:1009B80040F3DA8393ED446BCB4B93ED007B26EE4B
:1009C800076BCA4B93F8603013B1C84B83ED006BCB
:1009D800C44B93ED387AB7EEC77A9FEDB95B27EE33
:1009E800057BC34B83ED207BC04B93ED005B36EE5C
:1009F800456BB4EEC67BF1EE10FA11D4B94B93ED0A
:100A0800397AB7EEC77A9FEDAE4B27EE047BB4EE8A
:100A1800C67BF1EE10FA40F3AB83B54B83ED207B38
:100A2800B34C94ED20FB35EE0FFB84ED1EFBB14F6C
:100A3800B14EA6F1D8054FF01B08CDF800803B4613
:100A4800AE4A31462846B0EE4F1BB0EE480BFFF7D2
:100A5800D3FEB0EE409B84ED2A0BCDF800803B46D8
:100A680005F5F07231462846B0EE4F1BB0EE480B44
:100A7800FFF7C2FE84ED2C0B9A4B93ED4A7BB0EE48
:100A8800476B8DED0A7BB7EE007BB4EE476BF1EE5A
:100A980010FA40F07183944B83ED029B83ED040BB5
:100AA800924B93F861302BB18F4BD3E902018F4BF6
:100AB800C3E902018B4B93ED347AB7EEC77A9FED09
:100AC800806B27EE067B884B93ED025B8DED0C5B0C
:100AD800864B93ED026B35EE465BB4EEC57BF1EECB
:100AE80010FA0FD47F4B93ED357AB7EEC77A9FEDA6
:100AF800744B27EE047BB4EEC75BF1EE10FA58BFD7
:100B0800B0EE457B36EE076B8DED046B784B83EDCD
:100B18000C6B744B93ED407AB7EEC77AB4EEC76BA3
:100B2800F1EE10FA40F34183714B83ED207B6D4C5D
:100B380094ED0A8B94ED0C7B38EE079B39EE079BFE
:100B48009FED617B29EE079B94ED08ABB0EE4A0B55
:100B58000DF01EF9B0EE40BB8DED1C0BB0EE4A0B4C
:100B68000DF0CAF88DED1E0B29EE0B7B08EE007B0D
:100B7800F7EEC74BCDED234A28EE0B8B19EE008B11
:100B8800B7EEC88BD4ED3A7AF7EE008A78EEE78AAA
:100B9800564B93ED167A68EE878A67EEA47A78EE5C
:100BA800A78AC3ED168AD4ED3BEAF5EEC0EAF1EE6A
:100BB80010FACCBFB0EE687A9DED237A4C4B93EDDA
:100BC800206B8DED0E6BB7EEC77A36EE475B8DED79
:100BD800105B83ED185B454A92ED066B8DED126B49
:100BE800404B93ED147B15EE076B93ED167B26EEC9
:100BF800074B8DED204B92ED047B8DED147B93ED2F
:100C0800106B05EE067B37EE047B8DED087B93EDCC
:100C18002C9BB4EEC79BF1EE10FA40F1DC82344B0A
:100C280083ED109B2F4B93ED3FEADFED357A2EEEE7
:100C380027EA9DED027BB0EEC7AB9FED257B2AEE40
:100C480007AB2B4C84ED32AB1B230093294B2D4A69
:100C5800A2F5E751A1F1D800B0EE4F1BB0EE4A0B58
:100C6800FFF7CAFD9FED1C7B20EE070B84ED340BCC
:100C78001E4B93F862302BB11B4BD3E904011B4B7D
:100C8800C3E90801174B93ED367AB7EEC77A9FEDA3
:100C98000C6B27EE067B164B83ED227B124B93EDF4
:100CA800045B8DED165B114B93ED086B35EE465BDF
:100CB8002AE000BFAFF30080FB2BED663D1923400F
:100CC8002D431CEBE2361A3F1D339045A779E23FCE
:100CD800000000603D192340FCA9F1D24D62503F4D
:100CE8000002002408020024800100249801002446
:100CF80038030024487C0108E00B010830EF0008A5
:100D08003ACD133FC0280108B4EEC57BF1EE10FAC6
:100D180011D4E54B93ED377AB7EEC77A9FEDD44BF4
:100D280027EE047BB4EEC57BF1EE10FA40F3678240
:100D3800DE4B83ED227BDD4B93ED227B36EE076B9A
:100D48008DED066B83ED0A6BD74B93ED427AB7EEC8
:100D5800C77AB4EEC76BF1EE10FA40F35482D34B66
:100D680083ED227BB0EE08BB9DED027B27EE0BBB2B
:100D7800CE4B83ED1ABB93ED227B8DED187B20EED5
:100D8800070B2BEE400BB7EECECAB4EECC0BF1EE50
:100D980010FA40F34E8283ED24CBC44B93ED107BC5
:100DA800B0EE476B8DED1A7B93ED247B36EE077B17
:100DB80083ED147BB4EEC79BF1EE10FA40F14A8242
:100DC80083ED149BBA4FBB4EA6F1D8054FF01B0814
:100DD800CDF800803B46B84A31462846B0EE4F1B56
:100DE800B0EE4A0BFFF708FD9FEDA3DB20EE0D9B4D
:100DF800AE4C84ED369BCDF800803B46AF4A314679
:100E08002846B0EE4F1BB0EE4A0BFFF7F5FC20EE7C
:100E18000DDB84ED32DB9DED0E7B07EE0D9B29EE9D
:100E28000BBBB4EECBCBF1EE10FA40F1208284ED8F
:100E380026CB9D4B93ED3C7AF7EE007A77EEC77A96
:100E48009F4AD2ED176A67EEA67A27EE087A77EE00
:100E5800877AC2ED177A93ED3D7AB5EE407AF1EED6
:100E680010FA37FE888AB7EEC82A9DED187B37EE50
:100E7800421B8E4B83ED1A1B92ED0CDB8A4B93EDD4
:100E8800247BB0EE4D6B11EE076B93ED26CB26EE6F
:100E98000CCB92ED0AAB93ED207BB0EE4A3B01EE12
:100EA800073B33EE0C3B93ED306BB4EEC36BF1EEC6
:100EB80010FA40F1ED817D4B83ED126B7B4B93ED86
:100EC800124B93ED267B34EE077B83ED167BB4EE55
:100ED800C76BF1EE10FA40F1EB8183ED166B734BA3
:100EE80093ED145B93ED16BB9DED1C7B2BEE076B0E
:100EF8009DED1E0B15EE006BB6EE009B26EE099BD2
:100F080025EE075B0BEE005B9FED5D7B25EE075B37
:100F180035EE490B9FED5C7B37EE497B37EE457B21
:100F280086FE009B89FE079B86FE405B85FE475B2D
:100F380039EE055BBEEE009B25EE095B36EE056BD0
:100F48009FED539B26EE096B83ED006B30EE050B8E
:100F580020EE090B83ED020B37EE057B27EE097BAC
:100F680083ED047B83ED082BF5EEC0EAF1EE10FA71
:100F780040F3AB81B7EEE87A4C4B83ED067B9DEDF1
:100F88000C7B83ED2E7B9DED167B83ED307B4C4BEC
:100F980093F8633023B14A4B00200021C3E90E01C6
:100FA800B0EE007B9DED0A6BB4EEC76BF1EE10FA64
:100FB80000F390813C4B93ED006B414B93ED0E5B3E
:100FC80036EE456B384B93ED027B9FED292B27EED0
:100FD800027BB4EEC76BF1EE10FA0ADC93ED047BEA
:100FE80027EE027BB4EEC76BF1EE10FA58BFB0EEF5
:100FF800467B35EE077B2D4B83ED287B9FED265BEB
:101008009DED026B17EE056B83ED1C6B264AD2F83B
:10101800F810C3F8E0102A4B002183F8601083ED24
:1010280000FB83F861109DED046B83ED026B92ED7C
:10103800125B9DED1A2B32EE426B9DED100B00EE0C
:10104800056B9DED085B32EE455B36EE056B9FED5B
:10105800085B9DED142B06EE052B9FED116BB4EE8E
:10106800C62BF1EE10FA40F3388183ED046B29E0CA
:101078002D431CEBE2361A3FFCA9F1D24D62503FDA
:10108800AA4C58E87AB6EB3F0000000000000000C8
:101098001D339045A779F23FD5EB7BF3E9CEBA3FF4
:1010A800000000C07AB64B40080200243803002430
:1010B800487C0108E00B01089844010870600108A9
:1010C80098010024A24B9FED986B9DED125B9DED5E
:1010D800202B02EE065B83ED065B002283F862207C
:1010E8009DED065B83ED085B9A4B93ED222B34EE66
:1010F800445BBAEE040B25EE005B01EE025B34EEB6
:10110800434B35EE044B04EE06AB9FED896BB4EE12
:10111800C6ABF1EE10FA40F3F2808D4B83ED0A6B0B
:101128008B4B9FED816B0CEE06DB83ED0CDB002215
:1011380083F8632083ED0E7B24B0BDEC108BBDE8F3
:10114800F081844A92ED067B8DED027B9FED7A8BD0
:1011580027EE088B012B7FF424AC7D4BD3E91401D7
:101168007D4BC3E900011CE47A4B93ED486B28E4FE
:101178007A4B83ED206B53E4B0EE007B9DED0A6B58
:10118800B4EE476BF1EE10FA07D1734BB1EE400B9A
:1011980083ED040B83ED029B82E46F4B002000215A
:1011A800C3E90201C3E904017AE46A4B93ED417A89
:1011B800B7EEC77A9DED046BB4EEC76BF1EE10FA8B
:1011C80003D5664B83ED207BB1E4644B9DED047B36
:1011D80083ED207BABE45F4B93ED2E7B9DED086B9D
:1011E800B4EEC67BF1EE10FA03DD5C4B83ED107BA9
:1011F80018E55A4B9DED087B83ED107B12E5574BA4
:1012080083ED225B97E5534B93ED437AB7EEC77AAC
:101218009DED066BB4EEC76BF1EE10FA03D54F4B9C
:1012280083ED227B9EE54D4B9DED067B83ED227B76
:1012380098E5B1EE4E7AB7EEC77AB4EEC70BF1EE89
:1012480010FA03D4454B83ED240BA6E5434B83EDFD
:10125800247BA2E53F4B93ED2E6BB4EEC67BF1EEFB
:1012680010FA7FF5AFAD3D4B83ED146BAAE5B1EEF7
:101278004EEAB7EECE7AB4EEC7BBF1EE10FA03D45D
:10128800364B83ED26BBD4E5344B83ED267BD0E586
:10129800304B93ED327BB4EEC37BF1EE10FA03DDF5
:1012A8002E4B83ED127B09E62C4B83ED123B05E6B2
:1012B800284B93ED326BB4EEC67BF1EE10FA7FF556
:1012C8000EAE264B83ED166B09E6DDED237AB7EEFD
:1012D800E77A51E69FED1A6B6FE69FED1B6BB4EE54
:1012E800C62BF1EE10FA03D4194B83ED042BE9E673
:1012F800174B15A1D1E90001C3E90401E2E69FED0E
:10130800126BB4EEC6ABF1EE10FA03D4104B83EDBA
:101318000AAB05E70E4B0CA1D1E90001C3E90A01AC
:10132800FEE600BFAFF300802D431CEBE2361A3F08
:10133800000000C07AB64B40FB2BED663D192340F8
:101348000000000000000000000000C07AB64BC09A
:101358009801002408020024800100243803002496
:101368003D4B93ED1C1B3D4A92ED123B3C4B93EDDC
:101378001C7BB0EE432B11EE072B93ED1E7B22EE68
:10138800072B92ED105B93ED186BB0EE454B01EE19
:10139800064B34EE024B93ED287BB4EEC47BF1EEA2
:1013A80010FA29D52C4B83ED0E7B2B4B93ED0E7B3E
:1013B8002A4B83ED147B2A4B93ED1A0B37EE476BC0
:1013C80001EE006B37EE447B36EE077B9FED1C6B1E
:1013D80007EE065B9FED1C7BB4EEC75BF1EE10FADF
:1013E8001ADD1E4B83ED107B9FED157B02EE073B4C
:1013F8001A4B83ED123B7047194B93ED2A7BB4EEE1
:10140800C47BF1EE10FA03DD134B83ED0E7BCCE7C2
:10141800114B83ED0E4BC8E79FED0D7BB4EEC75B18
:10142800F1EE10FA03D40D4B83ED105BDCE70B4BA8
:1014380007A1D1E90001C3E91001D5E7AFF30080A6
:10144800FCA9F1D24D62503F0000004010E07D4001
:101458000000004010E07DC03803002498010024FB
:101468000802002400000000574B012283F8602086
:1014780083F8612083F8622083F86320534B544A31
:10148800C3F8FC203CA1D1E90001C3E94401514A59
:10149800C3F8F8205049C3F80811504AC3F80C2182
:1014A800C3F80011C3F8042135A1D1E90001C3E94B
:1014B800020135A1D1E90001C3E904014849C3F893
:1014C800E010484AC3F8E420C3F8D810C3F8DC2079
:1014D800C3F8D010C3F8D4202DA1D1E90001C3E985
:1014E80028019FED2D6B83ED2A6B00203E49C3E94F
:1014F800180100203D49C3E91A019FED297B83EDBE
:101508001C7B00203A49C3E91E019FED274B83ED60
:10151800304B9FED275B83ED325B9FED273B83EDDF
:10152800203BB1EE0C3B83ED223B83ED247BC3E9EA
:10153800260183ED2C4B83ED2E5B9FED215B83ED24
:10154800105BB1EE085B83ED125B83ED147BC3E99E
:1015580016014FF07E52C3F8EC20C3F8F420254A58
:10156800C3F8E820C3F8F02000202349C3E9460166
:1015780083ED486B704700BF00000020166AC53F26
:10158800000000000088C34000000000D01263C1C2
:101598000000004010E07D40000000000000000056
:1015A80000000080B5F8E43E000000C07AB64B4069
:1015B800000000C07AB64BC0000000A09999B93F5E
:1015C800000000A09999C93F98010024080200244E
:1015D8000000C0420000404000009643000096C34F
:1015E8000024F4480024F4C8000010400000204003
:1015F800000014406666663F0000F03FB5EEC00B81
:10160800F1EE10FA09DD4FF0010C83F800C08142B9
:1016180094BF00210121117070471A7802B97047F0
:1016280000221A70FBE7B5EEC00BF1EE10FA09DDE7
:101638004FF0010C83F800C081422CBF002101212A
:10164800117070471A7802B9704700221A70FBE7C8
:10165800F8B53B4B93ED167B93ED182B87FE026B89
:1016680093ED1A3B86FE036B93ED0C4AD3ED0D5AAE
:10167800B7EEE51A87FE427B87FE437BB7EEC43A96
:10168800B4EEC63BF1EE10FA0BD4B1EE444AB7EE15
:10169800C44AB4EEC74BF1EE10FACCBF01200020CB
:1016A80000E00120274B1870B4EEC61BF1EE10FACB
:1016B8000BD4B1EE656AB7EEC66AB4EEC76BF1EE4D
:1016C80010FACCBF0123002300E001231D4C6370F6
:1016D8001D4D1E4E05F18C03221D95F8881096EDC0
:1016E800000BFFF7A0FF274605F18D03621D95F853
:1016F800881017F8020B96ED020BFFF77FFF05F134
:101708008A033A4695F88910607896ED040BFFF73E
:101718008AFF05F18B03E21C95F88910607896ED35
:10172800060BFFF76BFFA3780BB9E07800E0012008
:1017380000F00100034B1B7953B9024B597908E0BB
:10174800000600242004002428040024687C0108E2
:10175800012101F00101B84B93F88030002B40F0D3
:101768009381B54B012283F88020022283F88120DF
:10177800B24C002222715A611A61032583F8825003
:101788005A621A6283F8845062705A631A6383F843
:10179800855022705A651A65DA645A64052583F8FB
:1017A8008650A2705A671A67DA665A6683F88750B5
:1017B800E27081F00102002940F08E869E4B1B6981
:1017C80001339D4C2361002840F0898623466469D3
:1017D80001345C61DC690134DC61002A00F0858633
:1017E800954B9B690133944A9361954B93ED126B2A
:1017F80093ED017AB7EEC77AB4EEC76BF1EE10FA43
:1018080040F37686136A01338B4A13628C4B93ED4F
:10181800005AB7EEC55AB4EEC56BF1EE10FA40F3B4
:101828006A86536A0133844A5362B4EEC56BF1EE9B
:1018380010FA40F16386936A01337F4A9362B4EEEB
:10184800C76BF1EE10FA40F35C86D36A01337A4A2B
:10185800D3627B4B93ED146B93ED037AB7EEC77AA3
:10186800B4EEC76BF1EE10FA40F34E86136B0133FA
:10187800714A1363724B93ED025AB7EEC55AB4EE30
:10188800C56BF1EE10FA40F34286536B01336A4A96
:101898005363B4EEC56BF1EE10FA40F13B86936BDF
:1018A8000133654A9363B4EEC76BF1EE10FA40F367
:1018B8003486D36B0133604AD363614B93ED1E7B4F
:1018C80093ED096AB7EEC66AB4EEC67BF1EE10FA7C
:1018D80040F12686136C0133574A1364584B93ED35
:1018E800085AB7EEC55AB4EEC57BF1EE10FA40F1CE
:1018F8001A86536C0133504A5364B4EEC57BF1EE3B
:1019080010FA40F31386936C01334B4A9364B4EE98
:10191800C67BF1EE10FA40F10C86D36C0133464ACF
:10192800D364474B93ED0A6AB7EEC66AB4EEC67B3A
:10193800F1EE10FA40F30086136D01333E4A136549
:101948003F4B93ED0B5AB7EEC55AB4EEC57BF1EE9B
:1019580010FA40F3F485536D01335365B4EEC67B3A
:10196800F1EE10FA00F1F385334B00229A65324B01
:10197800DB6D0133304AD365314B93ED1C7B93ED1E
:10198800056AB7EEC66AB4EEC67BF1EE10FA40F10E
:10199800EE85136E0133284A1366294B93ED045ADA
:1019A800B7EEC55AB4EEC57BF1EE10FA40F1E28508
:1019B800536E0133204A5366B4EEC57BF1EE10FA3C
:1019C80040F3DB85936E01331B4A9366B4EEC67B06
:1019D800F1EE10FA40F1D485D36E0133164AD3667E
:1019E800174B93ED066AB7EEC66AB4EEC67BF1EE06
:1019F80010FA40F3C885136F01330F4A1367104B71
:101A080093ED075AB7EEC55AB4EEC57BF1EE10FA5E
:101A180040F3BC85536F01335367B4EEC67BF1EED8
:101A280010FA00F1BB85044B00229A67024BDA6F6B
:101A38000132014BDA6705E02804002480060024FF
:101A480000060024BB4A51701070BB4A117883F815
:101A58008810527883F88920B84BD3F810210132C6
:101A6800C3F81021D3F8281107EE902AB8EE677B47
:101A780093ED466B26EE077B81ED007BD3F82021A2
:101A88000132C3F82021F8BDAD4B93F88130012B0A
:101A980018D0022B1AD0AA4B93ED027BB5EE407BEF
:101AA800F1EE10FA40F0BA80002283F88320022475
:101AB80083F88140A34C22715A611A61032283F88A
:101AC8008220EFE09F4B02221A71EBE09C4B93EDD2
:101AD800026B9D4B93ED117AB7EEC77AB4EEC76BE4
:101AE800F1EE10FA0FDD964B002283F882200324D2
:101AF80083F88140934C01252571DA619A610222AD
:101B080083F88320CEE08E4B93ED005BB4EEC57B6B
:101B1800F1EE10FA09D5002283F88220012283F819
:101B28008120884B02221A71BCE0864B00221A7170
:101B3800834B93F88230012B0DD0022B13D0D0B1F8
:101B48007F4B012283F88220B7EE007B35EE075BDE
:101B580083ED005BA6E07A4B00225A611A610322EA
:101B680083F882209EE0764B00225A611A61032294
:101B780083F8822096E051B1714B022283F88220CB
:101B8800B7EE007B36EE076B83ED026B8AE0B5EEAD
:101B9800C06BF1EE10FA21DD694B93ED044AB8EE03
:101BA800444B694B93ED107AF2EE047A27EE277ACC
:101BB800B7EEC77AB4EEC74BF1EE10FA0EDDB7EE0A
:101BC800007B36EE476B5E4B83ED026B5C4B00226D
:101BD8005A611A61032283F8822063E0B5EEC05B84
:101BE800F1EE10FA5EDD564B93ED056AB8EE466BE2
:101BF800554B93ED107AF2EE047A27EE277AB7EE7A
:101C0800C77AB4EEC76BF1EE10FA4BDDB7EE007B86
:101C180035EE475B4A4B83ED005BD7E7484B93EDC6
:101C2800005B494B93ED116AB7EEC66AB4EEC65B2A
:101C3800F1EE10FA0ADD424B002283F883200122DC
:101C480083F881203F4B02221A712BE03D4B012281
:101C58001A713B4B93F88330934257D011B1384BEC
:101C680000229A61384B93ED106AF2EE046A26EE70
:101C7800266AB7EEC66A324B93ED064AB8EE444B75
:101C8800B4EEC46BF1EE10FA48D5B7EE006B37EE40
:101C9800467B83ED027B2A4B0022DA619A6102229D
:101CA80083F88320264B93F88430012B64D0022BD1
:101CB80000F09A80234B00225A70234B93ED125B5D
:101CC80093ED017AB7EEC77AB4EEC75BF1EE10FA7E
:101CD80001DC1B4B1A621C4B93ED0F7AF2EE047A6F
:101CE80027EE277AB7EEC77A154B93ED086AB8EE58
:101CF800466BB4EEC67BF1EE10FA40F1C2800122C9
:101D080083F884200F4B02225A7038E00C4B0022D3
:101D1800DA619A61022283F88320C3E7B0B1084BE5
:101D2800012283F88320B7EE007B35EE075B83ED55
:101D3800005BB7E7F805002420040024B804002459
:101D4800280400248006002400060024B5EEC05BA9
:101D5800F1EE10FAA6DDB94B93ED077AB8EE477BA2
:101D6800B4EEC76BF1EE10FA9CD5B7EE007B35EEFA
:101D7800475B83ED005B8EE7B14B02225A70AF4B95
:101D880093F88530012B00F09E80022B00F0AB8089
:101D9800AB4B00221A70AB4B93ED145B93ED037AB7
:101DA800B7EEC77AB4EEC75BF1EE10FA01DCA34BCD
:101DB8001A63A44B93ED0F7AF2EE047A27EE277A92
:101DC800B7EEC77A9D4B93ED0C6AB8EE466BB4EE4E
:101DD800C67BF1EE10FA40F1D380012283F885200A
:101DE800974B02221A7071E0954B01225A70954B5D
:101DF80093ED125B93ED017AB7EEC77AB4EEC75B49
:101E0800F1EE10FA02DC8D4B0022DA628D4B93ED75
:101E18000F7AF2EE047A27EE277AB7EEC77A874B65
:101E280093ED0B6AB8EE466BB4EEC67BF1EE10FA92
:101E380006D5012283F88420814B02225A709EE73E
:101E4800804B93ED006AB7EEC66AB4EEC65BF1EE5E
:101E580010FA02D4794B00229A62784B93ED0A6A01
:101E6800B8EE466BB4EEC67BF1EE10FA87D51A468B
:101E7800002353621362032482F88440704A53702B
:101E88007DE7704B93ED006AB7EEC66AB4EEC65BA9
:101E9800F1EE10FA02DC694B00225A62674B93EDAF
:101EA800096AB8EE466BB4EEC67BF1EE10FA7FF520
:101EB80066AF0022DA629A62022283F88420604BBD
:101EC80001225A705BE75E4B02221A705B4B93F853
:101ED8008630013B032B00F22E81DFE813F07200FD
:101EE8008200D800DC00564B01221A70554B93ED46
:101EF800145B93ED037AB7EEC77AB4EEC75BF1EEE5
:101F080010FA02DC4D4B0022DA634E4B93ED0F7A48
:101F1800F2EE047A27EE277AB7EEC77A474B93EDAD
:101F28000F6AB8EE466BB4EEC67BF1EE10FA06D532
:101F3800012283F88520424B02221A70C6E7414BE2
:101F480093ED026AB7EEC66AB4EEC65BF1EE10FA1C
:101F580002D43A4B00229A63384B93ED0E6AB8EEDE
:101F6800466BB4EEC67BF1EE10FAAFD51A460023E5
:101F780053631363032482F88540314A1370A5E73D
:101F8800304B93ED026AB7EEC66AB4EEC65BF1EE6B
:101F980010FA02DC294B00225A63284B93ED0D6A94
:101FA800B8EE466BB4EEC67BF1EE10FA8ED5002281
:101FB800DA639A63022283F88520214B01221A7082
:101FC80084E71F4B02229A701C4B93F88730013B21
:101FD800032B00F2F181DFE813F03A013F01910190
:101FE8009D01174B01229A70164B93ED1E5B93EDE2
:101FF8000B7AB7EEC77AB4EEC75BF1EE10FA02DCE3
:102008000E4B0022DA650F4B93ED0E7AF2EE047A4E
:1020180027EE277AB7EEC77A084B93ED176AB8EE22
:10202800466BB4EEC67BF1EE10FA0DD5012283F8AB
:102038008620034B02229A70C6E700BF28040024BA
:102048008006002400060024AF4B93ED0A6AB7EE21
:10205800C66AB4EEC65BF1EE10FA02D4AB4B0022AE
:102068009A65AA4B93ED166AB8EE466BB4EEC67B3A
:10207800F1EE10FAA8D51A46002353651365D36408
:102088005364052482F88640A14A93709CE7A04BCC
:1020980004229A7098E79E4B03229A709A4B93ED0C
:1020A8001E5B93ED097AB7EEC77AB4EEC75BF1EE23
:1020B80010FA02D4954B00221A64934B93ED0E7AD2
:1020C800F2EE047A27EE277AB7EEC77A8F4B93EDB4
:1020D800106AB8EE466BB4EEC67BF1EE10FA06D580
:1020E800032283F886208A4B04229A706CE7864B79
:1020F80093ED086AB7EEC66AB4EEC65BF1EE10FA65
:1021080002DC824B00229A64804B93ED126AB8EE8F
:10211800466BB4EEC67BF1EE10FA7FF555AF1A4662
:10212800002353651365D3645364052482F88640FD
:10213800774A937048E7764B00229A70724B93ED7A
:102148001E6B93ED0B7AB7EEC77AB4EEC76BF1EE60
:1021580010FA01DC6D4B5A656B4B93ED0E7AF2EE7B
:10216800047A27EE277AB7EEC77A684B93ED155AAB
:10217800B8EE455BB4EEC57BF1EE10FA06D5012248
:1021880083F88620624B02229A701DE75E4B93ED1E
:10219800095AB7EEC55AB4EEC56BF1EE10FA02D47F
:1021A8005A4B0022DA64594B93ED135AB8EE455B4B
:1021B800B4EEC57BF1EE10FA06D5032283F886202B
:1021C800534B04229A70FFE64F4B93ED0A5AB7EE31
:1021D800C55AB4EEC56BF1EE10FA02DC4B4B002287
:1021E8001A654A4B93ED145AB8EE455BB4EEC57BBD
:1021F800F1EE10FA09D50022DA659A65022283F811
:102208008620434B01229A70DEE63F4B93ED085A35
:10221800B7EEC55AB4EEC56BF1EE10FA02D43B4BDB
:1022280000225A64394B93ED116AB8EE466BB4EE4E
:10223800C67BF1EE10FA7FF5C7AE00229A641A64E5
:10224800042283F88620324B03229A70BCE6304B76
:102258000222DA70FFF7ADBA2D4B0122DA702A4B51
:1022680093ED1C5B93ED077AB7EEC77AB4EEC75BC4
:10227800F1EE10FA02DC254B0022DA67224B93EDCF
:102288000E7AF2EE047A27EE277AB7EEC77A1F4B5A
:1022980093ED1F6AB8EE466BB4EEC67BF1EE10FA0A
:1022A80007D5012283F88720194B0222DA70FFF73D
:1022B80080BA154B93ED066AB7EEC66AB4EEC65BF4
:1022C800F1EE10FA02D4114B00229A670F4B93EDEE
:1022D8001E6AB8EE466BB4EEC67BF1EE10FA7FF5D7
:1022E80068AA1A46002353671367D3665366052402
:1022F80082F88740064AD370FFF75BBA044B042282
:10230800DA70FFF756BA00BF00060024280400243C
:1023180080060024A94B0322DA70A94B93ED1C5BBD
:1023280093ED057AB7EEC77AB4EEC75BF1EE10FA13
:1023380002D4A44B00221A66A14B93ED0E7AF2EE5A
:10234800047A27EE277AB7EEC77A9E4B93ED186A80
:10235800B8EE466BB4EEC67BF1EE10FA07D5032251
:1023680083F88720954B0422DA70FFF722BA944B42
:1023780093ED046AB7EEC66AB4EEC65BF1EE10FAE6
:1023880002DC904B00229A668E4B93ED1A6AB8EEE7
:10239800466BB4EEC67BF1EE10FA7FF50AAA1A4630
:1023A800002353671367D3665366052482F8874072
:1023B800824AD370FFF7FDB9804B0022DA70804B58
:1023C80093ED1C6B93ED077AB7EEC77AB4EEC76B43
:1023D800F1EE10FA01DC7B4B5A67794B93ED0E7ADC
:1023E800F2EE047A27EE277AB7EEC77A754B93EDAB
:1023F8001D5AB8EE455BB4EEC57BF1EE10FA07D571
:10240800012283F887206D4B0222DA70FFF7D1B9D9
:102418006B4B93ED055AB7EEC55AB4EEC56BF1EEAA
:1024280010FA02D4674B0022DA66664B93ED1B5A0A
:10243800B8EE455BB4EEC57BF1EE10FA07D5032282
:1024480083F887205D4B0422DA70FFF7B2B95C4B42
:1024580093ED065AB7EEC55AB4EEC56BF1EE10FA15
:1024680002DC584B00221A67564B93ED1C5AB8EE03
:10247800455BB4EEC57BF1EE10FA0AD50022DA67A7
:102488009A67022283F887204C4B0122DA70FFF703
:1024980090B94B4B93ED045AB7EEC55AB4EEC56BE1
:1024A800F1EE10FA02D4474B00225A66454B93EDE1
:1024B800196AB8EE466BB4EEC67BF1EE10FA7FF5FA
:1024C80078A900229A661A66042283F887203B4B73
:1024D8000322DA70FFF76DB90023FFF772B9394BA1
:1024E80000245C61DC61FFF778B90023FFF77BB952
:1024F8000023FFF789B90023FFF795B90023FFF7F9
:102508009CB90023FFF7A3B90023FFF7B1B9002353
:10251800FFF7BDB90023FFF7C4B90023FFF7CBB914
:102528000023FFF7D9B90023FFF7E5B90023FFF728
:10253800ECB90023FFF7F3B90023FFF7FFB9214BEC
:1025480000225A65B4EEC67BF1EE10FA0DD51D4B8C
:102558009B6D01331B4A9365B4EEC57BF1EE10FA0F
:102568003FF705AA0023FFF705BA0023F2E7002387
:10257800FFF711BA0023FFF71DBA0023FFF724BAAB
:102588000023FFF72BBA0023FFF737BA0D4B0022C1
:102598005A67B4EEC67BF1EE10FA0DD5094B9B6F66
:1025A8000133084A9367B4EEC57BF1EE10FA3FF7A2
:1025B8003DAA0022FFF73DBA0023F2E78006002477
:1025C8000006002428040024254B03F59272DA60E3
:1025D80003F59472C3F8842003F58C729A62C3F8E9
:1025E800D0309B60012283F82421002183F8FC105D
:1025F80083F80C111B49596103F59871C3F8281128
:1026080015A1D1E90001C3E94601174B5A701A70A8
:10261800164B174ADA62174A9A62174A1A62174A19
:102628005A62174A1A60174A5A60174A9A60174935
:10263800D96017491963174959635A64164A9A6148
:10264800164ADA61164A1A61164A5A61164A9A6394
:10265800DA631A64704700BF2D431CEBE2361A3F59
:10266800B8040024507C0108F80500240006002462
:102678000000904100007041000020410000084126
:10268800000096420000AA420000C8420000F04242
:102698000000C8430000E143000088420000904267
:1026A80000004842000040420000164300000000BD
:1026B80008B507EE900AF8EEE77ADFED196A67EEDB
:1026C800A66A9FED187A77EE677A86EEA77AB7EE54
:1026D800C77AB7EEC00A87EE000B0BF0C5F99FED7D
:1026E8000A6B80EE067B9FED0A6B37EE067BB7EE32
:1026F800006B86EE070B9FED087B30EE470BB7EEBD
:10270800C00B08BDAFF30080000000000040AF40E0
:1027180045A725E6E1796B3F6666666666127140F5
:1027280000401C460000804710B52DED0C8BE64B91
:1027380093ED106B93ED125B36EE057B37EE057B60
:10274800E24B83ED8E7B9FEDD25B27EE057B83ED1D
:10275800907B83ED926B83ED947BDD4A92ED000BC9
:1027680083ED000B02F0B8FA002800F0D181D94BB4
:1027780093ED009BD54B83ED789BD34B93ED067B74
:10278800B5EEC07BF1EE10FA01DD93ED049BCF4C62
:1027980084ED029BB0EE490B0BF0FAFAB0EE408BD9
:1027A80084ED040BB0EE490B0BF0A6FA84ED060B92
:1027B80094ED925B25EE003B84ED603B94ED944BE9
:1027C80024EE086B84ED626B33EE066B84ED646B6C
:1027D80024EE004B84ED664B25EE085B84ED685BC8
:1027E80034EE454B84ED6A4B84ED6C6B84ED6E4B97
:1027F80084ED706B84ED724BB34B93ED023B33EE7B
:10280800463B84ED083B93ED165B23EE055B84EDB8
:102818000A5BAF4A92ED022B84ED0C2B93ED1A6BF9
:1028280023EE066B84ED0E6B92ED041B84ED101BFA
:1028380036EE416B84ED126B93ED1C7B26EE076B35
:1028480084ED146B35EE025B35EE065B84ED165BAA
:1028580093ED1E7BB4EEC75BF1EE10FACCBF0123FB
:10286800002384F8583240F39E819B4B83ED067B0E
:10287800954A92ED007B37EE447B944B83ED187BB1
:1028880092ED225B27EE055B83ED1A5B904991ED93
:10289800069B83ED1C9B92ED264B27EE04BB83ED34
:1028A8001EBB91ED08CB83ED20CB3BEE4CBB83EDFB
:1028B80022BB92ED284B2BEE04BB83ED24BB35EEF7
:1028C800095B35EE0B5B83ED265B92ED2A4BB4EE8C
:1028D800C45BF1EE10FACCBF0122002283F8592222
:1028E80040F377817C4B83ED084B784B83ED288B45
:1028F80083ED2A0B784A92ED08DB2DEE004B83ED31
:102908007A4B92ED06AB2AEE085B83ED7C5B34EEE6
:10291800055B83ED7E5B2AEE000B83ED800B2DEECD
:10292800088B83ED828B30EE480B83ED840B83EDAF
:10293800860B83ED885B83ED8A0B83ED8C5BB6EEAB
:1029480000AB20EE0AAB83ED2CAB9FED534B25EE8D
:10295800044B83ED2E4B34EE4A8B83ED308B9FED89
:10296800505B35EE4A5B35EE444B83ED324B80FECF
:1029780008AB8AFE04AB83ED34AB80FE485B85FE72
:10298800445B83ED365B3AEE055B83ED385BBEEE68
:1029980000AB25EE0A5B83ED3A5B30EE050B83ED69
:1029A8003C0B38EE058B83ED3E8B34EE054B83ED07
:1029B800404B9FED3D5B20EE050B83ED420B28EE6F
:1029C800058B83ED448B24EE055B83ED465B82ED3E
:1029D800000B82ED028B82ED045B9FED355B83ED8E
:1029E800485B394A92ED0A4B24EE054B83ED4A4B7E
:1029F800374B93F8343023B1354B00200021C3E91D
:102A08000A01334B93ED0A0B304B83ED4C0B2E4AE6
:102A180092ED085B35EE405B83ED4E5BB4EEC54B43
:102A2800F1EE10FA4CBF0122002283F85A2240F13D
:102A3800E68083ED504B254B93ED505B30EE050B54
:102A480083ED520B204A92ED0E5B20EE055B83ED81
:102A5800545B9FED194B25EE044B83ED564B92EDDD
:102A6800185B23EE055B83ED585B92ED248B27EE14
:102A7800088B83ED5A8B164B93ED007B9FED103B33
:102A880004EE037B83ED007B28E000BFAFF30080FA
:102A98001D339045A779E23FAA4C58E87AB6EB3F38
:102AA80000000000000000001D339045A779F23FA8
:102AB8002D431CEBE2361A3F111111111111913FF0
:102AC800025B3CC5B796443F2009002488060024D1
:102AD800E8080024E0000024D80900249FED567B74
:102AE80005EE072B83ED022B06EE071B83ED041B77
:102AF80008EE079B83ED069B0BEE07CB83ED08CB17
:102B0800002283F8342083ED0A0BBDEC0C8B10BD3A
:102B1800514B93ED000B02F0CFF800287FF427AE5D
:102B28004D4B93ED000BB5EE400BF1EE10FA02D1D0
:102B38009FED439B1EE69FED441B0BF039FAB0EE68
:102B4800409BB5EE400BF1EE10FA26D0424B93EDC8
:102B5800005B9FED3D7B85EE076BB0EEC66BB6EE76
:102B6800007B36EE077BBBFE477B36EE477BB0EE3D
:102B7800C77B9FED375B26EE056BB4EEC67BF1EEA7
:102B880010FA0DDDB5EEC00BF1EE10FA7FF5F2ADDF
:102B98009FED2D7B30EE079BECE59FED299BE9E54A
:102BA8009FED279BE6E52D4B93ED207BB4EEC75BAD
:102BB800F1EE10FA4CBF01220022274B83F85D2268
:102BC80058BFB0EE457B83ED767B254B83ED067BC6
:102BD8004EE6224B93ED2C4BB4EEC45BF1EE10FAAB
:102BE8004CBF012200221C4B83F85C2258BFB0EE78
:102BF800454B83ED744B1A4B83ED084B75E6174B29
:102C080093ED0C4B9FED0C8B24EE084B124B83ED90
:102C18005C4BB4EEC45BF1EE10FA4CBF012200220B
:102C280083F85B2258BFB0EE454B83ED5E4B83EDD6
:102C3800504B00E7AFF300802D431CEBE2361A3F00
:102C48000000000000000000182D4454FB2119402A
:102C5800000000000000B03C880600242009002481
:102C6800D809002400000000294B012283F83420F1
:102C780083F835201A63274B00200021C3E9060199
:102C8800C3E90401B0EE087B83ED0E7BBAEE047B4A
:102C980083ED027BB2EE047B83ED007BC3E9080180
:102CA80083ED0A7B14A1D1E90001C3E90C019FED72
:102CB800146B83ED166B00201749C3E918019FEDCB
:102CC800127B83ED1A7B00201449C3E91C0183EDB4
:102CD800226BB1EE086B83ED246B83ED267BC3E991
:102CE8002801C3E91E01B9EE047B83ED207BC3E90B
:102CF8002A0183ED2C7B70470000000000408FC044
:102D080000000040E17AB43F00000080B5F8E43EDE
:102D1800E8080024200900240000104000001440A6
:102D280080ED000AC0ED010A80ED021A0023C3609D
:102D3800002303747047037CEBB1D0ED037A70EE87
:102D4800E77AF5EEC07AF1EE10FA1BD9D0ED026AF7
:102D580030EE667AB5EEC07AF1EE10FA15DD90ED38
:102D6800006A67EE867AB4EEE77AF1EE10FA15DDBE
:102D780036EEA70A17E0C0ED030A80ED020A012328
:102D88000374704790ED020A704790ED016A66EE91
:102D9800677AB5EEC07AF1EE10FAE4DCB5EEC07AE7
:102DA800F1EE10FA04D480ED020AC0ED030A704770
:102DB800B4EEE77AF1EE10FA48BF36EEA70AF2E76A
:102DC8003E4B1B6823F0FF033D4A934209D03B4B1F
:102DD8005B78012B2AD0394B9B78012B48D00020F7
:102DE8007047384B93ED0A7BB7EEC77BB0EEC77AD6
:102DF800DFED357AB4EEE77AF1EE10FAE7DB93ED22
:102E08000C7BB7EEC77BB0EEC77ADFED2F7AB4EE56
:102E1800E77AF1EE10FA4CDA284B5B78012B13D0E5
:102E2800264B9B78012B33D000207047254B93ED20
:102E38000A7BB7EEC77BB0EEC77ADFED237AB4EE34
:102E4800E77AF1EE10FAC6DB1E4B93ED0C7BB7EE7A
:102E5800C77BB0EEC77ADFED1C7AB4EEE77AF1EE05
:102E680010FA28DA154B9B78012B11D000207047F7
:102E7800144B93ED0A7BB7EEC77BB0EEC77ADFED54
:102E8800127AB4EEE77AF1EE10FA01DA0020704710
:102E98000C4B93ED0C7BB7EEC77BB0EEC77ADFED3A
:102EA8000A7AB4EEE77AF1EE10FAACBF01200020FE
:102EB8007047012070470120704700BF04000024BC
:102EC800000101003803002400007A4308B580217E
:102ED800084806F0F5F8012806D0074B986B01283A
:102EE80094BF0020012008BD034B9B6A3B2BF4D9FB
:102EF800F9E700BF0010025804000024124BD3ED7C
:102F0800187AF5EEC07AF1EE10FA17D9D3ED1B7ADC
:102F1800F5EEC07AF1EE10FA12D9D3ED197AF5EE82
:102F2800C07AF1EE10FA0DD49FED087AF4EEC77A64
:102F3800F1EE10FACCBF0120002070470120704745
:102F48000120704701207047040000240000C84297
:102F580008B5164B1B6833F0FF0301D0002008BDED
:102F68000121134806F0ACF8E8B9124B93ED0C7B3D
:102F7800B7EEC77BB0EEC77ADFED0F7AB4EEE77A2B
:102F8800F1EE10FAEBDB93ED0A7BB7EEC77BB0EE00
:102F9800C77ADFED097AB4EEE77AF1EE10FAACBF42
:102FA80001200020DBE70020D9E700BF040000244F
:102FB800000002583803002400007A43134B144AD7
:102FC800D2E90E01C3E91601D2E90C01C3E91801DF
:102FD800D2E90A01C3E91A010E4A92ED137AB7EE53
:102FE800C77A83ED127B92ED127AB7EEC77A83ED3A
:102FF800147B92ED1D7AB7EEC77A83ED1C7B92EDB8
:10300800117AB7EEC77A83ED1E7B7047000600245D
:103018000802002404000024324B9B78022B14D0B1
:10302800042B1DD02F4BDB78022B24D0042B2DD062
:103038002C4B1B78022B34D02A4B5B78022B3BD0CD
:10304800284B1B79022B42D07047274B01225A7418
:10305800DA70264B04221A70254B07221A70704723
:10306800214B01225A741A71204B05221A70204BE9
:1030780007221A7070471C4B01225A745A701B4B56
:1030880002221A701A4B07221A707047164B012237
:103098005A749A70154B03221A70154B07221A702E
:1030A8007047114B01225A74DA71104B08221A70BA
:1030B8000F4B07221A7070470B4B01225A741A7271
:1030C8000A4B09221A700A4B07221A707047064BDE
:1030D80001225A749A710723044A1370044A137020
:1030E800B2E700BF80060024840A0024970A00245F
:1030F8000000002438B52DED028B9FED1E8A1E4D71
:10310800B0EE480A6888FFF7D3FA1C4C84ED130A1E
:103118006B886382B0EE480AA888FFF7C9FA84ED85
:10312800120AAB88A3822B8907EE903AF8EE677AE9
:103138009FED137A67EE877AC4ED1D7AEB8807EE68
:10314800903AF8EE677A9FED0F7A67EE877AC4EDCA
:10315800117A2B8807EE903AF8EEE77A9FED0A7A13
:1031680067EE877A77EEA77AC4ED327ABDEC028BE8
:1031780038BD00BF00401C46700A0024040000242B
:103188001101073B7FD245390A0253381F4B1B8870
:10319800A3F55A53313B9BB246F28E52934207D85D
:1031A8001A4B5B88A3F55A53313B9BB2934205D91E
:1031B800174A0123137017490B705374164BD3ED3C
:1031C8001D7A164B93ED077AF4EEC77AF1EE10FAF2
:1031D80006DB0F4B01225A700E49022008705A7400
:1031E8000E4B93ED057AF4EEC77AF1EE10FA06D895
:1031F800074B01229A700749032008705A74044B40
:10320800587C003818BF0120704700BF080E002402
:10321800840A0024970A00240400002400060024DD
:1032280038B56F4A1388013313806E4D2B880133EC
:103238002B806D4A1388013313804FF400416B488B
:1032480005F03EFF6A4C607008216A4805F038FFB7
:10325800A07063785840E070626B236BD31A07EE56
:10326800903AF8EE677AFCEEE77AC4ED0E7A2263BC
:10327800636AC3F5805307EE903AF8EE677AFCEE7E
:10328800E77AC4ED0A7A2B88132B42D92379012BCC
:103298001CD0534B1B88132B07D8534B1B88132B5D
:1032A80003D9534B1B79012B62D0514B5B8A013BED
:1032B8009BB24FF6E65293427CD84D4B9B8A013B1A
:1032C8009BB24FF6E65293427FD838BDFFF7FEFD1A
:1032D800012806D0484B1B88C3B1013B464A1380DE
:1032E80003E0454A138801331380434B1B88042BA2
:1032F8000CD9414B00221A80404B01225A749A7310
:103308003F4B0F221A703F4B07221A70354B002291
:103318001A80334B1B88132BBFD9354B1B79012BD4
:10332800C3D1FFF74DFD012806D0374B1B88C3B129
:10333800013B354A138003E0334A13880133138075
:10334800314B1B88042B0CD92F4B00221A802B4B96
:1033580001225A745A732A4B0E221A70294B0722DB
:103368001A701F4B00221A801F4B1B88132B9CD9E5
:10337800FFF7EEFD012807D0244B1B88002B94D0C3
:10338800013B224A138003E0204A1388013313804B
:103398001E4B1B88042B88D91C4B00221A80174B04
:1033A80001225A741A74164B11221A70154B0722EF
:1033B8001A707AE7114B01225A749A72104B0B2239
:1033C8001A70104B07221A7077E70C4B01225A74B7
:1033D8005A720B4B0A221A700A4B07221A7074E7AA
:1033E8001C0A00241E0A00241A0A0024000002589D
:1033F8000400002400040258180A0024840A002447
:10340800970A002400000024160A0024140A002445
:103418000F4AD2ED007A70EE277A9FED0E7A67EEAA
:10342800877A0D4B93ED007ADFED0C6A27EE267A4A
:1034380077EE877A0A49C1ED2B7ADFED0A6A87EEC3
:10344800A67A81ED2D7A82ED000AC3ED007A7047E5
:10345800280A00248B4B863C240A0024489B773F8B
:1034680004000024F46CD63D10B52DED048BB0EEAD
:10347800409A0AF005FDF0EE408A204C94ED008A4F
:1034880030EE488ADFED1E9A28EE298AB0EE490A06
:103498000AF046FA1B4BD3ED007A70EE677A67EEB6
:1034A800A97AC4ED008A83ED000A28EE008A28EE86
:1034B800A70A38EE400ADFED147AB4EEE70AF1EE17
:1034C80010FA0ADB114BC3ED2A7A104B93ED2A0A46
:1034D800FFF79EFFBDEC048B10BDDFED0D7AB4EE57
:1034E800E70AF1EE10FA03D9084B83ED2A0AECE754
:1034F800064B084AC3F8A820E7E700BF2C0A0024B7
:10350800FFFF7944200A00245A141D4404000024B3
:103518005A141DC45A141DC4574B1B78012B00D0D4
:1035280070472DE9F0412DED088B00224FF4004142
:10353800524805F0CBFDDFED52BA9FED52BA9FED30
:103548004A9B9FED4B8B9FED50AADFED50AADFF809
:103558004C814F4F4F4ED8F804303B40B3F5807F35
:103568007ED13378013333704B4C0821204609F063
:10357800BBFC0421204609F0F9FF0021204609F090
:10358800F5FF23680025DD639D635D634FF47A7260
:10359800DA639A635A63C82001F096FF2368DD63F3
:1035A8009D635D630821204609F062FD04212046E1
:1035B8000AF066F8294620460AF062F83378132B99
:1035C800C9D9364C65710126A671354B1B685B6AF3
:1035D800A36194ED197A3BEEC77A27EE0B7A37EEA2
:1035E800077AB7EEC77AB0EE480B17EE090BB7EEBD
:1035F800C00B84ED1A0AF0EE4A0A0AF0FDFC84EDCD
:103608001A0AC0EE0A7A67EEAA7AFCEEE77A17EE93
:10361800903A9BB22362F0EE087A20EE270A84EDF6
:103628000F0AF0EE4A0A0AF0E7FC84ED0F0A324668
:103638004FF40041114805F049FD1A4C294620462F
:1036480009F07EFE0421204609F07AFE204608F0A3
:103658004EFE204601F0C4FD074B03221A7076E7A0
:10366800BDEC088BBDE8F081182D4454FB210940BE
:1036780000000040ED29993F00000024000C02588A
:103688000000C8420AD7233CDA0FC9400000804531
:1036980000FFFF00300A0024D00C0024040000249E
:1036A800680D0024B40D0024024B00221A865A86A5
:1036B8009A867047340A002430B51B4CA48EA4B2F5
:1036C800022C2FD8184CB4F830E01FFA8EFE4FEABF
:1036D8000E1504EB0E1C60518CF804108CF80D309C
:1036E80063B10021644612F801C0601880F805C073
:1036F8000131C9B28B4201D90729F4D90EF1010E63
:103708000A4B83FB0E2303EB4303AEEB030E1FFAB6
:103718008EFE054AA2F830E0938E01339BB2938661
:10372800012030BD0020FCE7340A002456555555C9
:103738001B4B9B8E9BB203B9704730B58BB01948B1
:1037480005F0FFF808B90BB030BD154A548EA4B285
:10375800210102EB041003790293002303935558C7
:10376800019505930693079308930993437B049364
:1037780005310A4401A90B4805F0A8F80028E2D150
:103788000134094B83FB042303EB4303E41AA4B27B
:10379800034A5486938E013B9BB29386D3E700BFBE
:1037A800340A0024DC0B00245655555510B5054C39
:1037B800A48EA4B2FFF780FF04B900B910BDFFF7CB
:1037C800B7FFFBE7340A002408B5074805F064F89A
:1037D80030B900224FF40071034805F0B9F808BD6C
:1037E80001F068FAF5E700BFDC0B002400B58BB0E8
:1037F800029100210391019005910691079108918A
:103808000991049301A9074805F060F830B1054B08
:103818001B6800221A65044B01221A610BB05DF87F
:1038280004FB00BFDC0B002400A8004000000000DF
:1038380000B583B02A4B93ED007BB2EE046B27EE04
:10384800067BBCEEC77B17EE103A98B2254BD3ED3A
:103858002D7A9FED257A77EE877AB2EE047A67EEB5
:10386800877AFCEEE77A17EE903A9BB21F4A92ED00
:10387800066B9FED195B36EE056BBCEEC66B16EE5C
:10388800101A89B292ED087B37EE057BBCEEC77B38
:1038980017EE102A92B28DF80000000A8DF8010088
:1038A8008DF802301B0A8DF803308DF80410090AD0
:1038B8008DF805108DF80620120A8DF807200823C8
:1038C8006A46002140F20140FFF770FF03B05DF83F
:1038D80004FB00BFAFF30080000000000000804040
:1038E800080200240400002400204B45380300246B
:1038F80010B582B0264B93ED146B9FED215B36EE2D
:10390800056BFCEEC67B17EE900A93ED167B37EE3F
:10391800057BFCEEC77B17EE901A93ED0A6B9FEDC3
:103928001A5B36EE056BBCEEC66B16EE102A92B229
:1039380093ED0C7B37EE057BBCEEC77B17EE103A98
:103948009BB2144CE4698DF80020120A8DF801200E
:103958008DF802301B0A8DF803308DF804008DF8BD
:1039680005108DF80640C4F307248DF80740082396
:103978006A46002140F20240FFF718FF02B010BD6E
:10398800000000C07AB64B400000000000008040F4
:10399800380300240400002400B583B000210191FD
:1039A800204890ED1D7ADFED206A27EE267ABCEEDE
:1039B800C77A17EE103A9AB2D0ED117A67EEA67A66
:1039C800FCEEE77A17EE903A9BB290ED127ADFEDB3
:1039D800176A37EE267AFCEEC77A17EE90CAD0ED52
:1039E800137A77EEA67AFCEEE77A17EE900A8DF84E
:1039F8000020120A8DF801208DF802301B0A8DF87C
:103A080003308DF804C08DF80500094B1B788DF83C
:103A1800063008236A4640F20340FFF7C7FE03B0AA
:103A28005DF804FB040000240000C842000048427E
:103A3800970A002400B59DB04C22002109A809F07E
:103A48003DFF2022002101A809F038FF022006F0DE
:103A580009F800230093274BDA6A22F00102DA62A0
:103A6800DB6A03F001030093234A936923F440437C
:103A780043F480439361936903F440430093009BAC
:103A8800936913F4005FFBD01C4A936A23F0030385
:103A980093620223099301220C9240220D92129301
:103AA80000221392042014900C211591169317905C
:103AB800189319911A924FF480531B9309A805F093
:103AC800F9FF98B93F23019303230293002303933B
:103AD800049305934022069207930893022101A8B4
:103AE80006F03AFC20B91DB05DF804FB72B6FEE79B
:103AF80072B6FEE700040058004802580044025815
:103B080000B5B1B0982200210AA809F0D7FE4FF4F9
:103B180000220023CDE90023042302930922039203
:103B28000493022305930693C02307932023089345
:103B38004FF440630993684606F09EFE10B931B011
:103B48005DF804FB72B6FEE702680F4B9A4200D09C
:103B5800704710B50D4C238801332380FFF72EFAE8
:103B6800FDF776FDFFF75CFBFFF756FA2388B3F500
:103B7800FA7F00D210BD00222280FFF759FEFFF71E
:103B8800B7FEFFF709FFF5E7004801407A0A00246D
:103B980008B50268034B9A4200D008BDFFF7C8FD7C
:103BA800FBE700BF00A40040802800D070470D4B01
:103BB8001A7882F001021A70DB6A5A1C13F1020F9C
:103BC800084B08BF0022DA62074B1B78062B03D08C
:103BD800044B5A6B1A63E9E7044B1B685A6A014B9A
:103BE8005A62F5E70400002400000024680D002450
:103BF80002681F4B9A4200D0704710B52DED028B1A
:103C08000446037F012B02D0BDEC028B10BD0021BE
:103C180008F0A0FB07EE900AF8EE677A154BC3EDA3
:103C2800187AF5EE407AF1EE10FAEDD0042120462C
:103C380008F090FB07EE900A0E4CF8EE677A9FEDBD
:103C48000E8A67EE887AD4ED186A87EEA67A84ED34
:103C5800197A06F089FA07EE100AB8EE477AD4ED19
:103C6800187A67EE887AC7EE276AC4ED1B6ACBE735
:103C7800000C0040040000240000C8422C4B1B78B4
:103C880073B92B4B01221A702A4B5B68BBB92A4BBC
:103C98005B7853B90123284A5370264A536014E0CD
:103CA800264B1B68264A1A607047214B00221A705F
:103CB80001225A70214B1B68214A1A6070475A1C0E
:103CC800092B1C4B08BF00225A6010B5FCF750FEA8
:103CD800174B00221A705B7813B9174B5B7803B93E
:103CE80010BD134B01225A70164C94ED230AFFF7AE
:103CF800BBFB94ED2B7AB0EEC77AB7EEC77A124BBE
:103D080083ED067BD4ED2D7AF0EEE77A9FED0F7AFE
:103D1800F4EEC77AF1EE10FA01DB01222271FDF709
:103D28001FFB0023024A5370034A5370D8E700BFB1
:103D38006C0A00240C0E0024980A00242CEF0008BA
:103D4800887C010804000024080200240000A04226
:103D580038B52DED028B0268A94B9A4202D0BDEC12
:103D6800028B38BD0446092102F0C2FBA54D28800C
:103D780040F20F11204602F0BBFB6880A24B1B7873
:103D8800052B2BD0A04B1B78042B00F065819E4B94
:103D98001B78062B79D09C4B1B78072B00F02A82C6
:103DA800994B1B78032BDAD1984BD3ED0F7A9FED03
:103DB800987A67EE877AFCEEE77A17EE903A98B22F
:103DC800FCF764FC002840F041828F4B02221A70F5
:103DD800904808F031FA02F0A3FFC0E72A888E4B1A
:103DE80019680A441A608D4B196811FA80F0186036
:103DF8008B490B8801339BB20B80B3F5805FCAD324
:103E0800884B120B1A80000B58800023824A1360DB
:103E1800824A13600B80844B196801228A6240F63B
:103E2800C312CA62DA60814B1B68784C226A5A62F4
:103E38000023C4F89830C4F89430C4F89030FFF7E1
:103E4800A5F9607270B101289CD101224FF400419C
:103E5800774805F03BF96F4808F0EEF96A4B0722FE
:103E68001A7098E700224FF40041714805F02EF9C6
:103E7800684808F0E1F96F4A22646F4B00206F49E7
:103E8800C3E90801604B06221A705E490B88654A2F
:103E980010881B1A07EE103AB8EEC77ADFED686A89
:103EA80027EE267AB7EEC77A664D85ED0E7B4B88EE
:103EB80052889B1A06EE103AB8EEC66A26EE266AB3
:103EC800B7EEC66A85ED0C6B9FED4B5B35EE466B26
:103ED80036EE477B85ED0A7B544B1B685B6A4B4C7F
:103EE800E36107EE903AB8EE670ADFED577A20EE05
:103EF800270A84ED230A9FED558AF0EE480A0AF056
:103F08007BF884ED230AF0EE087A20EE270AD4ED38
:103F18000F7A30EE670A84ED240AF0EE480A0AF0B8
:103F28006BF884ED240AB7EEC00A85ED080BFFF79D
:103F3800A5FE474B93ED007BF7EEC75BC4ED275A10
:103F480093ED026BB7EEC66B84ED286A93ED047BA4
:103F5800B7EEC77B84ED297AD4ED226AF4EEE65AEF
:103F6800F1EE10FA40F32281C4ED276AB4EEE66A56
:103F7800F1EE10FA40F32681244BC3ED286AB4EE23
:103F8800E67AF1EE10FA40F32981204BC3ED296A55
:103F98001E48D0ED277A87EEA67A9FED2E6A27EE87
:103FA800067A37EE067ABCEEC77A17EE103A99B25F
:103FB8004181D0ED287A87EEA67A27EE067A37EE89
:103FC800067ABCEEC77A17EE103A9AB2828190ED63
:103FD800297AC7EE267A67EE867A77EE867AFCEE3D
:103FE800E77A17EE903A9BB2C3810F4800684163A5
:103FF8008263C363CFE600BF00000000000000003A
:1040080000210240080E00240000002404000024BF
:104018000000C8421C0D0024000E0024040E0024D9
:104028007C0A0024800A0024D00C0024680D002497
:10403800000C02580000FA432009002400407F4089
:10404800FDD8243D08020024DC0FC93ADA0FC94024
:104058003803002400409C448348038883490A8825
:104068009B1A07EE103AB8EEC77ADFED816A27EEA1
:10407800267AB7EEC77A7F4A82ED147B438849884F
:104088005B1A06EE103AB8EEC66A26EE266AB7EE56
:10409800C66A82ED126B9FED725B35EE466B36EEAB
:1040A800477B82ED107BFEF73FFB734A92ED007B66
:1040B800F7EEC75B714BC3ED275A92ED026BB7EE73
:1040C800C66B83ED286A92ED047BB7EEC77B83ED60
:1040D800297AD3ED226AF4EEE65AF1EE10FA44DDBD
:1040E800C3ED276AB4EEE66AF1EE10FA48DD634BD9
:1040F800C3ED286AB4EEE67AF1EE10FA4BDD5F4BB9
:10410800C3ED296A5D48D0ED277A87EEA67A9FED40
:104118005C6A27EE067A37EE067ABCEEC77A17EEA7
:10412800103A99B24181D0ED287A87EEA67A27EE27
:10413800067A37EE067ABCEEC77A17EE103A9AB2CC
:10414800828190ED297AC7EE267A67EE867A77EE35
:10415800867AFCEEE77A17EE903A9BB2C38149481B
:10416800006841638263C36311E6F1EE667AF4EE98
:10417800E75AF1EE10FAB5D5404BC3ED277AB1E70F
:10418800F1EE667AB4EEE76AF1EE10FAB2D53B4B7F
:10419800C3ED287AAEE7F1EE667AB4EEE77AF1EE8F
:1041A80010FAAFD5354BC3ED297AABE7F1EE667A55
:1041B800F4EEE75AF1EE10FA7FF5D8AE2F4BC3EDC7
:1041C800277AD3E6F1EE667AB4EEE76AF1EE10FAF2
:1041D8007FF5D5AE294BC3ED287AD0E6F1EE667AA5
:1041E800B4EEE77AF1EE10FA7FF5D2AE234BC3EDC9
:1041F800297ACDE6244B5B7C5BB94FF49872002199
:10420800224809F05BFBE8220021214809F056FB0F
:10421800C6E501221C4B9A744FF400411D4804F076
:1042280055FF184B1B6800225A639A63DA63196AB0
:1042380041F211121142E0D1196A40F2444211428E
:10424800DBD15A6C22F400425A64D6E70E4B0122A5
:10425800DA72114B0C221A70BAE500BFAFF3008076
:104268000000000000000000080E0024800A00245E
:10427800FDD8243D20090024D80900240400002486
:1042880000409C44D00C0024840A00240802002426
:1042980038030024000C0258970A0024000000008C
:1042A80010B52DED028B324CD4ED197A9FED317A91
:1042B80037EE677ADFED307A27EE277A37EE077A1E
:1042C800B7EEC77A9FED266B9FED270B17EE060B0F
:1042D800B7EEC00B84ED1A0A9FED288AF0EE480A63
:1042E80009F08AFE84ED1A0AC0EE087A9FED247A56
:1042F80067EE877AFCEEE77A17EE903A9BB2236274
:10430800FEF7FCFD01281DD0642001F0DDF8012234
:104318004FF400411B4804F0D9FE1B4C00212046F5
:1043280009F00EF80421204609F00AF8204607F0A3
:10433800DEFF204600F054FF144B05221A70BDEC36
:10434800028B10BD124B01225A74DA73114B1022E2
:104358001A700E4B07221A70F1E700BFAFF3008006
:10436800182D4454FB21094000000040ED29993FD5
:10437800040000240000C8420AD7233CDA0FC940D1
:1043880000008045000C0258B40D002400000024F1
:10439800840A0024970A00242DE9F0432DED028BAE
:1043A800A5B001F051F8FFF745FBFFF7A9FB002482
:1043B80015941694179418941994BC4DD5F8E030B8
:1043C80043F00103C5F8E030D5F8E03003F001030D
:1043D8000193019BD5F8E03043F00403C5F8E030C1
:1043E800D5F8E03003F004030293029BD5F8E030DF
:1043F80043F02003C5F8E030D5F8E03003F020039F
:104408000393039BD5F8E03043F01003C5F8E03080
:10441800D5F8E03003F010030493049BD5F8E0309E
:1044280043F00203C5F8E030D5F8E03003F00203AA
:104438000593059BD5F8E03043F00803C5F8E03054
:10444800D5F8E03003F008030693069B984E224601
:104458004FF4E051304604F039FE01224FF4004198
:10446800304604F033FE802715974FF488131693CF
:10447800179415A98F4804F04FFC4FF4E053159397
:104488004FF00108CDF858801794189415A93046B4
:1044980004F042FC4FF400431593CDF8588017946C
:1044A8004FF00309CDF8609015A9304604F034FCAC
:1044B800182315931694CDF85C8015A9304604F09E
:1044C8002BFC22464946172002F0D4FB172002F0A5
:1044D80005FCD5F8D83043EA0803C5F8D830D5F834
:1044E800D83003EA08030093009B224605210B20DD
:1044F80002F0C0FB0B2002F0F1FB0A940B940C9421
:104508000D940794089409940E940F9410941194A0
:104518001294139414942C22214615A809F0CEF96C
:104528006548664B0360132343602023836040F68D
:10453800C313C36004614461876108F061F800280F
:1045480040F08B824FF480530A930AA95A4808F026
:104558000FFB002840F08382574808F081F80028B4
:1045680040F07F82002307934FF4E00308938023F1
:10457800099307A9504809F0BFF8002840F0738252
:1045880060230E9300220F921092119212921392AE
:104598004FF4007314930EA9474808F05DF90028FA
:1045A80040F0638204220EA9434808F055F9002818
:1045B80040F05D8208220EA93F4808F04DF9002816
:1045C80040F0578240F2E2430F93002314930C22E9
:1045D8000EA9394808F040F9002840F04C82002321
:1045E8001593169317936422189219934FF4005257
:1045F8001A921B931C934FF000721D921E931F93E7
:1046080015A92D4809F0D6F8002840F036822A4826
:1046180000F0B8FD3C22002115A809F04FF9284800
:10462800284B03604FF4002343600023836001227A
:10463800C260042101610375437582610377C36217
:104648000363436380F8383001F044FD002840F0EC
:1046580016821B4C204602F0E5FA1B4B15930923E2
:1046680016930523179340F2FF73189304231993A5
:1046780000231A938DF8703002221D928DF878303D
:104688008DF879308DF87A30A0221F9280222092FE
:104698008DF8843015A9204601F04AFF002840F023
:1046A800F0810A4B159340F20F1311E000440258B1
:1046B800000C025800100258D00C002400000140E1
:1046C800000B0024002102400800900C0000B84FA5
:1046D800169315A9A44801F02BFF002840F0D381B8
:1046E80000230A930B930C930D931593169317932A
:1046F800189319930E930F9310931193079308939C
:1047080009939A489A4A02606322426083604FF094
:10471800FF32C2600361836107F072FF002840F036
:10472800B4814FF480530A930AA9904808F020FAFC
:10473800002840F0AC818D4807F0C2FF002840F007
:10474800A8810423159350231693002317931893D5
:104758000A23199315A9854808F08EFB002840F014
:104768009A8100220E9201230F9310920A2311932B
:104778000EA97E4808F04CF9002840F08E810223EB
:104788000E930F9304220EA9784808F041F90028E7
:1047980040F0858100230793099307A9734808F01F
:1047A800ABFF002840F07D810021704808F0C6FC6E
:1047B800002840F0788104216C4808F0BFFC0028EC
:1047C80040F073816B486C4B0360272343600023E0
:1047D800836040F6C312C260036143618023836132
:1047E80007F00EFF002840F0628100230E930F931C
:1047F8001093159316931793189319931A931B9361
:104808005E485F4A02604FF40022426083600122E2
:10481800C260042101610375427505228261037734
:10482800436283620322C2620363436380F83830C1
:1048380001F050FC002840F03C8100230E930EA9A3
:104848004E4802F05DF9002840F035814D4B159334
:10485800062316930523179340F2FF731893042336
:10486800199300231A938DF86D3015A9434800F069
:10487800FBFF002840F0218104231793424B159336
:104888000C23169315A93D4800F0EEFF002840F0D0
:1048980016813E4B15931223169315A9374800F03D
:1048A800E3FF002840F00D81394B15931823169328
:1048B8000323179315A9314800F0D6FF002840F0CC
:1048C8000281344B15934FF48073169315A92B4826
:1048D80000F0CAFF002840F0F880002316931893D0
:1048E8001A931C930E930F9310932B484FF080420A
:1048F80002604360836040F6FF72C26003618023F8
:10490800836103231593012217920A2319931B929B
:104918001D9315A907F004FF002840F0D880002354
:104928000E9310930EA91C4808F0E6FE002840F0EC
:10493800D0801A481A4B036000238360C3600122A9
:104948000274437483740A25456182611024C4612A
:104958000321016245628262C462016343630821E4
:104968008163C36306241DE0000B0024B40D0024FA
:10497800000C00401C0D0024004801409C0A002443
:1049880000200240400020191000C01000018021C2
:10499800000052470080F03E680D0024DC0B002424
:1049A80000A400400464042242648464C264046570
:1049B80042658365C16501664366826603F042FD10
:1049C800002840F08880A548A54B0360A54B4360AC
:1049D800002383600122C260036143618361C36174
:1049E800036204F0E9FC002877D100219B4804F019
:1049F800DFFF002873D10021984805F007F8002848
:104A08006FD1642000F060FD974C0821204608F023
:104A18002FFB0421204608F02BFB0021204608F03C
:104A280027FB0821204608F02BFE0421204608F029
:104A380027FE0021204608F023FEFBF7B5FE8B4B2E
:104A48001B78002B4FD0022B53D03C21884808F00C
:104A580010FD002850D072B6FEE772B6FEE772B6B7
:104A6800FEE772B6FEE772B6FEE772B6FEE772B60A
:104A7800FEE772B6FEE772B6FEE772B6FEE772B6FA
:104A8800FEE772B6FEE772B6FEE772B6FEE772B6EA
:104A9800FEE772B6FEE772B6FEE772B6FEE772B6DA
:104AA800FEE772B6FEE772B6FEE772B6FEE772B6CA
:104AB800FEE772B6FEE772B6FEE772B6FEE772B6BA
:104AC800FEE772B6FEE772B6FEE772B6FEE772B6AA
:104AD800FEE772B6FEE772B6FEE772B6FEE772B69A
:104AE800FEE772B6FEE7614B01221A70FEF714FD6D
:104AF800ABE7FFF7D5FBA8E75B4C23680025DD6330
:104B08009D635D635B4E40F2FF722946304601F0BB
:104B1800F9FB594F40F2FF722946384601F0F2FB83
:104B28004FF47A7000F0D0FC05225449384601F061
:104B38003FF9FCF799FCFDF747FDFEF795F89FED67
:104B4800501ADFED500A9FED500A5048FEF7E8F87A
:104B5800642000F0B9FCFEF737FEFEF7A5FD082338
:104B68004B4A29464FF48060FEF740FE304601F07C
:104B78001DFC0821204608F0B7F90421204608F05A
:104B8800B3F92946204608F0AFF90821204608F075
:104B9800EDFC0421204608F0E9FC2946204608F0EF
:104BA800E5FC0C21204608F09FF93A4D3A4C3B4E63
:104BB80000274FF000084FF00009DFED398A23E0A5
:104BC800384B03221A702764374BC3E9088900223F
:104BD800364BC6E94A23C6E9008906E0314B012273
:104BE8001A700022324BC6E94A23FEF783FAF8EE20
:104BF800480A60EEA80A94ED100A2448FEF79BF8CC
:104C0800B7EEC00A86ED000B00F058FC08EE100A5B
:104C18000821284604F054FAE0711021284604F0CF
:104C28004FFA2072E379012814BF00210121012BDA
:104C380014BF002201220AB10029C1D10BB90029F1
:104C4800CCD10028D1D1002ACFD0164B02221A701D
:104C580000224FF08043C6E94A23C6E77C0C0024B3
:104C680000580040FFECC010D00C002400000024C5
:104C7800680D0024000B00249C0A0024700A0024FC
:104C8800000000000000C84200004842000A00245A
:104C9800D4000024000C0258040000240802002458
:104CA8006F12833AD0000024200900240000084035
:104CB8000000F03F72B6FEE7B0EEC00B9FED047B3C
:104CC800B4EE470BF1EE10FACCBF0120002070477C
:104CD800FFFFFFFFFFFFEF7FB4EE400BF1EE10FA8E
:104CE8006CBF01200020704782B0074BD3F8F42036
:104CF80042F00202C3F8F420D3F8F43003F00203C0
:104D08000193019B02B070470044025870B58CB003
:104D180000230793089309930A930B9303685B4A4C
:104D2800934204D05A4A93427ED00CB070BD0446D8
:104D3800584A136801331360012B64D0564BD3F8DB
:104D4800E02042F00102C3F8E020D3F8E02002F0AE
:104D580001020292029AD3F8E02042F00402C3F85A
:104D6800E020D3F8E02002F004020392039AD3F87B
:104D7800E02042F02002C3F8E020D3F8E03003F04E
:104D880020030493049B0A2307930326089607A984
:104D9800424803F0C1FF3023079308960025099580
:104DA80007A93F4803F0B8FF4FF4805307930896CC
:104DB800099507A93B4803F0AFFF3B483B4B03600D
:104DC800092343608560C5604FF4806303614FF435
:104DD800006343614FF4005383614FF48073C361F0
:104DE8004FF480330362456202F01EFAC8B92E4BB5
:104DF800E3649C6300221146122001F03BFF12205D
:104E080001F06CFF91E7244BD3F8D82042F0200240
:104E1800C3F8D820D3F8D83003F020030193019BBE
:104E28008CE7FFF747FFE2E71A4A1368013313607C
:104E3800012B1DD0184BD3F8E02042F00102C3F833
:104E4800E020D3F8E03003F001030693069B6023CB
:104E580007930323089307A9104803F05DFF002276
:104E68001146122001F006FF122001F037FF5CE71F
:104E7800094BD3F8D82042F02002C3F8D820D3F841
:104E8800D83003F020030593059BD3E700200240A8
:104E980000210240140E0024004402580000025869
:104EA8000008025800140258640B00241000024045
:104EB80010B5B8B00446002133913491359136913C
:104EC8003791C02202A808F0F9FC2268214B9A42C7
:104ED80001D038B010BD4FF400420023CDE90223C1
:104EE8004FF080531E9302A805F0C6FC78BB1A4BFE
:104EF800D3F8EC2042F48072C3F8EC20D3F8EC200D
:104F080002F480720092009AD3F8E02042F0020284
:104F1800C3F8E020D3F8E03003F002030193019BCB
:104F28004FF440533393022334930024359436943A
:104F38000923379333A9094803F0EEFE22460621D8
:104F4800162001F097FE162001F0C8FEC1E7FFF712
:104F5800B1FECCE700A40040004402580004025807
:104F680010B5B8B00446002133913491359136918B
:104F78003791C02202A808F0A1FC22681B4B9A4274
:104F880001D038B010BD08220023CDE9022302A8C1
:104F980005F072FC38BB164CD4F8E03043F002033D
:104FA800C4F8E030D4F8E03003F002030093009B2B
:104FB8004FF440633393122334930023359336938D
:104FC8000423379333A90B4803F0A6FED4F8E8303E
:104FD80043F48003C4F8E830D4F8E83003F48003DD
:104FE8000193019BCDE7FFF765FED4E70058004029
:104FF800004402580004025800B58BB00023059302
:10500800069307930893099303682D4A934208D09F
:105018002C4A934213D02C4A93423BD00BB05DF8F4
:1050280004FB2A4BD3F8F02042F00102C3F8F02029
:10503800D3F8F03003F001030193019BEEE7234B13
:10504800D3F8E82042F00802C3F8E820D3F8E820B3
:1050580002F008020292029AD3F8E02042F001021C
:10506800C3F8E020D3F8E03003F001030393039B77
:105078000123059302230693099305A9144803F015
:105088004BFE00220421322001F0F4FD322001F011
:1050980025FEC3E70D4BD3F8F02042F48022C3F875
:1050A800F020D3F8F03003F480230493049B00220B
:1050B8000221762001F0DEFD762001F00FFEADE73B
:1050C80000000140000C0040004801400044025824
:1050D8000000025830B589B0002303930493059368
:1050E800069307930368B3F1804F01D009B030BD30
:1050F800214BD3F8E82042F00102C3F8E820D3F8A6
:10510800E82002F001020092009AD3F8E02042F071
:105118000102C3F8E020D3F8E02002F00102019276
:10512800019AD3F8E02042F00202C3F8E020D3F855
:10513800E03003F002030293029B4FF40043039311
:10514800022504950124079403A90C4803F0E4FD03
:10515800082303930495002505950695079403A94C
:10516800074803F0D9FD2A4621461C2001F082FD9C
:105178001C2001F0B3FDB9E70044025800000258B2
:105188000004025800B587B00023019302930393EB
:105198000493059302680F4B9A4202D007B05DF85A
:1051A80004FB0D4BD3F8E02042F01002C3F8E020D6
:1051B800D3F8E03003F010030093009B4FF47C53C6
:1051C8000193022302930123059301A9034803F0E5
:1051D800A3FDE3E700000140004402580010025814
:1051E80008B50368154A934206D0154A93420BD076
:1051F800144A934217D008BD134AD2F8F03023F06E
:105208000103C2F8F030F6E70F4AD2F8E83023F08D
:105218000803C2F8E83001210C4803F09BFE322055
:1052280001F06AFDE7E7084AD2F8F03023F480235A
:10523800C2F8F030762001F05FFDDCE700000140A5
:10524800000C004000480140004402580000025889
:10525800FEE7FEE7FEE7FEE7FEE7704770477047A8
:1052680008B500F01FF908BD08B5024802F0E6FBD2
:1052780008BD00BF640B002408B5034800F048F9D6
:10528800024800F045F908BD9C0A0024000B0024E0
:1052980008B5024803F0B4FB08BD00BFDC0B0024CE
:1052A80008B5802003F018FF08BD000008B50248C3
:1052B80007F06CF808BD00BF680D002408B5024867
:1052C80007F064F808BD00BFB40D002408B5024813
:1052D80007F05CF808BD00BF1C0D0024274AD2F86F
:1052E800883043F47003C2F88830254B1B6803F0FC
:1052F8000F03062B06D8224A136823F00F0343F046
:10530800070313601F4B1A6842F001021A6000225B
:105318001A6119681C4A0A401A60194B1B6813F075
:10532800080F06D0164A136823F00F0343F007034B
:105338001360144B00229A61DA611A621349996268
:105348001349D962134919635A639963DA63196473
:105358005A64196821F4802119601A660E4B1A687C
:105368000E4B1340B3F1005F03D20D4B0122C3F87B
:1053780008210C4B43F2D2021A60704700ED00E09E
:1053880000200052004402587FEDF6EA00020202B3
:105398000000FF01800201010010005C0000FFFF17
:1053A8000080005100400052DFF834D0FFF796FF2C
:1053B8000C480D490D4A002302E0D458C450043368
:1053C800C4188C42F9D30A4A0A4C002301E013603E
:1053D8000432A242FBD308F03FFAFEF7DDFF704724
:1053E80000000824000000245C01002480880108D3
:1053F800600100241C0E0024FEE700000F4B1B7800
:105408000BB90120704710B504464FF47A70B0FB11
:10541800F3F30B4A1068B0FBF3F001F093FC0F2C88
:1054280000D808B1012010BD002221464FF0FF30FE
:1054380001F020FC034B1C600020F4E7F00000247E
:10544800E8000024F400002410B5032001F000FC5B
:1054580004F08AFE0F498B690F4AC3F30323D35C18
:1054680003F01F03D8408B6903F00F03D35C03F0EC
:105478001F0320FA03F3094A1360094B18600F2031
:10548800FFF7BCFF10B10124204610BD0446FFF70A
:105498002BFCF9E700440258907C0108EC0000243A
:1054A800E8000024034A1168034B1B780B4413607F
:1054B800704700BF180E0024F0000024014B186844
:1054C800704700BF180E002438B50446FFF7F6FFF2
:1054D8000546B4F1FF3F02D0044B1B781C44FFF78C
:1054E800EDFF401BA042FAD338BD00BFF0000024F6
:1054F800014B1868000C70470010005C704770473B
:1055080008B5806BFFF7FBFF08BD704770470000C8
:10551800F8B5044603681D685E689F4A934255D0F3
:1055280002F58072934251D09C4B9F6807F01F0789
:1055380015F0020F10D016F0020F0DD0636D13F0A6
:10554800100F03D1636D43F400636365204600F0D8
:10555800EEFF236802221A6015F0040F02D016F03D
:10556800040F05D115F0080F40D016F0080F3DD0F4
:10557800636D13F0100F03D1636D43F4007363651B
:105588002368DA6812F4406F2AD1854A934200F002
:105598000B81DA6812F4005F22D11A6812F0080F42
:1055A8001ED09A6812F0040F12D15A6822F00C0229
:1055B8005A60636D23F480736365636D13F4805FD1
:1055C8000ED1636D43F00103636509E0754BACE7E9
:1055D800636D43F010036365A36D43F00103A36596
:1055E8002046FFF78BFF23680C221A6015F0200F66
:1055F80002D016F0200F05D115F0400F48D016F054
:10560800400F45D0636D13F0100F03D1636D43F461
:10561800005363652368DA6C02F4C072D868604985
:105628008B4200F0AE80D96862BB11F0007F05D0D4
:1056380001F4005200F44060024323D11A6812F0CA
:10564800400F1FD011F4001F1CD19A6812F0080FE8
:1056580010D15A6822F060025A60636D23F48053B7
:105668006365636D13F4807F0CD1636D43F00103B0
:10567800636507E0636D43F010036365A36D43F052
:105688000103A3652046FEF763FB236860221A60C6
:1056980015F0800F02D016F0800F37D115F4807FF7
:1056A80002D016F4807F3CD115F4007F02D016F4A6
:1056B800007F42D115F0100F21D016F0100F1ED028
:1056C800236B73B1002F46D02368334A934240D0EE
:1056D80002F5807293423CD0304B9B6813F4404FE4
:1056E8000AD0636D43F480636365A36D43F00203DE
:1056F800A3652046FFF70AFF236810221A6015F4F5
:10570800806F02D016F4806F2BD1F8BD636D43F41F
:10571800803363652046FFF7F8FE236880221A600D
:10572800BCE7636D43F400336365204600F0FDFE7B
:1057380023684FF480721A60B6E7636D43F48023E0
:105748006365204600F0F2FE23684FF400721A6089
:10575800B0E7144BC1E72368DB6813F0030FCBD025
:10576800BFE7636D43F480436365A36D43F00803AB
:10577800A36523684FF480621A60204600F0D4FEC7
:10578800C3E7B91F01297FF64EAF002F3FF44BAF97
:105798000149C96848E700BF002002400063025879
:1057A8000021024000230240092F06D840F221229E
:1057B800FA4012F0010F7FF4ECAE014AD268E9E634
:1057C8000020024008B50346806B426D12F0500F6E
:1057D80030D1436D43F40073436503681A6812F0CF
:1057E800080F14D0DA6812F4406F20D1DB6813F484
:1057F800005F1CD1436D23F480734365436D13F43C
:10580800805F14D1436D43F0010343650FE0DB680B
:1058180013F0030F0BD1436D23F480734365436D7D
:1058280013F4805F03D1436D43F001034365FFF731
:1058380065FE08BD426D12F0100F04D1C26CD26C27
:1058480018469047F5E7FFF761FEF2E708B5806B69
:10585800436D43F040034365836D43F00403836560
:10586800FFF754FE08BD000070B582B00022019217
:1058780090F85020012A00F010820346012280F897
:1058880050200068826812F0040F09D05A6D42F067
:1058980020025A650120002283F8502002B070BD12
:1058A8000A68002A09DBC2F31304002C48D1920EBF
:1058B80001249440C2692243C26148684FEA901E9D
:1058C8000EF00C0E1A6802F1300C5EF80C4000F075
:1058D8001F000A68C2F3846282401F2505FA00F09F
:1058E80024EA000002434EF80C201C68A268A06855
:1058F80000F0080002F0040202432AD01868826807
:1059080012F0010F40F0BF810C68D0F8C050CA688F
:1059180002F0180CB74A22FA0CF22240C4F313041E
:1059280025EA04042243C0F8C020C868B24A90425D
:1059380000F0B0800A68002AC0F22E810020AAE791
:1059480092FAA2F2B2FA82F202F01F020124944003
:10595800B0E70D684FEAD55C0CF0040C14345CF821
:105968000400C5F304554FF0070E0EFA05FE20EAB1
:105978000E008E6806FA05F528434CF804009F4887
:10598800006800F07040B0F1805F0CD01868C468FF
:1059980014F0100F41D1C468C4F38204640048694C
:1059A80000FA04F407E01868C468C4F382046400C9
:1059B800486900FA04F40D69042D36D0186800F11E
:1059C800600C5CF82560086800F0F84006F0004EAE
:1059D80040EA0E0020434CF825001C680D69487EFB
:1059E800012814BF16464FF00046603454F82500CD
:1059F80020F00040304344F825001D680C69087EFB
:105A0800012808BF4FF40062286904F01F04A2406F
:105A180020F4F04002432A6170E7C468640804F087
:105A28000804486900FA04F4C5E71868026E02F031
:105A3800F8420C68B2EB846F1DD01868426E02F011
:105A4800F8420C68B2EB846F1AD01868826E02F0C4
:105A5800F8420C68B2EB846F17D01868C26E02F077
:105A6800F8420C68B2EB846F7FF448AFC26E22F044
:105A78000042C26642E7026E22F000420266DCE79C
:105A8800426E22F000424266DFE7826E22F0004258
:105A98008266E2E71C680A68C2F31300B8B9900E80
:105AA800013000F01F05092D3ED9920E013202F097
:105AB8001F00920602F0F84201258540154300EBCD
:105AC80040021E3A120542F000722A4336E092FA6A
