:020000040800F2
:1000000000000824514A0008F9480008FB4800088D
:10001000FD480008FF4800080149000800000000F2
:10002000000000000000000000000000034900087C
:1000300005490008000000000749000809490008B8
:10004000A14A0008A14A0008A14A0008A14A0008E4
:10005000A14A0008A14A0008A14A0008A14A0008D4
:10006000A14A0008A14A0008A14A00081149000855
:10007000A14A0008A14A0008A14A0008A14A0008B4
:10008000A14A0008A14A000821490008A14A000825
:10009000A14A0008A14A0008394900084949000856
:1000A000A14A0008A14A0008A14A0008A14A000884
:1000B00055490008A14A0008A14A0008A14A0008C1
:1000C000A14A0008A14A0008A14A0008A14A000864
:1000D000A14A0008A14A0008A14A0008A14A000854
:1000E000A14A0008A14A000800000000A14A000837
:1000F000A14A0008A14A0008A14A0008A14A000834
:10010000A14A0008A14A000865490008A14A000860
:10011000A14A0008A14A0008A14A0008A14A000813
:10012000A14A0008A14A0008A14A0008A14A000803
:10013000A14A0008A14A0008A14A0008A14A0008F3
:1001400000000000000000000000000000000000AF
:10015000A14A0008A14A0008A14A0008A14A0008D3
:10016000A14A0008A14A0008A14A0008A14A0008C3
:10017000A14A0008A14A0008A14A000800000000A6
:10018000A14A0008A14A0008A14A0008A14A0008A3
:10019000A14A0008A14A0008A14A0008A14A000893
:1001A000A14A0008A14A0008A14A0008A14A000883
:1001B000A14A0008A14A0008A14A0008A14A000873
:1001C000A14A0008A14A0008A14A0008A14A000863
:1001D000A14A0008A14A0008A14A0008A14A000853
:1001E000A14A0008A14A0008A14A0008A14A000843
:1001F000A14A0008A14A0008A14A0008A14A000833
:10020000A14A0008A14A0008A14A0008A14A000822
:10021000A14A0008A14A000875490008A14A00083F
:10022000A14A0008A14A0008A14A000800000000F5
:10023000A14A0008A14A000800000000A14A0008E5
:10024000A14A0008A14A0008A14A0008A14A0008E2
:10025000A14A0008A14A0008A14A0008A14A0008D2
:10026000A14A0008A14A0008A14A0008A14A0008C2
:10027000A14A0008A14A0008A14A000800000000A5
:10028000A14A0008A14A0008A14A00080000000095
:0802900000000000A14A000873
:1002980010B5054C237833B9044B13B10448AFF3B8
:1002A80000800123237010BD5001002400000000CD
:1002B800F4E2000808B5034B1BB103490348AFF348
:1002C800008008BD0000000054010024F4E200088A
:1002D80081F0004102E000BF83F0004330B54FEAEF
:1002E80041044FEA430594EA050F08BF90EA020F5C
:1002F8001FBF54EA000C55EA020C7FEA645C7FEAEF
:10030800655C00F0E2804FEA5454D4EB5555B8BF11
:100318006D420CDD2C4480EA020281EA030382EA82
:10032800000083EA010180EA020281EA0303362D14
:1003380088BF30BD11F0004F4FEA01314FF4801CE7
:100348004CEA113102D0404261EB410113F0004FF9
:100358004FEA03334CEA133302D0524263EB4303B0
:1003680094EA050F00F0A780A4F10104D5F1200E4E
:100378000DDB02FA0EFC22FA05F2801841F10001A9
:1003880003FA0EF2801843FA05F359410EE0A5F17D
:1003980020050EF1200E012A03FA0EFC28BF4CF0AE
:1003A800020C43FA05F3C01851EBE37101F0004564
:1003B80007D54FF0000EDCF1000C7EEB00006EEB71
:1003C8000101B1F5801F1BD3B1F5001F0CD34908FB
:1003D8005FEA30004FEA3C0C04F101044FEA445252
:1003E80012F5800F80F09A80BCF1004F08BF5FEAD9
:1003F800500C50F1000041EB045141EA050130BDB9
:100408005FEA4C0C404141EB0101013C28BFB1F5CA
:10041800801FE9D291F0000F04BF01460020B1FA15
:1004280081F308BF2033A3F10B03B3F120020CDAE8
:100438000C3208DD02F1140CC2F10C0201FA0CF0C6
:1004480021FA02F10CE002F11402D8BFC2F1200C2B
:1004580001FA02F120FA0CFCDCBF41EA0C019040E1
:10046800E41AA2BF01EB0451294330BD6FEA04042A
:100478001F3C1CDA0C340EDC04F11404C4F1200215
:1004880020FA04F001FA02F340EA030021FA04F327
:1004980045EA030130BDC4F10C04C4F1200220FA7E
:1004A80002F001FA04F340EA0300294630BD21FABC
:1004B80004F0294630BD94F0000F83F4801306BF82
:1004C80081F480110134013D4EE77FEA645C18BF76
:1004D8007FEA655C29D094EA050F08BF90EA020F0D
:1004E80005D054EA000C04BF1946104630BD91EA05
:1004F800030F1EBF0021002030BD5FEA545C05D108
:100508004000494128BF41F0004130BD14F5800446
:100518003CBF01F5801130BD01F0004545F0FE41BA
:1005280041F470014FF0000030BD7FEA645C1ABFEF
:10053800194610467FEA655C1CBF0B46024650EA26
:10054800013406BF52EA033591EA030F41F4002152
:1005580030BD00BF90F0000F04BF0021704730B5D8
:100568004FF4806404F132044FF000054FF00001AD
:1005780050E700BF90F0000F04BF0021704730B56E
:100588004FF4806404F1320410F0004548BF404243
:100598004FF000013EE700BF42004FEAE2014FEA98
:1005A80031014FEA02701FBF12F07F4393F07F4F73
:1005B80081F06051704732F07F4208BF704793F076
:1005C8007F4F04BF41F40021704730B54FF4607489
:1005D80001F0004521F000411CE700BF50EA01028C
:1005E80008BF704730B54FF000050AE050EA010235
:1005F80008BF704730B511F0004502D5404261EBA5
:1006080041014FF4806404F132045FEA915C3FF4E5
:10061800D8AE4FF003025FEADC0C18BF03325FEA82
:10062800DC0C18BF033202EBDC02C2F1200300FA33
:1006380003FC20FA02F001FA03FE40EA0E0021FA58
:1006480002F11444BDE600BF70B584B04FF0FF332B
:1006580002930192009101230246A0210A4808F062
:1006680057FA70B9084E052501242B462246A021C9
:10067800304608F04DFC03460028F6D1184604B071
:1006880070BD0123FAE700BF340A002400B583B027
:1006980021238DF80030030A8DF801308DF802000F
:1006A80001238DF803306B4601A8002213F8011BC3
:1006B8004A408342FAD18DF8042005226946002079
:1006C800FFF7C2FF03B05DF804FB000000B585B07A
:1006D8004FF0FF3302930192009101230246A021BB
:1006E800044808F013FB003818BF012005B05DF876
:1006F80004FB00BF340A002410B582B0044605226A
:1007080069460020FFF7E2FFF8B986469DF80330F6
:10071800012B26D0224B00221A706A460DF1040CD8
:10072800734612F8011B4B40DBB26245F9D19DF8C4
:1007380004209A421ED00022194B1A70194B4FF010
:10074800010E83F805E09A7108E00022144B1A7034
:10075800144B4FF0010E83F805E09A71704602B011
:1007680010BD0F4B02221A700E4B00225A71012243
:100778009A71D2E79DF80030212B07D19DF801200E
:100788009DF8023043EA02232380E7E70022044B66
:100798001A70044B012159719A714FF0020EDDE76E
:1007A800000000240400002408B50D48FFF7A4FF4A
:1007B80060B90C4B1A8A07EE902AF8EE677ADFEDDB
:1007C8000A6A87EEA67A83ED0F7A08BD074B0122E5
:1007D8001A73074B0D221A70024B064ADA63F4E7C4
:1007E80014000024040000240000C8423C0800242F
:1007F8004F080024857C983F70B5049D90ED007BE0
:10080800B4EEC07BF1EE10FA35DB30EE470B90ED1D
:10081800026B36EE477B80EE076B4FF0000E91EDD2
:10082800007BB4EEC17BF1EE10FA65DB31EE471BBD
:1008380091ED025B35EE477B81EE074B002405FB0B
:1008480004EE02EBCE0393ED000B93ED027B37EE43
:10085800407B07EE060BAE4402EBCE0292ED007B26
:1008680092ED025B35EE475B05EE067B37EE407B8B
:1008780007EE040B70BD1C684FEAC40C00EBC406FD
:1008880096ED007BB4EEC07BF1EE10FA28DD4FEA5E
:10089800540C012C21D94FF0000E00EBCC0696ED3C
:1008A800007BB4EEC07BF1EE10FAD4BFE646644696
:1008B8000EEB040C4FEA5C0CA4EB0E06012EECD8F0
:1008C80000EBCE0090ED006B30EE460B90ED027B16
:1008D80037EE467B80EE076BA1E74FF0000EEFE79F
:1008E80004F1FF3E604410ED026B30EE460B37EE2C
:1008F800467B80EE076B92E75868C60001EBC003A1
:1009080093ED007BB4EEC17BF1EE10FA24DD4308D1
:1009180001281FD9002401EBC30C9CED007BB4EE29
:10092800C17BF1EE10FAD4BF1C46184623185B08A9
:10093800A0EB040CBCF1010FEDD801EBC40191ED63
:10094800005B31EE451B91ED027B37EE457B81EE76
:10095800074B74E70024F0E7441E314411ED025BB5
:1009680031EE451B37EE457B81EE074B67E700000C
:10097800F0B52DED108B9DB0D74B93ED067B8DED2B
:10098800027B9FEDCDAB27EE0AABB0EECAABD34AE4
:1009980082ED1AAB93ED446BD14B93ED007B26EEC1
:1009A800076BD04B1B78012B07D0022B00F04D832F
:1009B800032B9FEDC37B07FE066BCB4B93F8583098
:1009C80013B1C94B83ED006BC34B93ED389AB7EE67
:1009D800C99A9FEDBD7B29EE077BC34B93ED009B26
:1009E80036EE496BB4EEC67BF1EE10FA0FD4BA4B73
:1009F80093ED397AB7EEC77A9FEDB35B27EE057BA7
:100A0800B4EEC76BF1EE10FA58BFB0EE467B39EE84
:100A1800079BB54B83ED009BAF4B93ED467BB5EE43
:100A2800C07BF1EE10FA40F313831B230093AF4B06
:100A3800AF4AB049A1F1D800B0EE491BB0EE4A0B5D
:100A4800FFF7DAFEA84B93F8593013B1A64B83EDA4
:100A5800020BA14B93ED347AB7EEC77A9FED9A6BF0
:100A680027EE067BA04B93ED026B30EE460BB4EEFF
:100A7800C07BF1EE10FA0FD4974B93ED357AB7EEB1
:100A8800C77A9FED915B27EE057BB4EEC70BF1EEBD
:100A980010FA58BFB0EE407B36EE077B8DED087B31
:100AA8008E4B83ED0C7B8C4B93ED40DAB7EECDDAB1
:100AB800B4EECD7BF1EE10FA0ADC93ED41DAB7EE35
:100AC800CDDAB4EECD7BF1EE10FA58BFB0EE47DBCD
:100AD800814C94ED0A8B94ED0C7B38EE07BB3BEE12
:100AE80007BB9FED7B7B2BEE07BB94ED08CBB0EEED
:100AF8004C0B0CF09DFCB0EE40EB8DED140BB0EE02
:100B08004C0B0CF049FC8DED160B2BEE0E7B08EE12
:100B1800007BF7EEC74BCDED1B4A28EE0E8B1BEE84
:100B2800008BB7EEC88BD4ED3A7AF7EE008A78EEF0
:100B3800E78A6D4B93ED147A68EE878A67EEA47A9C
:100B480078EEA78AC3ED148AD4ED3BCAF5EEC0CA85
:100B5800F1EE10FACCBFB0EE687A9DED1B7AB7EED5
:100B6800C77A3DEE475B8DED0A5B5C4B83ED185B06
:100B78005D4A92ED066B8DED0C6B574B93ED147B34
:100B880015EE076B93ED167B26EE074B8DED184B94
:100B980092ED047B8DED0E7B93ED106B05EE067BDD
:100BA80037EE047B8DED067B93ED2CBBB4EEC7BB13
:100BB800F1EE10FA40F14F82484B83ED10BB464BE3
:100BC80093ED3FCADFED4C7A2CEE27CA9DED027BF0
:100BD800B0EEC7FB414B83ED12FB1B230093434B45
:100BE800464AA2F5E751A1F1D800B0EE491BB0EE94
:100BF8004A0BFFF701FE3C4B93F85A3013B13A4BBE
:100C080083ED080B344B93ED367AB7EEC77A9FED38
:100C18002E6B27EE067B314B83ED1A7B324B93ED1F
:100C2800086B30EE460BB4EEC07BF1EE10FA11D42F
:100C3800294B93ED377AB7EEC77A9FED235B27EE02
:100C4800057BB4EEC07BF1EE10FA40F34382234BF0
:100C580083ED1A7B214B93ED1A7B36EE076B8DEDF6
:100C6800046B83ED0A6B1C4B93ED427AB7EEC77A9F
:100C7800B4EEC76BF1EE10FA40F33082174B83EDF8
:100C88001A7BB0EE08EB9DED027B27EE0EEB1B23E3
:100C98000093164B1A4AA2F58471A1F1D800B0EE60
:100CA800491BB0EE4F0BFFF7A7FD0C4B93ED1A6BEA
:100CB8008DED106B26E000BFFB2BED663D19234040
:100CC80000000000000000002D431CEBE2361A3F34
:100CD8001D339045A779E23FE00100240803002472
:100CE80070010024D00000247801002478700108E5
:100CF80060E30008100001083ACD133FF01C01081A
:100D0800180101089FEDDE7B20EE070B20EE060B95
:100D18002EEE400BB7EECCAAB4EEC0ABF1EE10FA53
:100D280000F1F281B1EE4C7AB7EEC77AB4EE407BAF
:100D3800F1EE10FA37FE000BDF4B93ED107B8DEDD3
:100D4800127B37EE000B83ED140BB4EEC0BBF1EE53
:100D580010FA40F1DC8183ED14BBD84ED84DA5F1D3
:100D6800D8041B2700973346D64A29462046B0EEBA
:100D7800491BB0EE4F0BFFF73FFD9FEDC1BB20EEC7
:100D88000B0B20EE0DDB00973346CF4A2946204651
:100D9800B0EE491BB0EE4F0BFFF72EFD00EE0BDB5C
:100DA8002DEE0EEBC94B93ED3C7AF7EE007A77EE19
:100DB800C77AC74AD2ED156A67EEA67A27EE087A8F
:100DC80077EE877AC2ED157A93ED3D7AB5EE407AE3
:100DD800F1EE10FA37FE888AB7EEC86A9DED107BEF
:100DE80037EE46FBB44B83ED1AFB92ED0CDBB74BA9
:100DF80093ED247BB0EE4DBB1FEE07BB93ED267B36
:100E08002BEE07BB92ED0A9B93ED207BB0EE493B9E
:100E18000FEE073B33EE0B3B93ED307BB4EEC37B19
:100E2800F1EE10FA40F18081A34B83ED127BB4EE12
:100E3800CEABF1EE10FA09D4B1EE4CAAB7EECAAABD
:100E4800B4EECEABF1EE10FA3AFE0EAB9A4B93ED40
:100E5800122B32EE0AAB83ED16ABB4EECA7BF1EE81
:100E680010FA40F1718183ED167B934B93ED144B8F
:100E780093ED161B9DED147B21EE075B9DED16ABE4
:100E880014EE0A5BB6EE000B25EE000B24EE074BC2
:100E980001EE0A4B9FED7C7B24EE074B34EE401BA2
:100EA8009FED7B7B37EE407B37EE447B85FE010B65
:100EB80080FE070B85FE414B84FE474B30EE044B0A
:100EC800BEEE000B24EE004B35EE045B9FED720B7B
:100ED80025EE005B83ED005B31EE041B21EE001B69
:100EE80083ED021B37EE047B27EE007B83ED047B4A
:100EF80083ED086BF5EEC0CAF1EE10FA40F33181CC
:100F0800B7EEE87A6C4B83ED067B704B93ED024BA2
:100F18009FED637B24EE077B6D4B93F85B302BB121
:100F28006A4BD3E900016A4BC3E90E01684B93EDA4
:100F38000E5B664B93ED006B36EE456BB4EEC67BED
:100F4800F1EE10FA0CD493ED044B9FED557B24EE93
:100F5800077BB4EEC76BF1EE10FA58BFB0EE467BD4
:100F680035EE077B5A4B83ED0E7B9FED4F6B9DED66
:100F7800025B17EE065B504A82ED1C5B002283F889
:100F8800582083F859209DED087B83ED027B4F4B59
:100F980093ED126B9DED125B35EE457B9DED0A4B93
:100FA80004EE067B9DED066B35EE466B37EE067B51
:100FB8009FED3B6B9DED0E5B07EE065B9FED3C7B6B
:100FC800B4EEC75BF1EE10FA40F3D080404B83EDEE
:100FD800047B3F4B9FED327B9DED0C6B9DED185BC9
:100FE80005EE076B83ED066B002283F85A209DED12
:100FF800046B83ED086B354B93ED225B32EE426B4D
:10100800BAEE044B26EE046B0FEE056B32EE432B63
:1010180036EE022B02EE079B9FED257BB4EEC79BB5
:10102800F1EE10FA40F3B480294B83ED0A7B284B8C
:101038009FED1B7B0BEE07DB83ED0CDB002283F8B7
:101048005B201DB0BDEC108BF0BDB1EE466BB4E477
:1010580093ED489BE9E41D4B93ED2E7B9DED066BCC
:10106800B4EEC67BF1EE10FA03DD134B83ED107B73
:10107800A5E5114B9DED067B83ED107B9FE500BF39
:10108800FCA9F1D24D62503FAA4C58E87AB6EB3F22
:1010980000000000000000001D339045A779F23FD2
:1010A8002D431CEBE2361A3FD5EB7BF3E9CEBA3F72
:1010B800000000803FBE404008030024787001080B
:1010C80010000108A0540108C8380108E0010024F4
:1010D800780100243A4B83ED1A0BBBE5394B93EDAD
:1010E800437AB7EEC77A9DED046BB4EEC76BF1EEA9
:1010F80010FA03D5324B83ED1A7BC2E5304B9DEDD8
:10110800047B83ED1A7BBCE5B0EE4A0B14E62D4B4D
:1011180093ED2E7BB4EEC70BF1EE10FA7FF51DAE02
:10112800274B83ED147B18E6264B93ED325BB4EE28
:10113800C35BF1EE10FA03DD214B83ED125B76E61B
:101148001F4B83ED123B72E61E4B93ED327BB4EEE0
:10115800C7ABF1EE10FA7FF588AE194B83ED167B1D
:1011680083E6DDED1B7AB7EEE77ACBE69FED127BDF
:10117800B4EEC75BF1EE10FA03D4134B83ED045BB6
:1011880027E7114B0CA1D1E90001C3E9040120E7CD
:101198009FED097BB4EEC79BF1EE10FA03D40A4B1E
:1011A80083ED0A9B43E7084B03A1D1E90001C3E99A
:1011B8000A013CE7AFF30080000000803FBE40C05A
:1011C80008030024E0010024780100240000000046
:1011D8003D4B93ED1C1B3D4A92ED123B3C4B93ED6E
:1011E8001C7BB0EE432B11EE072B93ED1E7B22EEFA
:1011F800072B92ED105B93ED186BB0EE454B01EEAB
:10120800064B34EE024B93ED287BB4EEC47BF1EE33
:1012180010FA29D52F4B83ED007B2E4B93ED007BE5
:10122800294B83ED0E7B2A4B93ED1A0B37EE476B58
:1012380001EE006B37EE447B36EE077B9FED1C6BAF
:1012480007EE065B9FED1C7BB4EEC75BF1EE10FA70
:101258001ADD1E4B83ED107B9FED157B02EE073BDD
:101268001A4B83ED123B7047194B93ED2A7BB4EE72
:10127800C47BF1EE10FA03DD164B83ED007BCCE75F
:10128800144B83ED004BC8E79FED0D7BB4EEC75BB5
:10129800F1EE10FA03D40D4B83ED105BDCE70B4B3A
:1012A80007A1D1E90001C3E91001D5E7AFF3008038
:1012B800FCA9F1D24D62503F0000004010E07D4093
:1012C8000000004010E07DC00803002478010024DD
:1012D800E001002470010024594B012283F85820B2
:1012E80083F8592083F85A2083F85B20554B564AD7
:1012F800C3F8FC203EA1D1E90001C3E94401534AE7
:10130800C3F8F820524AC3F80821524AC3F80C21FE
:10131800514AC3F80021514AC3F8042136A1D1E942
:101328000001C3E9020136A1D1E90001C3E90401C2
:101338004B49C3F8E0104B4AC3F8E420C3F8D8106F
:10134800C3F8DC20C3F8D010C3F8D4202EA1D1E90B
:101358000001C3E928019FED2E6B83ED2A6B002065
:101368004149C3E9180100204049C3E91A019FED2A
:101378002A7B83ED1C7B00203D49C3E91E019FEDBC
:10138800284B83ED304B9FED285B83ED325B9FED5F
:10139800283B83ED203BB1EE0C3B83ED223B83EDF4
:1013A800247BC3E9260183ED2C4B83ED2E5B9FED57
:1013B800225B83ED105BB1EE085B83ED125B83ED7E
:1013C800147BC3E916014FF07E52C3F8EC20C3F832
:1013D800F420284AC3F8E820C3F8F0200020264962
:1013E800C3E9460183ED486B704700BFAFF3008047
:1013F80000000020166AC53F000000000088C340B6
:1014080000000000D01263C10000004010E07D40E1
:10141800000000000000000000000080B5F8E43E75
:10142800000000803FBE4040000000803FBE40C03A
:10143800000000A09999B93F000000A09999C93F00
:1014480078010024E00100240000684200004040C8
:1014580000007A4300007AC300009643000096C358
:101468000024F4480024F4C8000010400000204084
:10147800000014406666663F0000F03FB5EEC00B02
:10148800F1EE10FA09DD4FF0010C83F800C081423B
:1014980094BF00210121117070471A7802B9704772
:1014A80000221A70FBE7B5EEC00BF1EE10FA09DD69
:1014B8004FF0010C83F800C081422CBF00210121AC
:1014C800117070471A7802B9704700221A70FBE74A
:1014D800F8B53B4B93ED167B93ED182B87FE026B0B
:1014E80093ED1A3B86FE036B93ED0C4AD3ED0D5A30
:1014F800B7EEE51A87FE427B87FE437BB7EEC43A18
:10150800B4EEC63BF1EE10FA0BD4B1EE444AB7EE96
:10151800C44AB4EEC74BF1EE10FACCBF012000204C
:1015280000E00120274B1870B4EEC61BF1EE10FA4C
:101538000BD4B1EE656AB7EEC66AB4EEC76BF1EECE
:1015480010FACCBF0123002300E001231D4C637077
:101558001D4D1E4E05F18C03221D95F8881096ED41
:10156800000BFFF7A0FF274605F18D03621D95F8D4
:10157800881017F8020B96ED020BFFF77FFF05F1B5
:101588008A033A4695F88910607896ED040BFFF7C0
:101598008AFF05F18B03E21C95F88910607896EDB7
:1015A800060BFFF76BFFA3780BB9E07800E001208A
:1015B80000F00100034B1B7953B9024B597908E03D
:1015C8006005002480030024880300249870010823
:1015D800012101F00101B84B93F88030002B40F055
:1015E8009381B54B012283F88020022283F8812061
:1015F800B24C002222715A611A61032583F8825085
:101608005A621A6283F8845062705A631A6383F8C4
:10161800855022705A651A65DA645A64052583F87C
:101628008650A2705A671A67DA665A6683F8875036
:10163800E27081F00102002940F08E869E4B1B6902
:1016480001339D4C2361002840F089862346646954
:1016580001345C61DC690134DC61002A00F08586B4
:10166800954B9B690133944A9361954B93ED126BAB
:1016780093ED017AB7EEC77AB4EEC76BF1EE10FAC4
:1016880040F37686136A01338B4A13628C4B93EDD1
:10169800005AB7EEC55AB4EEC56BF1EE10FA40F336
:1016A8006A86536A0133844A5362B4EEC56BF1EE1D
:1016B80010FA40F16386936A01337F4A9362B4EE6D
:1016C800C76BF1EE10FA40F35C86D36A01337A4AAD
:1016D800D3627B4B93ED146B93ED037AB7EEC77A25
:1016E800B4EEC76BF1EE10FA40F34E86136B01337C
:1016F800714A1363724B93ED025AB7EEC55AB4EEB2
:10170800C56BF1EE10FA40F34286536B01336A4A17
:101718005363B4EEC56BF1EE10FA40F13B86936B60
:101728000133654A9363B4EEC76BF1EE10FA40F3E8
:101738003486D36B0133604AD363614B93ED1E7BD0
:1017480093ED096AB7EEC66AB4EEC67BF1EE10FAFD
:1017580040F12686136C0133574A1364584B93EDB6
:10176800085AB7EEC55AB4EEC57BF1EE10FA40F14F
:101778001A86536C0133504A5364B4EEC57BF1EEBC
:1017880010FA40F31386936C01334B4A9364B4EE1A
:10179800C67BF1EE10FA40F10C86D36C0133464A51
:1017A800D364474B93ED0A6AB7EEC66AB4EEC67BBC
:1017B800F1EE10FA40F30086136D01333E4A1365CB
:1017C8003F4B93ED0B5AB7EEC55AB4EEC57BF1EE1D
:1017D80010FA40F3F485536D01335365B4EEC67BBC
:1017E800F1EE10FA00F1F385334B00229A65324B83
:1017F800DB6D0133304AD365314B93ED1C7B93EDA0
:10180800056AB7EEC66AB4EEC67BF1EE10FA40F18F
:10181800EE85136E0133284A1366294B93ED045A5B
:10182800B7EEC55AB4EEC57BF1EE10FA40F1E28589
:10183800536E0133204A5366B4EEC57BF1EE10FABD
:1018480040F3DB85936E01331B4A9366B4EEC67B87
:10185800F1EE10FA40F1D485D36E0133164AD366FF
:10186800174B93ED066AB7EEC66AB4EEC67BF1EE87
:1018780010FA40F3C885136F01330F4A1367104BF2
:1018880093ED075AB7EEC55AB4EEC57BF1EE10FAE0
:1018980040F3BC85536F01335367B4EEC67BF1EE5A
:1018A80010FA00F1BB85044B00229A67024BDA6FED
:1018B8000132014BDA6705E088030024E0050024C3
:1018C80060050024BB4A51701070BB4A117883F838
:1018D8008810527883F88920B84BD3F81021013248
:1018E800C3F81021D3F8281107EE902AB8EE677BC9
:1018F80093ED466B26EE077B81ED007BD3F8202124
:101908000132C3F82021F8BDAD4B93F88130012B8B
:1019180018D0022B1AD0AA4B93ED027BB5EE407B70
:10192800F1EE10FA40F0BA80002283F883200224F6
:1019380083F88140A34C22715A611A61032283F80B
:101948008220EFE09F4B02221A71EBE09C4B93ED53
:10195800026B9D4B93ED117AB7EEC77AB4EEC76B65
:10196800F1EE10FA0FDD964B002283F88220032453
:1019780083F88140934C01252571DA619A6102222E
:1019880083F88320CEE08E4B93ED005BB4EEC57BED
:10199800F1EE10FA09D5002283F88220012283F89B
:1019A8008120884B02221A71BCE0864B00221A71F2
:1019B800834B93F88230012B0DD0022B13D0D0B17A
:1019C8007F4B012283F88220B7EE007B35EE075B60
:1019D80083ED005BA6E07A4B00225A611A6103226C
:1019E80083F882209EE0764B00225A611A61032216
:1019F80083F8822096E051B1714B022283F882204D
:101A0800B7EE007B36EE076B83ED026B8AE0B5EE2E
:101A1800C06BF1EE10FA21DD694B93ED044AB8EE84
:101A2800444B694B93ED107AF2EE047A27EE277A4D
:101A3800B7EEC77AB4EEC74BF1EE10FA0EDDB7EE8B
:101A4800007B36EE476B5E4B83ED026B5C4B0022EE
:101A58005A611A61032283F8822063E0B5EEC05B05
:101A6800F1EE10FA5EDD564B93ED056AB8EE466B63
:101A7800554B93ED107AF2EE047A27EE277AB7EEFB
:101A8800C77AB4EEC76BF1EE10FA4BDDB7EE007B08
:101A980035EE475B4A4B83ED005BD7E7484B93ED48
:101AA800005B494B93ED116AB7EEC66AB4EEC65BAC
:101AB800F1EE10FA0ADD424B002283F8832001225E
:101AC80083F881203F4B02221A712BE03D4B012203
:101AD8001A713B4B93F88330934257D011B1384B6E
:101AE80000229A61384B93ED106AF2EE046A26EEF2
:101AF800266AB7EEC66A324B93ED064AB8EE444BF7
:101B0800B4EEC46BF1EE10FA48D5B7EE006B37EEC1
:101B1800467B83ED027B2A4B0022DA619A6102221E
:101B280083F88320264B93F88430012B64D0022B52
:101B380000F09A80234B00225A70234B93ED125BDE
:101B480093ED017AB7EEC77AB4EEC75BF1EE10FAFF
:101B580001DC1B4B1A621C4B93ED0F7AF2EE047AF0
:101B680027EE277AB7EEC77A154B93ED086AB8EED9
:101B7800466BB4EEC67BF1EE10FA40F1C28001224A
:101B880083F884200F4B02225A7038E00C4B002255
:101B9800DA619A61022283F88320C3E7B0B1084B67
:101BA800012283F88320B7EE007B35EE075B83EDD7
:101BB800005BB7E7580500248003002418040024BC
:101BC80088030024E005002460050024B5EEC05B0E
:101BD800F1EE10FAA6DDB94B93ED077AB8EE477B24
:101BE800B4EEC76BF1EE10FA9CD5B7EE007B35EE7C
:101BF800475B83ED005B8EE7B14B02225A70AF4B17
:101C080093F88530012B00F09E80022B00F0AB800A
:101C1800AB4B00221A70AB4B93ED145B93ED037A38
:101C2800B7EEC77AB4EEC75BF1EE10FA01DCA34B4E
:101C38001A63A44B93ED0F7AF2EE047A27EE277A13
:101C4800B7EEC77A9D4B93ED0C6AB8EE466BB4EECF
:101C5800C67BF1EE10FA40F1D380012283F885208B
:101C6800974B02221A7071E0954B01225A70954BDE
:101C780093ED125B93ED017AB7EEC77AB4EEC75BCA
:101C8800F1EE10FA02DC8D4B0022DA628D4B93EDF7
:101C98000F7AF2EE047A27EE277AB7EEC77A874BE7
:101CA80093ED0B6AB8EE466BB4EEC67BF1EE10FA14
:101CB80006D5012283F88420814B02225A709EE7C0
:101CC800804B93ED006AB7EEC66AB4EEC65BF1EEE0
:101CD80010FA02D4794B00229A62784B93ED0A6A83
:101CE800B8EE466BB4EEC67BF1EE10FA87D51A460D
:101CF800002353621362032482F88440704A5370AD
:101D08007DE7704B93ED006AB7EEC66AB4EEC65B2A
:101D1800F1EE10FA02DC694B00225A62674B93ED30
:101D2800096AB8EE466BB4EEC67BF1EE10FA7FF5A1
:101D380066AF0022DA629A62022283F88420604B3E
:101D480001225A705BE75E4B02221A705B4B93F8D4
:101D58008630013B032B00F22E81DFE813F072007E
:101D68008200D800DC00564B01221A70554B93EDC7
:101D7800145B93ED037AB7EEC77AB4EEC75BF1EE66
:101D880010FA02DC4D4B0022DA634E4B93ED0F7ACA
:101D9800F2EE047A27EE277AB7EEC77A474B93ED2F
:101DA8000F6AB8EE466BB4EEC67BF1EE10FA06D5B4
:101DB800012283F88520424B02221A70C6E7414B64
:101DC80093ED026AB7EEC66AB4EEC65BF1EE10FA9E
:101DD80002D43A4B00229A63384B93ED0E6AB8EE60
:101DE800466BB4EEC67BF1EE10FAAFD51A46002367
:101DF80053631363032482F88540314A1370A5E7BF
:101E0800304B93ED026AB7EEC66AB4EEC65BF1EEEC
:101E180010FA02DC294B00225A63284B93ED0D6A15
:101E2800B8EE466BB4EEC67BF1EE10FA8ED5002202
:101E3800DA639A63022283F88520214B01221A7003
:101E480084E71F4B02229A701C4B93F88730013BA2
:101E5800032B00F2F181DFE813F03A013F01910111
:101E68009D01174B01229A70164B93ED1E5B93ED63
:101E78000B7AB7EEC77AB4EEC75BF1EE10FA02DC64
:101E88000E4B0022DA650F4B93ED0E7AF2EE047AD0
:101E980027EE277AB7EEC77A084B93ED176AB8EEA4
:101EA800466BB4EEC67BF1EE10FA0DD5012283F82D
:101EB8008620034B02229A70C6E700BF88030024DD
:101EC800E005002460050024AF4B93ED0A6AB7EEE5
:101ED800C66AB4EEC65BF1EE10FA02D4AB4B002230
:101EE8009A65AA4B93ED166AB8EE466BB4EEC67BBC
:101EF800F1EE10FAA8D51A46002353651365D3648A
:101F08005364052482F88640A14A93709CE7A04B4D
:101F180004229A7098E79E4B03229A709A4B93ED8D
:101F28001E5B93ED097AB7EEC77AB4EEC75BF1EEA4
:101F380010FA02D4954B00221A64934B93ED0E7A53
:101F4800F2EE047A27EE277AB7EEC77A8F4B93ED35
:101F5800106AB8EE466BB4EEC67BF1EE10FA06D501
:101F6800032283F886208A4B04229A706CE7864BFA
:101F780093ED086AB7EEC66AB4EEC65BF1EE10FAE6
:101F880002DC824B00229A64804B93ED126AB8EE11
:101F9800466BB4EEC67BF1EE10FA7FF555AF1A46E4
:101FA800002353651365D3645364052482F886407F
:101FB800774A937048E7764B00229A70724B93EDFC
:101FC8001E6B93ED0B7AB7EEC77AB4EEC76BF1EEE2
:101FD80010FA01DC6D4B5A656B4B93ED0E7AF2EEFD
:101FE800047A27EE277AB7EEC77A684B93ED155A2D
:101FF800B8EE455BB4EEC57BF1EE10FA06D50122CA
:1020080083F88620624B02229A701DE75E4B93ED9F
:10201800095AB7EEC55AB4EEC56BF1EE10FA02D400
:102028005A4B0022DA64594B93ED135AB8EE455BCC
:10203800B4EEC57BF1EE10FA06D5032283F88620AC
:10204800534B04229A70FFE64F4B93ED0A5AB7EEB2
:10205800C55AB4EEC56BF1EE10FA02DC4B4B002208
:102068001A654A4B93ED145AB8EE455BB4EEC57B3E
:10207800F1EE10FA09D50022DA659A65022283F892
:102088008620434B01229A70DEE63F4B93ED085AB7
:10209800B7EEC55AB4EEC56BF1EE10FA02D43B4B5D
:1020A80000225A64394B93ED116AB8EE466BB4EED0
:1020B800C67BF1EE10FA7FF5C7AE00229A641A6467
:1020C800042283F88620324B03229A70BCE6304BF8
:1020D8000222DA70FFF7ADBA2D4B0122DA702A4BD3
:1020E80093ED1C5B93ED077AB7EEC77AB4EEC75B46
:1020F800F1EE10FA02DC254B0022DA67224B93ED51
:102108000E7AF2EE047A27EE277AB7EEC77A1F4BDB
:1021180093ED1F6AB8EE466BB4EEC67BF1EE10FA8B
:1021280007D5012283F88720194B0222DA70FFF7BE
:1021380080BA154B93ED066AB7EEC66AB4EEC65B75
:10214800F1EE10FA02D4114B00229A670F4B93ED6F
:102158001E6AB8EE466BB4EEC67BF1EE10FA7FF558
:1021680068AA1A46002353671367D3665366052483
:1021780082F88740064AD370FFF75BBA044B042203
:10218800DA70FFF756BA00BF600500248803002400
:10219800E0050024A94B0322DA70A94B93ED1C5BE0
:1021A80093ED057AB7EEC77AB4EEC75BF1EE10FA95
:1021B80002D4A44B00221A66A14B93ED0E7AF2EEDC
:1021C800047A27EE277AB7EEC77A9E4B93ED186A02
:1021D800B8EE466BB4EEC67BF1EE10FA07D50322D3
:1021E80083F88720954B0422DA70FFF722BA944BC4
:1021F80093ED046AB7EEC66AB4EEC65BF1EE10FA68
:1022080002DC904B00229A668E4B93ED1A6AB8EE68
:10221800466BB4EEC67BF1EE10FA7FF50AAA1A46B1
:10222800002353671367D3665366052482F88740F3
:10223800824AD370FFF7FDB9804B0022DA70804BD9
:1022480093ED1C6B93ED077AB7EEC77AB4EEC76BC4
:10225800F1EE10FA01DC7B4B5A67794B93ED0E7A5D
:10226800F2EE047A27EE277AB7EEC77A754B93ED2C
:102278001D5AB8EE455BB4EEC57BF1EE10FA07D5F2
:10228800012283F887206D4B0222DA70FFF7D1B95B
:102298006B4B93ED055AB7EEC55AB4EEC56BF1EE2C
:1022A80010FA02D4674B0022DA66664B93ED1B5A8C
:1022B800B8EE455BB4EEC57BF1EE10FA07D5032204
:1022C80083F887205D4B0422DA70FFF7B2B95C4BC4
:1022D80093ED065AB7EEC55AB4EEC56BF1EE10FA97
:1022E80002DC584B00221A67564B93ED1C5AB8EE85
:1022F800455BB4EEC57BF1EE10FA0AD50022DA6729
:102308009A67022283F887204C4B0122DA70FFF784
:1023180090B94B4B93ED045AB7EEC55AB4EEC56B62
:10232800F1EE10FA02D4474B00225A66454B93ED62
:10233800196AB8EE466BB4EEC67BF1EE10FA7FF57B
:1023480078A900229A661A66042283F887203B4BF4
:102358000322DA70FFF76DB90023FFF772B9394B22
:1023680000245C61DC61FFF778B90023FFF77BB9D3
:102378000023FFF789B90023FFF795B90023FFF77A
:102388009CB90023FFF7A3B90023FFF7B1B90023D5
:10239800FFF7BDB90023FFF7C4B90023FFF7CBB996
:1023A8000023FFF7D9B90023FFF7E5B90023FFF7AA
:1023B800ECB90023FFF7F3B90023FFF7FFB9214B6E
:1023C80000225A65B4EEC67BF1EE10FA0DD51D4B0E
:1023D8009B6D01331B4A9365B4EEC57BF1EE10FA91
:1023E8003FF705AA0023FFF705BA0023F2E7002309
:1023F800FFF711BA0023FFF71DBA0023FFF724BA2D
:102408000023FFF72BBA0023FFF737BA0D4B002242
:102418005A67B4EEC67BF1EE10FA0DD5094B9B6FE7
:102428000133084A9367B4EEC57BF1EE10FA3FF723
:102438003DAA0022FFF73DBA0023F2E7E005002499
:102448006005002488030024254B03F59272DA60A6
:1024580003F59472C3F8842003F58C729A62C3F86A
:10246800D0309B60012283F82421002183F8FC10DE
:1024780083F80C111B49596103F59871C3F82811A9
:1024880015A1D1E90001C3E94601174B5A701A702A
:10249800164B174ADA62174A9A62174A1A62174A9B
:1024A8005A62174A1A60174A5A60174A9A601749B7
:1024B800D96017491963174959635A64164A9A61CA
:1024C800164ADA61164A1A61164A5A61164A9A6316
:1024D800DA631A64704700BF2D431CEBE2361A3FDB
:1024E80018040024807001085805002460050024A1
:1024F80000009041000070410000204100000841A8
:10250800000096420000AA420000C8420000F042C3
:102518000000C8430000E1430000884200009042E8
:10252800000048420000404200001643000000003E
:1025380008B507EE900AF8EEE77ADFED196A67EE5C
:10254800A66A9FED187A77EE677A86EEA77AB7EED5
:10255800C77AB7EEC00A87EE000B0AF0D5FD9FEDEB
:102568000A6B80EE067B9FED0A6B37EE067BB7EEB3
:10257800006B86EE070B9FED087B30EE470BB7EE3E
:10258800C00B08BDAFF30080000000000040AF4062
:1025980045A725E6E1796B3F666666666612714077
:1025A80000401C460000804780ED000AC0ED010A8B
:1025B80080ED021A0023C360002303747047037C74
:1025C800EBB1D0ED037A70EEE77AF5EEC07AF1EE72
:1025D80010FA1BD9D0ED026A30EE667AB5EEC07AF1
:1025E800F1EE10FA15DD90ED006A67EE867AB4EE2A
:1025F800E77AF1EE10FA15DD36EEA70A17E0C0ED1E
:10260800030A80ED020A01230374704790ED020A61
:10261800704790ED016A66EE677AB5EEC07AF1EE22
:1026280010FAE4DCB5EEC07AF1EE10FA04D480EDCD
:10263800020AC0ED030A7047B4EEE77AF1EE10FA29
:1026480048BF36EEA70AF2E73E4B1B6823F0FF03AC
:102658003D4A934209D03B4B5B78012B2AD0394B3A
:102668009B78012B48D000207047384B93ED0A7BAC
:10267800B7EEC77BB0EEC77ADFED357AB4EEE77A0E
:10268800F1EE10FAE7DB93ED0C7BB7EEC77BB0EE0B
:10269800C77ADFED2F7AB4EEE77AF1EE10FA4CDA6A
:1026A800284B5B78012B13D0264B9B78012B33D01A
:1026B80000207047254B93ED0A7BB7EEC77BB0EE41
:1026C800C77ADFED237AB4EEE77AF1EE10FAC6DBCB
:1026D8001E4B93ED0C7BB7EEC77BB0EEC77ADFEDF0
:1026E8001C7AB4EEE77AF1EE10FA28DA154B9B78EB
:1026F800012B11D000207047144B93ED0A7BB7EEE5
:10270800C77BB0EEC77ADFED127AB4EEE77AF1EE66
:1027180010FA01DA002070470C4B93ED0C7BB7EEF2
:10272800C77BB0EEC77ADFED0A7AB4EEE77AF1EE4E
:1027380010FAACBF0120002070470120704701202B
:10274800704700BF040000240001010008030024B2
:1027580000007A4308B58021084806F001F80128EE
:1027680006D0074B986B012894BF0020012008BDB4
:10277800034B9B6A3B2BF4D9F9E700BF00100258C2
:1027880004000024124BD3ED187AF5EEC07AF1EE6E
:1027980010FA17D9D3ED1B7AF5EEC07AF1EE10FADC
:1027A80012D9D3ED197AF5EEC07AF1EE10FA0DD4FC
:1027B8009FED087AF4EEC77AF1EE10FACCBF01204B
:1027C80000207047012070470120704701207047A2
:1027D800040000240000C84208B5164B1B6833F0FB
:1027E800FF0301D0002008BD0121134805F0B8FF00
:1027F800E8B9124B93ED0C7BB7EEC77BB0EEC77A06
:10280800DFED0F7AB4EEE77AF1EE10FAEBDB93ED39
:102818000A7BB7EEC77BB0EEC77ADFED097AB4EE74
:10282800E77AF1EE10FAACBF01200020DBE70020C8
:10283800D9E700BF04000024000002580803002460
:1028480000007A43134B144AD2E90E01C3E916017A
:10285800D2E90C01C3E91801D2E90A01C3E91A0156
:102868000E4A92ED137AB7EEC77A83ED127B92ED9A
:10287800127AB7EEC77A83ED147B92ED1D7AB7EE24
:10288800C77A83ED1C7B92ED117AB7EEC77A83ED98
:102898001E7B704760050024E0010024040000242A
:1028A800324B9B78022B14D0042B1DD02F4BDB7896
:1028B800022B24D0042B2DD02C4B1B78022B34D088
:1028C8002A4B5B78022B3BD0284B1B79022B42D03A
:1028D8007047274B01225A74DA70264B04221A706B
:1028E800254B06221A707047214B01225A741A711F
:1028F800204B05221A70204B06221A7070471C4B79
:1029080001225A745A701B4B02221A701A4B062263
:102918001A707047164B01225A749A70154B03228D
:102928001A70154B06221A707047114B01225A74FF
:10293800DA71104B08221A700F4B06221A70704772
:102948000B4B01225A741A720A4B09221A700A4B4D
:1029580006221A707047064B01225A749A71054B69
:1029680007221A70044B06221A70B1E7E00500240A
:102978003C0800244F08002400000024074B1B8853
:1029880007EE903AF8EEE77A9FED057A67EE877AD8
:1029980077EEA77A034BC3ED327A704728080024F4
:1029A8000A0253380400002438B56F4A13880133EB
:1029B80013806E4D2B8801332B806D4A13880133A9
:1029C80013804FF400416B4805F0CAFE6A4C6070F2
:1029D80008216A4805F0C4FEA07063785840E0708A
:1029E800626B236BD31A07EE903AF8EE677AFCEE27
:1029F800E77AC4ED0E7A2263636AC3F5805307EE63
:102A0800903AF8EE677AFCEEE77AC4ED0A7A2B88FA
:102A1800132B42D92379012B1CD0534B1B88132B22
:102A280007D8534B1B88132B03D9534B1B79012B06
:102A380062D0514B5B8A013B9BB24FF6E652934200
:102A48007CD84D4B9B8A013B9BB24FF6E652934292
:102A58007FD838BDFFF77EFE012806D0484B1B887B
:102A6800C3B1013B464A138003E0454A138801334A
:102A78001380434B1B88042B0CD9414B00221A802E
:102A8800404B01225A749A733F4B0F221A703F4BE6
:102A980006221A70354B00221A80334B1B88132BE1
:102AA800BFD9354B1B79012BC3D1FFF7CDFD0128C9
:102AB80006D0374B1B88C3B1013B354A138003E06E
:102AC800334A138801331380314B1B88042B0CD9EC
:102AD8002F4B00221A802B4B01225A745A732A4B0F
:102AE8000E221A70294B06221A701F4B00221A80D8
:102AF8001F4B1B88132B9CD9FFF76EFE012807D0AC
:102B0800244B1B88002B94D0013B224A138003E0FE
:102B1800204A1388013313801E4B1B88042B88D945
:102B28001C4B00221A80174B01225A741A74164B38
:102B380011221A70154B06221A707AE7114B0122DE
:102B48005A749A72104B0B221A70104B06221A7084
:102B580077E70C4B01225A745A720B4B0A221A70EF
:102B68000A4B06221A7074E704060024060600249D
:102B78000206002400000258040000240004025841
:102B8800000600243C0800244F080024000000240C
:102B9800FE050024FC0500240F4AD2ED007A70EEF1
:102BA800277A9FED0E7A67EE877A0D4B93ED007AC0
:102BB800DFED0C6A27EE267A77EE877A0A49C1EDAF
:102BC8002B7ADFED0A6A87EEA67A81ED2D7A82EDFF
:102BD800000AC3ED007A7047100600248B4B863C30
:102BE8000C060024489B773F04000024F46CD63D73
:102BF80010B52DED048BB0EE409A0AF091FCF0EE82
:102C0800408A204C94ED008A30EE488ADFED1E9A07
:102C180028EE298AB0EE490A0AF0D2F91B4BD3ED07
:102C2800007A70EE677A67EEA97AC4ED008A83EDC0
:102C3800000A28EE008A28EEA70A38EE400ADFEDDF
:102C4800147AB4EEE70AF1EE10FA0ADB114BC3ED81
:102C58002A7A104B93ED2A0AFFF79EFFBDEC048BEE
:102C680010BDDFED0D7AB4EEE70AF1EE10FA03D9E4
:102C7800084B83ED2A0AECE7064B084AC3F8A8205C
:102C8800E7E700BF14060024FFFF79440806002484
:102C98005A141D44040000245A141DC45A141DC497
:102CA800574B1B78012B00D070472DE9F0412DEDD3
:102CB800088B00224FF40041524805F057FDDFED24
:102CC80052BA9FED52BA9FED4A9B9FED4B8B9FEDF9
:102CD80050AADFED50AADFF84C814F4F4F4ED8F87D
:102CE80004303B40B3F5807F7ED1337801333370B5
:102CF8004B4C0821204609F047FC0421204609F0E6
:102D080085FF0021204609F081FF23680025DD6347
:102D18009D635D634FF47A72DA639A635A63C820DD
:102D280001F022FF2368DD639D635D63082120466F
:102D380009F0EEFC0421204609F0F2FF294620465E
:102D480009F0EEFF3378132BC9D9364C657101268B
:102D5800A671354B1B685B6AA36194ED197A3BEE4B
:102D6800C77A27EE0B7A37EE077AB7EEC77AB0EE56
:102D7800480B17EE090BB7EEC00B84ED1A0AF0EEFC
:102D88004A0A0AF065FC84ED1A0AC0EE0A7A67EE70
:102D9800AA7AFCEEE77A17EE903A9BB22362F0EE3D
:102DA800087A20EE270A84ED0F0AF0EE4A0A0AF0A4
:102DB8004FFC84ED0F0A32464FF40041114805F0EC
:102DC800D5FC1A4C2946204609F00AFE0421204663
:102DD80009F006FE204608F0DAFD204601F050FD15
:102DE800074B03221A7076E7BDEC088BBDE8F0812B
:102DF800182D4454FB21094000000040ED29993F5B
:102E080000000024000C02580000C8420AD7233CE6
:102E1800DA0FC9400000804500FFFF0018060024B3
:102E2800880A002404000024200B00246C0B0024D2
:102E3800044B0022A3F80022A3F80222A3F80422DC
:102E4800704700BF1C06002430B51E4CB4F804427D
:102E5800A4B21F2C33D81B4CB4F800C21FFA8CFC48
:102E68004FEA0C1504EB0C1E60518EF804108EF816
:102E78000D3063B10021744612F801E0601880F843
:102E880005E00131C9B28B4201D90729F4D90CF107
:102E9800010CDCF100030CF01F0C03F01F0358BFFA
:102EA800C3F1000C1FFA8CFC064AA2F800C2B2F863
:102EB800043201339BB2A2F80432012030BD002055
:102EC800FCE700BF1C0600241E4BB3F804329BB27B
:102ED80003B9704730B58BB01B4805F082F808B9C4
:102EE8000BB030BD174AB2F80242A4B2210102EB7E
:102EF8000410037902930023039355580195059311
:102F08000693079308930993437B049305310A4476
:102F180001A90D4805F02AF80028E1D101346342DF
:102F280004F01F0403F01F0358BF5C42A4B2054A13
:102F3800A2F80242B2F80432013B9BB2A2F8043272
:102F4800CEE700BF1C0600249409002410B5064CE7
:102F5800B4F80442A4B2FFF777FF04B900B910BD72
:102F6800FFF7B2FFFBE700BF1C06002408B50748BF
:102F780004F0E2FF30B900224FF40071034805F075
:102F880037F808BD01F0FEF9F5E700BF9409002401
:102F980000B58BB002910021039101900591069133
:102FA800079108910991049301A9074804F0DEFFED
:102FB80030B1054B1B6800221A65044B01221A61C7
:102FC8000BB05DF804FB00BF9409002400A8004082
:102FD80000B583B02A4B93ED007BB2EE046B27EE6D
:102FE800067BBCEEC77B17EE103A98B2254BD3EDA3
:102FF8002D7A9FED257A77EE877AB2EE047A67EE1E
:10300800877AFCEEE77A17EE903A9BB21F4A92ED68
:10301800066B9FED195B36EE056BBCEEC66B16EEC4
:10302800101A89B292ED087B37EE057BBCEEC77BA0
:1030380017EE102A92B28DF80000000A8DF80100F0
:103048008DF802301B0A8DF803308DF80410090A38
:103058008DF805108DF80620120A8DF80720082330
:103068006A46002140F20140FFF770FF03B05DF8A7
:1030780004FB00BFAFF300800000000000008040A8
:10308800E00100240400002400204B45080300242C
:1030980010B582B0264B93ED146B9FED215B36EE95
:1030A800056BFCEEC67B17EE900A93ED167B37EEA8
:1030B800057BFCEEC77B17EE901A93ED0A6B9FED2C
:1030C8001A5B36EE056BBCEEC66B16EE102A92B292
:1030D80093ED0C7B37EE057BBCEEC77B17EE103A01
:1030E8009BB2144CE4698DF80020120A8DF8012077
:1030F8008DF802301B0A8DF803308DF804008DF826
:1031080005108DF80640C4F307248DF807400823FE
:103118006A46002140F20240FFF718FF02B010BDD6
:10312800000000803FBE40400000000000008040DA
:10313800080300240400002400B583B00021019195
:10314800204890ED1D7ADFED206A27EE267ABCEE46
:10315800C77A17EE103A9AB2D0ED117A67EEA67ACE
:10316800FCEEE77A17EE903A9BB290ED127ADFED1B
:10317800176A37EE267AFCEEC77A17EE90CAD0EDBA
:10318800137A77EEA67AFCEEE77A17EE900A8DF8B6
:103198000020120A8DF801208DF802301B0A8DF8E4
:1031A80003308DF804C08DF80500094B1B788DF8A5
:1031B800063008236A4640F20340FFF7C7FE03B013
:1031C8005DF804FB040000240000C84200004842E7
:1031D8004F08002400B59DB04C22002109A809F031
:1031E800BDFE2022002101A809F0B8FE022005F04A
:1031F80089FF00230093274BDA6A22F00102DA6282
:10320800DB6A03F001030093234A936923F44043E4
:1032180043F480439361936903F440430093009B14
:10322800936913F4005FFBD01C4A936A23F00303ED
:1032380093620223099301220C9240220D92129369
:1032480000221392042014900C21159116931790C4
:10325800189319911A924FF480531B9309A805F0FB
:1032680079FF98B93F230193032302930023039323
:10327800049305934022069207930893022101A81C
:1032880006F0BAFB20B91DB05DF804FB72B6FEE784
:1032980072B6FEE70004005800480258004402587D
:1032A80000B5B1B0982200210AA809F057FE4FF4E2
:1032B80000220023CDE9002304230293092203926C
:1032C8000493022305930693C023079320230893AE
:1032D8004FF440630993684606F01EFE10B931B0FA
:1032E8005DF804FB72B6FEE70268104B9A4200D004
:1032F800704710B50E4C238801332380FFF73EFB3F
:10330800FFF7A0FAFEF7E4F8FFF74EFBFFF7C8FA5D
:103318002388B3F5FA7F00D210BD00222280FFF780
:1033280057FEFFF7B5FEFFF707FFF5E70048014036
:103338003208002408B50268034B9A4200D008BD41
:10334800FFF7C2FDFBE700BF00A40040802800D0C3
:1033580070470D4A137883F001031370D36A013361
:10336800D3625363B3F1FF3F09D0084B1B78052B99
:10337800EED1074B1B685A6A034B5A62E8E71346BB
:103388000022DA62F1E700BF0400002400000024F4
:10339800200B002402681F4B9A4200D0704710B5DA
:1033A8002DED028B0446037F012B02D0BDEC028B6E
:1033B80010BD002108F01EFB07EE900AF8EE677AB0
:1033C800154BC3ED187AF5EE407AF1EE10FAEDD010
:1033D8000421204608F00EFB07EE900A0E4CF8EE8A
:1033E800677A9FED0E8A67EE887AD4ED186A87EEC1
:1033F800A67A84ED197A06F007FA07EE100AB8EEF5
:10340800477AD4ED187A67EE887AC7EE276AC4ED52
:103418001B6ACBE7000C0040040000240000C842EF
:103428002C4B1B7873B92B4B01221A702A4B5B6803
:10343800BBB92A4B5B7853B90123284A5370264AF3
:10344800536014E0264B1B68264A1A607047214BCC
:1034580000221A7001225A70214B1B68214A1A60F7
:1034680070475A1C092B1C4B08BF00225A6010B524
:10347800FDF77EFA174B00221A705B7813B9174BC9
:103488005B7803B910BD134B01225A70164C94EDAA
:10349800230AFFF7ADFB94ED2B7AB0EEC77AB7EEAF
:1034A800C77A124B83ED067BD4ED2D7AF0EEE77ADE
:1034B8009FED0F7AF4EEC77AF1EE10FA01DB0122E4
:1034C8002271FDF785FE0023024A5370034A5370A8
:1034D800D8E700BF24080024C40B002450080024A7
:1034E8005CE30008B870010804000024E00100242F
:1034F8000000A0421F4B1B88A3F55A53313B9BB2D7
:1035080046F28E52934207D81A4B5B88A3F55A535A
:10351800313B9BB2934205D9174A012313701749CF
:103528000B705374164BD3ED1D7A164B93ED077A37
:10353800F4EEC77AF1EE10FA06DB0F4B01225A704F
:103548000E49022008705A740E4B93ED057AF4EE7A
:10355800C77AF1EE10FA06D8074B01229A7007498C
:10356800032008705A74044B587C003818BF012097
:10357800704700BFC00B00243C0800244F080024FB
:10358800040000246005002438B52DED028B026884
:10359800BB4B9A4202D0BDEC028B38BD04460921D0
:1035A80002F0F6FAB74D288040F20F11204602F0DB
:1035B800EFFA6880B44B1B78042B26D0B24B1B78EB
:1035C800052B00F08480B04B1B78062B60D0AE4BE7
:1035D8001B78032BDFD1AD4BD3ED0F7A9FEDAC7A7F
:1035E80067EE877AFCEEE77A17EE903A98B2FDF725
:1035F8004DF8002840F08D81A34B02221A70A5488F
:1036080008F06AF902F0DCFEC5E72A88A24B1968BF
:103618000A441A60A14B196811FA80F01860A04991
:103628000B8801339BB20B80B3F5805FCFD39D4BE2
:10363800120B1A80000B58800023974A1360974A90
:1036480013600B80984B196801228A6240F6C312F6
:10365800CA62DA60954B1B688C4C226A5A62002356
:10366800C4F89830C4F89430C4F89030FFF742FF9B
:103678006072F0B10128A1D101224FF400418C48B9
:1036880005F074F8834808F027F97F4B06221A7072
:10369800884B5B7C002B40F01D814FF49472002115
:1036A800854809F05BFC78220021844809F056FC23
:1036B8008DE700224FF400417D4805F057F8754822
:1036C80008F00AF97E4A22646F4B05221A706D4988
:1036D8000B88744A10881B1A07EE103AB8EEC77A9E
:1036E800DFED786A27EE267AB7EEC77A724D85ED58
:1036F8000E7B4B8852889B1A06EE103AB8EEC66AC3
:1037080026EE266AB7EEC66A85ED0C6B9FED5A5B0E
:1037180035EE466B36EE477B85ED0A7B634B1B68BF
:103728005B6A5A4CE36107EE903AB8EE670ADFED40
:10373800667A20EE270A84ED230A9FED648AF0EE6C
:10374800480A09F085FF84ED230AF0EE087A20EE96
:10375800270AD4ED0F7A30EE670A84ED240AF0EEDA
:10376800480A09F075FF84ED240AB7EEC00A85ED12
:10377800080BFFF755FE514B93ED007BF7EEC75B47
:10378800C4ED275A93ED026BB7EEC66B84ED286A39
:1037980093ED047BB7EEC77B84ED297AD4ED226ADA
:1037A800F4EEE65AF1EE10FA44DDC4ED276AB4EE01
:1037B800E66AF1EE10FA48DD344BC3ED286AB4EE40
:1037C800E67AF1EE10FA4BDD304BC3ED296A2F484B
:1037D800D0ED277A87EEA67A9FED3D6A27EE067A26
:1037E80037EE067ABCEEC77A17EE103A99B24181E5
:1037F800D0ED287A87EEA67A27EE067A37EE067A93
:10380800BCEEC77A17EE103A9AB2828190ED297A07
:10381800C7EE267A67EE867A77EE867AFCEEE77A46
:1038280017EE903A9BB2C3811F48006841638263D8
:10383800C363C8E6F1EE667AF4EEE75AF1EE10FAE1
:10384800B5D5124BC3ED277AB1E7F1EE667AB4EE3F
:10385800E76AF1EE10FAB2D50C4BC3ED287AAEE761
:10386800F1EE667AB4EEE77AF1EE10FAAFD5074BCF
:10387800C3ED297AABE700BF00000000000000009C
:1038880000210240C00B0024000000240400002492
:103898000000C842D40A0024B80B0024BC0B002442
:1038A8003408002438080024880A0024200B002447
:1038B800000C02583C080024E001002408030024FE
:1038C8000000FA43FDD8243DDC0FC93ADA0FC9409D
:1038D80000409C440122124B9A744FF40041114855
:1038E80004F044FF104B1B6800225A639A63DA63A2
:1038F800196A41F2111211427FF4CFAE196A40F2EF
:10390800444211427FF4C9AE5A6C22F400425A6410
:10391800C3E6034B0122DA72044B0C221A706EE6DE
:103928003C080024000C0258880A00244F08002490
:1039380010B52DED028B324CD4ED197A9FED317A0A
:1039480037EE677ADFED307A27EE277A37EE077A97
:10395800B7EEC77A9FED266B9FED270B17EE060B88
:10396800B7EEC00B84ED1A0A9FED288AF0EE480ADC
:1039780009F06EFE84ED1A0AC0EE087A9FED247AEB
:1039880067EE877AFCEEE77A17EE903A9BB22362ED
:10399800FEF7F8FE01281DD0642001F0E5F80122A9
:1039A8004FF400411B4804F0E1FE1B4C0021204667
:1039B80009F016F80421204609F012F8204607F00D
:1039C800E6FF204600F05CFF144B04221A70BDECA1
:1039D800028B10BD124B01225A74DA73114B10225C
:1039E8001A700E4B06221A70F1E700BFAFF3008081
:1039F800182D4454FB21094000000040ED29993F4F
:103A0800040000240000C8420AD7233CDA0FC9404A
:103A180000008045000C02586C0B002400000024B4
:103A28003C0800244F0800242DE9F0432DED048BB9
:103A3800A5B001F059F8FFF7CDFBFFF731FC0024E2
:103A480015941694179418941994BC4DD5F8E03031
:103A580043F00103C5F8E030D5F8E03003F0010386
:103A68000193019BD5F8E03043F00403C5F8E0303A
:103A7800D5F8E03003F004030293029BD5F8E03058
:103A880043F02003C5F8E030D5F8E03003F0200318
:103A98000393039BD5F8E03043F01003C5F8E030FA
:103AA800D5F8E03003F010030493049BD5F8E03018
:103AB80043F00203C5F8E030D5F8E03003F0020324
:103AC8000593059BD5F8E03043F00803C5F8E030CE
:103AD800D5F8E03003F008030693069B984E22467B
:103AE8004FF4E051304604F041FE01224FF400410A
:103AF800304604F03BFE802715974FF48813169341
:103B0800179415A98F4804F057FC4FF4E053159308
:103B18004FF00108CDF858801794189415A930462D
:103B280004F04AFC4FF400431593CDF858801794DD
:103B38004FF00309CDF8609015A9304604F03CFC1D
:103B4800182315931694CDF85C8015A9304604F017
:103B580033FC22464946172002F0DCFB172002F00E
:103B68000DFCD5F8D83043EA0803C5F8D830D5F8A5
:103B7800D83003EA08030093009B224605210B2056
:103B880002F0C8FB0B2002F0F9FB0A940B940C948A
:103B98000D940794089409940E940F94109411941A
:103BA8001294139414942C22214615A809F0D6F9DE
:103BB8006548664B0360132343602023836040F607
:103BC800C313C36004614461876108F069F8002881
:103BD80040F08B824FF480530A930AA95A4808F0A0
:103BE80017FB002840F08382574808F089F800281E
:103BF80040F07F82002307934FF4E003089380236B
:103C0800099307A9504809F0C7F8002840F07382C3
:103C180060230E9300220F92109211921292139227
:103C28004FF4007314930EA9474808F065F900286B
:103C380040F0638204220EA9434808F05DF9002889
:103C480040F05D8208220EA93F4808F055F9002887
:103C580040F0578240F2E2430F93002314930C2262
:103C68000EA9394808F048F9002840F04C82002392
:103C78001593169317936422189219934FF40052D0
:103C88001A921B931C934FF000721D921E931F9360
:103C980015A92D4809F0DEF8002840F036822A4898
:103CA80000F0C0FD3C22002115A809F057F928486A
:103CB800284B03604FF400234360002383600122F4
:103CC800C260042101610375437582610377C36291
:103CD8000363436380F8383001F04CFD002840F05E
:103CE80016821B4C204602F0EDFA1B4B1593092354
:103CF80016930523179340F2FF731893042319931F
:103D080000231A938DF8703002221D928DF87830B6
:103D18008DF879308DF87A30A0221F928022209277
:103D28008DF8843015A9204601F052FF002840F094
:103D3800F0810A4B159340F20F1311E0004402582A
:103D4800000C025800100258880A002400000140A4
:103D5800B8080024002102400800900C0000B84F69
:103D6800169315A9A44801F033FF002840F0D38129
:103D780000230A930B930C930D93159316931793A3
:103D8800189319930E930F93109311930793089315
:103D980009939A489A4A02606322426083604FF00E
:103DA800FF32C2600361836107F07AFF002840F0A8
:103DB800B4814FF480530A930AA9904808F028FA6E
:103DC800002840F0AC818D4807F0CAFF002840F079
:103DD800A88104231593502316930023179318934F
:103DE8000A23199315A9854808F096FB002840F086
:103DF8009A8100220E9201230F9310920A231193A5
:103E08000EA97E4808F054F9002840F08E8102235C
:103E18000E930F9304220EA9784808F049F9002858
:103E280040F0858100230793099307A9734808F098
:103E3800B3FF002840F07D810021704808F0CEFCD7
:103E4800002840F0788104216C4808F0C7FC00285D
:103E580040F073816B486C4B036027234360002359
:103E6800836040F6C312C2600361436180238361AB
:103E780007F016FF002840F0628100230E930F938D
:103E88001093159316931793189319931A931B93DA
:103E98005E485F4A02604FF400224260836001225C
:103EA800C2600421016103754275052282610377AE
:103EB800436283620322C2620363436380F838303B
:103EC80001F058FC002840F03C8100230E930EA915
:103ED8004E4802F065F9002840F035814D4B1593A6
:103EE800062316930523179340F2FF7318930423B0
:103EF800199300231A938DF86D3015A9434801F0E2
:103F080003F8002840F0218104231793424B1593AE
:103F18000C23169315A93D4800F0F6FF002840F041
:103F280016813E4B15931223169315A9374800F0B6
:103F3800EBFF002840F00D81394B15931823169399
:103F48000323179315A9314800F0DEFF002840F03D
:103F58000281344B15934FF48073169315A92B489F
:103F680000F0D2FF002840F0F88000231693189341
:103F78001A931C930E930F9310932B484FF0804283
:103F880002604360836040F6FF72C2600361802371
:103F9800836103231593012217920A2319931B9215
:103FA8001D9315A907F00CFF002840F0D8800023C6
:103FB8000E9310930EA91C4808F0EEFE002840F05E
:103FC800D0801A481A4B036000238360C360012223
:103FD8000274437483740A25456182611024C461A4
:103FE8000321016245628262C4620163436308215E
:103FF8008163C36306241DE0B80800246C0B002409
:10400800000C0040D40A0024004801405408002451
:1040180000200240400020191000C010000180213B
:10402800000052470080F03E200B00249409002431
:1040380000A400400464042242648464C2640465E9
:1040480042658365C16501664366826603F04AFD81
:10405800002840F088808248824B0360824B43608E
:10406800002383600122C260036143618361C361ED
:10407800036204F0F1FC002877D10021784804F0AD
:10408800E7FF002873D10021754805F00FF80028D4
:104098006FD1642000F068FD744C0821204608F0B8
:1040A80037FB0421204608F033FB0021204608F0A6
:1040B8002FFB0821204608F033FE0421204608F093
:1040C8002FFE0021204608F02BFEFCF76DFB684B05
:1040D8001B78002B4FD0022B53D03C21654808F0A9
:1040E80018FD002850D072B6FEE772B6FEE772B629
:1040F800FEE772B6FEE772B6FEE772B6FEE772B684
:10410800FEE772B6FEE772B6FEE772B6FEE772B673
:10411800FEE772B6FEE772B6FEE772B6FEE772B663
:10412800FEE772B6FEE772B6FEE772B6FEE772B653
:10413800FEE772B6FEE772B6FEE772B6FEE772B643
:10414800FEE772B6FEE772B6FEE772B6FEE772B633
:10415800FEE772B6FEE772B6FEE772B6FEE772B623
:10416800FEE772B6FEE772B6FEE772B6FEE772B613
:10417800FEE772B6FEE73E4B01221A70FEF790FD8D
:10418800ABE7FFF7D5FBA8E7384C23680025DD63CC
:104198009D635D63384E40F2FF722946304601F058
:1041A80001FC364F40F2FF722946384601F0FAFB0F
:1041B8004FF47A7000F0D8FC05223149384601F0F6
:1041C80047F9FDF789F8FEF73FF99FED2E1ADFED65
:1041D8002E0A9FED2E0A2E48FEF7E6F9642000F01D
:1041E800C3FCFEF7C3FEFEF723FE0823294A29462F
:1041F8004FF48060FEF7CCFE304601F027FC082122
:10420800204608F0C1F90421204608F0BDF92946E6
:10421800204608F0B9F90821204608F0F7FC0421E7
:10422800204608F0F3FC2946204608F0EFFC0C2154
:10423800204608F0A9F9184C4FF00009DFF868800B
:1042480000260027DFED158A9FED159A67E0154BCC
:1042580003221A70C4F84090C8E9006729E000BF3B
:10426800340A002400580040FFECC010880A0024DB
:1042780000000024200B0024B8080024540800245F
:1042880028080024000000000000C842000048423E
:10429800E8050024D40000240400002400401C4643
:1042A8001101073BD0000024E00100242F4B01221C
:1042B8001A702F4DB0EE680A6888FEF739F984ED58
:1042C800130A6B886382B0EE680AA888FEF730F993
:1042D80084ED120AAB88A3822B8907EE903AF8EE98
:1042E800677A67EE897AC4ED1D7AEB8807EE903A13
:1042F800F8EE677A9FED1F7A67EE877AC4ED117A38
:10430800B8EE488ADFED1C0A68EE200A94ED100A20
:104318001A48FEF754F9B7EEC00A88ED000B00F012
:104328001DFC08EE100A164D0821284604F018FA5C
:10433800E0711021284604F013FA2072E37901286D
:1043480014BF00210121012B14BF0022012212B148
:1043580000297FF47CAF0BB90029A7D10028A8D188
:10436800002AA6D0014B02221A70A2E7D00000242E
:10437800280800247FD245396F12833AE8050024C3
:10438800000C025872B6FEE782B0074BD3F8F4204F
:1043980042F00202C3F8F420D3F8F43003F0020329
:1043A8000193019B02B070470044025870B58CB06D
:1043B80000230793089309930A930B9303685B4AB6
:1043C800934204D05A4A93427ED00CB070BD044642
:1043D800584A136801331360012B64D0564BD3F845
:1043E800E02042F00102C3F8E020D3F8E02002F018
:1043F80001020292029AD3F8E02042F00402C3F8C4
:10440800E020D3F8E02002F004020392039AD3F8E4
:10441800E02042F02002C3F8E020D3F8E03003F0B7
:1044280020030493049B0A2307930326089607A9ED
:10443800424803F0C1FF30230793089600250995E9
:1044480007A93F4803F0B8FF4FF480530793089635
:10445800099507A93B4803F0AFFF3B483B4B036076
:10446800092343608560C5604FF4806303614FF49E
:10447800006343614FF4005383614FF48073C36159
:104488004FF480330362456202F01EFAC8B92E4B1E
:10449800E3649C6300221146122001F03BFF1220C6
:1044A80001F06CFF91E7244BD3F8D82042F02002AA
:1044B800C3F8D820D3F8D83003F020030193019B28
:1044C8008CE7FFF75FFFE2E71A4A136801331360CE
:1044D800012B1DD0184BD3F8E02042F00102C3F89D
:1044E800E020D3F8E03003F001030693069B602335
:1044F80007930323089307A9104803F05DFF0022E0
:104508001146122001F006FF122001F037FF5CE788
:10451800094BD3F8D82042F02002C3F8D820D3F8AA
:10452800D83003F020030593059BD3E70020024011
:1045380000210240CC0B002400440258000002581D
:1045480000080258001402581C09002410000240F8
:1045580010B5B8B0044600213391349135913691A5
:104568003791C02202A808F0F9FC2268214B9A4230
:1045780001D038B010BD4FF400420023CDE902232A
:104588004FF080531E9302A805F0C6FC78BB1A4B67
:10459800D3F8EC2042F48072C3F8EC20D3F8EC2076
:1045A80002F480720092009AD3F8E02042F00202EE
:1045B800C3F8E020D3F8E03003F002030193019B35
:1045C8004FF44053339302233493002435943694A4
:1045D8000923379333A9094803F0EEFE2246062142
:1045E800162001F097FE162001F0C8FEC1E7FFF77C
:1045F800C9FECCE700A40040004402580004025859
:1046080010B5B8B0044600213391349135913691F4
:104618003791C02202A808F0A1FC22681B4B9A42DD
:1046280001D038B010BD08220023CDE9022302A82A
:1046380005F072FC38BB164CD4F8E03043F00203A6
:10464800C4F8E030D4F8E03003F002030093009B94
:104658004FF44063339312233493002335933693F6
:104668000423379333A90B4803F0A6FED4F8E830A7
:1046780043F48003C4F8E830D4F8E83003F4800346
:104688000193019BCDE7FFF77DFED4E7005800407A
:10469800004402580004025800B58BB0002305936B
:1046A800069307930893099303682D4A934208D009
:1046B8002C4A934213D02C4A93423BD00BB05DF85E
:1046C80004FB2A4BD3F8F02042F00102C3F8F02093
:1046D800D3F8F03003F001030193019BEEE7234B7D
:1046E800D3F8E82042F00802C3F8E820D3F8E8201D
:1046F80002F008020292029AD3F8E02042F0010286
:10470800C3F8E020D3F8E03003F001030393039BE0
:104718000123059302230693099305A9144803F07E
:104728004BFE00220421322001F0F4FD322001F07A
:1047380025FEC3E70D4BD3F8F02042F48022C3F8DE
:10474800F020D3F8F03003F480230493049B002274
:104758000221762001F0DEFD762001F00FFEADE7A4
:1047680000000140000C004000480140004402588D
:104778000000025830B589B00023039304930593D1
:10478800069307930368B3F1804F01D009B030BD99
:10479800214BD3F8E82042F00102C3F8E820D3F80F
:1047A800E82002F001020092009AD3F8E02042F0DB
:1047B8000102C3F8E020D3F8E02002F001020192E0
:1047C800019AD3F8E02042F00202C3F8E020D3F8BF
:1047D800E03003F002030293029B4FF4004303937B
:1047E800022504950124079403A90C4803F0E4FD6D
:1047F800082303930495002505950695079403A9B6
:10480800074803F0D9FD2A4621461C2001F082FD05
:104818001C2001F0B3FDB9E700440258000002581B
:104828000004025800B587B0002301930293039354
:104838000493059302680F4B9A4202D007B05DF8C3
:1048480004FB0D4BD3F8E02042F01002C3F8E0203F
:10485800D3F8E03003F010030093009B4FF47C532F
:104868000193022302930123059301A9034803F04E
:10487800A3FDE3E70000014000440258001002587D
:1048880008B50368154A934206D0154A93420BD0DF
:10489800144A934217D008BD134AD2F8F03023F0D7
:1048A8000103C2F8F030F6E70F4AD2F8E83023F0F7
:1048B8000803C2F8E83001210C4803F09BFE3220BF
:1048C80001F06AFDE7E7084AD2F8F03023F48023C4
:1048D800C2F8F030762001F05FFDDCE7000001400F
:1048E800000C0040004801400044025800000258F3
:1048F800FEE7FEE7FEE7FEE7FEE770477047704712
:1049080008B500F01FF908BD08B5024802F0E6FB3B
:1049180008BD00BF1C09002408B5034800F048F989
:10492800024800F045F908BD54080024B8080024DE
:1049380008B5024803F0B4FB08BD00BF9409002481
:1049480008B5802003F018FF08BD000008B502482C
:1049580007F06CF808BD00BF200B002408B502481A
:1049680007F064F808BD00BF6C0B002408B50248C6
:1049780007F05CF808BD00BFD40A0024274AD2F823
:10498800883043F47003C2F88830254B1B6803F065
:104998000F03062B06D8224A136823F00F0343F0AF
:1049A800070313601F4B1A6842F001021A600022C5
:1049B8001A6119681C4A0A401A60194B1B6813F0DF
:1049C800080F06D0164A136823F00F0343F00703B5
:1049D8001360144B00229A61DA611A6213499962D2
:1049E8001349D962134919635A639963DA631964DD
:1049F8005A64196821F4802119601A660E4B1A68E6
:104A08000E4B1340B3F1005F03D20D4B0122C3F8E4
:104A180008210C4B43F2D2021A60704700ED00E007
:104A280000200052004402587FEDF6EA000202021C
:104A38000000FF01800201010010005C0000FFFF80
:104A48000080005100400052DFF834D0FFF796FF95
:104A58000C480D490D4A002302E0D458C4500433D1
:104A6800C4188C42F9D30A4A0A4C002301E01360A7
:104A78000432A242FBD308F03FFAFEF7D5FF704795
:104A8800000008240000002450010024A07C010834
:104A980050010024D40B0024FEE700000F4B1B78C4
:104AA8000BB90120704710B504464FF47A70B0FB7B
:104AB800F3F30B4A1068B0FBF3F001F093FC0F2CF2
:104AC80000D808B1012010BD002221464FF0FF3068
:104AD80001F020FC034B1C600020F4E7E4000024F4
:104AE800DC000024E800002410B5032001F000FCDD
:104AF80004F08AFE0F498B690F4AC3F30323D35C82
:104B080003F01F03D8408B6903F00F03D35C03F055
:104B18001F0320FA03F3094A1360094B18600F209A
:104B2800FFF7BCFF10B10124204610BD0446FFF773
:104B38002BFCF9E700440258C0700108E00000248B
:104B4800DC000024034A1168034B1B780B441360F4
:104B5800704700BFD00B0024E4000024014B186804
:104B6800704700BFD00B002438B50446FFF7F6FFA6
:104B78000546B4F1FF3F02D0044B1B781C44FFF7F5
:104B8800EDFF401BA042FAD338BD00BFE40000246B
:104B9800014B1868000C70470010005C70477047A4
:104BA80008B5806BFFF7FBFF08BD70477047000032
:104BB800F8B5044603681D685E689F4A934255D05D
:104BC80002F58072934251D09C4B9F6807F01F07F3
:104BD80015F0020F10D016F0020F0DD0636D13F010
:104BE800100F03D1636D43F400636365204600F042
:104BF800EEFF236802221A6015F0040F02D016F0A7
:104C0800040F05D115F0080F40D016F0080F3DD05D
:104C1800636D13F0100F03D1636D43F40073636584
:104C28002368DA6812F4406F2AD1854A934200F06B
:104C38000B81DA6812F4005F22D11A6812F0080FAB
:104C48001ED09A6812F0040F12D15A6822F00C0292
:104C58005A60636D23F480736365636D13F4805F3A
:104C68000ED1636D43F00103636509E0754BACE752
:104C7800636D43F010036365A36D43F00103A365FF
:104C88002046FFF78BFF23680C221A6015F0200FCF
:104C980002D016F0200F05D115F0400F48D016F0BD
:104CA800400F45D0636D13F0100F03D1636D43F4CB
:104CB800005363652368DA6C02F4C072D8686049EF
:104CC8008B4200F0AE80D96862BB11F0007F05D03E
:104CD80001F4005200F44060024323D11A6812F034
:104CE800400F1FD011F4001F1CD19A6812F0080F52
:104CF80010D15A6822F060025A60636D23F4805321
:104D08006365636D13F4807F0CD1636D43F0010319
:104D1800636507E0636D43F010036365A36D43F0BB
:104D28000103A3652046FEF72FFC236860221A6062
:104D380015F0800F02D016F0800F37D115F4807F60
:104D480002D016F4807F3CD115F4007F02D016F40F
:104D5800007F42D115F0100F21D016F0100F1ED091
:104D6800236B73B1002F46D02368334A934240D057
:104D780002F5807293423CD0304B9B6813F4404F4D
:104D88000AD0636D43F480636365A36D43F0020347
:104D9800A3652046FFF70AFF236810221A6015F45E
:104DA800806F02D016F4806F2BD1F8BD636D43F489
:104DB800803363652046FFF7F8FE236880221A6077
:104DC800BCE7636D43F400336365204600F0FDFEE5
:104DD80023684FF480721A60B6E7636D43F480234A
:104DE8006365204600F0F2FE23684FF400721A60F3
:104DF800B0E7144BC1E72368DB6813F0030FCBD08F
:104E0800BFE7636D43F480436365A36D43F0080314
:104E1800A36523684FF480621A60204600F0D4FE30
:104E2800C3E7B91F01297FF64EAF002F3FF44BAF00
:104E38000149C96848E700BF0020024000630258E2
:104E48000021024000230240092F06D840F2212207
:104E5800FA4012F0010F7FF4ECAE014AD268E9E69D
:104E68000020024008B50346806B426D12F0500FD7
:104E780030D1436D43F40073436503681A6812F038
:104E8800080F14D0DA6812F4406F20D1DB6813F4ED
:104E9800005F1CD1436D23F480734365436D13F4A5
:104EA800805F14D1436D43F0010343650FE0DB6875
:104EB80013F0030F0BD1436D23F480734365436DE7
:104EC80013F4805F03D1436D43F001034365FFF79B
:104ED80065FE08BD426D12F0100F04D1C26CD26C91
:104EE80018469047F5E7FFF761FEF2E708B5806BD3
:104EF800436D43F040034365836D43F004038365CA
:104F0800FFF754FE08BD000070B582B00022019280
:104F180090F85020012A00F010820346012280F800
:104F280050200068826812F0040F09D05A6D42F0D0
:104F380020025A650120002283F8502002B070BD7B
:104F48000A68002A09DBC2F31304002C48D1920E28
:104F580001249440C2692243C26148684FEA901E06
:104F68000EF00C0E1A6802F1300C5EF80C4000F0DE
:104F78001F000A68C2F3846282401F2505FA00F008
:104F880024EA000002434EF80C201C68A268A068BE
:104F980000F0080002F0040202432AD01868826870
:104FA80012F0010F40F0BF810C68D0F8C050CA68F9
:104FB80002F0180CB74A22FA0CF22240C4F3130488
:104FC80025EA04042243C0F8C020C868B24A9042C7
:104FD80000F0B0800A68002AC0F22E810020AAE7FB
:104FE80092FAA2F2B2FA82F202F01F02012494406D
:104FF800B0E70D684FEAD55C0CF0040C14345CF88B
:105008000400C5F304554FF0070E0EFA05FE20EA1A
:105018000E008E6806FA05F528434CF804009F48F0
:10502800006800F07040B0F1805F0CD01868C46868
:1050380014F0100F41D1C468C4F3820464004869B5
:1050480000FA04F407E01868C468C4F38204640032
:10505800486900FA04F40D69042D36D0186800F187
:10506800600C5CF82560086800F0F84006F0004E17
:1050780040EA0E0020434CF825001C680D69487E64
:10508800012814BF16464FF00046603454F8250036
:1050980020F00040304344F825001D680C69087E64
:1050A800012808BF4FF40062286904F01F04A240D9
:1050B80020F4F04002432A6170E7C468640804F0F1
:1050C8000804486900FA04F4C5E71868026E02F09B
:1050D800F8420C68B2EB846F1DD01868426E02F07B
:1050E800F8420C68B2EB846F1AD01868826E02F02E
:1050F800F8420C68B2EB846F17D01868C26E02F0E1
:10510800F8420C68B2EB846F7FF448AFC26E22F0AD
:105118000042C26642E7026E22F000420266DCE705
:10512800426E22F000424266DFE7826E22F00042C1
:105138008266E2E71C680A68C2F31300B8B9900EE9
:10514800013000F01F05092D3ED9920E013202F000
:105158001F00920602F0F84201258540154300EB36
:1051680040021E3A120542F000722A4336E092FAD3
:10517800A2F0002843D0B0FA80F0013000F01F0000
:1051880009283CD992FAA2F5B5FA85F50135AD069C
:1051980005F0F84092FAA2F5B5FA85F5013505F063
:1051A8001F05012606FA05F5054392FAA2F0B0FAA2
:1051B80080F0304400F01F0000EB4000A0F11E0218
:1051C800120542F00072D0E7800600F0F840012294
:1051D800AA40104305EB450212050243D50D05F020
:1051E800040514342859C2F304520726964020EACD
:1051F80006008E6806FA02F202432A51EAE692FA9B
:10520800A2F0B0FA80F00130800600F0F84592FA7A
:10521800A2F0B0FA80F0013000F01F060120B04083
:10522800284392FAA2F2B2FA82F2013202F01F0285
:1052380002EB42021205D0E71968194881427ED074
:1052480000F5807081427AD01648806800F0E075D9
:10525800154CA46814F0010F7ED1124E00E0134ED5
:10526800134CA2420DD0134CA24242D0124CA2427F
:1052780061D110F4800F02D10B4A91424AD000202C
:1052880059E610F4000F50D1074A914216D0002079
:1052980051E600BFFFFF0F000000FF470010005C51
:1052A80000200240006302580060025800230240B8
:1052B800000084CB000052C70000B8CFB26822F0CB
:1052C800E0722A4342F40002B260264A1268920948
:1052D8002549A1FB02129209013252000192019A5A
:1052E8002AB3019A013A0192019A002AF9D10020C1
:1052F80021E610F0807F1CD11C4A914201D0002089
:1053080019E6B26822F0E0722A4342F08072B26075
:10531800002010E6B26822F0E0722A4342F48002CC
:10532800B260002007E6002005E6002003E6002022
:1053380001E60020FFE50020FDE50220FEE50C481F
:10534800806800F0E0750B4CA66804F58074A468CA
:10535800344314F0010F82D05A6D42F020025A658E
:105368000120E8E5DC000024632D3E0500600258BA
:10537800002302400020024003689A6812F0010FDF
:1053880057D170B5044699682C4A114209D0436D2B
:1053980043F010034365836D43F0010383650120E7
:1053A80070BD9968264A0A4042F001029A60FFF7E8
:1053B800D5FB05462368234A93420BD002F5807239
:1053C800934207D0204A92681A6812F0010F32D12E
:1053D8001B4E0FE01D4A9168A2F500729342F3D16B
:1053E80011F01F0FF0D00020DAE723681A6812F0D6
:1053F800010F1CD19A6812F0010F04D19A6832404B
:1054080042F001029A60FFF7A9FB401B0228ECD981
:1054180023681B6813F0010FE7D1636D43F0100395
:105428006365A36D43F00103A3650120B8E700207D
:10543800B6E7002070470020B2E700BF3F000080B9
:10544800C0FFFF7F00200240006302580023024093
:10545800F8B504460D46164600683D49884262D0B4
:105468003C4B98425FD001F1C05101F586418F68ED
:10547800816811F0040F67D194F85020012A65D093
:1054880007F01F07012384F85030092F57D840F23E
:105498002123FB4013F0010F51D02046FFF76CFF8A
:1054A800002848D1626DA0F60273134043F480735C
:1054B80063652268274B9A4237D0636D23F48013C3
:1054C8006365636D13F4805F32D0A36D23F0060328
:1054D800A365E36C204ADA63E36C204A1A64E36C40
:1054E8001F4ADA6423681C221A60002384F85030AB
:1054F8002268536843F0100353602268D36823F08E
:105508000303E16A0B43D360216833462A464031DE
:10551800E06C01F003FC22689168124B0B4043F0E9
:105528000403936011E01049A1E7002FC9D1C4E733
:105538000023A365CDE7002384F8503005E000235D
:1055480084F85030012000E00220F8BD0220FCE77A
:1055580000200240002102406D4E0008A94B0008BF
:10556800F54E0008C0FFFF7F0023024038B50368EE
:105578009A68996812F0020F03D1044611F0010FDE
:1055880001D1002038BD9A6802F00D02012A09D025
:10559800436D43F010034365836D43F00103836556
:1055A8000120EFE79968164A0A4042F002029A6021
:1055B800036803221A60FFF7D1FA054623689B683F
:1055C80013F0010F06D10020DCE723689B6813F075
:1055D800010F13D0FFF7C2FA401B0228F5D9236840
:1055E8009B6813F0010FF0D0636D43F010036365FF
:1055F800A36D43F00103A3650120C3E70020C1E7C1
:10560800C0FFFF7F38B504460368524A93420BD067
:1056180002F58072934207D04F4B9B6813F4403FCA
:1056280014BF0123002306E04C4B9B6813F4403F52
:1056380014BF012300239BB94FF40020002105F07B
:10564800BDFC05466368B3F5101F57D042D8B3F5C3
:10565800E01F51D026D9B3F5001F0ED145090CE043
:1056680004F022FB05466368B3F5003F14D0B3F598
:10567800403F15D0B3F5803F0ED0FFF789FA41F2CD
:105688000303984249D8364B9D422FD92268936824
:1056980043F48073936038BD1B0CB5FBF3F5ECE75E
:1056A8008508EAE7B3F5801F0FD006D9B3F5A01F28
:1056B8000BD0B3F5C01F08D0DFE7B3F5002F04D037
:1056C80023F40022B2F5802FD7D19B0C5B00B5FBE9
:1056D800F3F5D2E7B3F5201F12D0B3F5301FCCD1C4
:1056E800FFF756FA41F2030398420BD822689368F1
:1056F80023F480739360CEE70509BEE78509BCE70C
:10570800C509BAE7174B9D420AD92268936823F462
:10571800407343F480739360BDE7134B9D4205D8F3
:105728002268936823F440739360B4E70F4B9D425B
:10573800EBD90F4B9D4207D82268936823F4407336
:1057480043F400739360A6E72268936843F44073B8
:105758009360A0E700200240006302580023024043
:10576800002D3101FF21BCBE21BCBE0041787D0166
:1057780081F0FA0270B582B000230193002800F08E
:10578800F8800446436D002B42D023689A6812F0D3
:10579800005F03D09968784A0A409A6023689A683B
:1057A80012F0805F16D19968744A0A4042F080521C
:1057B8009A60734B1B689B09724AA2FB03239B09DF
:1057C80001330193019B2BB1019B013B0193019B89
:1057D800002BF9D121688B6813F0805F1FD1636DAE
:1057E80043F010036365A36D43F00103A36501252E
:1057F8008B68626D02F0100203F00403134310D0AB
:10580800636D43F0100363650125284602B070BD3F
:10581800FEF7CCFD0023A36584F85030B5E70025DA
:10582800E6E7636D23F4817343F0020363658B68D5
:1058380013F0010F12D1544B994265D003F58073D0
:10584800994261D0514B9B6813F0010F06D1504A21
:10585800936823F47C1361680B439360FFF798F90E
:1058680041F20303984202D9A368102B57D0236B47
:10587800A2681343627D43EA4233227F43EA02432C
:10588800227F012A55D0626A22B102F47872A16A95
:105898000A4313432168C8683E4A02401343CB6059
:1058A80021688B688A6802F0080203F00403134336
:1058B8001BD1C868227D384B034043EA8233E26A31
:1058C8001343CB6094F83830012B37D02268136922
:1058D80023F0010313612268136923F07043616B9D
:1058E8000B4313612046FFF78DFEE368012B37D089
:1058F8002268136B23F00F031363636D23F0030314
:1059080043F00103636580E71F4B9A6803F58073D2
:105918009B68134313F0010FA0D1204A98E7627DDA
:10592800237F1B0443EA4233226B134343F01C03D7
:10593800A6E7226A013A43EA4243A4E721680869D4
:10594800E36B5A1E236C666C334343EA0243A26C32
:105958001343134A0240134343F001030B61BAE7B0
:1059680021680A6BA369013B22F00F0213430B6302
:10597800C3E7012549E700BFC0FFFF5FC0FFFF6F16
:10598800DC000024632D3E05002002400060025820
:105998000063025803C0F0FFFCBFFFFF0023024072
:1059A8001EF800FC70B582B00023019390F85030C7
:1059B800012B42D004460D461646012380F850308C
:1059C800FFF7D4FD00282FD1626D1D4B134043F023
:1059D80002036365226891681A4B0B4006F0804603
:1059E800334305F480352B4343F00043936022682A
:1059F80015499368002B06DB636D23F0030343F01E
:105A08000103636514E0019B01330193019B8B4201
:105A1800EFD3636D23F0120343F010036365002393
:105A280084F85030012006E0636D43F0100363658D
:105A3800002384F8503002B070BD0220FBE700BF9D
:105A4800FDEEFFFFC0FFFE3F00F8C32538B5044652
:105A580003684A4A934264D002F58072934260D048
:105A680002F1C05202F5844295689A6812F0080F54
:105A780076D1DA68DB6C13F4C07F01D1002A52DAE0
:105A880094F85030012B6DD0012384F85030204613
:105A9800FFF772FC00285FD1636D13F4807F48D054
:105AA800A36D23F00803A36505F01F05626D344B51
:105AB800134043F4805363652368324A93423BD0D2
:105AC800B5FA85F25209616D21F480116165602192
