:020000040800F2
:1000000000000824C93E0008713D0008733D000847
:10001000753D0008773D0008793D000800000000AC
:100020000000000000000000000000007B3D000810
:100030007D3D0008000000007F3D0008813D000874
:10004000193F0008193F0008193F0008193F000830
:10005000193F0008193F0008193F0008193F000820
:10006000193F0008193F0008193F0008893D0008A2
:10007000193F0008193F0008193F0008193F000800
:10008000193F0008193F0008993D0008193F000872
:10009000193F0008193F0008B13D0008C13D0008A4
:1000A000193F0008193F0008193F0008193F0008D0
:1000B000CD3D0008193F0008193F0008193F00080E
:1000C000193F0008193F0008193F0008193F0008B0
:1000D000193F0008193F0008193F0008193F0008A0
:1000E000193F0008193F000800000000193F0008F0
:1000F000193F0008193F0008193F0008193F000880
:10010000193F0008193F0008DD3D0008193F0008AD
:10011000193F0008193F0008193F0008193F00085F
:10012000193F0008193F0008193F0008193F00084F
:10013000193F0008193F0008193F0008193F00083F
:1001400000000000000000000000000000000000AF
:10015000193F0008193F0008193F0008193F00081F
:10016000193F0008193F0008193F0008193F00080F
:10017000193F0008193F0008193F0008000000005F
:10018000193F0008193F0008193F0008193F0008EF
:10019000193F0008193F0008193F0008193F0008DF
:1001A000193F0008193F0008193F0008193F0008CF
:1001B000193F0008193F0008193F0008193F0008BF
:1001C000193F0008193F0008193F0008193F0008AF
:1001D000193F0008193F0008193F0008193F00089F
:1001E000193F0008193F0008193F0008193F00088F
:1001F000193F0008193F0008193F0008193F00087F
:10020000193F0008193F0008193F0008193F00086E
:10021000193F0008193F0008ED3D0008193F00088C
:10022000193F0008193F0008193F000800000000AE
:10023000193F0008193F000800000000193F00089E
:10024000193F0008193F0008193F0008193F00082E
:10025000193F0008193F0008193F0008193F00081E
:10026000193F0008193F0008193F0008193F00080E
:10027000193F0008193F0008193F0008000000005E
:10028000193F0008193F0008193F0008000000004E
:0802900000000000193F000806
:1002980010B5054C237833B9044B13B10448AFF3B8
:1002A80000800123237010BD2001002400000000FD
:1002B80044CD000808B5034B1BB103490348AFF30D
:1002C800008008BD000000002401002444CD00087F
:1002D80081F0004102E000BF83F0004330B54FEAEF
:1002E80041044FEA430594EA050F08BF90EA020F5C
:1002F8001FBF54EA000C55EA020C7FEA645C7FEAEF
:10030800655C00F0E2804FEA5454D4EB5555B8BF11
:100318006D420CDD2C4480EA020281EA030382EA82
:10032800000083EA010180EA020281EA0303362D14
:1003380088BF30BD11F0004F4FEA01314FF4801CE7
:100348004CEA113102D0404261EB410113F0004FF9
:100358004FEA03334CEA133302D0524263EB4303B0
:1003680094EA050F00F0A780A4F10104D5F1200E4E
:100378000DDB02FA0EFC22FA05F2801841F10001A9
:1003880003FA0EF2801843FA05F359410EE0A5F17D
:1003980020050EF1200E012A03FA0EFC28BF4CF0AE
:1003A800020C43FA05F3C01851EBE37101F0004564
:1003B80007D54FF0000EDCF1000C7EEB00006EEB71
:1003C8000101B1F5801F1BD3B1F5001F0CD34908FB
:1003D8005FEA30004FEA3C0C04F101044FEA445252
:1003E80012F5800F80F09A80BCF1004F08BF5FEAD9
:1003F800500C50F1000041EB045141EA050130BDB9
:100408005FEA4C0C404141EB0101013C28BFB1F5CA
:10041800801FE9D291F0000F04BF01460020B1FA15
:1004280081F308BF2033A3F10B03B3F120020CDAE8
:100438000C3208DD02F1140CC2F10C0201FA0CF0C6
:1004480021FA02F10CE002F11402D8BFC2F1200C2B
:1004580001FA02F120FA0CFCDCBF41EA0C019040E1
:10046800E41AA2BF01EB0451294330BD6FEA04042A
:100478001F3C1CDA0C340EDC04F11404C4F1200215
:1004880020FA04F001FA02F340EA030021FA04F327
:1004980045EA030130BDC4F10C04C4F1200220FA7E
:1004A80002F001FA04F340EA0300294630BD21FABC
:1004B80004F0294630BD94F0000F83F4801306BF82
:1004C80081F480110134013D4EE77FEA645C18BF76
:1004D8007FEA655C29D094EA050F08BF90EA020F0D
:1004E80005D054EA000C04BF1946104630BD91EA05
:1004F800030F1EBF0021002030BD5FEA545C05D108
:100508004000494128BF41F0004130BD14F5800446
:100518003CBF01F5801130BD01F0004545F0FE41BA
:1005280041F470014FF0000030BD7FEA645C1ABFEF
:10053800194610467FEA655C1CBF0B46024650EA26
:10054800013406BF52EA033591EA030F41F4002152
:1005580030BD00BF90F0000F04BF0021704730B5D8
:100568004FF4806404F132044FF000054FF00001AD
:1005780050E700BF90F0000F04BF0021704730B56E
:100588004FF4806404F1320410F0004548BF404243
:100598004FF000013EE700BF42004FEAE2014FEA98
:1005A80031014FEA02701FBF12F07F4393F07F4F73
:1005B80081F06051704732F07F4208BF704793F076
:1005C8007F4F04BF41F40021704730B54FF4607489
:1005D80001F0004521F000411CE700BF50EA01028C
:1005E80008BF704730B54FF000050AE050EA010235
:1005F80008BF704730B511F0004502D5404261EBA5
:1006080041014FF4806404F132045FEA915C3FF4E5
:10061800D8AE4FF003025FEADC0C18BF03325FEA82
:10062800DC0C18BF033202EBDC02C2F1200300FA33
:1006380003FC20FA02F001FA03FE40EA0E0021FA58
:1006480002F11444BDE600BF70B5049D90ED007B37
:10065800B4EEC07BF1EE10FA35DB30EE470B90EDCF
:10066800026B36EE477B80EE076B4FF0000E91ED84
:10067800007BB4EEC17BF1EE10FA65DB31EE471B6F
:1006880091ED025B35EE477B81EE074B002405FBBD
:1006980004EE02EBCE0393ED000B93ED027B37EEF5
:1006A800407B07EE060BAE4402EBCE0292ED007BD8
:1006B80092ED025B35EE475B05EE067B37EE407B3D
:1006C80007EE040B70BD1C684FEAC40C00EBC406AF
:1006D80096ED007BB4EEC07BF1EE10FA28DD4FEA10
:1006E800540C012C21D94FF0000E00EBCC0696EDEE
:1006F800007BB4EEC07BF1EE10FAD4BFE646644648
:100708000EEB040C4FEA5C0CA4EB0E06012EECD8A1
:1007180000EBCE0090ED006B30EE460B90ED027BC7
:1007280037EE467B80EE076BA1E74FF0000EEFE750
:1007380004F1FF3E604410ED026B30EE460B37EEDD
:10074800467B80EE076B92E75868C60001EBC00352
:1007580093ED007BB4EEC17BF1EE10FA24DD430883
:1007680001281FD9002401EBC30C9CED007BB4EEDB
:10077800C17BF1EE10FAD4BF1C46184623185B085B
:10078800A0EB040CBCF1010FEDD801EBC40191ED15
:10079800005B31EE451B91ED027B37EE457B81EE28
:1007A800074B74E70024F0E7441E314411ED025B67
:1007B80031EE451B37EE457B81EE074B67E70000BE
:1007C800F0B52DED108B9BB0D54B93ED067B8DEDE1
:1007D800027B9FEDCDAB27EE0AABB0EECAABD14A98
:1007E80082ED1AAB93ED446BCF4B93ED007B26EE75
:1007F800076BCE4B93F8583013B1CC4B83ED006B9D
:10080800C74B93ED389AB7EEC99A9FEDC17B29EE95
:10081800077BC64B93ED009B36EE496BB4EEC67B67
:10082800F1EE10FA0FD4BE4B93ED397AB7EEC77AD2
:100838009FEDB75B27EE057BB4EEC76BF1EE10FAC0
:1008480058BFB0EE467B39EE079BB84B83ED009B53
:10085800B34B93ED467BB5EEC07BF1EE10FA40F357
:100868004A831B230093B24BB24AB349A1F1D80083
:10087800B0EE491BB0EE4A0BFFF7E6FEAB4B93F820
:10088800593013B1A94B83ED020BA54B93ED347A84
:10089800B7EEC77A9FED9E6B27EE067BA34B93EDD1
:1008A800026B30EE460BB4EEC07BF1EE10FA0FD4BB
:1008B8009B4B93ED357AB7EEC77A9FED955B27EEA4
:1008C800057BB4EEC70BF1EE10FA58BFB0EE407BD3
:1008D80036EE077B934B83ED0C7B914B93ED40DA1F
:1008E800B7EECDDAB4EECD7BF1EE10FA0ADC93ED7B
:1008F80041DAB7EECDDAB4EECD7BF1EE10FA58BF9F
:10090800B0EE47DB864C94ED0A8B94ED0C7B38EE09
:1009180007BB3BEE07BB9FED807B2BEE07BB94ED3F
:1009280008CBB0EE4C0B0BF0ABFAB0EE40EB8DED14
:10093800100BB0EE4C0B0BF057FA8DED120B2BEEA3
:100948000EFB08EE00FBF7EECF5BCDED195A28EE53
:100958000E8B1BEE008BB7EEC88BD4ED3A7AF7EE10
:1009680000CA7CEEE7CA714B93ED147A6CEE87CA25
:1009780067EEA57A7CEEA7CAC3ED14CA94ED3BCA0C
:10098800B5EEC0CAF1EE10FACCBFB0EE6C7A9DEDB0
:10099800197AB7EEC77A3DEE475B8DED085B614B80
:1009A80083ED185B614A92ED066B8DED0A6B5C4B2B
:1009B80093ED147B15EE076B93ED167B26EE074B34
:1009C8008DED144B92ED047B8DED0C7B93ED106B4C
:1009D80005EE067B37EE047B8DED067B93ED2CBB95
:1009E800B4EEC7BBF1EE10FA40F188824D4B83EDAF
:1009F80010BB4B4BD3ED3F8ADFED507A68EEA78AE8
:100A08009DED027BB0EEC7EB464B83ED12EB1B234B
:100A18000093474B4A4AA2F5E751A1F1D800B0EE3E
:100A2800491BB0EE4A0BFFF70FFE404B93F85A30C4
:100A380013B13E4B83ED080B394B93ED367AB7EE85
:100A4800C77A9FED336B27EE067B364B83ED1A7B17
:100A5800364B93ED086B30EE460BB4EEC07BF1EEEF
:100A680010FA11D42E4B93ED377AB7EEC77A9FED73
:100A7800285B27EE057BB4EEC07BF1EE10FA40F35D
:100A88005182284B83ED1A7B264B93ED1A7B36EE69
:100A9800077B83ED0A7B2B4B9B88B3F5807F09D0BE
:100AA800012B00F043821F4B00200021C3E90A01FB
:100AB800C3E90C011B4B93ED0A6B8DED046B184BCE
:100AC80093ED427AB7EEC77AB4EEC76BF1EE10FA3F
:100AD80040F33282134B83ED1A7BB0EE087B9DED19
:100AE800026B26EE07AB8DED16AB1B230093104B64
:100AF800154AA2F58471A1F1D800B0EE491BB0EEF9
:100B08004E0BFFF7A1FD21E0FB2BED663D192340BD
:100B18002D431CEBE2361A3F1D339045A779E23F7F
:100B2800B0010024D8020024400100244801002418
:100B3800C85A0108B0CD000860EA00083ACD133F52
:100B4800400701080000002468EB0008E24B93ED21
:100B58001A6B8DED0E6B9FEDD27B20EE070B20EE0E
:100B6800060B2AEE400BB7EEE8AAB4EEC0ABF1EEE6
:100B780010FA00F1F781B1EE687AB7EEC77AB4EEF1
:100B8800407BF1EE10FA37FE000BD34B93ED10FBD0
:100B98003FEE000B83ED140BB4EEC0BBF1EE10FA80
:100BA80040F1E38183ED14BBCC4ECD4DA5F1D804C3
:100BB8001B2700973346CB4A29462046B0EE491BEF
:100BC800B0EE4E0BFFF740FD9FEDB5BB20EE0B0BD3
:100BD80020EE0DDB00973346C34A29462046B0EE87
:100BE800491BB0EE4E0BFFF72FFD00EE0BDB9DED22
:100BF800167B2DEE07DBBD4B93ED3C7AF7EE007AC2
:100C080077EEC77ABA4AD2ED156A67EEA67A27EE6A
:100C1800087A77EE877AC2ED157A93ED3D7AB5EECC
:100C2800407AF1EE10FA37FE888AB7EEC89A9DED41
:100C38000E7B37EE493BA84B83ED1A3B92ED0C7BBC
:100C4800B0EE47EB8DED0E7BA84B93ED247B13EEB6
:100C580007EB93ED267B2EEE07EB92ED0ABB93EDA7
:100C6800207BB0EE4B4B03EE074B34EE0E4B93ED6F
:100C7800307BB4EEC47BF1EE10FA40F18381964BE1
:100C880083ED127BB4EECDABF1EE10FA09D4F1EEA0
:100C9800688AB7EEE8AAB4EECDABF1EE10FA3AFEE8
:100CA8000DAB8D4B93ED122B32EE0AAB83ED16ABE9
:100CB800B4EECA7BF1EE10FA40F1748183ED167B35
:100CC800854B93ED145B93ED161B9DED107B21EE88
:100CD800076B9DED128B15EE086BB6EE000B26EE3A
:100CE800000B25EE075B01EE085B9FED6F7B25EEA1
:100CF800075B35EE401B9FED6E7B37EE407B37EE92
:100D0800457B86FE010B80FE070B86FE415B85FE58
:100D1800475B30EE055BBEEE000B25EE005B36EE62
:100D2800056B9FED650B26EE006B83ED006B31EED6
:100D3800051B21EE001B83ED021B37EE057B27EE1A
:100D4800007B83ED047B83ED089BB5EEC0CAF1EE12
:100D580010FA40F33481B7EEEC7A5F4B83ED067BF3
:100D6800624B93ED021B9FED567B21EE077B604B98
:100D780093F85B302BB15D4BD3E900015C4BC3E9C1
:100D88000E015B4B93ED0E5B584B93ED006B36EE0B
:100D9800456BB4EEC67BF1EE10FA0CD493ED041B50
:100DA8009FED477B21EE077BB4EEC76BF1EE10FA9F
:100DB80058BFB0EE467B35EE077B4D4B83ED0E7B7F
:100DC800454A9FED416B9DED025B17EE065B82ED98
:100DD8001C5B002183F8581083F85910D2E90C01E4
:100DE800C3E90201414B93ED126B3FEE4F7B9DED42
:100DF800085B05EE067B9DED066B3FEE466B37EE16
:100E0800067B9FED2F6B9DED0C5B07EE065B9FED60
:100E1800307BB4EEC75BF1EE10FA40F3D580344B6B
:100E280083ED047B324B9FED267B9DED0A6B9DED98
:100E3800145B05EE076B83ED066B002283F85A20DE
:100E48009DED046B83ED086B284B93ED225B32EE2E
:100E5800426BBAEE041B26EE016B03EE056B32EE15
:100E6800442B36EE022B02EE07BB9FED197BB4EE46
:100E7800C7BBF1EE10FA40F3B9801D4B83ED0A7B36
:100E88001B4B9FED0F6B9DED0E7B0EEE067B83EDEE
:100E98000C7B002283F85B201BB0BDEC108B29E093
:100EA800FCA9F1D24D62503FAA4C58E87AB6EB3F04
:100EB80000000000000000001D339045A779F23FB4
:100EC8002D431CEBE2361A3FD5EB7BF3E9CEBA3F54
:100ED800000000803FBE4040D8020024C85A0108E4
:100EE80060EA0008F03E010818230108B001002458
:100EF80048010024F0BD93ED489BB2E4464B93EDC6
:100F08002E7B9DED066BB4EEC67BF1EE10FA03DD89
:100F1800424B83ED107B6CE5404B9DED067B83EDEA
:100F2800107B66E53D4B83ED1A0BADE5B1EE477BD3
:100F38003A4B83ED0A7BBDE5374B93ED437AB7EE29
:100F4800C77A9DED046BB4EEC76BF1EE10FA03D5CA
:100F5800324B83ED1A7BC0E5304B9DED047B83ED6E
:100F68001A7BBAE5B0EE4A0B0FE62B4B93ED2E7BBE
:100F7800B4EEC70BF1EE10FA7FF516AE274B83EDF2
:100F8800147B11E6244B93ED326BB4EEC46BF1EE97
:100F980010FA03DD214B83ED126B73E61F4B83EDD3
:100FA800124B6FE61C4B93ED327BB4EEC7ABF1EE00
:100FB80010FA7FF585AE194B83ED167B80E6DDEDE3
:100FC800197AB7EEE77AC8E69FED117BB4EEC75BF6
:100FD800F1EE10FA03D4124B83ED045B22E7104BB9
:100FE8000BA1D1E90001C3E904011BE79FED087BD0
:100FF800B4EEC7BBF1EE10FA03D4094B83ED0ABB7C
:101008003EE7074B02A1D1E90001C3E90A0137E72E
:10101800000000803FBE40C0B0010024D802002478
:1010280048010024000000003D4B93ED1C1B3D4A85
:1010380092ED123B3C4B93ED1C7BB0EE432B11EE33
:10104800072B93ED1E7B22EE072B92ED105B93EDA1
:10105800186BB0EE454B01EE064B34EE024B93EDA8
:10106800287BB4EEC47BF1EE10FA29D52F4B83ED23
:10107800007B2E4B93ED007B294B83ED0E7B2A4B97
:1010880093ED1A0B37EE476B01EE006B37EE447B9E
:1010980036EE077B9FED1C6B07EE065B9FED1C7B16
:1010A800B4EEC75BF1EE10FA1ADD1E4B83ED107B30
:1010B8009FED157B02EE073B1A4B83ED123B704701
:1010C800194B93ED2A7BB4EEC47BF1EE10FA03DDE5
:1010D800164B83ED007BCCE7144B83ED004BC8E740
:1010E8009FED0D7BB4EEC75BF1EE10FA03D40D4B08
:1010F80083ED105BDCE70B4B07A1D1E90001C3E9E5
:101108001001D5E7AFF30080FCA9F1D24D62503F42
:101118000000004010E07D400000004010E07DC06D
:10112800D802002448010024B00100244001002412
:10113800594B012283F8582083F8592083F85A2004
:1011480083F85B20554B564AC3F8FC203EA1D1E9F1
:101158000001C3E94401534AC3F8F820524AC3F8CE
:101168000821524AC3F80C21514AC3F80021514AB8
:10117800C3F8042136A1D1E90001C3E9020136A16F
:10118800D1E90001C3E904014B49C3F8E0104B4A17
:10119800C3F8E420C3F8D810C3F8DC20C3F8D01093
:1011A800C3F8D4202EA1D1E90001C3E928019FED9D
:1011B8002E6B83ED2A6B00204149C3E918010020FA
:1011C8004049C3E91A019FED2A7B83ED1C7B00206F
:1011D8003D49C3E91E019FED284B83ED304B9FED40
:1011E800285B83ED325B9FED283B83ED203BB1EE1E
:1011F8000C3B83ED223B83ED247BC3E9260183ED81
:101208002C4B83ED2E5B9FED225B83ED105BB1EEE3
:10121800085B83ED125B83ED147BC3E916014FF085
:101228007E52C3F8EC20C3F8F420284AC3F8E8201B
:10123800C3F8F02000202649C3E9460183ED486B36
:10124800704700BFAFF3008000000020166AC53F5A
:10125800000000000088C34000000000D01263C1F5
:101268000000004010E07D40000000000000000089
:1012780000000080B5F8E43E000000803FBE40401A
:10128800000000803FBE40C0000000A09999B93F0F
:10129800000000A09999C93F48010024B00100242A
:1012A800000068420000404000007A4300007AC312
:1012B80000009643000096C30024F4480024F4C8B4
:1012C8000000104000002040000014406666663FA1
:1012D8000000F03FB5EEC00BF1EE10FA09DD4FF05B
:1012E800010C83F800C0814294BF002101211170D4
:1012F80070471A7802B9704700221A70FBE7B5EEFA
:10130800C00BF1EE10FA09DD4FF0010C83F800C0B4
:1013180081422CBF00210121117070471A7802B94F
:10132800704700221A70FBE7F8B53B4B93ED167B2C
:1013380093ED182B87FE026B93ED1A3B86FE036B29
:1013480093ED0C4AD3ED0D5AB7EEE51A87FE427BB2
:1013580087FE437BB7EEC43AB4EEC63BF1EE10FA13
:101368000BD4B1EE444AB7EEC44AB4EEC74BF1EE23
:1013780010FACCBF0120002000E00120274B187094
:10138800B4EEC61BF1EE10FA0BD4B1EE656AB7EEF7
:10139800C66AB4EEC76BF1EE10FACCBF0123002386
:1013A80000E001231D4C63701D4D1E4E05F18C039A
:1013B800221D95F8881096ED000BFFF7A0FF274631
:1013C80005F18D03621D95F8881017F8020B96ED4C
:1013D800020BFFF77FFF05F18A033A4695F889105B
:1013E800607896ED040BFFF78AFF05F18B03E21C8A
:1013F80095F88910607896ED060BFFF76BFFA378D8
:101408000BB9E07800E0012000F00100034B1B79E4
:1014180053B9024B597908E03005002450030024E1
:1014280058030024E85A0108012101F00101B84BD2
:1014380093F88030002B40F09381B54B012283F85C
:101448008020022283F88120B24C002222715A6146
:101458001A61032583F882505A621A6283F884500D
:1014680062705A631A6383F8855022705A651A6548
:10147800DA645A64052583F88650A2705A671A6799
:10148800DA665A6683F88750E27081F00102002913
:1014980040F08E869E4B1B6901339D4C23610028CA
:1014A80040F089862346646901345C61DC69013453
:1014B800DC61002A00F08586954B9B690133944ACC
:1014C8009361954B93ED126B93ED017AB7EEC77A62
:1014D800B4EEC76BF1EE10FA40F37686136A013367
:1014E8008B4A13628C4B93ED005AB7EEC55AB4EE93
:1014F800C56BF1EE10FA40F36A86536A0133844AE9
:101508005362B4EEC56BF1EE10FA40F16386936A4C
:1015180001337F4A9362B4EEC76BF1EE10FA40F3E1
:101528005C86D36A01337A4AD3627B4B93ED146BA2
:1015380093ED037AB7EEC77AB4EEC76BF1EE10FA03
:1015480040F34E86136B0133714A1363724B93ED6C
:10155800025AB7EEC55AB4EEC56BF1EE10FA40F375
:101568004286536B01336A4A5363B4EEC56BF1EE9E
:1015780010FA40F13B86936B0133654A9363B4EEEE
:10158800C76BF1EE10FA40F33486D36B0133604A2F
:10159800D363614B93ED1E7B93ED096AB7EEC66A80
:1015A800B4EEC67BF1EE10FA40F12686136C0133D7
:1015B800574A1364584B93ED085AB7EEC55AB4EE20
:1015C800C57BF1EE10FA40F11A86536C0133504A8C
:1015D8005364B4EEC57BF1EE10FA40F31386936CB6
:1015E80001334B4A9364B4EEC67BF1EE10FA40F136
:1015F8000C86D36C0133464AD364474B93ED0A6A91
:10160800B7EEC66AB4EEC67BF1EE10FA40F3008678
:10161800136D01333E4A13653F4B93ED0B5AB7EEFA
:10162800C55AB4EEC57BF1EE10FA40F3F485536D5C
:1016380001335365B4EEC67BF1EE10FA00F1F38581
:10164800334B00229A65324BDB6D0133304AD36548
:10165800314B93ED1C7B93ED056AB7EEC66AB4EE89
:10166800C67BF1EE10FA40F1EE85136E0133284A7D
:101678001366294B93ED045AB7EEC55AB4EEC57BF1
:10168800F1EE10FA40F1E285536E0133204A5366B9
:10169800B4EEC57BF1EE10FA40F3DB85936E0133AF
:1016A8001B4A9366B4EEC67BF1EE10FA40F1D4857E
:1016B800D36E0133164AD366174B93ED066AB7EE1D
:1016C800C66AB4EEC67BF1EE10FA40F3C885136F14
:1016D80001330F4A1367104B93ED075AB7EEC55AFB
:1016E800B4EEC57BF1EE10FA40F3BC85536F0133BD
:1016F8005367B4EEC67BF1EE10FA00F1BB85044BDC
:1017080000229A67024BDA6F0132014BDA6705E073
:1017180058030024B005002430050024BB4A51704A
:101728001070BB4A117883F88810527883F88920A2
:10173800B84BD3F810210132C3F81021D3F828117F
:1017480007EE902AB8EE677B93ED466B26EE077B93
:1017580081ED007BD3F820210132C3F82021F8BDA8
:10176800AD4B93F88130012B18D0022B1AD0AA4B1D
:1017780093ED027BB5EE407BF1EE10FA40F0BA80B3
:10178800002283F88320022483F88140A34C22712D
:101798005A611A61032283F88220EFE09F4B0222EC
:1017A8001A71EBE09C4B93ED026B9D4B93ED117A14
:1017B800B7EEC77AB4EEC76BF1EE10FA0FDD964BB1
:1017C800002283F88220032483F88140934C01256A
:1017D8002571DA619A61022283F88320CEE08E4B6C
:1017E80093ED005BB4EEC57BF1EE10FA09D500224B
:1017F80083F88220012283F88120884B02221A7103
:10180800BCE0864B00221A71834B93F88230012B7F
:101818000DD0022B13D0D0B17F4B012283F8822048
:10182800B7EE007B35EE075B83ED005BA6E07A4BF5
:1018380000225A611A61032283F882209EE0764BC7
:1018480000225A611A61032283F8822096E051B17E
:10185800714B022283F88220B7EE007B36EE076BCD
:1018680083ED026B8AE0B5EEC06BF1EE10FA21DD74
:10187800694B93ED044AB8EE444B694B93ED107AEB
:10188800F2EE047A27EE277AB7EEC77AB4EEC74BA2
:10189800F1EE10FA0EDDB7EE007B36EE476B5E4BCD
:1018A80083ED026B5C4B00225A611A61032283F8B4
:1018B800822063E0B5EEC05BF1EE10FA5EDD564BB8
:1018C80093ED056AB8EE466B554B93ED107AF2EE40
:1018D800047A27EE277AB7EEC77AB4EEC76BF1EE33
:1018E80010FA4BDDB7EE007B35EE475B4A4B83EDD4
:1018F800005BD7E7484B93ED005B494B93ED116ACA
:10190800B7EEC66AB4EEC65BF1EE10FA0ADD424BDA
:10191800002283F88320012283F881203F4B022292
:101928001A712BE03D4B01221A713B4B93F883301F
:10193800934257D011B1384B00229A61384B93ED3E
:10194800106AF2EE046A26EE266AB7EEC66A324BD1
:1019580093ED064AB8EE444BB4EEC46BF1EE10FAC0
:1019680048D5B7EE006B37EE467B83ED027B2A4BFA
:101978000022DA619A61022283F88320264B93F8C9
:101988008430012B64D0022B00F09A80234B002274
:101998005A70234B93ED125B93ED017AB7EEC77A39
:1019A800B4EEC75BF1EE10FA01DC1B4B1A621C4B5C
:1019B80093ED0F7AF2EE047A27EE277AB7EEC77A1C
:1019C800154B93ED086AB8EE466BB4EEC67BF1EEA4
:1019D80010FA40F1C280012283F884200F4B0222C2
:1019E8005A7038E00C4B0022DA619A61022283F8BF
:1019F8008320C3E7B0B1084B012283F88320B7EEF8
:101A0800007B35EE075B83ED005BB7E72805002414
:101A180050030024E803002458030024B0050024E0
:101A280030050024B5EEC05BF1EE10FAA6DDB94B27
:101A380093ED077AB8EE477BB4EEC76BF1EE10FA78
:101A48009CD5B7EE007B35EE475B83ED005B8EE7F8
:101A5800B14B02225A70AF4B93F88530012B00F03E
:101A68009E80022B00F0AB80AB4B00221A70AB4B70
:101A780093ED145B93ED037AB7EEC77AB4EEC75BC8
:101A8800F1EE10FA01DCA34B1A63A44B93ED0F7A25
:101A9800F2EE047A27EE277AB7EEC77A9D4B93EDDC
:101AA8000C6AB8EE466BB4EEC67BF1EE10FA40F164
:101AB800D380012283F88520974B02221A7071E0A7
:101AC800954B01225A70954B93ED125B93ED017A79
:101AD800B7EEC77AB4EEC75BF1EE10FA02DC8D4BB5
:101AE8000022DA628D4B93ED0F7AF2EE047A27EE3C
:101AF800277AB7EEC77A874B93ED0B6AB8EE466B39
:101B0800B4EEC67BF1EE10FA06D5012283F88420E4
:101B1800814B02225A709EE7804B93ED006AB7EE24
:101B2800C66AB4EEC65BF1EE10FA02D4794B002215
:101B38009A62784B93ED0A6AB8EE466BB4EEC67BB0
:101B4800F1EE10FA87D51A46002353621362032474
:101B580082F88440704A53707DE7704B93ED006AB9
:101B6800B7EEC66AB4EEC65BF1EE10FA02DC694B5A
:101B780000225A62674B93ED096AB8EE466BB4EEE1
:101B8800C67BF1EE10FA7FF566AF0022DA629A6240
:101B9800022283F88420604B01225A705BE75E4B77
:101BA80002221A705B4B93F88630013B032B00F23C
:101BB8002E81DFE813F072008200D800DC00564B5B
:101BC80001221A70554B93ED145B93ED037AB7EE2F
:101BD800C77AB4EEC75BF1EE10FA02DC4D4B002277
:101BE800DA634E4B93ED0F7AF2EE047A27EE277AFA
:101BF800B7EEC77A474B93ED0F6AB8EE466BB4EE73
:101C0800C67BF1EE10FA06D5012283F88520424BF7
:101C180002221A70C6E7414B93ED026AB7EEC66A14
:101C2800B4EEC65BF1EE10FA02D43A4B00229A6386
:101C3800384B93ED0E6AB8EE466BB4EEC67BF1EE08
:101C480010FAAFD51A46002353631363032482F8AE
:101C58008540314A1370A5E7304B93ED026AB7EE21
:101C6800C66AB4EEC65BF1EE10FA02DC294B00221C
:101C78005A63284B93ED0D6AB8EE466BB4EEC67BFB
:101C8800F1EE10FA8ED50022DA639A63022283F805
:101C98008520214B01221A7084E71F4B02229A707B
:101CA8001C4B93F88730013B032B00F2F181DFE8EE
:101CB80013F03A013F0191019D01174B01229A70DF
:101CC800164B93ED1E5B93ED0B7AB7EEC77AB4EE25
:101CD800C75BF1EE10FA02DC0E4B0022DA650F4BFF
:101CE80093ED0E7AF2EE047A27EE277AB7EEC77AEA
:101CF800084B93ED176AB8EE466BB4EEC67BF1EE6F
:101D080010FA0DD5012283F88620034B02229A701F
:101D1800C6E700BF58030024B0050024300500249E
:101D2800AF4B93ED0A6AB7EEC66AB4EEC65BF1EE46
:101D380010FA02D4AB4B00229A65AA4B93ED166AAF
:101D4800B8EE466BB4EEC67BF1EE10FAA8D51A468B
:101D5800002353651365D3645364052482F88640D1
:101D6800A14A93709CE7A04B04229A7098E79E4B77
:101D780003229A709A4B93ED1E5B93ED097AB7EEA6
:101D8800C77AB4EEC75BF1EE10FA02D4954B002285
:101D98001A64934B93ED0E7AF2EE047A27EE277AC3
:101DA800B7EEC77A8F4B93ED106AB8EE466BB4EE78
:101DB800C67BF1EE10FA06D5032283F886208A4BFB
:101DC80004229A706CE7864B93ED086AB7EEC66AF0
:101DD800B4EEC65BF1EE10FA02DC824B00229A6484
:101DE800804B93ED126AB8EE466BB4EEC67BF1EE0B
:101DF80010FA7FF555AF1A46002353651365D3646F
:101E08005364052482F88640774A937048E7764BF6
:101E180000229A70724B93ED1E6B93ED0B7AB7EE1E
:101E2800C77AB4EEC76BF1EE10FA01DC6D4B5A6558
:101E38006B4B93ED0E7AF2EE047A27EE277AB7EE23
:101E4800C77A684B93ED155AB8EE455BB4EEC57B7F
:101E5800F1EE10FA06D5012283F88620624B0222A1
:101E68009A701DE75E4B93ED095AB7EEC55AB4EE6A
:101E7800C56BF1EE10FA02D45A4B0022DA64594BC2
:101E880093ED135AB8EE455BB4EEC57BF1EE10FA4C
:101E980006D5032283F88620534B04229A70FFE666
:101EA8004F4B93ED0A5AB7EEC55AB4EEC56BF1EE37
:101EB80010FA02DC4B4B00221A654A4B93ED145A78
:101EC800B8EE455BB4EEC57BF1EE10FA09D50022F9
:101ED800DA659A65022283F88620434B01229A70BC
:101EE800DEE63F4B93ED085AB7EEC55AB4EEC56B24
:101EF800F1EE10FA02D43B4B00225A64394B93EDB1
:101F0800116AB8EE466BB4EEC67BF1EE10FA7FF5B7
:101F1800C7AE00229A641A64042283F88620324BE2
:101F280003229A70BCE6304B0222DA70FFF7ADBA92
:101F38002D4B0122DA702A4B93ED1C5B93ED077A47
:101F4800B7EEC77AB4EEC75BF1EE10FA02DC254BA8
:101F58000022DA67224B93ED0E7AF2EE047A27EE2E
:101F6800277AB7EEC77A1F4B93ED1F6AB8EE466B18
:101F7800B4EEC67BF1EE10FA07D5012283F887206C
:101F8800194B0222DA70FFF780BA154B93ED066AF7
:101F9800B7EEC66AB4EEC65BF1EE10FA02D4114B86
:101FA80000229A670F4B93ED1E6AB8EE466BB4EEAB
:101FB800C67BF1EE10FA7FF568AA1A46002353672C
:101FC8001367D3665366052482F88740064AD370A0
:101FD800FFF75BBA044B0422DA70FFF756BA00BF6A
:101FE8003005002458030024B0050024A94B03221F
:101FF800DA70A94B93ED1C5B93ED057AB7EEC77ABF
:10200800B4EEC75BF1EE10FA02D4A44B00221A66B4
:10201800A14B93ED0E7AF2EE047A27EE277AB7EE0B
:10202800C77A9E4B93ED186AB8EE466BB4EEC67B42
:10203800F1EE10FA07D5032283F88720954B042286
:10204800DA70FFF722BA944B93ED046AB7EEC66ACA
:10205800B4EEC65BF1EE10FA02DC904B00229A66F1
:102068008E4B93ED1A6AB8EE466BB4EEC67BF1EE72
:1020780010FA7FF50AAA1A46002353671367D36636
:102088005366052482F88740824AD370FFF7FDB96A
:10209800804B0022DA70804B93ED1C6B93ED077A2E
:1020A800B7EEC77AB4EEC76BF1EE10FA01DC7B4BE2
:1020B8005A67794B93ED0E7AF2EE047A27EE277A77
:1020C800B7EEC77A754B93ED1D5AB8EE455BB4EE83
:1020D800C57BF1EE10FA07D5012283F887206D4BF6
:1020E8000222DA70FFF7D1B96B4B93ED055AB7EEC0
:1020F800C55AB4EEC56BF1EE10FA02D4674B002254
:10210800DA66664B93ED1B5AB8EE455BB4EEC57BB9
:10211800F1EE10FA07D5032283F887205D4B0422DD
:10212800DA70FFF7B2B95C4B93ED065AB7EEC55AB1
:10213800B4EEC56BF1EE10FA02DC584B00221A67B8
:10214800564B93ED1C5AB8EE455BB4EEC57BF1EEE9
:1021580010FA0AD50022DA679A67022283F88720E4
:102168004C4B0122DA70FFF790B94B4B93ED045AB0
:10217800B7EEC55AB4EEC56BF1EE10FA02D4474B70
:1021880000225A66454B93ED196AB8EE466BB4EED9
:10219800C67BF1EE10FA7FF578A900229A661A66D6
:1021A800042283F887203B4B0322DA70FFF76DB9CE
:1021B8000023FFF772B9394B00245C61DC61FFF73B
:1021C80078B90023FFF77BB90023FFF789B900230B
:1021D800FFF795B90023FFF79CB90023FFF7A3B9D0
:1021E8000023FFF7B1B90023FFF7BDB90023FFF7BC
:1021F800C4B90023FFF7CBB90023FFF7D9B90023EF
:10220800FFF7E5B90023FFF7ECB90023FFF7F3B9AF
:102218000023FFF7FFB9214B00225A65B4EEC67BB5
:10222800F1EE10FA0DD51D4B9B6D01331B4A9365DA
:10223800B4EEC57BF1EE10FA3FF705AA0023FFF7CD
:1022480005BA0023F2E70023FFF711BA0023FFF7CE
:102258001DBA0023FFF724BA0023FFF72BBA002387
:10226800FFF737BA0D4B00225A67B4EEC67BF1EE82
:1022780010FA0DD5094B9B6F0133084A9367B4EEEA
:10228800C57BF1EE10FA3FF73DAA0022FFF73DBAF1
:102298000023F2E7B0050024300500245803002489
:1022A800254B03F59272DA6003F59472C3F8842023
:1022B80003F58C729A62C3F8D0309B60012283F8D0
:1022C8002421002183F8FC1083F80C111B49596163
:1022D80003F59871C3F8281115A1D1E90001C3E9E4
:1022E8004601174B5A701A70164B174ADA62174A8A
:1022F8009A62174A1A62174A5A62174A1A60174AA4
:102308005A60174A9A601749D960174919631749DB
:1023180059635A64164A9A61164ADA61164A1A616A
:10232800164A5A61164A9A63DA631A64704700BFFC
:102338002D431CEBE2361A3FE8030024D05A01086B
:102348002805002430050024000090410000704159
:102358000000204100000841000096420000AA4207
:102368000000C8420000F0420000C8430000E143FA
:1023780000008842000090420000484200004042AD
:10238800000016430000000008B507EE900AF8EEBA
:10239800E77ADFED196A67EEA66A9FED187A77EE9D
:1023A800677A86EEA77AB7EEC77AB7EEC00A87EEE5
:1023B800000B09F0D1FB9FED0A6B80EE067B9FEDC9
:1023C8000A6B37EE067BB7EE006B86EE070B9FEDC8
:1023D800087B30EE470BB7EEC00B08BDAFF30080AB
:1023E800000000000040AF4045A725E6E1796B3FBB
:1023F800666666666612714000401C4600008047AB
:102408000F4AD2ED007A70EE277A9FED0E7A67EECA
:10241800877A0D4B93ED007ADFED0C6A27EE267A6A
:1024280077EE877A0A49C1ED217ADFED0A6A87EEED
:10243800A67A81ED237A82ED000AC3ED007A70470F
:10244800C00500248B4B863CBC050024489B773F85
:1024580000000024F46CD63D10B52DED048BB0EED1
:10246800409A09F085FDF0EE408A204C94ED008AF0
:1024780030EE488ADFED1E9A28EE298AB0EE490A26
:1024880009F0C6FA1B4BD3ED007A70EE677A67EE57
:10249800A97AC4ED008A83ED000A28EE008A28EEA6
:1024A800A70A38EE400ADFED147AB4EEE70AF1EE37
:1024B80010FA0ADB114BC3ED207A104B93ED200A7A
:1024C800FFF79EFFBDEC048B10BDDFED0D7AB4EE77
:1024D800E70AF1EE10FA03D9084B83ED200AECE77E
:1024E800064B084AC3F88020E7E700BFC40500246C
:1024F800FFFF7944B80500245A141D440000002445
:102508005A141DC45A141DC42DE9F8432DED088B27
:10251800534B1B781BB1BDEC088BBDE8F883002238
:102528004FF400414F4805F0FDFADFED4FBA9FED3B
:102538004FBA9FED479B9FED488B9FED4DAADFED6E
:102548004DAADFF83C814C4F4C4E13E03368002411
:10255800DC639C635C630821304608F0FFFD0421BE
:10256800304609F003F92146304609F0FFF83B7878
:10257800092B28D8B8F80230012BCCD13B7801338D
:102588003B700821304608F025FD0421304609F04B
:1025980063F80021304609F05FF833680022DA63F7
:1025A8009A635A63042440F2EE254FF02E093368EB
:1025B800DD639D635D63484601F012FD631E13F001
:1025C800FF04F4D1C2E72E4C0026A6700125E57061
:1025D8002C4B1B685B6A236194ED0F7A3BEEC77A3C
:1025E80027EE0B7A37EE077AB7EEC77AB0EE480BCC
:1025F80017EE090BB7EEC00B84ED100AF0EE4A0A8D
:1026080009F04EFD84ED100AC0EE0A7A67EEAA7A48
:10261800FCEEE77A17EE903A9BB2A3612A464FF494
:102628000041104805F07EFA174C3146204608F064
:10263800FDFE0421204608F0F9FE204607F0CDFEF5
:10264800204601F059FB064B1D707AE7AFF3008076
:10265800182D4454FB21094000000040ED29993F02
:10266800DA050024000C02580000C8420AD7233CAF
:10267800DA0FC94000000045C8050024D40700242B
:10268800000000246C080024B808002408B5044899
:1026980004F07CFE00B908BD01F0FCF8FBE700BFC0
:1026A8003407002400B58BB00291002103910190FA
:1026B80005910691079108910991049301A907488A
:1026C80004F07EFE30B1054B1B6800221A65044BEE
:1026D80001221A610BB05DF804FB00BF3407002427
:1026E80000A800400000000000B583B02A4B93ED1D
:1026F800007BB2EE046B27EE067BBCEEC77B17EEC1
:10270800103A98B2254BD3ED237A9FED257A77EED0
:10271800877AB2EE047A67EE877AFCEEE77A17EEEC
:10272800903A9BB21F4A92ED066B9FED195B36EE0D
:10273800056BBCEEC66B16EE101A89B292ED087BDB
:1027480037EE057BBCEEC77B17EE102A92B28DF8E8
:102758000000000A8DF801008DF802301B0A8DF880
:1027680003308DF80410090A8DF805108DF806203D
:10277800120A8DF8072008236A46002140F201401A
:10278800FFF790FF03B05DF804FB00BFAFF30080D4
:102798000000000000008040B00100240000002478
:1027A80000204B45D802002410B582B0264B93ED8B
:1027B800146B9FED215B36EE056BFCEEC67B17EEC6
:1027C800900A93ED167B37EE057BFCEEC77B17EE80
:1027D800901A93ED0A6B9FED1A5B36EE056BBCEE13
:1027E800C66B16EE102A92B293ED0C7B37EE057B82
:1027F800BCEEC77B17EE103A9BB2144C64698DF897
:102808000020120A8DF801208DF802301B0A8DF87D
:1028180003308DF804008DF805108DF80640C4F3D8
:1028280007248DF8074008236A46002140F2024039
:10283800FFF738FF02B010BD000000803FBE4040E7
:102848000000000000008040D8020024000000249E
:1028580000B583B0002101911E4890ED137ADFED99
:102868001E6A27EE267ABCEEC77A17EE103A9AB29D
:10287800D0ED077A67EEA67AFCEEE77A17EE903A83
:102888009BB290ED087ADFED156A37EE267AFCEEFA
:10289800C77A17EE90CAD0ED097A77EEA67AFCEEE1
:1028A800E77A17EE900A8DF80020120A8DF80120B9
:1028B8008DF802301B0A8DF803308DF804C08DF8AE
:1028C800050008236A4640F20340FFF7EBFE03B019
:1028D8005DF804FB000000240000C84200004842E4
:1028E80000B59DB04C22002109A809F05DF820220E
:1028F800002101A809F058F8022005F029F9002361
:102908000093274BDA6A22F00102DA62DB6A03F0ED
:1029180001030093234A936923F4404343F480431B
:102928009361936903F440430093009B936913F404
:10293800005FFBD01C4A936A23F0030393620223CF
:10294800099301220C9240220D92129300221392B5
:10295800042014900C21159116931790189319912F
:102968001A924FF480531B9309A805F019F990B9EE
:102978003F230193032302930023039304930593B6
:10298800069307930893022101A805F05BFD20B97F
:102998001DB05DF804FB72B6FEE772B6FEE700BF35
:1029A80000040058004802580044025800B5B1B06D
:1029B800982200210AA808F0F7FF4FF4002200230C
:1029C800CDE90023042302930922039204930223EE
:1029D80005930693C0230793202308934FF440637D
:1029E8000993684605F0BEFF10B931B05DF804FBE5
:1029F80072B6FEE780B5A4B001F0B2FAFFF770FF37
:102A0800FFF7D4FF0024159416941794189419947A
:102A1800BB4DD5F8E03043F00103C5F8E030D5F8F8
:102A2800E03003F001030193019BD5F8E03043F057
:102A38000403C5F8E030D5F8E03003F0040302934E
:102A4800029BD5F8E03043F02003C5F8E030D5F814
:102A5800E03003F020030393039BD5F8E03043F004
:102A68001003C5F8E030D5F8E03003F01003049304
:102A7800049BD5F8E03043F00203C5F8E030D5F800
:102A8800E03003F002030593059BD5F8E03043F0EE
:102A98000803C5F8E030D5F8E03003F008030693E2
:102AA800069B984E22464FF4E051304605F03AF81E
:102AB80001224FF40041304605F034F8802715977D
:102AC8004FF488131693179415A98F4804F050FEF5
:102AD8004FF4E05315934FF00108CDF85880179440
:102AE800189415A9304604F043FE4FF4004315939B
:102AF800CDF8588017940323189315A9304604F08D
:102B080037FE182315931694CDF85C8015A9304626
:102B180004F02EFE22460221172002F037FE17206D
:102B280002F068FED5F8D83043EA0803C5F8D83073
:102B3800D5F8D83003EA08030093009B2246052104
:102B48000B2002F023FE0B2002F054FE0A940B9493
:102B58000C940D940794089409940E940F9410946F
:102B680011941294139414942C22214615A808F059
:102B78001BFF6648664B0360132343602023836072
:102B880040F6C313C36004614461876107F0AEFD7A
:102B9800002840F0E8824FF480530A930AA95B4862
:102BA80008F05CF8002840F0E082584807F0CEFDB5
:102BB800002840F0DC82002307934FF4E0030893D9
:102BC8008023099307A9514808F00CFE002840F01B
:102BD800D08260230E9300220F92109211921292CB
:102BE80013924FF4007314930EA9484807F0AAFEF5
:102BF800002840F0C08204220EA9444807F0A2FE33
:102C0800002840F0BA8208220EA9404807F09AFE30
:102C1800002840F0B48240F2E2430F93002314935B
:102C28000C220EA9394807F08DFE002840F0A98231
:102C380000231593169317936422189219934FF44F
:102C480000521A921B931C934FF000721D921E9310
:102C58001F9315A92D4808F023FE002840F0938201
:102C68002A4801F01BF83C22002115A808F09CFE18
:102C78002848294B03604FF40023436000238360F6
:102C88000122C260042101610375437582610377E3
:102C9800C3620363436380F8383001F0A7FF00285C
:102CA80040F073821B4C204602F048FD1B4B1593E5
:102CB800092316930523179340F2FF7318930423EF
:102CC800199300231A938DF8703002221D928DF803
:102CD80078308DF879308DF87A30A0221F928022D2
:102CE80020928DF8843015A9204602F0ADF900280D
:102CF80040F04D820A4B159340F20F1312E000BFCB
:102D080000440258000C025800100258D40700244E
:102D18000000014058060024002102400800900CE1
:102D28000000B84F169315A9A54802F08DF90028A0
:102D380040F02F8200230A930B930C930D93159365
:102D480016931793189319930E930F931093119347
:102D58000793089309939B489B4A02606322426049
:102D680083604FF0FF32C2600361836107F0BEFCED
:102D7800002840F010824FF480530A930AA9914822
:102D880007F06CFF002840F008828E4807F00EFD1F
:102D9800002840F00482042315935023169300233F
:102DA800179318930A23199315A9864808F0DAF897
:102DB800002840F0F68100220E9201230F93109212
:102DC8000A2311930EA97F4807F098FE002840F0C7
:102DD800EA8102230E930F9304220EA9794807F083
:102DE8008DFE002840F0E18100230793099307A98D
:102DF800744808F0F7FC002840F0D9810021714898
:102E080008F012FA002840F0D48104216D4808F037
:102E18000BFA002840F0CF816C486D4B03602723E4
:102E280043600023836040F6C312C26003614361BC
:102E38008023836107F05AFC002840F0BE810023FC
:102E48000E930F9310931593169317931893199342
:102E58001A931B935F48604A02604FF40022426055
:102E680083600122C2600421016103754275052255
:102E780082610377436283620322C262036343630E
:102E880080F8383001F0B2FE002840F09881002325
:102E98000E930EA94F4802F0BFFB002840F0918125
:102EA8004E4B1593062316930523179340F2FF7391
:102EB80018930423199300231A938DF86D3015A9DC
:102EC800444801F05DFA002840F07D8104231793FF
:102ED800434B15930C23169315A93E4801F050FA5D
:102EE800002840F072813F4B15931223169315A9C1
:102EF800384801F045FA002840F069813A4B1593AB
:102F0800182316930323179315A9324801F038FAAA
:102F1800002840F05E81354B15934FF4807316936B
:102F280015A92C4801F02CFA002840F05481002300
:102F3800169318931A931C930E930F9310932C487F
:102F48004FF0804202604360836040F2FF72C260CB
:102F580003618023836103231593012217920A23B7
:102F680019931B921D9315A907F050FC002840F0F7
:102F7800348100230E9310930EA91D4808F032FCEB
:102F8800002840F02C813C21194808F0E8FA002874
:102F980040F027811748184B036000238360C36003
:102FA80001220274437483740A25456182611024E6
:102FB800C4610321016245628262C46201631DE04B
:102FC80058060024B8080024000C004020080024FB
:102FD80000480140F4050024002002404000201968
:102FE8001000C01000018021000052470080F03E10
:102FF8006C0800243407002400A40040436308211F
:103008008163C36306240464042242648464C26442
:10301800046542658365C16501664366826603F09F
:103028008BFF002840F0DF80642000F0D9FF6F4C50
:103038000821204608F092F80421204608F08EF86E
:103048000021204608F08AF80821204608F08EFB67
:103058000421204608F08AFB0021204608F086FB60
:10306800FFF752FA23680025DD639D635D63604EB8
:1030780040F2FF722946304601F0D0FE5D4F40F223
:10308800FF722946384601F0C9FE4FF47A7000F005
:10309800A7FF05225849384601F016FCFEF748F804
:1030A800FFF7FEF8642000F09BFFFFF7EFFA082314
:1030B800524A29464FF48060FFF7F4FA304601F08F
:1030C80001FF0821204607F085FF0421204607F06C
:1030D80081FF2946204607F07DFF0821204608F099
:1030E800BBFA0421204608F0B7FA2946204608F022
:1030F800B3FA0C21204607F06DFF414E414CDFED3D
:10310800429A9FED429ADFED428A9FED428A08215A
:10311800304604F001FD20711021304604F0FCFC1B
:103128006071354DB0EE690A6888FFF72DF984EDB6
:10313800090AB0EE490AA888FFF726F984ED080ABB
:103148002B8907EE903AF8EE677A67EEA87AC4ED15
:10315800137AEB8807EE903AF8EE677A67EE887A8A
:10316800C4ED077AD3E772B6FEE772B6FEE772B629
:10317800FEE772B6FEE772B6FEE772B6FEE772B613
:10318800FEE772B6FEE772B6FEE772B6FEE772B603
:10319800FEE772B6FEE772B6FEE772B6FEE772B6F3
:1031A800FEE772B6FEE772B6FEE772B6FEE772B6E3
:1031B800FEE772B6FEE772B6FEE772B6FEE772B6D3
:1031C800FEE772B6FEE772B6FEE772B6FEE772B6C3
:1031D800FEE772B6FEE772B6FEE772B6FEE772B6B3
:1031E800FEE772B6FEE772B6FEE700BFD40700241A
:1031F80058060024F4050024D0050024A400002467
:10320800000C02580000002400401C4600683F479C
:103218001101073B7FD2453902683D4B9A4200D0E5
:10322800704710B53B4A1388013313803A4C94ED2C
:10323800190AFFF711F9394A94ED217AB0EEC77AE5
:10324800B7EEC77A82ED067B354B1B8807EE903ABE
:10325800F8EEE77A9FED337A67EE877A77EEA77A0A
:10326800C4ED287A304BD2E90E01C3E91601D2E940
:103278000C01C3E91801D2E90A01C3E91A0194ED66
:10328800097AB7EEC77A83ED127B94ED087AB7EE28
:10329800C77A83ED147B94ED137AB7EEC77A83ED82
:1032A8001C7B94ED077AB7EEC77A83ED1E7BFEF799
:1032B8003BF81E4B9B78022B13D0042B11D01B4BD1
:1032C800DB78042B0DD0022B0BD0184B1B79022B6B
:1032D80007D0164B5B78022B03D0144B1B78022BBC
:1032E80005D1134B0122DA71124B03221A70094BD4
:1032F8001B88B3F5FA7F00D210BD064B00221A8056
:10330800FFF7F2F9FFF750FAFFF7A2FAF4E700BF68
:1033180000480140DC05002400000024B00100241E
:10332800D00500240A02533830050024B0050024D3
:10333800E4050024DA050024802800D070470E4BED
:103348001A7882F001021A705B780133DBB2FF2B26
:103358000DD0094A5370094B1B78022BEED1064B4E
:1033680000225A66064B1B6800225A62E6E7024BA7
:1033780000225A70EFE700BF00000024DA0500249D
:103388006C08002402681F4B9A4200D0704710B5A1
:103398002DED028B0446037F012B02D0BDEC028B7E
:1033A80010BD002107F04CF807EE900AF8EE677A96
:1033B800154BC3ED0E7AF5EE407AF1EE10FAEDD02A
:1033C8000421204607F03CF807EE900A0E4CF8EE70
:1033D800677A9FED0E8A67EE887AD4ED0E6A87EEDB
:1033E800A67A84ED0F7A04F035FF07EE100AB8EEDE
:1033F800477AD4ED0E7A67EE887AC7EE276AC4ED6D
:10340800116ACBE7000C0040000000240000C8420D
:103418001E4B1B7873B91D4B01221A701C4B5B683D
:10342800BBB91C4B5B7853B901231A4A5370184A2D
:10343800536014E0184B1B68184A1A607047134B06
:1034480000221A7001225A70134B1B68134A1A6023
:1034580070475A1C092B0E4B08BF00225A6010B542
:10346800FDF7AEF9094B00221A705B7813B9094BC6
:103478005B7803B910BD054C01236370FDF7D4FDDB
:1034880000236370034A5370F4E700BFCC0500249F
:1034980010090024F0050024ACCD0008085B0108E1
:1034A8001B4B1B88A3F55A53313B9BB246F28E52F5
:1034B800934207D8164B5B88A3F55A53313B9BB20E
:1034C800934203D9134B01221A70DA71124BD3EDD0
:1034D800137A124B93ED077AF4EEC77AF1EE10FAED
:1034E80003DB0C4B01225A70DA710C4B93ED057A11
:1034F800F4EEC77AF1EE10FA03D8064B01229A705F
:10350800DA71044BD879003818BF0120704700BF22
:103518000C090024E40500240000002430050024E0
:1035280038B52DED028B0268B14B9A4202D0BDEC42
:10353800028B38BD0446092101F066FDAD4D288097
:1035480040F20F11204601F05FFD6880AA4B1B78FE
:10355800012B18D0A84B1B78022B75D0A64B1B78D3
:10356800032BE4D1A54BDB79002B40F06D814FF4A0
:1035780094720021A24808F017FA78220021A14885
:1035880008F012FAD3E72A889F4B19680A441A6090
:103598009E4B196811FA80F018609D490B88013319
:1035A8009BB20B80B3F5805FC1D39A4B120B1A8084
:1035B800000B58800023944A1360944A13600B80D0
:1035C800954B196801228A6240F6C312CA62DA6012
:1035D800924B1B68924CA2695A6200232367E366E8
:1035E800A366FFF75DFFA0718E4B1A8907EE902A3C
:1035F800F8EE677A9FED8C7A67EE877AC4ED137AD6
:10360800DB8807EE903AF8EE677A9FED887A67EEE6
:10361800877AC4ED077A58B101289BD101224FF46B
:103628000041834804F07EFA734B03221A7099E72D
:1036380000224FF400417E4804F074FA7D4806F0F9
:1036480071FE6D4B02221A706A490B88714A108804
:103658001B1A07EE103AB8EEC77ADFED776A27EE45
:10366800267AB7EEC77A664D85ED0E7B4B88528871
:103678009B1A06EE103AB8EEC66A26EE266AB7EE30
:10368800C66A85ED0C6B9FED585B35EE466B36EEE2
:10369800477B85ED0A7B614B1B685B6A604C636105
:1036A80007EE903AB8EE670ADFED647A20EE270A53
:1036B80084ED190A9FED628AF0EE480A08F0F0FCE2
:1036C80084ED190AF0EE087A20EE270A84ED1A0A2A
:1036D800F0EE480A08F0E4FC84ED1A0AB7EEC00AD6
:1036E80085ED080BFFF794FE464B93ED007BF7EE54
:1036F800C75BC4ED1D5A93ED026BB7EEC66B84ED44
:103708001E6A93ED047BB7EEC77B84ED1F7AD4ED78
:10371800186AF4EEE65AF1EE10FA44DDC4ED1D6ABB
:10372800B4EEE66AF1EE10FA48DD3D4BC3ED1E6AD1
:10373800B4EEE67AF1EE10FA4BDD394BC3ED1F6AB1
:103748003748D0ED1D7A87EEA67A9FED3E6A27EEC0
:10375800067A37EE067ABCEEC77A17EE103A99B2B7
:103768000181D0ED1E7A87EEA67A27EE067A37EE2B
:10377800067ABCEEC77A17EE103A9AB2428190EDFB
:103788001F7AC7EE267A67EE867A77EE867AFCEE9F
:10379800E77A17EE903A9BB283811F48006841632D
:1037A8008263C363DAE6F1EE667AF4EEE75AF1EE85
:1037B80010FAB5D51A4BC3ED1D7AB1E7F1EE667A6A
:1037C800B4EEE76AF1EE10FAB2D5154BC3ED1E7AE6
:1037D800AEE7F1EE667AB4EEE77AF1EE10FAAFD51D
:1037E8000F4BC3ED1F7AABE700000000000000009C
:1037F800002102400C090024DA050024E405002415
:10380800B0010024D8020024040900240809002477
:10381800DE050024E0050024D40700246C080024F9
:1038280000000024D00500241101073B7FD2453950
:10383800000C025820080024FDD8243DDC0F493B29
:10384800DA0FC94000409C4401220F4B1A724FF412
:1038580000410E4804F066F90D4B1B6800225A63BC
:103868009A63DA63196A41F2111211427FF47FAE4A
:10387800196A40F2444211427FF479AE5A6C22F43C
:1038880000425A6473E600BFE4050024000C0258A5
:10389800D407002472B6FEE782B0074BD3F8F420B1
:1038A80042F00202C3F8F420D3F8F43003F0020324
:1038B8000193019B02B070470044025870B58CB068
:1038C80000230793089309930A930B9303685B4AB1
:1038D800934204D05A4A93427ED00CB070BD04463D
:1038E800584A136801331360012B64D0564BD3F840
:1038F800E02042F00102C3F8E020D3F8E02002F013
:1039080001020292029AD3F8E02042F00402C3F8BE
:10391800E020D3F8E02002F004020392039AD3F8DF
:10392800E02042F02002C3F8E020D3F8E03003F0B2
:1039380020030493049B0A2307930326089607A9E8
:10394800424803F015FF3023079308960025099590
:1039580007A93F4803F00CFF4FF4805307930896DC
:10396800099507A93B4803F003FF3B483B4B03601D
:10397800092343608560C5604FF4806303614FF499
:10398800006343614FF4005383614FF48073C36154
:103998004FF480330362456202F0C0F9C8B92E4B78
:1039A800E3649C6300221146122001F0EFFE12200E
:1039B80001F020FF91E7244BD3F8D82042F02002F1
:1039C800C3F8D820D3F8D83003F020030193019B23
:1039D8008CE7FFF75FFFE2E71A4A136801331360C9
:1039E800012B1DD0184BD3F8E02042F00102C3F898
:1039F800E020D3F8E03003F001030693069B602330
:103A080007930323089307A9104803F0B1FE002287
:103A18001146122001F0BAFE122001F0EBFE5CE71D
:103A2800094BD3F8D82042F02002C3F8D820D3F8A5
:103A3800D83003F020030593059BD3E7002002400C
:103A480000210240180900240044025800000258CE
:103A58000008025800140258BC0600241000024056
:103A680010B5B8B0044600213391349135913691A0
:103A78003791C02202A807F097FF2268214B9A428B
:103A880001D038B010BD4FF400420023CDE9022325
:103A98004FF080531E9302A804F064FF78BB1A4BC2
:103AA800D3F8EC2042F48072C3F8EC20D3F8EC2071
:103AB80002F480720092009AD3F8E02042F00202E9
:103AC800C3F8E020D3F8E03003F002030193019B30
:103AD8004FF440533393022334930024359436949F
:103AE8000923379333A9094803F042FE22462146A9
:103AF800162001F04BFE162001F07CFEC1E7FFF70F
:103B0800C9FECCE700A40040004402580004025853
:103B180000B58BB000230593069307930893099388
:103B280003682D4A934208D02C4A934213D02C4A5A
:103B380093423BD00BB05DF804FB2A4BD3F8F0203E
:103B480042F00102C3F8F020D3F8F03003F001038B
:103B58000193019BEEE7234BD3F8E82042F00802DB
:103B6800C3F8E820D3F8E82002F008020292029A8B
:103B7800D3F8E02042F00102C3F8E020D3F8E030A7
:103B880003F001030393039B012305930223069388
:103B9800099305A9144803F0EBFD00220421322003
:103BA80001F0F4FD322001F025FEC3E70D4BD3F8F8
:103BB800F02042F48022C3F8F020D3F8F03003F468
:103BC80080230493049B00220321762001F0DEFD6C
:103BD800762001F00FFEADE700000140000C004028
:103BE80000480140004402580000025830B589B02E
:103BF8000023039304930593069307930368B3F193
:103C0800804F01D009B030BD214BD3F8E82042F0F5
:103C18000102C3F8E820D3F8E82002F0010200927C
:103C2800009AD3F8E02042F00102C3F8E020D3F86C
:103C3800E02002F001020192019AD3F8E02042F05C
:103C48000202C3F8E020D3F8E03003F00203029345
:103C5800029B4FF400430393022504950124079423
:103C680003A90C4803F084FD082303930495002559
:103C780005950695079403A9074803F079FD2A4698
:103C880021461C2001F082FD1C2001F0B3FDB9E79C
:103C980000440258000002580004025800B587B0DA
:103CA80000230193029303930493059302680F4B37
:103CB8009A4202D007B05DF804FB0D4BD3F8E02020
:103CC80042F01002C3F8E020D3F8E03003F010030C
:103CD8000093009B4FF47C5301930223029301232A
:103CE800059301A9034803F043FDE3E70000014001
:103CF800004402580010025808B50368154A934258
:103D080006D0154A93420BD0144A934217D008BDE7
:103D1800134AD2F8F03023F00103C2F8F030F6E786
:103D28000F4AD2F8E83023F00803C2F8E83001213E
:103D38000C4803F03BFE322001F06AFDE7E7084A31
:103D4800D2F8F03023F48023C2F8F030762001F066
:103D58005FFDDCE700000140000C00400048014026
:103D68000044025800000258FEE7FEE7FEE7FEE7BF
:103D7800FEE770477047704708B500F01FF908BDA7
:103D880008B5024802F0D4FB08BD00BFBC060024F9
:103D980008B5034800F048F9024800F045F908BDA5
:103DA800F40500245806002408B5024803F054FB23
:103DB80008BD00BF3407002408B5802003F0B8FE12
:103DC80008BD000008B5024806F056FB08BD00BF54
:103DD8006C08002408B5024806F04EFB08BD00BF79
:103DE800B808002408B5024806F046FB08BD00BF25
:103DF80020080024274AD2F8883043F47003C2F818
:103E08008830254B1B6803F00F03062B06D8224A7F
:103E1800136823F00F0343F0070313601F4B1A685E
:103E280042F001021A6000221A6119681C4A0A400D
:103E38001A60194B1B6813F0080F06D0164A13684E
:103E480023F00F0343F007031360144B00229A6119
:103E5800DA611A62134999621349D96213491963DD
:103E68005A639963DA6319645A64196821F48021E2
:103E780019601A660E4B1A680E4B1340B3F1005FB7
:103E880003D20D4B0122C3F808210C4B43F2D20296
:103E98001A60704700ED00E000200052004402580C
:103EA8007FEDF6EA000202020000FF018002010134
:103EB8000010005C0000FFFF00800051004000522D
:103EC800DFF834D0FFF796FF0C480D490D4A002360
:103ED80002E0D458C4500433C4188C42F9D30A4AB7
:103EE8000A4C002301E013600432A242FBD307F01E
:103EF80029FDFEF77FFD704700000824000000241C
:103F080020010024F0660108200100242009002473
:103F1800FEE700000F4B1B780BB90120704710B566
:103F280004464FF47A70B0FBF3F30B4A1068B0FB09
:103F3800F3F001F081FC0F2C00D808B1012010BD6E
:103F4800002221464FF0FF3001F020FC034B1C609B
:103F58000020F4E7B4000024AC000024B8000024DA
:103F680010B5032001F000FC04F074F90F498B69C7
:103F78000F4AC3F30323D35C03F01F03D8408B69B4
:103F880003F00F03D35C03F01F0320FA03F3094A7D
:103F98001360094B18600F20FFF7BCFF10B1012414
:103FA800204610BD0446FFF777FCF9E700440258A5
:103FB800105B0108B0000024AC000024034A11681B
:103FC800034B1B780B441360704700BF1C09002487
:103FD800B4000024014B1868704700BF1C09002476
:103FE80038B50446FFF7F6FF0546B4F1FF3F02D0A7
:103FF800044B1B781C44FFF7EDFF401BA042FAD38B
:1040080038BD00BFB4000024014B1868000C70478D
:104018000010005C7047704708B5806BFFF7FBFF26
:1040280008BD704770470000F8B5044603681D686E
:104038005E689F4A934255D002F58072934251D0F0
:104048009C4B9F6807F01F0715F0020F10D016F061
:10405800020F0DD0636D13F0100F03D1636D43F49D
:1040680000636365204600F0EEFF236802221A60B1
:1040780015F0040F02D016F0040F05D115F0080F43
:1040880040D016F0080F3DD0636D13F0100F03D128
:10409800636D43F4007363652368DA6812F4406F54
:1040A8002AD1854A934200F00B81DA6812F4005F46
:1040B80022D11A6812F0080F1ED09A6812F0040F65
:1040C80012D15A6822F00C025A60636D23F480738F
:1040D8006365636D13F4805F0ED1636D43F0010374
:1040E800636509E0754BACE7636D43F010036365E6
:1040F800A36D43F00103A3652046FFF78BFF2368F8
:104108000C221A6015F0200F02D016F0200F05D1EE
:1041180015F0400F48D016F0400F45D0636D13F0EE
:10412800100F03D1636D43F4005363652368DA6CA1
:1041380002F4C072D86860498B4200F0AE80D9683A
:1041480062BB11F0007F05D001F4005200F440601A
:10415800024323D11A6812F0400F1FD011F4001F38
:104168001CD19A6812F0080F10D15A6822F0600228
:104178005A60636D23F480536365636D13F4807F25
:104188000CD1636D43F00103636507E0636D43F091
:1041980010036365A36D43F00103A3652046FFF791
:1041A800BFF9236860221A6015F0800F02D016F05C
:1041B800800F37D115F4807F02D016F4807F3CD170
:1041C80015F4007F02D016F4007F42D115F0100FCD
:1041D80021D016F0100F1ED0236B73B1002F46D0DC
:1041E8002368334A934240D002F5807293423CD010
:1041F800304B9B6813F4404F0AD0636D43F48063DF
:104208006365A36D43F00203A3652046FFF70AFF29
:10421800236810221A6015F4806F02D016F4806F9C
:104228002BD1F8BD636D43F4803363652046FFF7F7
:10423800F8FE236880221A60BCE7636D43F40033FC
:104248006365204600F0FDFE23684FF480721A6013
:10425800B6E7636D43F480236365204600F0F2FE01
:1042680023684FF400721A60B0E7144BC1E7236863
:10427800DB6813F0030FCBD0BFE7636D43F48043D3
:104288006365A36D43F00803A36523684FF4806258
:104298001A60204600F0D4FEC3E7B91F01297FF653
:1042A8004EAF002F3FF44BAF0149C96848E700BF44
:1042B800002002400063025800210240002302400F
:1042C800092F06D840F22122FA4012F0010F7FF49C
:1042D800ECAE014AD268E9E60020024008B5034680
:1042E800806B426D12F0500F30D1436D43F4007370
:1042F800436503681A6812F0080F14D0DA6812F4DC
:10430800406F20D1DB6813F4005F1CD1436D23F4A8
:1043180080734365436D13F4805F14D1436D43F09C
:10432800010343650FE0DB6813F0030F0BD1436D06
:1043380023F480734365436D13F4805F03D1436DA9
:1043480043F001034365FFF765FE08BD426D12F0B7
:10435800100F04D1C26CD26C18469047F5E7FFF7EE
:1043680061FEF2E708B5806B436D43F04003436597
:10437800836D43F004038365FFF754FE08BD000016
:1043880070B582B00022019290F85020012A00F006
:1043980010820346012280F850200068826812F0DB
:1043A800040F09D05A6D42F020025A6501200022FC
:1043B80083F8502002B070BD0A68002A09DBC2F3F6
:1043C8001304002C48D1920E01249440C269224360
:1043D800C26148684FEA901E0EF00C0E1A6802F18E
:1043E800300C5EF80C4000F01F000A68C2F38462CB
:1043F80082401F2505FA00F024EA000002434EF827
:104408000C201C68A268A06800F0080002F00402F2
:1044180002432AD01868826812F0010F40F0BF8169
:104428000C68D0F8C050CA6802F0180CB74A22FAD3
:104438000CF22240C4F3130425EA04042243C0F812
:10444800C020C868B24A904200F0B0800A68002ACA
:10445800C0F22E810020AAE792FAA2F2B2FA82F202
:1044680002F01F0201249440B0E70D684FEAD55CC2
:104478000CF0040C14345CF80400C5F304554FF038
:10448800070E0EFA05FE20EA0E008E6806FA05F5FC
:1044980028434CF804009F48006800F07040B0F1D1
:1044A800805F0CD01868C46814F0100F41D1C4683C
:1044B800C4F382046400486900FA04F407E0186849
:1044C800C468C4F382046400486900FA04F40D69FE
:1044D800042D36D0186800F1600C5CF82560086877
:1044E80000F0F84006F0004E40EA0E0020434CF879
:1044F80025001C680D69487E012814BF16464FF038
:104508000046603454F8250020F00040304344F859
:1045180025001D680C69087E012808BF4FF4006259
:10452800286904F01F04A24020F4F04002432A61E5
:1045380070E7C468640804F00804486900FA04F4E1
:10454800C5E71868026E02F0F8420C68B2EB846F97
:104558001DD01868426E02F0F8420C68B2EB846F06
:104568001AD01868826E02F0F8420C68B2EB846FB9
:1045780017D01868C26E02F0F8420C68B2EB846F6C
:104588007FF448AFC26E22F00042C26642E7026E74
:1045980022F000420266DCE7426E22F000424266E8
:1045A800DFE7826E22F000428266E2E71C680A6852
:1045B800C2F31300B8B9900E013000F01F05092DA1
:1045C8003ED9920E013202F01F00920602F0F84224
:1045D80001258540154300EB40021E3A120542F0C2
:1045E80000722A4336E092FAA2F0002843D0B0FACB
:1045F80080F0013000F01F0009283CD992FAA2F59A
:10460800B5FA85F50135AD0605F0F84092FAA2F540
:10461800B5FA85F5013505F01F05012606FA05F5F9
:10462800054392FAA2F0B0FA80F0304400F01F007F
:1046380000EB4000A0F11E02120542F00072D0E724
:10464800800600F0F8400122AA40104305EB45021D
:1046580012050243D50D05F0040514342859C2F398
:1046680004520726964020EA06008E6806FA02F2EF
:1046780002432A51EAE692FAA2F0B0FA80F0013039
:10468800800600F0F84592FAA2F0B0FA80F0013006
:1046980000F01F060120B040284392FAA2F2B2FAB5
:1046A80082F2013202F01F0202EB42021205D0E749
:1046B8001968194881427ED000F5807081427AD00D
:1046C8001648806800F0E075154CA46814F0010FD6
:1046D8007ED1124E00E0134E134CA2420DD0134C63
:1046E800A24242D0124CA24261D110F4800F02D1F2
:1046F8000B4A91424AD0002059E610F4000F50D1DD
:10470800074A914216D0002051E600BFFFFF0F0074
:104718000000FF470010005C0020024000630258C0
:104728000060025800230240000084CB000052C7FA
:104738000000B8CFB26822F0E0722A4342F40002C7
:10474800B260264A126892092549A1FB0212920911
:10475800013252000192019A2AB3019A013A019258
:10476800019A002AF9D1002021E610F0807F1CD19F
:104778001C4A914201D0002019E6B26822F0E0728A
:104788002A4342F08072B260002010E6B26822F03C
:10479800E0722A4342F48002B260002007E600205B
:1047A80005E6002003E6002001E60020FFE50020E2
:1047B800FDE50220FEE50C48806800F0E0750B4C32
:1047C800A66804F58074A468344314F0010F82D0FD
:1047D8005A6D42F020025A650120E8E5AC00002439
:1047E800632D3E050060025800230240002002406D
:1047F80003689A6812F0010F57D170B5044699689A
:104808002C4A114209D0436D43F010034365836D70
:1048180043F001038365012070BD9968264A0A4068
:1048280042F001029A60FFF7D5FB05462368234A48
:1048380093420BD002F58072934207D0204A9268C7
:104848001A6812F0010F32D11B4E0FE01D4A916811
:10485800A2F500729342F3D111F01F0FF0D000209F
:10486800DAE723681A6812F0010F1CD19A6812F06F
:10487800010F04D19A68324042F001029A60FFF7B2
:10488800A9FB401B0228ECD923681B6813F0010F11
:10489800E7D1636D43F010036365A36D43F0010333
:1048A800A3650120B8E70020B6E700207047002084
:1048B800B2E700BF3F000080C0FFFF7F002002403A
:1048C8000063025800230240F8B504460D46164618
:1048D80000683D49884262D03C4B98425FD001F164
:1048E800C05101F586418F68816811F0040F67D1C6
:1048F80094F85020012A65D007F01F07012384F897
:104908005030092F57D840F22123FB4013F0010FF4
:1049180051D02046FFF76CFF002848D1626DA0F601
:104928000273134043F4807363652268274B9A42ED
:1049380037D0636D23F480136365636D13F4805F70
:1049480032D0A36D23F00603A365E36C204ADA6333
:10495800E36C204A1A64E36C1F4ADA6423681C2259
:104968001A60002384F850302268536843F010031B
:1049780053602268D36823F00303E16A0B43D360D2
:10498800216833462A464031E06C01F0F1FB226889
:104998009168124B0B4043F00403936011E01049F7
:1049A800A1E7002FC9D1C4E70023A365CDE7002301
:1049B80084F8503005E0002384F85030012000E0EE
:1049C8000220F8BD0220FCE700200240002102403E
:1049D800E5420008214000086D430008C0FFFF7F42
:1049E8000023024038B503689A68996812F0020FEC
:1049F80003D1044611F0010F01D1002038BD9A6897
:104A080002F00D02012A09D0436D43F010034365FB
:104A1800836D43F0010383650120EFE79968164A27
:104A28000A4042F002029A60036803221A60FFF704
:104A3800D1FA054623689B6813F0010F06D10020C0
:104A4800DCE723689B6813F0010F13D0FFF7C2FA65
:104A5800401B0228F5D923689B6813F0010FF0D09A
:104A6800636D43F010036365A36D43F00103A36511
:104A78000120C3E70020C1E7C0FFFF7F38B5044627
:104A88000368524A93420BD002F58072934207D0D2
:104A98004F4B9B6813F4403F14BF0123002306E0EB
:104AA8004C4B9B6813F4403F14BF012300239BB970
:104AB8004FF40020002104F0A7FF05466368B3F512
:104AC800101F57D042D8B3F5E01F51D026D9B3F5FF
:104AD800001F0ED145090CE003F00CFE0546636883
:104AE800B3F5003F14D0B3F5403F15D0B3F5803F80
:104AF8000ED0FFF789FA41F20303984249D8364BA2
:104B08009D422FD92268936843F48073936038BD1F
:104B18001B0CB5FBF3F5ECE78508EAE7B3F5801F56
:104B28000FD006D9B3F5A01F0BD0B3F5C01F08D01E
:104B3800DFE7B3F5002F04D023F40022B2F5802F6D
:104B4800D7D19B0C5B00B5FBF3F5D2E7B3F5201F7B
:104B580012D0B3F5301FCCD1FFF756FA41F2030358
:104B680098420BD82268936823F480739360CEE749
:104B78000509BEE78509BCE7C509BAE7174B9D4299
:104B88000AD92268936823F4407343F480739360CE
:104B9800BDE7134B9D4205D82268936823F4407300
:104BA8009360B4E70F4B9D42EBD90F4B9D4207D85A
:104BB8002268936823F4407343F400739360A6E774
:104BC8002268936843F440739360A0E70020024092
:104BD8000063025800230240002D3101FF21BCBEB2
:104BE80021BCBE0041787D0181F0FA0270B582B027
:104BF80000230193002800F0F8800446436D002B41
:104C080042D023689A6812F0005F03D09968784A06
:104C18000A409A6023689A6812F0805F16D19968F2
:104C2800744A0A4042F080529A60734B1B689B0991
:104C3800724AA2FB03239B0901330193019B2BB109
:104C4800019B013B0193019B002BF9D121688B68E3
:104C580013F0805F1FD1636D43F010036365A36D8C
:104C680043F00103A36501258B68626D02F0100211
:104C780003F00403134310D0636D43F0100363651E
:104C88000125284602B070BDFEF718FE0023A36573
:104C980084F85030B5E70025E6E7636D23F48173A7
:104CA80043F0020363658B6813F0010F12D1544B74
:104CB800994265D003F58073994261D0514B9B6846
:104CC80013F0010F06D1504A936823F47C136168EE
:104CD8000B439360FFF798F941F20303984202D916
:104CE800A368102B57D0236BA2681343627D43EA55
:104CF8004233227F43EA0243227F012A55D0626A67
:104D080022B102F47872A16A0A4313432168C86881
:104D18003E4A02401343CB6021688B688A6802F0E0
:104D2800080203F0040313431BD1C868227D384BE3
:104D3800034043EA8233E26A1343CB6094F8383085
:104D4800012B37D02268136923F00103136122680D
:104D5800136923F07043616B0B4313612046FFF71F
:104D68008DFEE368012B37D02268136B23F00F0305
:104D78001363636D23F0030343F00103636580E766
:104D88001F4B9A6803F580739B68134313F0010F58
:104D9800A0D1204A98E7627D237F1B0443EA42336F
:104DA800226B134343F01C03A6E7226A013A43EA45
:104DB8004243A4E721680869E36B5A1E236C666CBA
:104DC800334343EA0243A26C1343134A024013439A
:104DD80043F001030B61BAE721680A6BA369013B41
:104DE80022F00F0213430B63C3E7012549E700BF15
:104DF800C0FFFF5FC0FFFF6FAC000024632D3E05BE
:104E080000200240006002580063025803C0F0FF0F
:104E1800FCBFFFFF002302401EF800FC70B582B003
:104E28000023019390F85030012B42D004460D46E0
:104E38001646012380F85030FFF7D4FD00282FD103
:104E4800626D1D4B134043F002036365226891684D
:104E58001A4B0B4006F08046334305F480352B434C
:104E680043F000439360226815499368002B06DBE2
:104E7800636D23F0030343F00103636514E0019BB2
:104E880001330193019B8B42EFD3636D23F012032F
:104E980043F010036365002384F85030012006E0D6
:104EA800636D43F010036365002384F8503002B04B
:104EB80070BD0220FBE700BFFDEEFFFFC0FFFE3F15
:104EC80000F8C32538B5044603684A4A934264D0BB
:104ED80002F58072934260D002F1C05202F584421A
:104EE80095689A6812F0080F76D1DA68DB6C13F4CB
:104EF800C07F01D1002A52DA94F85030012B6DD0CE
:104F0800012384F850302046FFF772FC00285FD157
:104F1800636D13F4807F48D0A36D23F00803A36565
:104F280005F01F05626D344B134043F480536365ED
:104F38002368324A93423BD0B5FA85F25209616D33
:104F480021F48011616560211960002384F85030D4
:104F58002368D96811F4001F03D0596841F48061AF
:104F680059602369082B28D021684B6823F0400337
:104F78004B6021684B6843F020034B6023681F494E
:104F88008B422DD0DA6812F0007F26D199681C4A2E
:104F98000A4042F008029A601FE01A4AA0E7636DCF
:104FA80043F020036365012017E00023A365B7E7FA
:104FB8000DB10022C7E70122C1E721684B6823F041
:104FC80020034B6021684B6843F040034B60D5E7F2
:104FD800002384F8503000E0022038BD0220FCE7AE
:104FE800063D012DCED9002ACCD1636D43F4801340
:104FF8006365F2E700200240FECFFFFF0021024078
:10500800C0FFFF7F0023024040F2152399420FD0D2
:1050180040F21B33994207D040F20F1399420BD04C
:105028000368D3F8800070470368D3F88C00704792
:105038000368D3F8880070470368D3F88400704782
:105048007047704770477047F0B583B00346002239
:105058000192C06893F85020012A00F0C88201220A
:1050680083F85020A8B10A6A012A12D0186E0028C5
:1050780040F0A8801A660022DA658D6A002D00F0DB
:105088009E800A6A013A05F07C052A43CD6A1543D9
:1050980099E04A68092A74D01868826812F0080FE3
:1050A8001FD10A68002A0ADBC2F31304002C40F05F
:1050B800A980920E01249440C2692243C26191F8EA
:1050C8002520002A40F0A7801C68E06891F8265047
:1050D80091F82420120542EA455220F44010024378
:1050E800E2601C68A268A06800F0080002F00402F0
:1050F800024340F05581886A18B1C86A002840F018
:10510800948091F825000128E0680CBF40F00070F9
:1051180020F00070E060002091F83040012C00F091
:1051280093801D682C6924F002042C610D684FEAF5
:10513800D55E0EF0040E1C6804F1140C5EF80C40E9
:10514800C5F304550726AE4024EA06048E6806FA1D
:1051580005F52C434EF80C40B44C246804F0704418
:10516800B4F1805F7ED01C68E56815F0100F40F040
:10517800A380E568C5F382056D004C6904FA05F55E
:1051880078E0886AB0B10A68520C02F4785200F0EC
:105198007C00CC6A204302431C68E06C20F07B4012
:1051A80020F46F0020F43F4020F0FF001043E0643B
:1051B800DA6571E70A68520C02F47852ECE70A6A79
:1051C800551E00E000250868C0F384604A6802F0B4
:1051D8001F0200FA02F21C6E013C1C66D86D0243E5
:1051E8002A43DA65002C7FF457AF1C68E06C20F086
:1051F8007B4020F46F0020F43F4020F0FF00024382
:10520800E26449E792FAA2F2B2FA82F202F01F02CD
:105218000124944050E71868C26891F8264022F4A7
:10522800401242EA4452C2605BE791F82500012827
:1052380005D0E06820F00070E06000206CE75C6D4D
:1052480044F020045C6567E71E6837694C6B651E8F
:10525800774C3C408F6B3C4344EA054444F00204DD
:10526800346163E71C68E568C5F382056D004C6925
:1052780004FA05F50E69042E26D01C6804F1600CAA
:105288005CF826700C6804F0F84407F0004E44EA15
:105298000E042C434CF826401D680E690C7F012C27
:1052A80008BF4FF00042603555F8264024F000440E
:1052B800224345F8262074E0E5686D0805F00805E6
:1052C8004C6904FA05F5D5E71E68326E356EC5F3EC
:1052D80084650A68C2F31304002C35D1C2F38464D0
:1052E800A54236D01E68726E756EC5F384650A686D
:1052F800C2F31304002C34D1C2F38464A54235D020
:105308001A6802F16006946E956EC5F384650A68A2
:10531800C2F3130494BBC2F38464A54233D01E685D
:10532800F26EF56EC5F384650A68C2F3130494BB84
:10533800C2F38464A54234D1F46E04F0004402F050
:10534800F8422243F2662CE092FAA2F4B4FA84F40A
:10535800C6E7346E04F0004402F0F8422243326695
:10536800C0E792FAA2F4B4FA84F4C7E7746E04F0C2
:10537800004402F0F84222437266C1E792FAA2F4AE
:10538800B4FA84F4C9E7F46804F0004402F0F8427F
:105398002243F260C3E792FAA2F4B4FA84F4C9E7AC
:1053A80000201C68A26812F0010F18D10D68D4F80B
:1053B800C060CA6802F0180C1E4A22FA0CF22A4091
:1053C800C5F3130526EA05052A43C4F8C020CC68AE
:1053D800194A944208D00A68002AC0F2988000222C
:1053E80083F8502003B0F0BD1D680A68C2F31304A7
:1053F80024BB940E013404F01F06092E4FD9920ED7
:10540800013202F01F04920602F0F8424FF0010C3C
:105418000CFA04FC42EA0C0C04EB44021E3A120596
:1054280042F0007242EA0C0243E000BF0010005C48
:105438001DFE00FCFFFF0F000000FF4792FAA2F4D8
:10544800002C47D0B4FA84F4013404F01F04092C6A
:1054580040D992FAA2FCBCFA8CFC0CF1010C4FEA80
:105468008C6C0CF0F84492FAA2F6B6FA86F601367D
:1054780006F01F064FF0010C0CFA06FC4CEA040C6F
:1054880092FAA2F4B4FA84F4013404F01F0404EB91
:105498004404A4F11E02120542F00072C2E7A406F9
:1054A80004F0F8440122B240144306EB4602120508
:1054B8002243D60D06F0040614357459C2F304527B
:1054C8000727974024EA07048F6807FA02F2224365
:1054D800725180E792FAA2F4B4FA84F40134A40673
:1054E80004F0F84692FAA2F4B4FA84F4013404F011
:1054F8001F070124BC40344392FAA2F2B2FA82F2A6
:10550800013202F01F0202EB42021205D0E71968CD
:10551800384CA14226D004F58074A14222D0364CE2
:10552800A46814F0010F26D1344DAC6804F0E0777C
:10553800334EB24227D0334EB24248D0324EB242F6
:105548007FF44DAF14F4800F7FF449AF2A4A91429B
:105558007FF445AFAA6822F0E0723A4342F4800231
:10556800AA603CE7234CA56804F58074A4682C4322
:1055780014F0010F05D05A6D42F020025A6501203F
:105588002DE7224DD1E714F4000F7FF428AF1A4A13
:1055980091427FF424AFAA6822F0E0723A4342F4C1
:1055A8000002AA601A4A126892091A49A1FB02125B
:1055B8009209013252000192019A002A3FF40FAF7A
:1055C800019A013A0192019A002AF9D107E714F0E9
:1055D800807F7FF404AF084A91427FF400AFAA6845
:1055E80022F0E0723A4342F08072AA60F7E60220A5
:1055F800F8E600BF0020024000600258006302582D
:10560800000084CB000052C70000B8CF002302403E
:10561800AC000024632D3E0590F85020012A6BD081
:1056280010B49BB00346012280F850200022169245
:10563800179200683C4A904260D05A6D42F02002AE
:105648005A65002283F85020012068E00A6852B3A6
:105658003648826822F440424C68224382601A68C5
:10566800A0F54070824213D000F5807082420FD0BE
:105678002F4A926812F0010F3AD12C4884680A68C0
:1056880089680A432B4921400A438260002043E08D
:10569800254A906802F580729268024312F0010F61
:1056A800EBD0002038E021498A6822F440428A6021
:1056B8001A68A1F540718A420FD001F580718A42BB
:1056C8000BD01B4A926812F0010F13D11749886852
:1056D800184A02408A6000201EE0134A916802F5C9
:1056E800807292680A4312F0010FEFD0002013E095
:1056F800002011E000200FE0022070470E4A906859
:10570800A2F580729268024312F0040F9ED05A6D7F
:1057180042F020025A650120002283F850201BB075
:105728005DF8044B704700BF002002400023024090
:1057380000600258E0F0FFFF0021024003689A6809
:10574800996801F0080102F004020A4307D1D968F8
:10575800044A0A4042F00042DA6000207047012003
:10576800704700BFFFFFDF7F064AD368000200F4DE
:10577800E06023F4E0631B041B0C1843024B034353
:10578800D360704700ED00E00000FA0500B5164B45
:10579800DB68C3F30223C3F1070CBCF1040F28BF75
:1057A8004FF0040C03F1040EBEF1060F8CBF033B4F
:1057B80000234FF0FF3E0EFA0CFC21EA0C01994041
:1057C8000EFA03F322EA03021143002805DB09015C
:1057D800C9B2064B19545DF804FB00F00F0009012B
:1057E800C9B2034B1954F6E700ED00E000E400E00D
:1057F80014ED00E0002808DB420900F01F00012337
:1058080003FA00F0014B43F82200704700E100E082
:1058180000280DDB430900F01F00012202FA00F006
:105828002033044A42F82300BFF34F8FBFF36F8F32
:10583800704700BF00E100E00138B0F1807F0BD273
:105848004FF0E0235861054AF02182F82310002028
:10585800986107221A6170470120704700ED00E047
:10586800F0B4866D0568914C914FBD4218BFA542B2
:105878000CBF012400241837BD4208BF44F00104BE
:105888001837BD4208BF44F001041837BD4208BFAD
:1058980044F001041837BD4208BF44F0010418372A
:1058A800BD4208BF44F001041837BD4208BF44F0A8
:1058B800010407F55677BD4208BF44F001041837C4
:1058C800BD4208BF44F001041837BD4208BF44F088
:1058D80001041837BD4208BF44F001041837BD421F
:1058E80008BF44F001041837BD4208BF44F0010462
:1058F8001837BD4208BF44F001041837BD4208BF3D
:1059080044F001046B4FBD4208BF44F00104143752
:10591800BD4208BF44F001041437BD4208BF44F03B
:1059280001041437BD4208BF44F001041437BD42D6
:1059380008BF44F001041437BD4208BF44F0010415
:105948001437BD4208BF44F0010414B95A4CA542AB
:1059580007D1446E856E6560C46E14B1046F456FDF
:1059680065600568514C524FBD4218BFA5420CBF37
:10597800012400241837BD4208BF44F00104183739
:10598800BD4208BF44F001041837BD4208BF44F0C7
:1059980001041837BD4208BF44F001041837BD425E
:1059A80008BF44F001041837BD4208BF44F00104A1
:1059B80007F55677BD4208BF44F001041837BD42C9
:1059C80008BF44F001041837BD4208BF44F0010481
:1059D8001837BD4208BF44F001041837BD4208BF5C
:1059E80044F001041837BD4208BF44F001041837D9
:1059F800BD4208BF44F0010414B9304CA54215D18A
:105A0800C46D04F01F053F24AC40B46005682C68E1
:105A180024F480242C60046863608368402B3AD0A7
:105A2800036899600368DA60F0BC7047214C244F22
:105A3800BD4218BFA5420CBF012400241437BD4243
:105A480008BF44F001041437BD4208BF44F0010404
:105A58001437BD4208BF44F001041437BD4208BFE3
:105A680044F001041437BD4208BF44F0010414B9DE
:105A7800114CA542D8D1C46D04F01F050124AC40D7
:105A88007460046863608368402B09D00368996078
:105A98000368DA60C8E703689A600368D960C3E7F7
:105AA80003689A600368D960BEE700BF100002402F
:105AB800280002400854025894540258B80402407E
:105AC8001C5402580268344B34498A4218BF9A421F
