:020000040800F2
:100000000000082415350008CD330008CF33000860
:10001000D1330008D3330008D533000800000000B6
:10002000000000000000000000000000D7330008BE
:10003000D933000800000000DB330008DD3300087E
:100040006535000865350008653500086535000828
:100050006535000865350008653500086535000818
:10006000653500086535000865350008E53300088A
:1000700065350008653500086535000865350008F8
:100080006535000865350008F5330008653500085A
:100090006535000865350008653500080D34000831
:1000A00065350008653500086535000865350008C8
:1000B0001934000865350008653500086535000805
:1000C00065350008653500086535000865350008A8
:1000D0006535000865350008653500086535000898
:1000E000653500086535000800000000653500082A
:1000F0006535000865350008653500086535000878
:1001000065350008653500082934000865350008A4
:100110006535000865350008653500086535000857
:100120006535000865350008653500086535000847
:100130006535000865350008653500086535000837
:1001400000000000000000000000000000000000AF
:100150006535000865350008653500086535000817
:100160006535000865350008653500086535000807
:100170006535000865350008653500080000000099
:1001800065350008653500086535000865350008E7
:1001900065350008653500086535000865350008D7
:1001A00065350008653500086535000865350008C7
:1001B00065350008653500086535000865350008B7
:1001C00065350008653500086535000865350008A7
:1001D0006535000865350008653500086535000897
:1001E0006535000865350008653500086535000887
:1001F0006535000865350008653500086535000877
:100200006535000865350008653500086535000866
:100210006535000865350008393400086535000883
:1002200065350008653500086535000800000000E8
:1002300065350008653500080000000065350008D8
:100240006535000865350008653500086535000826
:100250006535000865350008653500086535000816
:100260006535000865350008653500086535000806
:100270006535000865350008653500080000000098
:100280006535000865350008653500080000000088
:080290000000000065350008C4
:1002980010B5054C237833B9044B13B10448AFF3B8
:1002A80000800123237010BD180100240000000005
:1002B800ACBA000808B5034B1BB103490348AFF3B8
:1002C800008008BD000000001C010024ACBA000832
:1002D80081F0004102E000BF83F0004330B54FEAEF
:1002E80041044FEA430594EA050F08BF90EA020F5C
:1002F8001FBF54EA000C55EA020C7FEA645C7FEAEF
:10030800655C00F0E2804FEA5454D4EB5555B8BF11
:100318006D420CDD2C4480EA020281EA030382EA82
:10032800000083EA010180EA020281EA0303362D14
:1003380088BF30BD11F0004F4FEA01314FF4801CE7
:100348004CEA113102D0404261EB410113F0004FF9
:100358004FEA03334CEA133302D0524263EB4303B0
:1003680094EA050F00F0A780A4F10104D5F1200E4E
:100378000DDB02FA0EFC22FA05F2801841F10001A9
:1003880003FA0EF2801843FA05F359410EE0A5F17D
:1003980020050EF1200E012A03FA0EFC28BF4CF0AE
:1003A800020C43FA05F3C01851EBE37101F0004564
:1003B80007D54FF0000EDCF1000C7EEB00006EEB71
:1003C8000101B1F5801F1BD3B1F5001F0CD34908FB
:1003D8005FEA30004FEA3C0C04F101044FEA445252
:1003E80012F5800F80F09A80BCF1004F08BF5FEAD9
:1003F800500C50F1000041EB045141EA050130BDB9
:100408005FEA4C0C404141EB0101013C28BFB1F5CA
:10041800801FE9D291F0000F04BF01460020B1FA15
:1004280081F308BF2033A3F10B03B3F120020CDAE8
:100438000C3208DD02F1140CC2F10C0201FA0CF0C6
:1004480021FA02F10CE002F11402D8BFC2F1200C2B
:1004580001FA02F120FA0CFCDCBF41EA0C019040E1
:10046800E41AA2BF01EB0451294330BD6FEA04042A
:100478001F3C1CDA0C340EDC04F11404C4F1200215
:1004880020FA04F001FA02F340EA030021FA04F327
:1004980045EA030130BDC4F10C04C4F1200220FA7E
:1004A80002F001FA04F340EA0300294630BD21FABC
:1004B80004F0294630BD94F0000F83F4801306BF82
:1004C80081F480110134013D4EE77FEA645C18BF76
:1004D8007FEA655C29D094EA050F08BF90EA020F0D
:1004E80005D054EA000C04BF1946104630BD91EA05
:1004F800030F1EBF0021002030BD5FEA545C05D108
:100508004000494128BF41F0004130BD14F5800446
:100518003CBF01F5801130BD01F0004545F0FE41BA
:1005280041F470014FF0000030BD7FEA645C1ABFEF
:10053800194610467FEA655C1CBF0B46024650EA26
:10054800013406BF52EA033591EA030F41F4002152
:1005580030BD00BF90F0000F04BF0021704730B5D8
:100568004FF4806404F132044FF000054FF00001AD
:1005780050E700BF90F0000F04BF0021704730B56E
:100588004FF4806404F1320410F0004548BF404243
:100598004FF000013EE700BF42004FEAE2014FEA98
:1005A80031014FEA02701FBF12F07F4393F07F4F73
:1005B80081F06051704732F07F4208BF704793F076
:1005C8007F4F04BF41F40021704730B54FF4607489
:1005D80001F0004521F000411CE700BF50EA01028C
:1005E80008BF704730B54FF000050AE050EA010235
:1005F80008BF704730B511F0004502D5404261EBA5
:1006080041014FF4806404F132045FEA915C3FF4E5
:10061800D8AE4FF003025FEADC0C18BF03325FEA82
:10062800DC0C18BF033202EBDC02C2F1200300FA33
:1006380003FC20FA02F001FA03FE40EA0E0021FA58
:1006480002F11444BDE600BF10B52DED108B8EB03D
:10065800044B1B790133DBB2092B05D8014A13710E
:1006680005E000BF90010024E34B00221A71E34C1F
:1006780094ED1E9AB7EEC99AE14B83ED109B94ED69
:100688000ACB94ED0C7B3CEE07BB3BEE07BB9FED22
:10069800D07B2BEE07BB94ED08DBB0EE4D0B0AF0D8
:1006A800A3FAB0EE408BB0EE4D0B0AF051FAB0EE63
:1006B80040DB2BEE085B0CEE005BB7EEC56B8DEDF7
:1006C8000D6A2CEE087B1BEE007BF7EEC77B94EDE2
:1006D800287AF7EE005A75EEC75ACA4BD3ED126A5C
:1006E80065EEA65A27EE067A75EE875AC3ED125ABA
:1006F80094ED295AB5EEC05AF1EE10FACCBFB0EE1F
:1007080065CA9DED0DCABD4B93ED2CBBB7EECCCAA7
:100718003BEE4CCBBA4A82ED18CBBA4A92ED024B6B
:100728008DED004B93ED126AB7EEC66A16EE0C4BD0
:1007380093ED136AB7EEC66A24EE063B8DED0A3BCD
:1007480092ED004B8DED024B93ED106AB7EEC66A41
:1007580006EE0C4B34EE03ABB4EECA9BF1EE10FA86
:100768000CD493ED1F6AB7EEC66AB4EECA6BF1EE0D
:1007780010FA40F3BE81A24B83ED106B9F4BD3ED73
:10078800346A9FEDA17A26EE877A9B4B1B79012B61
:1007980000F0B381994B93ED066B8DED046BB0EED1
:1007A800080B26EE000B964A92ED0A1B93ED306B70
:1007B80021EE066B20EE466BB7EEC72AB4EEC62BC9
:1007C800F1EE10FA00F1A081B1EE474AB7EEC44A43
:1007D800B4EE464BF1EE10FA34FE066B884B93EDFF
:1007E800103B33EE066B83ED146BB4EEC69BF1EE53
:1007F80010FA40F18C8183ED149B804B93ED2E4BC6
:1008080093ED326B0BEE046B26EE006B93ED204AF2
:10081800B7EEC44A7A4A82ED124B93ED2A0AB7EE34
:10082800009A39EE409A774AD2ED130A29EE209AB7
:1008380060EE270A79EE200AC2ED130A93ED2B0A1F
:10084800B5EE400AF1EE10FA70FEA77AB7EEE70AA5
:100858008DED060B31EE401B694B83ED1A1B92EDB3
:10086800069B8DED089B654B93ED1A0AB7EEC00AFF
:1008780010EE019B93ED1B0AB7EEC00A29EE00FBB0
:1008880092ED04EB93ED189AB7EEC99AB0EE4E0BC1
:1008980009EE010B30EE0F0BB4EEC04BF1EE10FA7F
:1008A8000CD493ED219AB7EEC99AB4EEC09BF1EE41
:1008B80010FA40F33B81524B83ED129BB4EEC62BEA
:1008C800F1EE10FA09D4B1EE477AB7EEC72AB4EEC2
:1008D800C62BF1EE10FA32FE062B494B93ED129B14
:1008E80039EE022B83ED162BB4EEC24BF1EE10FA63
:1008F80040F1208183ED164B414B93ED142B93ED82
:10090800167B27EE086B12EE0D6BB6EE004B26EE4B
:10091800044B22EE088B07EE0D8B9FED2F7B28EE04
:10092800078B38EE442B9FED2E7B37EE447B37EE5A
:10093800487B86FE028B88FE078B86FE424B84FE30
:10094800474B38EE044BBEEE008B24EE084B36EED8
:10095800046B9FED258B26EE086B83ED006B32EE62
:10096800042B22EE082B83ED022B37EE047B27EEB7
:10097800087B83ED047B9DED067B83ED087BB5EE5C
:10098800C05AF1EE10FA40F3E480B7EEE55A1C4B7A
:1009980083ED065B194B93ED024B9FED157B24EE1F
:1009A800077B184B93F850302BB1144BD3E9000157
:1009B800144BC3E90801134B93ED086B0F4B93EDF0
:1009C800005B35EE465BB4EEC57BF1EE10FA1DE038
:1009D8001D339045A779E23FAA4C58E87AB6EB3F19
:1009E80000000000000000001D339045A779F23F89
:1009F8002D431CEBE2361A3F900100249801002495
:100A080070020024380100243ACD133F0CD493ED32
:100A1800044B9FED637B24EE077BB4EEC75BF1EEDE
:100A280010FA58BFB0EE457B36EE077B644B83ED7A
:100A3800087B644B9FED5C5B9DED046B17EE056BCB
:100A480083ED1C6B83ED0CBB5F4B93ED116AB7EE26
:100A5800C66A33EE437B06EE0C7B33EE4A3B37EE39
:100A6800037B9FED4F6B9DED025B07EE065B9FEDF1
:100A7800507BB4EEC75BF1EE10FA6FDD504B83ED9F
:100A8800007B9FED477B9DED006B9DED0A5B05EEBE
:100A9800076B4B4B83ED026B39EE495B4A4B93ED89
:100AA800196AB7EEC66A26EE011BBAEE046B05EEAC
:100AB800061B39EE409B31EE099B09EE07EB9FEDD3
:100AC8003C7BB4EEC7EBF1EE10FA58DD3C4B83EDFE
:100AD800047B3B4B9FED326B9DED087B0FEE067B55
:100AE80083ED067B002283F850200EB0BDEC108BFE
:100AF80010BD344B83ED10AB40E6314BD3E9100108
:100B0800304BC3E90A0145E6B0EE426B66E62E4B70
:100B180093ED1F4AB7EEC44AB4EEC46BF1EE10FA77
:100B28007FF56BAE274B83ED144B66E6254B83EDC3
:100B3800120BC3E6244B93ED217AB7EEC77AB4EED5
:100B4800C72BF1EE10FA7FF5D7AE1E4B83ED167B5F
:100B5800D2E6DDED0D7AB7EEE75A18E79FED167B82
:100B6800B4EEC75BF1EE10FA03D4154B83ED005BCE
:100B780087E7134B00201549C3E9000181E79FED82
:100B88000E7BB4EEC7EBF1EE10FA03D40C4B83EDF9
:100B980004EB9EE70A4B00200C49C3E9040198E7DF
:100BA8002D431CEBE2361A3FD5EB7BF3E9CEBA3F77
:100BB8000000000000004D400000000000004DC093
:100BC80038010024700200249801002400004DC060
:100BD8002DED048B5C4B93ED1C0B5C4A92ED0C2BBA
:100BE8005B4B93ED167AB7EEC77AB0EE421B17EE61
:100BF800001B93ED177AB7EEC77A21EE071B92ED2B
:100C08000A4B93ED147AB7EEC77AB0EE443B07EE81
:100C1800003B33EE013B93ED1C7AB7EEC77AB4EE96
:100C2800C37BF1EE10FA5ED5474B83ED0E7B474B45
:100C380093F851302BB1444BD3E90E01434BC3E930
:100C48000E01414B93ED0E6B404B93ED0E5B36EE70
:100C5800458B3F4B93ED267AB7EEC77A9FED349BD1
:100C680027EE097BB4EEC78BF1EE10FA0CDC93ED9E
:100C7800277AB7EEC77A27EE097BB4EEC78BF1EE79
:100C880010FA58BFB0EE487B35EE077B2F4B83ED4B
:100C98000E7B83ED107B2E4B93ED155AB7EEC55A9C
:100CA80036EE467B05EE007B36EE436B37EE066B81
:100CB8009FED1F7B06EE074B9FED1F7BB4EEC74BE6
:100CC800F1EE10FA21DD214B83ED0A7B1F4B9FEDDE
:100CD800187B01EE072B83ED0C2B002283F85120A3
:100CE800BDEC048B70471A4B93ED1D7AB7EEC77AAB
:100CF800B4EEC37BF1EE10FA03DD134B83ED0E7BEC
:100D080095E7114B83ED0E3B91E79FED0D7BB4EE1C
:100D1800C74BF1EE10FA03D40C4B83ED0A4BD5E721
:100D28000A4B07A1D1E90001C3E90A01CEE700BFD8
:100D3800FCA9F1D24D62503F0000000000407F4006
:100D48000000000000407FC0700200243801002429
:100D5800980100240000000000B53F4B012283F8F1
:100D6800502083F851203D4B3D4AC3F8D02032A192
:100D7800D1E90001C3E9320131A1D1E90001C3E998
:100D88002E0131A1D1E90001C3E930010020354924
:100D9800C3E902012EA1D1E90001C3E90401324AE5
:100DA800C3F89820314AC3F89C20314AC3F89020F0
:100DB800304AC3F89420304AC3F888202F4AC3F831
:100DC8008C204FF07E52C3F8A420C3F8AC202C4AE4
:100DD800C3F8A020C3F8A8202A4919652A4A5A65E9
:100DE8002A4A9A652A4ADA652A4818670020586705
:100DF800294818665966DFF8ACC0C3F868C0DA66D7
:100E08002648C3F880002649C3F88410DFF898E024
:100E1800C3F840E0DFF894E0C3F844E0C3F848C002
:100E2800DA649867D96700200021C3E92C015DF8CE
:100E380004FB00BFAFF30080000000E0BFB2A23F98
:100E480000000020812F1A3F000000004A27323F8F
:100E580000000000006AF8C038010024980100244E
:100E68000000684200408F4000247449002474C97F
:100E78000024F4480024F4C80050C347007C92C9F9
:100E88006666663F0000A04000001041ACC52737E9
:100E9800000020410000FA43CDCC4C3EFCF1054255
:100EA800FCF105C217B7D1389A99993E0000C040A5
:100EB800B5EEC00BF1EE10FA09DD4FF0010C83F826
:100EC80000C0814294BF00210121117070471A7837
:100ED80002B9704700221A70FBE7B5EEC00BF1EEBD
:100EE80010FA09DD4FF0010C83F800C081422CBFD5
:100EF80000210121117070471A7802B97047002249
:100F08001A70FBE7F8B53B4B93ED167B93ED182B66
:100F180087FE026B93ED1A3B86FE036B93ED0C4A3A
:100F2800D3ED0D5AB7EEE51A87FE427B87FE437B69
:100F3800B7EEC43AB4EEC63BF1EE10FA0BD4B1EEFC
:100F4800444AB7EEC44AB4EEC74BF1EE10FACCBF30
:100F58000120002000E00120274B1870B4EEC61BCA
:100F6800F1EE10FA0BD4B1EE656AB7EEC66AB4EECC
:100F7800C76BF1EE10FACCBF0123002300E0012378
:100F88001D4C63701D4D1E4E05F18C03221D95F8F6
:100F9800881096ED000BFFF7A0FF274605F18D039B
:100FA800621D95F8881017F8020B96ED020BFFF7F3
:100FB8007FFF05F18A033A4695F88910607896ED27
:100FC800040BFFF78AFF05F18B03E21C95F88910E3
:100FD800607896ED060BFFF76BFFA3780BB9E07806
:100FE80000E0012000F00100034B1B7953B9024BCC
:100FF800597908E0C8040024E8020024F00200241B
:10100800E0BA0008012101F00101B84B93F88030E3
:10101800002B40F09381B54B012283F880200222F7
:1010280083F88120B24C002222715A611A6103258B
:1010380083F882505A621A6283F8845062705A6345
:101048001A6383F8855022705A651A65DA645A64FF
:10105800052583F88650A2705A671A67DA665A66B9
:1010680083F88750E27081F00102002940F08E86F3
:101078009E4B1B6901339D4C2361002840F08986F3
:101088002346646901345C61DC690134DC61002A4F
:1010980000F08586954B9B690133944A9361954B83
:1010A80093ED126B93ED017AB7EEC77AB4EEC76B86
:1010B800F1EE10FA40F37686136A01338B4A136215
:1010C8008C4B93ED005AB7EEC55AB4EEC56BF1EEF2
:1010D80010FA40F36A86536A0133844A5362B4EEC5
:1010E800C56BF1EE10FA40F16386936A01337F4ACB
:1010F8009362B4EEC76BF1EE10FA40F35C86D36AE4
:1011080001337A4AD3627B4B93ED146B93ED037AE8
:10111800B7EEC77AB4EEC76BF1EE10FA40F34E861D
:10112800136B0133714A1363724B93ED025AB7EE96
:10113800C55AB4EEC56BF1EE10FA40F34286536B14
:1011480001336A4A5363B4EEC56BF1EE10FA40F10D
:101158003B86936B0133654A9363B4EEC76BF1EE3C
:1011680010FA40F33486D36B0133604AD363614B82
:1011780093ED1E7B93ED096AB7EEC66AB4EEC67BA3
:10118800F1EE10FA40F12686136C0133574A1364C6
:10119800584B93ED085AB7EEC55AB4EEC57BF1EE3D
:1011A80010FA40F11A86536C0133504A5364B4EE76
:1011B800C57BF1EE10FA40F31386936C01334B4A6A
:1011C8009364B4EEC67BF1EE10FA40F10C86D36C52
:1011D8000133464AD364474B93ED0A6AB7EEC66AB1
:1011E800B4EEC67BF1EE10FA40F30086136D0133BE
:1011F8003E4A13653F4B93ED0B5AB7EEC55AB4EE12
:10120800C57BF1EE10FA40F3F485536D0133536555
:10121800B4EEC67BF1EE10FA00F1F385334B0022F1
:101228009A65324BDB6D0133304AD365314B93ED10
:101238001C7B93ED056AB7EEC66AB4EEC67BF1EE89
:1012480010FA40F1EE85136E0133284A1366294BD4
:1012580093ED045AB7EEC55AB4EEC57BF1EE10FA19
:1012680040F1E285536E0133204A5366B4EEC57BE4
:10127800F1EE10FA40F3DB85936E01331B4A936657
:10128800B4EEC67BF1EE10FA40F1D485D36E01338B
:10129800164AD366174B93ED066AB7EEC66AB4EEE4
:1012A800C67BF1EE10FA40F3C885136F01330F4A7D
:1012B8001367104B93ED075AB7EEC55AB4EEC57BCA
:1012C800F1EE10FA40F3BC85536F01335367B4EE67
:1012D800C67BF1EE10FA00F1BB85044B00229A6739
:1012E800024BDA6F0132014BDA6705E0F0020024A5
:1012F80048050024C8040024BB4A51701070BB4A3A
:10130800117883F88810527883F88920B84BD3F87D
:1013180010210132C3F81021D3F8281107EE902AC2
:10132800B8EE677B93ED466B26EE077B81ED007B7D
:10133800D3F820210132C3F82021F8BDAD4B93F832
:101348008130012B18D0022B1AD0AA4B93ED027BC7
:10135800B5EE407BF1EE10FA40F0BA80002283F837
:101368008320022483F88140A34C22715A611A61B8
:10137800032283F88220EFE09F4B02221A71EBE0F0
:101388009C4B93ED026B9D4B93ED117AB7EEC77AA8
:10139800B4EEC76BF1EE10FA0FDD964B002283F81E
:1013A8008220032483F88140934C01252571DA615A
:1013B8009A61022283F88320CEE08E4B93ED005B86
:1013C800B4EEC57BF1EE10FA09D5002283F882202D
:1013D800012283F88120884B02221A71BCE0864BD7
:1013E80000221A71834B93F88230012B0DD0022B07
:1013F80013D0D0B17F4B012283F88220B7EE007B57
:1014080035EE075B83ED005BA6E07A4B00225A615C
:101418001A61032283F882209EE0764B00225A61EB
:101428001A61032283F8822096E051B1714B02229F
:1014380083F88220B7EE007B36EE076B83ED026BF4
:101448008AE0B5EEC06BF1EE10FA21DD694B93ED41
:10145800044AB8EE444B694B93ED107AF2EE047AE5
:1014680027EE277AB7EEC77AB4EEC74BF1EE10FA3B
:101478000EDDB7EE007B36EE476B5E4B83ED026BFD
:101488005C4B00225A611A61032283F8822063E0D0
:10149800B5EEC05BF1EE10FA5EDD564B93ED056AD2
:1014A800B8EE466B554B93ED107AF2EE047A27EEC0
:1014B800277AB7EEC77AB4EEC76BF1EE10FA4BDDB8
:1014C800B7EE007B35EE475B4A4B83ED005BD7E711
:1014D800484B93ED005B494B93ED116AB7EEC66A32
:1014E800B4EEC65BF1EE10FA0ADD424B002283F837
:1014F8008320012283F881203F4B02221A712BE0BE
:101508003D4B01221A713B4B93F88330934257D0DD
:1015180011B1384B00229A61384B93ED106AF2EE04
:10152800046A26EE266AB7EEC66A324B93ED064A7F
:10153800B8EE444BB4EEC46BF1EE10FA48D5B7EEF2
:10154800006B37EE467B83ED027B2A4B0022DA6183
:101558009A61022283F88320264B93F88430012B6A
:1015680064D0022B00F09A80234B00225A70234B40
:1015780093ED125B93ED017AB7EEC77AB4EEC75BD1
:10158800F1EE10FA01DC1B4B1A621C4B93ED0F7A3B
:10159800F2EE047A27EE277AB7EEC77A154B93ED69
:1015A800086AB8EE466BB4EEC67BF1EE10FA40F16D
:1015B800C280012283F884200F4B02225A7038E03F
:1015C8000C4B0022DA619A61022283F88320C3E778
:1015D800B0B1084B012283F88320B7EE007B35EECB
:1015E800075B83ED005BB7E7C0040024E802002432
:1015F80080030024F002002448050024C8040024C5
:10160800B5EEC05BF1EE10FAA6DDB94B93ED077AA3
:10161800B8EE477BB4EEC76BF1EE10FA9CD5B7EE87
:10162800007B35EE475B83ED005B8EE7B14B022212
:101638005A70AF4B93F88530012B00F09E80022B37
:1016480000F0AB80AB4B00221A70AB4B93ED145BF0
:1016580093ED037AB7EEC77AB4EEC75BF1EE10FAF2
:1016680001DCA34B1A63A44B93ED0F7AF2EE047AD4
:1016780027EE277AB7EEC77A9D4B93ED0C6AB8EE42
:10168800466BB4EEC67BF1EE10FA40F1D38001222E
:1016980083F88520974B02221A7071E0954B01223E
:1016A8005A70954B93ED125B93ED017AB7EEC77ABA
:1016B800B4EEC75BF1EE10FA02DC8D4B0022DA6261
:1016C8008D4B93ED0F7AF2EE047A27EE277AB7EE78
:1016D800C77A874B93ED0B6AB8EE466BB4EEC67BC0
:1016E800F1EE10FA06D5012283F88420814B0222FC
:1016F8005A709EE7804B93ED006AB7EEC66AB4EE67
:10170800C65BF1EE10FA02D4794B00229A62784B4C
:1017180093ED0A6AB8EE466BB4EEC67BF1EE10FAAA
:1017280087D51A46002353621362032482F8844043
:10173800704A53707DE7704B93ED006AB7EEC66A46
:10174800B4EEC65BF1EE10FA02DC694B00225A6275
:10175800674B93ED096AB8EE466BB4EEC67BF1EEC3
:1017680010FA7FF566AF0022DA629A62022283F8E5
:101778008420604B01225A705BE75E4B02221A708C
:101788005B4B93F88630013B032B00F22E81DFE898
:1017980013F072008200D800DC00564B01221A7048
:1017A800554B93ED145B93ED037AB7EEC77AB4EE1D
:1017B800C75BF1EE10FA02DC4D4B0022DA634E4BA8
:1017C80093ED0F7AF2EE047A27EE277AB7EEC77A0E
:1017D800474B93ED0F6AB8EE466BB4EEC67BF1EE5D
:1017E80010FA06D5012283F88520424B02221A708E
:1017F800C6E7414B93ED026AB7EEC66AB4EEC65B24
:10180800F1EE10FA02D43A4B00229A63384B93ED6A
:101818000E6AB8EE466BB4EEC67BF1EE10FAAFD5A1
:101828001A46002353631363032482F88540314A20
:101838001370A5E7304B93ED026AB7EEC66AB4EEB3
:10184800C65BF1EE10FA02DC294B00225A63284BE2
:1018580093ED0D6AB8EE466BB4EEC67BF1EE10FA66
:101868008ED50022DA639A63022283F88520214B01
:1018780001221A7084E71F4B02229A701C4B93F8BE
:101888008730013B032B00F2F181DFE813F03A01C6
:101898003F0191019D01174B01229A70164B93ED60
:1018A8001E5B93ED0B7AB7EEC77AB4EEC75BF1EE29
:1018B80010FA02DC0E4B0022DA650F4B93ED0E7A1C
:1018C800F2EE047A27EE277AB7EEC77A084B93ED43
:1018D800176AB8EE466BB4EEC67BF1EE10FA0DD57A
:1018E800012283F88620034B02229A70C6E700BFC4
:1018F800F002002448050024C8040024AF4B93EDEF
:101908000A6AB7EEC66AB4EEC65BF1EE10FA02D404
:10191800AB4B00229A65AA4B93ED166AB8EE466B5C
:10192800B4EEC67BF1EE10FAA8D51A46002353652B
:101938001365D3645364052482F88640A14A9370E2
:101948009CE7A04B04229A7098E79E4B03229A705A
:101958009A4B93ED1E5B93ED097AB7EEC77AB4EE16
:10196800C75BF1EE10FA02D4954B00221A64934B30
:1019780093ED0E7AF2EE047A27EE277AB7EEC77A5D
:101988008F4B93ED106AB8EE466BB4EEC67BF1EE62
:1019980010FA06D5032283F886208A4B04229A700F
:1019A8006CE7864B93ED086AB7EEC66AB4EEC65B81
:1019B800F1EE10FA02DC824B00229A64804B93ED20
:1019C800126AB8EE466BB4EEC67BF1EE10FA7FF5FC
:1019D80055AF1A46002353651365D3645364052431
:1019E80082F88640774A937048E7764B00229A70CF
:1019F800724B93ED1E6B93ED0B7AB7EEC77AB4EE8C
:101A0800C76BF1EE10FA01DC6D4B5A656B4B93ED29
:101A18000E7AF2EE047A27EE277AB7EEC77A684B89
:101A280093ED155AB8EE455BB4EEC57BF1EE10FAAE
:101A380006D5012283F88620624B02229A701DE7A0
:101A48005E4B93ED095AB7EEC55AB4EEC56BF1EE8D
:101A580010FA02D45A4B0022DA64594B93ED135A08
:101A6800B8EE455BB4EEC57BF1EE10FA06D503225D
:101A780083F88620534B04229A70FFE64F4B93ED70
:101A88000A5AB7EEC55AB4EEC56BF1EE10FA02DC8D
:101A98004B4B00221A654A4B93ED145AB8EE455B3E
:101AA800B4EEC57BF1EE10FA09D50022DA659A6525
:101AB800022283F88620434B01229A70DEE63F4BD0
:101AC80093ED085AB7EEC55AB4EEC56BF1EE10FAAD
:101AD80002D43B4B00225A64394B93ED116AB8EE9D
:101AE800466BB4EEC67BF1EE10FA7FF5C7AE002266
:101AF8009A641A64042283F88620324B03229A706F
:101B0800BCE6304B0222DA70FFF7ADBA2D4B01224A
:101B1800DA702A4B93ED1C5B93ED077AB7EEC77A20
:101B2800B4EEC75BF1EE10FA02DC254B0022DA674F
:101B3800224B93ED0E7AF2EE047A27EE277AB7EE6F
:101B4800C77A1F4B93ED1F6AB8EE466BB4EEC67B9F
:101B5800F1EE10FA07D5012283F88720194B0222EB
:101B6800DA70FFF780BA154B93ED066AB7EEC66ACE
:101B7800B4EEC65BF1EE10FA02D4114B00229A675C
:101B88000F4B93ED1E6AB8EE466BB4EEC67BF1EED2
:101B980010FA7FF568AA1A46002353671367D366BD
:101BA8005366052482F88740064AD370FFF75BBA6C
:101BB800044B0422DA70FFF756BA00BFC8040024A9
:101BC800F002002448050024A94B0322DA70A94B2F
:101BD80093ED1C5B93ED057AB7EEC77AB4EEC75B5D
:101BE800F1EE10FA02D4A44B00221A66A14B93ED31
:101BF8000E7AF2EE047A27EE277AB7EEC77A9E4B72
:101C080093ED186AB8EE466BB4EEC67BF1EE10FAA7
:101C180007D5032283F88720954B0422DA70FFF753
:101C280022BA944B93ED046AB7EEC66AB4EEC65B6B
:101C3800F1EE10FA02DC904B00229A668E4B93ED7F
:101C48001A6AB8EE466BB4EEC67BF1EE10FA7FF571
:101C58000AAA1A46002353671367D36653660524F6
:101C680082F88740824AD370FFF7FDB9804B002283
:101C7800DA70804B93ED1C6B93ED077AB7EEC77A59
:101C8800B4EEC76BF1EE10FA01DC7B4B5A67794B67
:101C980093ED0E7AF2EE047A27EE277AB7EEC77A3A
:101CA800754B93ED1D5AB8EE455BB4EEC57BF1EE6E
:101CB80010FA07D5012283F887206D4B0222DA70CB
:101CC800FFF7D1B96B4B93ED055AB7EEC55AB4EE91
:101CD800C56BF1EE10FA02D4674B0022DA66664B48
:101CE80093ED1B5AB8EE455BB4EEC57BF1EE10FAE6
:101CF80007D5032283F887205D4B0422DA70FFF7AB
:101D0800B2B95C4B93ED065AB7EEC55AB4EEC56B43
:101D1800F1EE10FA02DC584B00221A67564B93ED8D
:101D28001C5AB8EE455BB4EEC57BF1EE10FA0AD545
:101D38000022DA679A67022283F887204C4B012237
:101D4800DA70FFF790B94B4B93ED045AB7EEC55ACA
:101D5800B4EEC56BF1EE10FA02D4474B00225A6676
:101D6800454B93ED196AB8EE466BB4EEC67BF1EEBF
:101D780010FA7FF578A900229A661A66042283F879
:101D880087203B4B0322DA70FFF76DB90023FFF77A
:101D980072B9394B00245C61DC61FFF778B9002324
:101DA800FFF77BB90023FFF789B90023FFF795B93F
:101DB8000023FFF79CB90023FFF7A3B90023FFF71F
:101DC800B1B90023FFF7BDB90023FFF7C4B9002359
:101DD800FFF7CBB90023FFF7D9B90023FFF7E5B91F
:101DE8000023FFF7ECB90023FFF7F3B90023FFF74F
:101DF800FFB9214B00225A65B4EEC67BF1EE10FA0A
:101E08000DD51D4B9B6D01331B4A9365B4EEC57B05
:101E1800F1EE10FA3FF705AA0023FFF705BA0023F1
:101E2800F2E70023FFF711BA0023FFF71DBA0023DA
:101E3800FFF724BA0023FFF72BBA0023FFF737BABE
:101E48000D4B00225A67B4EEC67BF1EE10FA0DD5A1
:101E5800094B9B6F0133084A9367B4EEC57BF1EEDB
:101E680010FA3FF73DAA0022FFF73DBA0023F2E738
:101E780048050024C8040024F002002400000000E3
:101E8800254B03F59272DA6003F59472C3F8842047
:101E980003F58C729A62C3F8D0309B60012283F8F4
:101EA8002421002183F8FC1083F80C111B49596187
:101EB80003F59871C3F8281115A1D1E90001C3E908
:101EC8004601174B5A701A70164B174ADA62174AAE
:101ED8009A62174A1A62174A5A62174A1A60174AC8
:101EE8005A6017499960174ADA60174A1A631748FF
:101EF80058635964164999611649D9611649196197
:101F0800164959619A63DA631A647047AFF300801F
:101F18002D431CEBE2361A3F80030024CCBA00089C
:101F2800C0040024C804002400009041000070414F
:101F38000000204100000841000096420000AA422B
:101F48000000C8420000F042000016430000484369
:101F580000008842000090420000484200004042D1
:101F680008B507EE900AF8EEE77ADFED196A67EE32
:101F7800A66A9FED187A77EE677A86EEA77AB7EEAB
:101F8800C77AB7EEC00A87EE000B08F099FC9FED00
:101F98000A6B80EE067B9FED0A6B37EE067BB7EE89
:101FA800006B86EE070B9FED087B30EE470BB7EE14
:101FB800C00B08BDAFF30080000000000040AF4038
:101FC80045A725E6E1796B3F66666666661271404D
:101FD80000401C46000080470F4AD2ED007A70EEA0
:101FE800277A9FED0E7A67EE877A0D4B93ED007A8C
:101FF800DFED0C6A27EE267A77EE877A0A49C1ED7B
:10200800207ADFED0A6A87EEA67A81ED227A82EDE0
:10201800000AC3ED007A7047580500240017DA3A21
:1020280054050024E8257F3F00000024F46CD63DC9
:1020380010B52DED048BB0EE409A08F04DFEF0EE91
:10204800408A1F4C94ED008A30EE488ADFED1D9AD5
:1020580028EE298AB0EE490A08F08EFB1A4BD3ED18
:10206800007A70EE677A67EEA97AC4ED008A83ED8C
:10207800000A28EE008A28EEA70A38EE400ADFEDAB
:10208800137AB4EEE70AF1EE10FA0ADB104BC3ED4F
:102098001F7A0F4B93ED1F0AFFF79EFFBDEC048BD1
:1020A80010BDDFED0C7AB4EEE70AF1EE10FA03D9B1
:1020B800074B83ED1F0AECE7054B074ADA67E8E7A9
:1020C8005C05002400401C46500500245A141D4499
:1020D800000000245A141DC45A141DC400B59DB034
:1020E8004C22002109A808F013FB2022002101A896
:1020F80008F00EFB022004F0EDFB00230093274BB1
:10210800DA6A22F00102DA62DB6A03F00103009363
:10211800234A936923F4404343F4804393619369CA
:1021280003F440430093009B936913F4005FFBD0D2
:102138001C4A936A23F00303936202230993012242
:102148000C9240220D9212930022139204211491B2
:102158000C21159116931793189319911A924FF40D
:1021680080531B9309A804F0DDFB90B93F2301932A
:102178000323029300230393049305930693079381
:102188000893022101A805F01FF820B91DB05DF8D9
:1021980004FB72B6FEE772B6FEE700BF0004005803
:1021A800004802580044025800B5B1B098220021F6
:1021B8000AA808F0ADFA4FF400220023CDE9002365
:1021C800042302930922039204930223059306939E
:1021D800C0230793202308934FF44063099368466C
:1021E80005F082FA10B931B05DF804FB72B6FEE76B
:1021F8002DE9F0432DED068BA5B001F0D7F9FFF7D7
:102208006DFFFFF7D1FF00241594169417941894C6
:102218001994B64DD5F8E03043F00103C5F8E03025
:10222800D5F8E03003F001030193019BD5F8E030C5
:1022380043F00403C5F8E030D5F8E03003F00403B8
:102248000293029BD5F8E03043F02003C5F8E03054
:10225800D5F8E03003F020030393039BD5F8E03072
:1022680043F01003C5F8E030D5F8E03003F0100370
:102278000493049BD5F8E03043F00803C5F8E03038
:10228800D5F8E03003F008030593059BD5F8E03056
:1022980043F00203C5F8E030D5F8E03003F002035C
:1022A8000693069B924E22464FF4E051304604F0C6
:1022B800FBFA01224FF40041304604F0F5FA4FF0E2
:1022C8008008CDF854804FF488131693179415A9F5
:1022D800884804F00FF94FF4E05315930127169737
:1022E8001794189415A9304604F004F94FF40043E4
:1022F8001593169717940323189315A9304604F0DD
:10230800F9F8182315931694179715A9304604F071
:10231800F1F822460221172002F05EFD172002F094
:102328008FFDD5F8D8303B43C5F8D830D5F8D8302C
:102338003B400093009B224605210B2002F04CFDF8
:102348000B2002F07DFD0A940B940C940D940794D5
:10235800089409940E940F94109411941294139461
:1023680014942C22214615A808F0D2F96248634B30
:102378000360132343602023836040F6C313C360C4
:1023880004614761C0F8188007F072F8002840F02F
:102398006B824FF480530A930AA9574807F020FB31
:1023A800002840F06382544807F092F8002840F073
:1023B8005F822023079300230893099307A94E48B7
:1023C80008F0D2F8002840F0558260230E930022CE
:1023D8000F9210921192129213924FF40073149369
:1023E8000EA9454807F070F9002840F045820422FC
:1023F8000EA9414807F068F9002840F03F820822FA
:102408000EA93D4807F060F9002840F03982002302
:102418001593169317936422189219934FF4005248
:102428001A921B931C934FF000721D921E931F93D8
:1024380015A9314808F0F6F8002840F023822E4804
:1024480000F05AFF3C22002115A808F061F92C4839
:102458002C4B03604FF480234360002383600122E8
:10246800C260042101610375437582610377C36209
:102478000363436380F8383001F0DEFE002840F043
:1024880003821F4C204602F07FFC1F4B1593092343
:1024980016930523179340F2FF7318930423199397
:1024A80000231A938DF8703002221D9201228DF8B4
:1024B80078208DF879308DF87A3080221F9220921A
:1024C8008DF8843015A9204602F0E4F8002840F081
:1024D800DD810E4B159340F20F13169315A908488A
:1024E80002F0D8F8002840F0D38111E000440258E7
:1024F800000C025800100258B806002400000140E1
:10250800DC050024002102400800900C0000B84FB0
:1025180000230A930B930C930D931593169317931B
:10252800189319930E930F9310931193079308938D
:102538000993B048B04A02606322426083604FF05A
:10254800FF32C2600361836106F092FF002840F009
:10255800A1814FF480530A930AA9A64807F040FACC
:10256800002840F09981A34806F0E2FF002840F0D7
:1025780095810423159350231693002317931893DA
:102588000A23199315A99B4807F0AEFB002840F0D1
:10259800878100220E9201230F9310920A23119330
:1025A8000EA9944807F06CF9002840F07B810223BB
:1025B8000E930F9304220EA98E4807F061F90028A4
:1025C80040F0728100230793099307A9894807F00F
:1025D800CBFF002840F06A810021864807F0E6FC1E
:1025E800002840F065810421824807F0DFFC0028BC
:1025F80040F060818148824B0360032343600023DD
:10260800836040F6C312C260036143618023836123
:1026180006F02EFF002840F04F8100230E930F9301
:102628001093159316931793189319931A931B9352
:102638007448754A02604FF4802242608360012228
:10264800C260042101610375427503228261037728
:1026580043628362C2620363436380F8383001F0E7
:10266800EBFD002840F02A8100230E930EA965484F
:1026780002F0F8FA002840F02381644B15930623F2
:1026880016930523179340F2FF73189304231993A5
:1026980000231A938DF86D3015A95A4801F096F960
:1026A800002840F00F8104231793594B15930C23EE
:1026B800169315A9534801F089F9002840F00481C0
:1026C800544B15931223169315A94E4801F07EF921
:1026D800002840F0FB800023169318931A931C934C
:1026E8000E930F9310934C484FF080420260436062
:1026F800836040F6FF72C260036180238361032315
:102708001593012217920A2319931B921D9315A959
:1027180006F03EFF002840F0DB8000230E93109364
:102728000EA93D4807F020FF002840F0D3803C2147
:10273800394807F0D6FD002840F0CE80642000F02C
:1027480075FF364C0821204607F0CAFB04212046B5
:1027580007F0C6FB0021204607F0C2FB08212046EF
:1027680007F0C6FE0421204607F0C2FE00212046DD
:1027780007F0BEFE2A4B1B78002B00F0AF80274CD9
:102788000821204607F0E8FA0421204607F0E4FA79
:102798000021204607F0E0FA0821204607F01EFE37
:1027A8000421204607F01AFE0021204607F016FEF5
:1027B80023680024DC639C635C631A4D40F2FF725B
:1027C8002146284601F050FE40F2FF7221460D488E
:1027D80001F04AFE4FF47A7000F028FFFEF7BCFAC9
:1027E800FFF74EFB284601F093FE0F4E0F4C9FED6E
:1027F800108A1FE09C070024000C004004070024F6
:1028080000480140780500240020024040002019BB
:102818001000C0100001802150070024B8060024D1
:102828006A050024DC050024000C0258000000247E
:1028380000401C460821304604F030F82071102171
:10284800304604F02BF86071754DB0EE480A688880
:10285800FFF786FB84ED080AB0EE480AA888FFF760
:102868007FFB84ED070AE5E772B6FEE772B6FEE77E
:1028780072B6FEE772B6FEE772B6FEE772B6FEE71C
:1028880072B6FEE772B6FEE772B6FEE772B6FEE70C
:1028980072B6FEE772B6FEE772B6FEE772B6FEE7FC
:1028A80072B6FEE772B6FEE772B6FEE772B6FEE7EC
:1028B80072B6FEE772B6FEE772B6FEE772B6FEE7DC
:1028C80072B6FEE772B6FEE772B6FEE772B6FEE7CC
:1028D80072B6FEE772B6FEE772B6FEE700224FF464
:1028E8000041504803F0E0FF4F4F26469FED489BBC
:1028F8009FED498BDFF8348113E033680024DC63F3
:102908009C635C630821304607F0EAFA04213046EC
:1029180007F0EEFD2146304607F0EAFD3B78092B2B
:1029280029D8B8F80230012B7FF429AF3B7801335E
:102938003B700821304607F00FFA0421304607F0B3
:102948004DFD0021304607F049FD33680022DA6367
:102958009A635A63042440F2EE254FF0280933683D
:10296800DD639D635D63484600F060FE631E13F0FF
:10297800FF04F4D1C1E72D4C4FF0000884F8028021
:102988000125E5702A4B1B685B6AE360D4ED0E7A7B
:102998009FED287A37EE677ADFED277A27EE277AD8
:1029A80037EE077AB7EEC77AB0EE480B17EE090B89
:1029B800B7EEC00B84ED0F0A9FED20AAF0EE4A0A8D
:1029C80008F022FA84ED0F0AC0EE0A7A9FED1C7A0D
:1029D80067EE877AFCEEE77A17EE903A9BB263616E
:1029E8002A464FF400410F4803F05EFF154C41465C
:1029F800204607F0DDFB0421204607F0D9FB2046DE
:102A080006F0ADFB204600F0A5FC0F4B1D7071E7EA
:102A1800182D4454FB21094000000040ED29993F3E
:102A280064050024000C02586E05002400000024F0
:102A3800500700240000C8420AD7233CDA0FC940D7
:102A4800000080459C0700246A050024802800D0E7
:102A580070470E4B1A7882F001021A705B780133C6
:102A6800DBB2FF2B0DD0094A5370094B1B78022BA0
:102A7800EED1064B00221A66064B1B6800225A62EA
:102A8800E6E7024B00225A70EFE700BF000000247F
:102A98006A05002450070024037F012B00D07047EB
:102AA80010B50446002106F08DFB07EE900AF8EEFB
:102AB800677A114BC3ED0D7AF5EE407AF1EE10FA14
:102AC80000D110BD0421204606F07CFB0A4B93ED93
:102AD8000D7A642202FB00F007EE900AF8EE677A9E
:102AE800C7EE876AC3ED0E6ADFED046AC6EE877A21
:102AF800C3ED107AE5E700BF000000240024744904
:102B0800B0EEC00A254B9B88B3F5807F1CD0012B03
:102B18003BD1DFED237AB4EEE70AF1EE10FA37D9AC
:102B2800DFED207AB4EEE70AF1EE10FA33DADFEDE2
:102B38001C7A30EE670A9FED1C7AC0EE077AB0EE79
:102B4800080A27EE800A7047DFED157AB4EEE70A27
:102B5800F1EE10FA13D9DFED137AB4EEE70AF1EECD
:102B680010FA0FDADFED0E7A30EE670A9FED0E7A73
:102B7800C0EE077AB8EE080A27EE800A70479FED84
:102B88000B0A7047B8EE080A70479FED080A7047AD
:102B98009FED060A7047B0EE080A7047000000244F
:102BA80000803B4400803B4500A00C45000000002D
:102BB80038B50268254B9A4200D038BD244C94EDB4
:102BC800180AFFF735FA234D94ED207AB0EEC77A4C
:102BD800B7EEC77A85ED067B1F4B1B8807EE903A48
:102BE800F8EEE77A9FED1D7A67EE877A77EEA77A97
:102BF800C4ED277A94ED220AFFF782FFB7EEC00AE8
:102C080085ED2C0B164BD5E90E01C3E91601D5E964
:102C18000C01C3E91801D5E90A01C3E91A0194EDC9
:102C2800087AB7EEC77A83ED127B94ED077AB7EE90
:102C3800C77A83ED147B00200A49C3E91C010020F0
:102C48000949C3E91E01FEF75DF9B6E700480140EE
:102C58000000002498010024640500240A02533867
:102C6800C804002400004D40000028401E4B1B787B
:102C780073B91D4B01221A701C4B5B68BBB91C4B06
:102C88005B7853B901231A4A5370184A536014E009
:102C9800184B1B68184A1A607047134B00221A70A9
:102CA80001225A70134B1B68134A1A6070475A1C4A
:102CB800092B0E4B08BF00225A6010B5FDF7C4FC63
:102CC800094B00221A705B7813B9094B5B7803B97A
:102CD80010BD054C01236370FDF77AFF0023637074
:102CE800034A5370F4E700BF60050024F40700248A
:102CF80074050024C8BA000800BB000800000000E2
:102D080038B52DED028B02689B4B9A4202D0BDEC80
:102D1800028B38BD0446092101F09CFC974D2880A0
:102D280040F20F11204601F095FC6880944B1B7807
:102D3800012B02D0022BEAD13DE02A88914B196879
:102D48000A441A60904B196811FA80F018608F498C
:102D58000B8801339BB20B80B3F5805FD7D38C4BC4
:102D6800120B1A80000B58800022864B1A60864B83
:102D78001A600A80874B18680121816240F6C311E6
:102D8800C162D960844B1968844B58694862002134
:102D9800D966996659664FF40041814803F084FD6D
:102DA80003228049804801F0B5F8804806F07CF994
:102DB800734B02221A7001224FF4E051784803F055
:102DC80073FD6E490B88724A10881B1A07EE103A79
:102DD800B8EEC77ADFED766A27EE267AB7EEC77ABD
:102DE800744D85ED0E7B4B8852889B1A06EE103A7F
:102DF800B8EEC66A26EE266AB7EEC66A85ED0C6B93
:102E08009FED5B5B35EE466B36EE477B85ED0A7BC7
:102E1800614B1B685B6A614C236107EE903AB8EE20
:102E2800670ADFED657A20EE270A84ED180A9FED20
:102E3800638AF0EE480A07F0E7FF84ED180AF0EE1F
:102E4800087A20EE270A84ED190AF0EE480A07F0FE
:102E5800DBFF84ED190AB7EEC00A85ED080BFFF712
:102E680005FF574B93ED007BF7EEC75BC4ED1C5A8B
:102E780093ED026BB7EEC66B84ED1D6A93ED047B90
:102E8800B7EEC77B84ED1E7AD4ED176AF4EEE65AE6
:102E9800F1EE10FA4ADDC4ED1C6AB4EEE66AF1EE12
:102EA80010FA4EDD3D4BC3ED1D6AB4EEE67AF1EE45
:102EB80010FA51DD394BC3ED1E6A3848D0ED1C7A43
:102EC80087EEA67A9FED3F6A27EE067A37EE067AF6
:102ED800BCEEC77A17EE103A99B2C180D0ED1D7AD0
:102EE80087EEA67A27EE067A37EE067ABCEEC77A20
:102EF80017EE103A9AB2028190ED1E7AC7EE267A42
:102F080067EE867A77EE867AFCEEE77A17EE903AE5
:102F18009BB243811F48006841638263C3630022F8
:102F28004FF4E0511E4803F0BFFCF0E6F1EE667A7C
:102F3800F4EEE75AF1EE10FAAFD5184BC3ED1C7A50
:102F4800ABE7F1EE667AB4EEE76AF1EE10FAACD5CB
:102F5800124BC3ED1D7AA8E7F1EE667AB4EEE77A74
:102F6800F1EE10FAA9D50D4BC3ED1E7AA5E700BF07
:102F7800000000000000000000210240F0070024CB
:102F88006A050024E8070024EC0700246C050024E7
:102F980070050024B806002450070024000000240F
:102FA800000C025864050024780500240407002456
:102FB800FDD8243D98010024DC0FC93ADA0FC94036
:102FC8007002002400409C4472B6FEE782B0074BB2
:102FD800D3F8F42042F00202C3F8F420D3F8F43016
:102FE80003F002030193019B02B0704700440258AA
:102FF80030B58BB000230593069307930893099384
:103008000368514A934204D0504A93426AD00BB0A5
:1030180030BD04464E4A136801331360012B50D06B
:103028004C4BD3F8E02042F00402C3F8E020D3F878
:10303800E02002F004020192019AD3F8E02042F065
:103048002002C3F8E020D3F8E03003F02003029315
:10305800029B302305930325069505A93E4803F0F6
:1030680049FA4FF48053059306950025079505A95D
:103078003A4803F03FFA3A483A4B03600923436061
:103088008560C5604FF4806303614FF4006343615A
:103098004FF4005383614FF48073C3614FF480335E
:1030A8000362456202F060F9C8B92D4BE3649C6382
:1030B80000221146122001F08FFE122001F0C0FEFE
:1030C800A5E7244BD3F8D82042F02002C3F8D82033
:1030D800D3F8D83003F020030093009BA0E7FFF754
:1030E80073FFE2E71A4A136801331360012B1DD0FE
:1030F800184BD3F8E02042F00102C3F8E020D3F8DF
:10310800E03003F001030493049B60230593032339
:10311800069305A9144803F0EDF900221146122080
:1031280001F05AFE122001F08BFE70E7094BD3F82C
:10313800D82042F02002C3F8D820D3F8D83003F0C2
:1031480020030393039BD3E70020024000210240A1
:10315800FC070024004402580008025800140258D2
:1031680040060024100002400000025800B58BB051
:1031780000230593069307930893099303682D4A40
:10318800934208D02C4A934213D02C4A93423BD006
:103198000BB05DF804FB2A4BD3F8F02042F0010293
:1031A800C3F8F020D3F8F03003F001030193019B3A
:1031B800EEE7234BD3F8E82042F00802C3F8E820F2
:1031C800D3F8E82002F008020292029AD3F8E0202D
:1031D80042F00102C3F8E020D3F8E03003F0010325
:1031E8000393039B0123059302230693099305A9DF
:1031F800144803F07FF900220421322001F0ECFD8D
:10320800322001F01DFEC3E70D4BD3F8F02042F445
:103218008022C3F8F020D3F8F03003F4802304931D
:10322800049B00220321762001F0D6FD762001F0D0
:1032380007FEADE700000140000C004000480140D7
:10324800004402580000025830B589B000230393A7
:1032580004930593069307930368B3F1804F01D055
:1032680009B030BD214BD3F8E82042F00102C3F881
:10327800E820D3F8E82002F001020092009AD3F87F
:10328800E02042F00102C3F8E020D3F8E02002F089
:1032980001020192019AD3F8E02042F00202C3F839
:1032A800E020D3F8E03003F002030293029B4FF4CE
:1032B80000430393022504950124079403A90C48AD
:1032C80003F018F90823039304950025059506953E
:1032D800079403A9074803F00DF92A4621461C2044
:1032E80001F07AFD1C2001F0ABFDB9E7004402585B
:1032F800000002580004025800B587B0002301936B
:10330800029303930493059302680F4B9A4202D0E9
:1033180007B05DF804FB0D4BD3F8E02042F0100233
:10332800C3F8E020D3F8E03003F010030093009BCB
:103338004FF47C530193022302930123059301A9BF
:10334800034803F0D7F8E3E70000014000440258BF
:103358000010025808B50368154A934206D0154A6A
:1033680093420BD0144A934217D008BD134AD2F89F
:10337800F03023F00103C2F8F030F6E70F4AD2F834
:10338800E83023F00803C2F8E83001210C4803F0C4
:10339800CFF9322001F062FDE7E7084AD2F8F030B1
:1033A80023F48023C2F8F030762001F057FDDCE7E3
:1033B80000000140000C0040004801400044025851
:1033C80000000258FEE7FEE7FEE7FEE7FEE770476B
:1033D8007047704708B500F017F908BD08B50248EE
:1033E80002F0CCFB08BD00BF4006002408B5034826
:1033F80000F040F9024800F03DF908BD78050024C6
:10340800DC05002408B5802003F054FA08BD00004C
:1034180008B5024805F0F2FE08BD00BF50070024B9
:1034280008B5024805F0EAFE08BD00BF9C07002465
:1034380008B5024805F0E2FE08BD00BF04070024F5
:10344800274AD2F8883043F47003C2F88830254BF5
:103458001B6803F00F03062B06D8224A136823F0D3
:103468000F0343F0070313601F4B1A6842F0010271
:103478001A6000221A6119681C4A0A401A60194B1E
:103488001B6813F0080F06D0164A136823F00F03C1
:1034980043F007031360144B00229A61DA611A6241
:1034A800134999621349D962134919635A63996395
:1034B800DA6319645A64196821F4802119601A665C
:1034C8000E4B1A680E4B1340B3F1005F03D20D4B3D
:1034D8000122C3F808210C4B43F2D2021A6070474C
:1034E80000ED00E000200052004402587FEDF6EAAB
:1034F800000202020000FF01800201010010005CCE
:103508000000FFFF0080005100400052DFF834D077
:10351800FFF796FF0C480D490D4A002302E0D458E6
:10352800C4500433C4188C42F9D30A4A0A4C002305
:1035380001E013600432A242FBD307F0C5F8FEF79E
:1035480057FE7047000008240000002414010024DE
:10355800D8C600081801002404080024FEE700006B
:103568000F4B1B780BB90120704710B504464FF478
:103578007A70B0FBF3F30B4A1068B0FBF3F001F07C
:1035880081FC0F2C00D808B1012010BD0022214673
:103598004FF0FF3001F020FC034B1C600020F4E7E3
:1035A800A8000024A0000024AC00002410B50320CB
:1035B80001F000FC03F010FD0F498B690F4AC3F3BB
:1035C8000323D35C03F01F03D8408B6903F00F0378
:1035D800D35C03F01F0320FA03F3094A1360094B75
:1035E80018600F20FFF7BCFF10B10124204610BD62
:1035F8000446FFF7EBFCF9E70044025808BB000853
:10360800A4000024A0000024034A1168034B1B787F
:103618000B441360704700BF00080024A800002472
:10362800014B1868704700BF0008002438B50446ED
:10363800FFF7F6FF0546B4F1FF3F02D0044B1B78B5
:103648001C44FFF7EDFF401BA042FAD338BD00BF72
:10365800A8000024014B1868000C70470010005C9B
:103668007047704708B5806BFFF7FBFF08BD7047D0
:1036780070470000F8B5044603681D685E689F4AF5
:10368800934255D002F58072934251D09C4B9F686B
:1036980007F01F0715F0020F10D016F0020F0DD01B
:1036A800636D13F0100F03D1636D43F4006363651A
:1036B800204600F0EEFF236802221A6015F0040F7E
:1036C80002D016F0040F05D115F0080F40D016F0FF
:1036D800080F3DD0636D13F0100F03D1636D43F4F1
:1036E800007363652368DA6812F4406F2AD1854A4B
:1036F800934200F00B81DA6812F4005F22D11A6855
:1037080012F0080F1ED09A6812F0040F12D15A68EE
:1037180022F00C025A60636D23F480736365636D55
:1037280013F4805F0ED1636D43F00103636509E014
:10373800754BACE7636D43F010036365A36D43F00D
:103748000103A3652046FFF78BFF23680C221A604C
:1037580015F0200F02D016F0200F05D115F0400FFC
:1037680048D016F0400F45D0636D13F0100F03D109
:10377800636D43F4005363652368DA6C02F4C07226
:10378800D86860498B4200F0AE80D96862BB11F0FE
:10379800007F05D001F4005200F44060024323D1B9
:1037A8001A6812F0400F1FD011F4001F1CD19A683C
:1037B80012F0080F10D15A6822F060025A60636D47
:1037C80023F480536365636D13F4807F0CD1636DBC
:1037D80043F00103636507E0636D43F0100363651D
:1037E800A36D43F00103A3652046FFF789FA236818
:1037F80060221A6015F0800F02D016F0800F37D1C2
:1038080015F4807F02D016F4807F3CD115F4007F38
:1038180002D016F4007F42D115F0100F21D016F017
:10382800100F1ED0236B73B1002F46D02368334A84
:10383800934240D002F5807293423CD0304B9B6853
:1038480013F4404F0AD0636D43F480636365A36D3E
:1038580043F00203A3652046FFF70AFF23681022FE
:103868001A6015F4806F02D016F4806F2BD1F8BD62
:10387800636D43F4803363652046FFF7F8FE2368E1
:1038880080221A60BCE7636D43F400336365204609
:1038980000F0FDFE23684FF480721A60B6E7636D8E
:1038A80043F480236365204600F0F2FE23684FF45A
:1038B80000721A60B0E7144BC1E72368DB6813F0A5
:1038C800030FCBD0BFE7636D43F480436365A36DFB
:1038D80043F00803A36523684FF480621A6020460A
:1038E80000F0D4FEC3E7B91F01297FF64EAF002FC1
:1038F8003FF44BAF0149C96848E700BF00200240C8
:10390800006302580021024000230240092F06D814
:1039180040F22122FA4012F0010F7FF4ECAE014A86
:10392800D268E9E60020024008B50346806B426D84
:1039380012F0500F30D1436D43F4007343650368B0
:103948001A6812F0080F14D0DA6812F4406F20D108
:10395800DB6813F4005F1CD1436D23F48073436567
:10396800436D13F4805F14D1436D43F00103436545
:103978000FE0DB6813F0030F0BD1436D23F4807362
:103988004365436D13F4805F03D1436D43F0010336
:103998004365FFF765FE08BD426D12F0100F04D1B4
:1039A800C26CD26C18469047F5E7FFF761FEF2E764
:1039B80008B5806B436D43F040034365836D43F066
:1039C80004038365FFF754FE08BD000070B582B09C
:1039D8000022019290F85020012A00F0108203463C
:1039E800012280F850200068826812F0040F09D084
:1039F8005A6D42F020025A650120002283F85020B7
:103A080002B070BD0A68002A09DBC2F31304002C57
:103A180048D1920E01249440C2692243C261486889
:103A28004FEA901E0EF00C0E1A6802F1300C5EF888
:103A38000C4000F01F000A68C2F3846282401F2510
:103A480005FA00F024EA000002434EF80C201C6836
:103A5800A268A06800F0080002F0040202432AD01D
:103A68001868826812F0010F40F0BF810C68D0F826
:103A7800C050CA6802F0180CB74A22FA0CF2224069
:103A8800C4F3130425EA04042243C0F8C020C8681C
:103A9800B24A904200F0B0800A68002AC0F22E8133
:103AA8000020AAE792FAA2F2B2FA82F202F01F020A
:103AB80001249440B0E70D684FEAD55C0CF0040C83
:103AC80014345CF80400C5F304554FF0070E0EFAE1
:103AD80005FE20EA0E008E6806FA05F528434CF824
:103AE80004009F48006800F07040B0F1805F0CD07F
:103AF8001868C46814F0100F41D1C468C4F3820474
:103B08006400486900FA04F407E01868C468C4F35C
:103B180082046400486900FA04F40D69042D36D063
:103B2800186800F1600C5CF82560086800F0F8403F
:103B380006F0004E40EA0E0020434CF825001C68B1
:103B48000D69487E012814BF16464FF000466034C0
:103B580054F8250020F00040304344F825001D6843
:103B68000C69087E012808BF4FF40062286904F038
:103B78001F04A24020F4F04002432A6170E7C468A1
:103B8800640804F00804486900FA04F4C5E71868F2
:103B9800026E02F0F8420C68B2EB846F1DD0186810
:103BA800426E02F0F8420C68B2EB846F1AD01868C3
:103BB800826E02F0F8420C68B2EB846F17D0186876
:103BC800C26E02F0F8420C68B2EB846F7FF448AF23
:103BD800C26E22F00042C26642E7026E22F0004244
:103BE8000266DCE7426E22F000424266DFE7826E40
:103BF80022F000428266E2E71C680A68C2F31300FA
:103C0800B8B9900E013000F01F05092D3ED9920E6B
:103C1800013202F01F00920602F0F84201258540A9
:103C2800154300EB40021E3A120542F000722A4387
:103C380036E092FAA2F0002843D0B0FA80F00130C2
:103C480000F01F0009283CD992FAA2F5B5FA85F5CB
:103C58000135AD0605F0F84092FAA2F5B5FA85F5FA
:103C6800013505F01F05012606FA05F5054392FA08
:103C7800A2F0B0FA80F0304400F01F0000EB4000E2
:103C8800A0F11E02120542F00072D0E7800600F093
:103C9800F8400122AA40104305EB450212050243F1
:103CA800D50D05F0040514342859C2F3045207262B
:103CB800964020EA06008E6806FA02F202432A516C
:103CC800EAE692FAA2F0B0FA80F00130800600F03D
:103CD800F84592FAA2F0B0FA80F0013000F01F0621
:103CE8000120B040284392FAA2F2B2FA82F20132DD
:103CF80002F01F0202EB42021205D0E719681948C8
:103D080081427ED000F5807081427AD01648806862
:103D180000F0E075154CA46814F0010F7ED1124E26
:103D280000E0134E134CA2420DD0134CA24242D0D5
:103D3800124CA24261D110F4800F02D10B4A914279
:103D48004AD0002059E610F4000F50D1074A91429A
:103D580016D0002051E600BFFFFF0F000000FF470C
:103D68000010005C00200240006302580060025806
:103D780000230240000084CB000052C70000B8CFE7
:103D8800B26822F0E0722A4342F40002B260264A86
:103D9800126892092549A1FB0212920901325200C8
:103DA8000192019A2AB3019A013A0192019A002AD2
:103DB800F9D1002021E610F0807F1CD11C4A9142E5
:103DC80001D0002019E6B26822F0E0722A4342F0DE
:103DD8008072B260002010E6B26822F0E0722A43D6
:103DE80042F48002B260002007E6002005E60020C9
:103DF80003E6002001E60020FFE50020FDE50220A3
:103E0800FEE50C48806800F0E0750B4CA66804F5E8
:103E18008074A468344314F0010F82D05A6D42F0C4
:103E280020025A650120E8E5A0000024632D3E0524
:103E380000600258002302400020024003689A688C
:103E480012F0010F57D170B5044699682C4A1142F7
:103E580009D0436D43F010034365836D43F00103BC
:103E68008365012070BD9968264A0A4042F0010224
:103E78009A60FFF7D5FB05462368234A93420BD087
:103E880002F58072934207D0204A92681A6812F0AD
:103E9800010F32D11B4E0FE01D4A9168A2F5007246
:103EA8009342F3D111F01F0FF0D00020DAE7236816
:103EB8001A6812F0010F1CD19A6812F0010F04D190
:103EC8009A68324042F001029A60FFF7A9FB401B52
:103ED8000228ECD923681B6813F0010FE7D1636D42
:103EE80043F010036365A36D43F00103A36501204C
:103EF800B8E70020B6E7002070470020B2E700BF0F
:103F08003F000080C0FFFF7F00200240006302588E
:103F180000230240F8B504460D46164600683D49A0
:103F2800884262D03C4B98425FD001F1C05101F504
:103F380086418F68816811F0040F67D194F850208A
:103F4800012A65D007F01F07012384F85030092F94
:103F580057D840F22123FB4013F0010F51D02046DF
:103F6800FFF76CFF002848D1626DA0F6027313407A
:103F780043F4807363652268274B9A4237D0636D98
:103F880023F480136365636D13F4805F32D0A36DEF
:103F980023F00603A365E36C204ADA63E36C204A46
:103FA8001A64E36C1F4ADA6423681C221A6000232F
:103FB80084F850302268536843F010035360226835
:103FC800D36823F00303E16A0B43D36021683346C7
:103FD8002A464031E06C01F0F1FB22689168124BEF
:103FE8000B4043F00403936011E01049A1E7002F50
:103FF800C9D1C4E70023A365CDE7002384F8503076
:1040080005E0002384F85030012000E00220F8BDCC
:104018000220FCE70020024000210240313900085C
:104028006D360008B9390008C0FFFF7F0023024041
:1040380038B503689A68996812F0020F03D10446EC
:1040480011F0010F01D1002038BD9A6802F00D026D
:10405800012A09D0436D43F010034365836D43F093
:10406800010383650120EFE79968164A0A4042F088
:1040780002029A60036803221A60FFF7D1FA054624
:1040880023689B6813F0010F06D10020DCE7236842
:104098009B6813F0010F13D0FFF7C2FA401B0228E8
:1040A800F5D923689B6813F0010FF0D0636D43F0D6
:1040B80010036365A36D43F00103A3650120C3E703
:1040C8000020C1E7C0FFFF7F38B504460368524AA5
:1040D80093420BD002F58072934207D04F4B9B68F6
:1040E80013F4403F14BF0123002306E04C4B9B68A8
:1040F80013F4403F14BF012300239BB94FF4002061
:10410800002104F043FB05466368B3F5101F57D040
:1041180042D8B3F5E01F51D026D9B3F5001F0ED110
:1041280045090CE003F0A8F905466368B3F5003FBC
:1041380014D0B3F5403F15D0B3F5803F0ED0FFF74C
:1041480089FA41F20303984249D8364B9D422FD948
:104158002268936843F48073936038BD1B0CB5FBE9
:10416800F3F5ECE78508EAE7B3F5801F0FD006D929
:10417800B3F5A01F0BD0B3F5C01F08D0DFE7B3F528
:10418800002F04D023F40022B2F5802FD7D19B0C46
:104198005B00B5FBF3F5D2E7B3F5201F12D0B3F5FA
:1041A800301FCCD1FFF756FA41F2030398420BD8DF
:1041B8002268936823F480739360CEE70509BEE70D
:1041C8008509BCE7C509BAE7174B9D420AD9226899
:1041D800936823F4407343F480739360BDE7134BF3
:1041E8009D4205D82268936823F440739360B4E72E
:1041F8000F4B9D42EBD90F4B9D4207D8226893681D
:1042080023F4407343F400739360A6E7226893682D
:1042180043F440739360A0E7002002400063025813
:1042280000230240002D3101FF21BCBE21BCBE008D
:1042380041787D0181F0FA0270B582B000230193C4
:10424800002800F0F8800446436D002B42D0236814
:104258009A6812F0005F03D09968784A0A409A6019
:1042680023689A6812F0805F16D19968744A0A40E8
:1042780042F080529A60734B1B689B09724AA2FBFA
:1042880003239B0901330193019B2BB1019B013B44
:104298000193019B002BF9D121688B6813F0805F93
:1042A8001FD1636D43F010036365A36D43F00103F1
:1042B800A36501258B68626D02F0100203F0040308
:1042C800134310D0636D43F010036365012528463E
:1042D80002B070BDFEF78CFE0023A36584F8503051
:1042E800B5E70025E6E7636D23F4817343F0020325
:1042F80063658B6813F0010F12D1544B994265D056
:1043080003F58073994261D0514B9B6813F0010FFC
:1043180006D1504A936823F47C1361680B43936079
:10432800FFF798F941F20303984202D9A368102BCA
:1043380057D0236BA2681343627D43EA4233227F3E
:1043480043EA0243227F012A55D0626A22B102F46D
:104358007872A16A0A4313432168C8683E4A02403A
:104368001343CB6021688B688A6802F0080203F067
:10437800040313431BD1C868227D384B034043EA2A
:104388008233E26A1343CB6094F83830012B37D07C
:104398002268136923F0010313612268136923F06B
:1043A8007043616B0B4313612046FFF78DFEE36892
:1043B800012B37D02268136B23F00F031363636D4F
:1043C80023F0030343F00103636580E71F4B9A68FA
:1043D80003F580739B68134313F0010FA0D1204AA3
:1043E80098E7627D237F1B0443EA4233226B134321
:1043F80043F01C03A6E7226A013A43EA4243A4E7D2
:1044080021680869E36B5A1E236C666C334343EAE0
:104418000243A26C1343134A0240134343F00103BF
:104428000B61BAE721680A6BA369013B22F00F020E
:1044380013430B63C3E7012549E700BFC0FFFF5FD4
:10444800C0FFFF6FA0000024632D3E05002002403E
:10445800006002580063025803C0F0FFFCBFFFFF72
:10446800002302401EF800FC70B582B000230193BF
:1044780090F85030012B42D004460D4616460123D1
:1044880080F85030FFF7D4FD00282FD1626D1D4B06
:10449800134043F002036365226891681A4B0B408E
:1044A80006F08046334305F480352B4343F0004340
:1044B8009360226815499368002B06DB636D23F02F
:1044C800030343F00103636514E0019B0133019387
:1044D800019B8B42EFD3636D23F0120343F010036B
:1044E8006365002384F85030012006E0636D43F0D3
:1044F80010036365002384F8503002B070BD0220B9
:10450800FBE700BFFDEEFFFFC0FFFE3F00F8C3253D
:1045180038B5044603684A4A934264D002F580726B
:10452800934260D002F1C05202F5844295689A68BD
:1045380012F0080F76D1DA68DB6C13F4C07F01D172
:10454800002A52DA94F85030012B6DD0012384F8F8
:1045580050302046FFF772FC00285FD1636D13F4DA
:10456800807F48D0A36D23F00803A36505F01F05DD
:10457800626D344B134043F4805363652368324AB9
:1045880093423BD0B5FA85F25209616D21F480114E
:10459800616560211960002384F850302368D96868
:1045A80011F4001F03D0596841F4806159602369F0
:1045B800082B28D021684B6823F040034B60216802
:1045C8004B6843F020034B6023681F498B422DD072
:1045D800DA6812F0007F26D199681C4A0A4042F036
:1045E80008029A601FE01A4AA0E7636D43F02003AF
:1045F8006365012017E00023A365B7E70DB100222A
:10460800C7E70122C1E721684B6823F020034B600C
:1046180021684B6843F040034B60D5E7002384F8DA
:10462800503000E0022038BD0220FCE7063D012D95
:10463800CED9002ACCD1636D43F480136365F2E7C9
:1046480000200240FECFFFFF00210240C0FFFF7F95
:104658000023024040F2152399420FD040F21B3349
:10466800994207D040F20F1399420BD00368D3F850
:10467800800070470368D3F88C0070470368D3F84C
:10468800880070470368D3F8840070477047704704
:1046980070477047F0B583B0034600220192C068A6
:1046A80093F85020012A00F0C882012283F8502094
:1046B800A8B10A6A012A12D0186E002840F0A88012
:1046C8001A660022DA658D6A002D00F09E800A6A5B
:1046D800013A05F07C052A43CD6A154399E04A68FA
:1046E800092A74D01868826812F0080F1FD10A6866
:1046F800002A0ADBC2F31304002C40F0A980920EB2
:1047080001249440C2692243C26191F82520002AFD
:1047180040F0A7801C68E06891F8265091F82420A2
:10472800120542EA455220F440100243E2601C6838
:10473800A268A06800F0080002F00402024340F0FA
:104748005581886A18B1C86A002840F0948091F8A9
:1047580025000128E0680CBF40F0007020F00070D0
:10476800E060002091F83040012C00F093801D6833
:104778002C6924F002042C610D684FEAD55E0EF016
:10478800040E1C6804F1140C5EF80C40C5F30455C3
:104798000726AE4024EA06048E6806FA05F52C437F
:1047A8004EF80C40B44C246804F07044B4F1805FB7
:1047B8007ED01C68E56815F0100F40F0A380E5680E
:1047C800C5F382056D004C6904FA05F578E0886A3E
:1047D800B0B10A68520C02F4785200F07C00CC6A3E
:1047E800204302431C68E06C20F07B4020F46F00FB
:1047F80020F43F4020F0FF001043E064DA6571E7E1
:104808000A68520C02F47852ECE70A6A551E00E076
:1048180000250868C0F384604A6802F01F0200FAA5
:1048280002F21C6E013C1C66D86D02432A43DA650D
:10483800002C7FF457AF1C68E06C20F07B4020F41C
:104848006F0020F43F4020F0FF000243E26449E794
:1048580092FAA2F2B2FA82F202F01F020124944004
:1048680050E71868C26891F8264022F4401242EADC
:104878004452C2605BE791F82500012805D0E06842
:1048880020F00070E06000206CE75C6D44F02004CC
:104898005C6567E71E6837694C6B651E774C3C4062
:1048A8008F6B3C4344EA054444F00204346163E7F7
:1048B8001C68E568C5F382056D004C6904FA05F5C6
:1048C8000E69042E26D01C6804F1600C5CF8267072
:1048D8000C6804F0F84407F0004E44EA0E042C4338
:1048E8004CF826401D680E690C7F012C08BF4FF05C
:1048F8000042603555F8264024F00044224345F82C
:10490800262074E0E5686D0805F008054C6904FA8E
:1049180005F5D5E71E68326E356EC5F384650A68FD
:10492800C2F31304002C35D1C2F38464A54236D0F7
:104938001E68726E756EC5F384650A68C2F3130447
:10494800002C34D1C2F38464A54235D01A6802F130
:104958006006946E956EC5F384650A68C2F3130405
:1049680094BBC2F38464A54233D01E68F26EF56E20
:10497800C5F384650A68C2F3130494BBC2F3846464
:10498800A54234D1F46E04F0004402F0F842224308
:10499800F2662CE092FAA2F4B4FA84F4C6E7346E14
:1049A80004F0004402F0F84222433266C0E792FA6B
:1049B800A2F4B4FA84F4C7E7746E04F0004402F079
:1049C800F84222437266C1E792FAA2F4B4FA84F478
:1049D800C9E7F46804F0004402F0F8422243F260A8
:1049E800C3E792FAA2F4B4FA84F4C9E700201C6879
:1049F800A26812F0010F18D10D68D4F8C060CA6817
:104A080002F0180C1E4A22FA0CF22A40C5F31305CC
:104A180026EA05052A43C4F8C020CC68194A9442FE
:104A280008D00A68002AC0F29880002283F8502033
:104A380003B0F0BD1D680A68C2F3130424BB940ECA
:104A4800013404F01F06092E4FD9920E013202F0EC
:104A58001F04920602F0F8424FF0010C0CFA04FC15
:104A680042EA0C0C04EB44021E3A120542F00072B2
:104A780042EA0C0243E000BF0010005C1DFE00FC8F
:104A8800FFFF0F000000FF4792FAA2F4002C47D066
:104A9800B4FA84F4013404F01F04092C40D992FAC2
:104AA800A2FCBCFA8CFC0CF1010C4FEA8C6C0CF0EB
:104AB800F84492FAA2F6B6FA86F6013606F01F0610
:104AC8004FF0010C0CFA06FC4CEA040C92FAA2F422
:104AD800B4FA84F4013404F01F0404EB4404A4F190
:104AE8001E02120542F00072C2E7A40604F0F84460
:104AF8000122B240144306EB460212052243D60DAA
:104B080006F0040614357459C2F304520727974077
:104B180024EA07048F6807FA02F22243725180E7F9
:104B280092FAA2F4B4FA84F40134A40604F0F84624
:104B380092FAA2F4B4FA84F4013404F01F070124B1
:104B4800BC40344392FAA2F2B2FA82F2013202F085
:104B58001F0202EB42021205D0E71968384CA14245
:104B680026D004F58074A14222D0364CA46814F0F3
:104B7800010F26D1344DAC6804F0E077334EB242D1
:104B880027D0334EB24248D0324EB2427FF44DAFB6
:104B980014F4800F7FF449AF2A4A91427FF445AF5D
:104BA800AA6822F0E0723A4342F48002AA603CE725
:104BB800234CA56804F58074A4682C4314F0010FF5
:104BC80005D05A6D42F020025A6501202DE7224D8A
:104BD800D1E714F4000F7FF428AF1A4A91427FF40A
:104BE80024AFAA6822F0E0723A4342F40002AA60B5
:104BF8001A4A126892091A49A1FB02129209013253
:104C080052000192019A002A3FF40FAF019A013A2B
:104C18000192019A002AF9D107E714F0807F7FF406
:104C280004AF084A91427FF400AFAA6822F0E0720C
:104C38003A4342F08072AA60F7E60220F8E600BF25
:104C4800002002400060025800630258000084CB34
:104C5800000052C70000B8CF00230240A000002483
:104C6800632D3E0590F85020012A6BD010B49BB0FC
:104C78000346012280F850200022169217920068FD
:104C88003C4A904260D05A6D42F020025A65002298
:104C980083F85020012068E00A6852B336488268D9
:104CA80022F440424C68224382601A68A0F54070A2
:104CB800824213D000F5807082420FD02F4A92684A
:104CC80012F0010F3AD12C4884680A6889680A43AF
:104CD8002B4921400A438260002043E0254A90681E
:104CE80002F580729268024312F0010FEBD00020A7
:104CF80038E021498A6822F440428A601A68A1F59E
:104D080040718A420FD001F580718A420BD01B4A4C
:104D1800926812F0010F13D117498868184A0240A7
:104D28008A6000201EE0134A916802F5807292683A
:104D38000A4312F0010FEFD0002013E0002011E029
:104D480000200FE0022070470E4A9068A2F580729A
:104D58009268024312F0040F9ED05A6D42F020026E
:104D68005A650120002283F850201BB05DF8044BDF
:104D7800704700BF00200240002302400060025834
:104D8800E0F0FFFF0021024003689A68996801F08B
:104D9800080102F004020A4309D1DA6822F000424D
:104DA800DA60436D23F48043436500207047012097
:104DB80070470000064AD368000200F4E06023F45C
:104DC800E0631B041B0C1843024B0343D36070477A
:104DD80000ED00E00000FA0500B5164BDB68C3F3F0
:104DE8000223C3F1070CBCF1040F28BF4FF0040CD9
:104DF80003F1040EBEF1060F8CBF033B00234FF0F6
:104E0800FF3E0EFA0CFC21EA0C0199400EFA03F35E
:104E180022EA03021143002805DB0901C9B2064B47
:104E280019545DF804FB00F00F000901C9B2034BE7
:104E38001954F6E700ED00E000E400E014ED00E0AE
:104E4800002808DB420900F01F00012303FA00F0E4
:104E5800014B43F82200704700E100E000280DDB19
:104E6800430900F01F00012202FA00F02033044A2F
:104E780042F82300BFF34F8FBFF36F8F704700BF17
:104E880000E100E00138B0F1807F0BD24FF0E02361
:104E98005861054AF02182F8231000209861072202
:104EA8001A6170470120704700ED00E0F0B4866D8C
:104EB8000568914C914FBD4218BFA5420CBF012413
:104EC80000241837BD4208BF44F001041837BD421A
:104ED80008BF44F001041837BD4208BF44F001047C
:104EE8001837BD4208BF44F001041837BD4208BF57
:104EF80044F001041837BD4208BF44F0010407F527
:104F08005677BD4208BF44F001041837BD4208BFB8
:104F180044F001041837BD4208BF44F001041837B3
:104F2800BD4208BF44F001041837BD4208BF44F031
:104F380001041837BD4208BF44F001041837BD42C8
:104F480008BF44F001041837BD4208BF44F001040B
:104F58006B4FBD4208BF44F001041437BD4208BF7F
:104F680044F001041437BD4208BF44F0010414376B
:104F7800BD4208BF44F001041437BD4208BF44F0E5
:104F880001041437BD4208BF44F001041437BD4280
:104F980008BF44F0010414B95A4CA54207D1446E25
:104FA800856E6560C46E14B1046F456F65600568F1
:104FB800514C524FBD4218BFA5420CBF01240024DA
:104FC8001837BD4208BF44F001041837BD4208BF76
:104FD80044F001041837BD4208BF44F001041837F3
:104FE800BD4208BF44F001041837BD4208BF44F071
:104FF80001041837BD4208BF44F0010407F556778D
:10500800BD4208BF44F001041837BD4208BF44F050
:1050180001041837BD4208BF44F001041837BD42E7
:1050280008BF44F001041837BD4208BF44F001042A
:105038001837BD4208BF44F001041837BD4208BF05
:1050480044F0010414B9304CA54215D1C46D04F0E4
:105058001F053F24AC40B46005682C6824F4802404
:105068002C60046863608368402B3AD003689960B9
:105078000368DA60F0BC7047214C244FBD4218BF6A
:10508800A5420CBF012400241437BD4208BF44F0D8
:1050980001041437BD4208BF44F001041437BD426F
:1050A80008BF44F001041437BD4208BF44F00104AE
:1050B8001437BD4208BF44F0010414B9114CA5428D
:1050C800D8D1C46D04F01F050124AC407460046895
:1050D80063608368402B09D0036899600368DA60CD
:1050E800C8E703689A600368D960C3E703689A60F1
:1050F8000368D960BEE700BF1000024028000240E4
:105108000854025894540258B80402401C540258D7
:105118000268344B34498A4218BF9A420CBF0123B3
:10512800002318318A4208BF43F0010318318A422C
:1051380008BF43F0010318318A4208BF43F0010356
:1051480018318A4208BF43F0010318318A4208BF68
:1051580043F0010318318A4208BF43F0010301F507
:1051680056718A4208BF43F0010318318A4208BFCA
:1051780043F0010318318A4208BF43F00103183194
:105188008A4208BF43F0010318318A4208BF43F03E
:10519800010318318A4208BF43F0010318318A42DB
:1051A80008BF43F0010313B9104B9A4215D110B44C
:1051B800D1B210390E4BA3FB0143C3F302130D4CBC
:1051C800E35CC3655F290C4B03EA020388BF043321
:1051D8008365806D5DF8044B704722F0FF0282659D
:1051E800806D70471000024028000240B804024059
:1051F800ABAAAAAA18BB000800FCFFFF0368284A4C
:1052080028498B4218BF93420CBF01220022143157
:105218008B4208BF42F0010214318B4208BF42F0B2
:10522800010214318B4208BF42F0010214318B4253
:1052380008BF42F0010214318B4208BF42F001025C
:1052480012B9194A934212D1DBB2083B174AA2FBA2
:105258000323174A02EB131292000266154A4266AC
:10526800C3F30413012202FA03F383667047DAB228
:10527800103A1149A1FB0212120910491944A82930
:105288000CD90F4B13449B0003660E4B436602F088
:105298001F02012303FA02F2826670470832F0E720
:1052A800085402581C54025894540258CDCCCCCC03
:1052B8000096001680580258ABAAAAAAF0FBFDBFB8
:1052C800008200108008024090F804C00CF1FF3101
:1052D80007293AD810B402681C4B1D4CA24218BFCB
:1052E8009A420CBF012300231434A24208BF43F0A2
:1052F80001031434A24208BF43F001031434A2424C
:1053080008BF43F001031434A24208BF43F001036D
:105318001434A24208BF43F0010313B90D4B9A425B
:105328000CD10D4B63449B00C3660C4B03670123F0
:1053380003FA01F141675DF8044B7047084B634479
:105348009B00C366074B0367F1E770470854025890
:105358001C540258945402583F960016405902585B
:105368003F8200104009024038B50446FEF758F95C
:10537800002C00F00C8205462268644B64498A427E
:1053880018BF9A420CBF0123002318318A4208BF74
:1053980043F0010318318A4208BF43F00103183172
:1053A8008A4208BF43F0010318318A4208BF43F01C
:1053B800010318318A4208BF43F0010318318A42B9
:1053C80008BF43F0010301F556718A4208BF43F054
:1053D800010318318A4208BF43F0010318318A4299
:1053E80008BF43F0010318318A4208BF43F00103A4
:1053F80018318A4208BF43F0010318318A4208BFB6
:1054080043F0010318318A4208BF43F0010313B97E
:10541800404B9A421AD1022384F83530002384F88D
:105428003430136823F00103136023681A6812F0FC
:10543800010F7DD0FEF7F4F8431B052BF5D9202387
:105448006365032384F83530012038BD324B334976
:105458008A4218BF9A420CBF0123002314318A42A2
:1054680008BF43F0010314318A4208BF43F0010327
:1054780014318A4208BF43F0010314318A4208BF3D
:1054880043F0010314318A4208BF43F001031BB9FA
:10549800234B9A4240F06581022384F8353000237B
:1054A80084F8343013681F481840A368402B00F074
:1054B8005F81802B0CBF4FF480410021E568236990
:1054C800DB0843EAD503656943EAD503A56943EADE
:1054D800D503E56943EAD503256A43EA151303436F
:1054E8000B4313602268104B1344104AA2FB03239A
:1054F8001B099B00E3652046FFF70AFEE26D02F0F8
:105508001F0101228A4042605EE000BF1000024095
:1055180028000240B8040240085402581C5402589B
:10552800945402580F00FEFFF8ABFDA7CDCCCCCCAD
:105538001A689A481040A168E2680A4321690A4338
:1055480061690A43A1690A43E1690A43216A0A4376
:105558000243616A042900F0C880914908689149AA
:105568000140B1F1005F0DD36168A1F129001F2846
:1055780000F20F818C4921FA00F010F0010F01D0E0
:1055880042F480121A6021684A6922F00702636AAD
:105598001A43042B0ED1A06A0243E36A53B1A569EA
:1055A800002D40F0B880012800F0AF8030F00200F4
:1055B80000F0A0804A612046FFF7AAFDE36D03F0E2
:1055C8001F023F23934083602268784B78498A42C0
:1055D80018BF9A420CBF0123002318318A4208BF22
:1055E80043F0010318318A4208BF43F00103183120
:1055F8008A4208BF43F0010318318A4208BF43F0CA
:10560800010318318A4208BF43F0010318318A4266
:1056180008BF43F0010301F556718A4208BF43F001
:10562800010318318A4208BF43F0010318318A4246
:1056380008BF43F0010318318A4208BF43F0010351
:1056480018318A4208BF43F0010318318A4208BF63
:1056580043F0010318318A4208BF43F001031831AF
:105668008A4208BF43F0010352498A4208BF43F007
:10567800010314318A4208BF43F0010314318A42FE
:1056880008BF43F0010314318A4208BF43F0010305
:1056980014318A4208BF43F0010314318A4208BF1B
:1056A80043F0010314318A4208BF43F0010313B9E0
:1056B800414B9A4213D12046FFF7A0FDA368802BE7
:1056C80058D0236E22791A60636EA26E5A6063689E
:1056D800013B072B51D90023E3662367636700204A
:1056E8006065012384F83530AFE6E16A206B014339
:1056F8000A4332E7C3F30063002B3FF45BAF402358
:105708006365012084F835009FE6B3F1C07F14BFBC
:1057180000230123F0E7B5F5005F0AD00228EED98F
:1057280003287FF447AFC3F30063002B3FF442AF75
:10573800E5E703283FF63EAF01A555F820F000BF86
:105748000757000859570008075700085F5700080F
:10575800C3F30063E9E7B3F1C07F14BF002301235B
:10576800E3E740236365032384F8353001206CE6C2
:105778001021A3E600236360A3E72046FFF7A4FDFA
:10578800E36E00221A60236F626F5A60A7E7012058
:105798005BE64F3903297FF6F3AEF3E63F8010FE50
:1057A8000010005C0000FFFF3F00C0C31000024073
:1057B800280002400854025894540258002800F067
:1057C800D28170B5044690F83400012800F0CD81EC
:1057D800012084F8340094F83500C0B2012807D0BD
:1057E8004FF400636365002384F83430012070BDF2
:1057F800022084F835000020606525689548964E9B
:10580800B54218BF85420CBF012000201836B542AA
:1058180008BF40F001001836B54208BF40F001004B
:105828001836B54208BF40F001001836B54208BF27
:1058380040F001001836B54208BF40F001001836A4
:10584800B54208BF40F0010006F55676B54208BFDC
:1058580040F001001836B54208BF40F00100183684
:10586800B54208BF40F001001836B54208BF40F005
:1058780001001836B54208BF40F001001836B5429D
:1058880008BF40F001001836B54208BF40F00100DB
:1058980018B97248854240F04B81286820F0010011
:1058A80028602046FFF702FB22686A4B6A498A4251
:1058B80018BF9A420CBF0123002318318A4208BF3F
:1058C80043F0010318318A4208BF43F0010318313D
:1058D8008A4208BF43F0010318318A4208BF43F0E7
:1058E800010318318A4208BF43F0010318318A4284
:1058F80008BF43F0010301F556718A4208BF43F01F
:10590800010318318A4208BF43F0010318318A4263
:1059180008BF43F0010318318A4208BF43F001036E
:1059280018318A4208BF43F0010318318A4208BF80
:1059380043F0010318318A4208BF43F001031BB941
:10594800464B9A4240F0F980136823F01E0343F057
:1059580016031360236C23B12268136843F008030D
:10596800136022683B4B3C498A4218BF9A420CBFDD
:105978000123002318318A4208BF43F0010318317C
:105988008A4208BF43F0010318318A4208BF43F036
:10599800010318318A4208BF43F0010318318A42D3
:1059A80008BF43F0010318318A4208BF43F00103DE
:1059B80001F556718A4208BF43F0010318318A4243
:1059C80008BF43F0010318318A4208BF43F00103BE
:1059D80018318A4208BF43F0010318318A4208BFD0
:1059E80043F0010318318A4208BF43F0010318311C
:1059F8008A4208BF43F0010318318A4208BF43F0C6
:105A0800010317498A4208BF43F0010314318A424F
:105A180008BF43F0010314318A4208BF43F0010371
:105A280014318A4208BF43F0010314318A4208BF87
:105A380043F0010314318A4208BF43F001031431D3
:105A48008A4208BF43F0010373B9064B9A421AD140
:105A58000AE000BF1000024028000240B8040240DB
:105A68000854025894540258236E1A6812F4803F5E
:105A780003D01A6842F480721A60E36E1BB11A6888
:105A880042F480721A602268394B3A498A4218BF38
:105A98009A420CBF0123002318318A4208BF43F001
:105AA800010318318A4208BF43F0010318318A42C2
:105AB80008BF43F0010318318A4208BF43F00103CD
:105AC80018318A4208BF43F0010318318A4208BFDF
