:020000040800F2
:100000000000082461440008094300080B4300086D
:100010000D4300080F4300081143000800000000D2
:100020000000000000000000000000001343000872
:10003000154300080000000017430008194300089A
:10004000B1440008B1440008B1440008B1440008BC
:10005000B1440008B1440008B1440008B1440008AC
:10006000B1440008B1440008B1440008214300082D
:10007000B1440008B1440008B1440008B14400088C
:10008000B1440008B144000831430008B1440008FD
:10009000B1440008B144000849430008594300082E
:1000A000B1440008B1440008B1440008B14400085C
:1000B00065430008B1440008B1440008B144000899
:1000C000B1440008B1440008B1440008B14400083C
:1000D000B1440008B1440008B1440008B14400082C
:1000E000B1440008B144000800000000B144000819
:1000F000B1440008B1440008B1440008B14400080C
:10010000B1440008B144000875430008B144000838
:10011000B1440008B1440008B1440008B1440008EB
:10012000B1440008B1440008B1440008B1440008DB
:10013000B1440008B1440008B1440008B1440008CB
:1001400000000000000000000000000000000000AF
:10015000B1440008B1440008B1440008B1440008AB
:10016000B1440008B1440008B1440008B14400089B
:10017000B1440008B1440008B14400080000000088
:10018000B1440008B1440008B1440008B14400087B
:10019000B1440008B1440008B1440008B14400086B
:1001A000B1440008B1440008B1440008B14400085B
:1001B000B1440008B1440008B1440008B14400084B
:1001C000B1440008B1440008B1440008B14400083B
:1001D000B1440008B1440008B1440008B14400082B
:1001E000B1440008B1440008B1440008B14400081B
:1001F000B1440008B1440008B1440008B14400080B
:10020000B1440008B1440008B1440008B1440008FA
:10021000B1440008B144000885430008B144000817
:10022000B1440008B1440008B144000800000000D7
:10023000B1440008B144000800000000B1440008C7
:10024000B1440008B1440008B1440008B1440008BA
:10025000B1440008B1440008B1440008B1440008AA
:10026000B1440008B1440008B1440008B14400089A
:10027000B1440008B1440008B14400080000000087
:10028000B1440008B1440008B14400080000000077
:0802900000000000B144000869
:1002980010B5054C237833B9044B13B10448AFF3B8
:1002A80000800123237010BD3001002400000000ED
:1002B8006CDC000808B5034B1BB103490348AFF3D6
:1002C800008008BD00000000340100246CDC000838
:1002D80081F0004102E000BF83F0004330B54FEAEF
:1002E80041044FEA430594EA050F08BF90EA020F5C
:1002F8001FBF54EA000C55EA020C7FEA645C7FEAEF
:10030800655C00F0E2804FEA5454D4EB5555B8BF11
:100318006D420CDD2C4480EA020281EA030382EA82
:10032800000083EA010180EA020281EA0303362D14
:1003380088BF30BD11F0004F4FEA01314FF4801CE7
:100348004CEA113102D0404261EB410113F0004FF9
:100358004FEA03334CEA133302D0524263EB4303B0
:1003680094EA050F00F0A780A4F10104D5F1200E4E
:100378000DDB02FA0EFC22FA05F2801841F10001A9
:1003880003FA0EF2801843FA05F359410EE0A5F17D
:1003980020050EF1200E012A03FA0EFC28BF4CF0AE
:1003A800020C43FA05F3C01851EBE37101F0004564
:1003B80007D54FF0000EDCF1000C7EEB00006EEB71
:1003C8000101B1F5801F1BD3B1F5001F0CD34908FB
:1003D8005FEA30004FEA3C0C04F101044FEA445252
:1003E80012F5800F80F09A80BCF1004F08BF5FEAD9
:1003F800500C50F1000041EB045141EA050130BDB9
:100408005FEA4C0C404141EB0101013C28BFB1F5CA
:10041800801FE9D291F0000F04BF01460020B1FA15
:1004280081F308BF2033A3F10B03B3F120020CDAE8
:100438000C3208DD02F1140CC2F10C0201FA0CF0C6
:1004480021FA02F10CE002F11402D8BFC2F1200C2B
:1004580001FA02F120FA0CFCDCBF41EA0C019040E1
:10046800E41AA2BF01EB0451294330BD6FEA04042A
:100478001F3C1CDA0C340EDC04F11404C4F1200215
:1004880020FA04F001FA02F340EA030021FA04F327
:1004980045EA030130BDC4F10C04C4F1200220FA7E
:1004A80002F001FA04F340EA0300294630BD21FABC
:1004B80004F0294630BD94F0000F83F4801306BF82
:1004C80081F480110134013D4EE77FEA645C18BF76
:1004D8007FEA655C29D094EA050F08BF90EA020F0D
:1004E80005D054EA000C04BF1946104630BD91EA05
:1004F800030F1EBF0021002030BD5FEA545C05D108
:100508004000494128BF41F0004130BD14F5800446
:100518003CBF01F5801130BD01F0004545F0FE41BA
:1005280041F470014FF0000030BD7FEA645C1ABFEF
:10053800194610467FEA655C1CBF0B46024650EA26
:10054800013406BF52EA033591EA030F41F4002152
:1005580030BD00BF90F0000F04BF0021704730B5D8
:100568004FF4806404F132044FF000054FF00001AD
:1005780050E700BF90F0000F04BF0021704730B56E
:100588004FF4806404F1320410F0004548BF404243
:100598004FF000013EE700BF42004FEAE2014FEA98
:1005A80031014FEA02701FBF12F07F4393F07F4F73
:1005B80081F06051704732F07F4208BF704793F076
:1005C8007F4F04BF41F40021704730B54FF4607489
:1005D80001F0004521F000411CE700BF50EA01028C
:1005E80008BF704730B54FF000050AE050EA010235
:1005F80008BF704730B511F0004502D5404261EBA5
:1006080041014FF4806404F132045FEA915C3FF4E5
:10061800D8AE4FF003025FEADC0C18BF03325FEA82
:10062800DC0C18BF033202EBDC02C2F1200300FA33
:1006380003FC20FA02F001FA03FE40EA0E0021FA58
:1006480002F11444BDE600BF70B584B04FF0FF332B
:1006580002930192009101230246A0210A4807F063
:1006680011FF70B9084E052501242B462246A0210A
:10067800304608F007F903460028F6D1184604B0BA
:1006880070BD0123FAE700BFFC07002400B583B062
:1006980069238DF80030030A8DF801308DF80200C7
:1006A80001238DF803306B4601A8002213F8011BC3
:1006B8004A408342FAD18DF8042005226946002079
:1006C800FFF7C2FF03B05DF804FB000000B585B07A
:1006D8004FF0FF3302930192009101230246A021BB
:1006E800044807F0CDFF003818BF012005B05DF8B9
:1006F80004FB00BFFC07002410B582B004460522A5
:1007080069460020FFF7E2FF50BB86469DF803309C
:10071800012B1CD0184B00221A706A460DF1040CEC
:10072800734612F8011B4B40DBB26245F9D19DF8C4
:1007380004209A4219D19DF80030692B18D19DF8F0
:1007480001209DF8023043EA022323800AE00A4B85
:1007580002221A70094B00229A700122DA70DCE733
:100768004FF0010E704602B010BD4FF0010EF9E7D0
:100778004FF0020EF6E700BF00000024040000243A
:1007880008B50D48FFF7B8FF60B90C4BDA8907EEDA
:10079800902AF8EE677ADFED0A6A87EEA67A83ED8B
:1007A800087A08BD074B01229A72074B0B221A7070
:1007B800024B064A1A62F4E71200002404000024DF
:1007C8000000C8420806002415060024857C983FCE
:1007D80070B5049D90ED007BB4EEC07BF1EE10FA8D
:1007E80035DB30EE470B90ED026B36EE477B80EE43
:1007F800076B4FF0000E91ED007BB4EEC17BF1EE7C
:1008080010FA65DB31EE471B91ED025B35EE477B55
:1008180081EE074B002405FB04EE02EBCE0393EDBB
:10082800000B93ED027B37EE407B07EE060BAE44E0
:1008380002EBCE0292ED007B92ED025B35EE475B58
:1008480005EE067B37EE407B07EE040B70BD1C6897
:100858004FEAC40C00EBC40696ED007BB4EEC07BF7
:10086800F1EE10FA28DD4FEA540C012C21D94FF093
:10087800000E00EBCC0696ED007BB4EEC07BF1EEEB
:1008880010FAD4BFE64664460EEB040C4FEA5C0C43
:10089800A4EB0E06012EECD800EBCE0090ED006B19
:1008A80030EE460B90ED027B37EE467B80EE076B11
:1008B800A1E74FF0000EEFE704F1FF3E604410EDB2
:1008C800026B30EE460B37EE467B80EE076B92E705
:1008D8005868C60001EBC00393ED007BB4EEC17B02
:1008E800F1EE10FA24DD430801281FD9002401EB9A
:1008F800C30C9CED007BB4EEC17BF1EE10FAD4BFC3
:100908001C46184623185B08A0EB040CBCF1010F29
:10091800EDD801EBC40191ED005B31EE451B91ED83
:10092800027B37EE457B81EE074B74E70024F0E746
:10093800441E314411ED025B31EE451B37EE457B19
:1009480081EE074B67E70000F0B52DED108B9BB0EB
:10095800D54B93ED067B8DED027B9FEDCDAB27EE5E
:100968000AABB0EECAABD14A82ED1AAB93ED446B39
:10097800CF4B93ED007B26EE076BCE4B93F85830A8
:1009880013B1CC4B83ED006BC74B93ED389AB7EEA0
:10099800C99A9FEDC17B29EE077BC64B93ED009B5F
:1009A80036EE496BB4EEC67BF1EE10FA0FD4BE4BAF
:1009B80093ED397AB7EEC77A9FEDB75B27EE057BE3
:1009C800B4EEC76BF1EE10FA58BFB0EE467B39EEC5
:1009D800079BB84B83ED009BB34B93ED467BB5EE7D
:1009E800C07BF1EE10FA40F34A831B230093B24B0D
:1009F800B24AB349A1F1D800B0EE491BB0EE4A0B98
:100A0800FFF7E6FEAB4B93F8593013B1A94B83EDD2
:100A1800020BA54B93ED347AB7EEC77A9FED9E6B28
:100A280027EE067BA34B93ED026B30EE460BB4EE3C
:100A3800C07BF1EE10FA0FD49B4B93ED357AB7EEED
:100A4800C77A9FED955B27EE057BB4EEC70BF1EEF9
:100A580010FA58BFB0EE407B36EE077B934B83ED20
:100A68000C7B914B93ED40DAB7EECDDAB4EECD7B4B
:100A7800F1EE10FA0ADC93ED41DAB7EECDDAB4EE16
:100A8800CD7BF1EE10FA58BFB0EE47DB864C94ED03
:100A98000A8B94ED0C7B38EE07BB3BEE07BB9FED52
:100AA800807B2BEE07BB94ED08CBB0EE4C0B0CF023
:100AB8007BF9B0EE40EB8DED100BB0EE4C0B0CF06B
:100AC80027F98DED120B2BEE0EFB08EE00FBF7EE6F
:100AD800CF5BCDED195A28EE0E8B1BEE008BB7EECF
:100AE800C88BD4ED3A7AF7EE00CA7CEEE7CA714BB0
:100AF80093ED147A6CEE87CA67EEA57A7CEEA7CAE6
:100B0800C3ED14CA94ED3BCAB5EEC0CAF1EE10FAB3
:100B1800CCBFB0EE6C7A9DED197AB7EEC77A3DEE90
:100B2800475B8DED085B614B83ED185B614A92ED85
:100B3800066B8DED0A6B5C4B93ED147B15EE076B22
:100B480093ED167B26EE074B8DED144B92ED047B4F
:100B58008DED0C7B93ED106B05EE067B37EE047B79
:100B68008DED067B93ED2CBBB4EEC7BBF1EE10FA0E
:100B780040F188824D4B83ED10BB4B4BD3ED3F8A40
:100B8800DFED507A68EEA78A9DED027BB0EEC7EBE9
:100B9800464B83ED12EB1B230093474B4A4AA2F5C1
:100BA800E751A1F1D800B0EE491BB0EE4A0BFFF7B0
:100BB8000FFE404B93F85A3013B13E4B83ED080BB0
:100BC800394B93ED367AB7EEC77A9FED336B27EE44
:100BD800067B364B83ED1A7B364B93ED086B30EE74
:100BE800460BB4EEC07BF1EE10FA11D42E4B93ED08
:100BF800377AB7EEC77A9FED285B27EE057BB4EE10
:100C0800C07BF1EE10FA40F35182284B83ED1A7B3A
:100C1800264B93ED1A7B36EE077B83ED0A7B2B4B35
:100C28009B88B3F5807F09D0012B00F043821F4BCE
:100C380000200021C3E90A01C3E90C011B4B93ED15
:100C48000A6B8DED046B184B93ED427AB7EEC77AB9
:100C5800B4EEC76BF1EE10FA40F33282134B83ED1A
:100C68001A7BB0EE087B9DED026B26EE07AB8DED8F
:100C780016AB1B230093104B154AA2F58471A1F102
:100C8800D800B0EE491BB0EE4E0BFFF7A1FD21E0F6
:100C9800FB2BED663D1923402D431CEBE2361A3F32
:100CA8001D339045A779E23FC0010024E8020024E3
:100CB8005001002458010024F0690108D8DC00081C
:100CC80088F900083ACD133F68160108040000248B
:100CD80090FA0008E24B93ED1A6B8DED0E6B9FEDC9
:100CE800D27B20EE070B20EE060B2AEE400BB7EE68
:100CF800E8AAB4EEC0ABF1EE10FA00F1F781B1EE5C
:100D0800687AB7EEC77AB4EE407BF1EE10FA37FE98
:100D1800000BD34B93ED10FB3FEE000B83ED140B50
:100D2800B4EEC0BBF1EE10FA40F1E38183ED14BBE1
:100D3800CC4ECD4DA5F1D8041B2700973346CB4A9E
:100D480029462046B0EE491BB0EE4E0BFFF740FD9A
:100D58009FEDB5BB20EE0B0B20EE0DDB0097334665
:100D6800C34A29462046B0EE491BB0EE4E0BFFF7AA
:100D78002FFD00EE0BDB9DED167B2DEE07DBBD4B4B
:100D880093ED3C7AF7EE007A77EEC77ABA4AD2ED5D
:100D9800156A67EEA67A27EE087A77EE877AC2EDAB
:100DA800157A93ED3D7AB5EE407AF1EE10FA37FEFA
:100DB800888AB7EEC89A9DED0E7B37EE493BA84B63
:100DC80083ED1A3B92ED0C7BB0EE47EB8DED0E7B7D
:100DD800A84B93ED247B13EE07EB93ED267B2EEEC9
:100DE80007EB92ED0ABB93ED207BB0EE4B4B03EE85
:100DF800074B34EE0E4B93ED307BB4EEC47BF1EE33
:100E080010FA40F18381964B83ED127BB4EECDABA3
:100E1800F1EE10FA09D4F1EE688AB7EEE8AAB4EE5A
:100E2800CDABF1EE10FA3AFE0DAB8D4B93ED122BD4
:100E380032EE0AAB83ED16ABB4EECA7BF1EE10FAD4
:100E480040F1748183ED167B854B93ED145B93ED34
:100E5800161B9DED107B21EE076B9DED128B15EE99
:100E6800086BB6EE000B26EE000B25EE075B01EED5
:100E7800085B9FED6F7B25EE075B35EE401B9FED12
:100E88006E7B37EE407B37EE457B86FE010B80FE9E
:100E9800070B86FE415B85FE475B30EE055BBEEEC9
:100EA800000B25EE005B36EE056B9FED650B26EE1D
:100EB800006B83ED006B31EE051B21EE001B83ED0B
:100EC800021B37EE057B27EE007B83ED047B83ED69
:100ED800089BB5EEC0CAF1EE10FA40F33481B7EEC4
:100EE800EC7A5F4B83ED067B624B93ED021B9FED23
:100EF800567B21EE077B604B93F85B302BB15D4B43
:100F0800D3E900015C4BC3E90E015B4B93ED0E5B2B
:100F1800584B93ED006B36EE456BB4EEC67BF1EEA5
:100F280010FA0CD493ED041B9FED477B21EE077B51
:100F3800B4EEC76BF1EE10FA58BFB0EE467B35EE53
:100F4800077B4D4B83ED0E7B454A9FED416B9DED35
:100F5800025B17EE065B82ED1C5B002183F85810DC
:100F680083F85910D2E90C01C3E90201414B93ED12
:100F7800126B3FEE4F7B9DED085B05EE067B9DED0A
:100F8800066B3FEE466B37EE067B9FED2F6B9DEDB4
:100F98000C5B07EE065B9FED307BB4EEC75BF1EEB2
:100FA80010FA40F3D580344B83ED047B324B9FED30
:100FB800267B9DED0A6B9DED145B05EE076B83EDBB
:100FC800066B002283F85A209DED046B83ED086BB5
:100FD800284B93ED225B32EE426BBAEE041B26EEF1
:100FE800016B03EE056B32EE442B36EE022B02EE5C
:100FF80007BB9FED197BB4EEC7BBF1EE10FA40F3C7
:10100800B9801D4B83ED0A7B1B4B9FED0F6B9DED4C
:101018000E7B0EEE067B83ED0C7B002283F85B20B3
:101028001BB0BDEC108B29E0FCA9F1D24D62503FFA
:10103800AA4C58E87AB6EB3F000000000000000018
:101048001D339045A779F23F2D431CEBE2361A3F3A
:10105800D5EB7BF3E9CEBA3F000000803FBE4040AD
:10106800E8020024F069010888F90008184E010810
:1010780040320108C001002458010024F0BD93ED5E
:10108800489BB2E4464B93ED2E7B9DED066BB4EE88
:10109800C67BF1EE10FA03DD424B83ED107B6CE565
:1010A800404B9DED067B83ED107B66E53D4B83ED64
:1010B8001A0BADE5B1EE477B3A4B83ED0A7BBDE5F4
:1010C800374B93ED437AB7EEC77A9DED046BB4EED8
:1010D800C76BF1EE10FA03D5324B83ED1A7BC0E5EE
:1010E800304B9DED047B83ED1A7BBAE5B0EE4A0BDD
:1010F8000FE62B4B93ED2E7BB4EEC70BF1EE10FAF7
:101108007FF516AE274B83ED147B11E6244B93ED48
:10111800326BB4EEC46BF1EE10FA03DD214B83EDB4
:10112800126B73E61F4B83ED124B6FE61C4B93ED6E
:10113800327BB4EEC7ABF1EE10FA7FF585AE194BF2
:1011480083ED167B80E6DDED197AB7EEE77AC8E61F
:101158009FED117BB4EEC75BF1EE10FA03D4124B8E
:1011680083ED045B22E7104B0BA1D1E90001C3E931
:1011780004011BE79FED087BB4EEC7BBF1EE10FA44
:1011880003D4094B83ED0ABB3EE7074B02A1D1E923
:101198000001C3E90A0137E7000000803FBE40C0F4
:1011A800C0010024E80200245801002400000000C7
:1011B8003D4B93ED1C1B3D4A92ED123B3C4B93ED8E
:1011C8001C7BB0EE432B11EE072B93ED1E7B22EE1A
:1011D800072B92ED105B93ED186BB0EE454B01EECB
:1011E800064B34EE024B93ED287BB4EEC47BF1EE54
:1011F80010FA29D52F4B83ED007B2E4B93ED007B06
:10120800294B83ED0E7B2A4B93ED1A0B37EE476B78
:1012180001EE006B37EE447B36EE077B9FED1C6BCF
:1012280007EE065B9FED1C7BB4EEC75BF1EE10FA90
:101238001ADD1E4B83ED107B9FED157B02EE073BFD
:101248001A4B83ED123B7047194B93ED2A7BB4EE92
:10125800C47BF1EE10FA03DD164B83ED007BCCE77F
:10126800144B83ED004BC8E79FED0D7BB4EEC75BD5
:10127800F1EE10FA03D40D4B83ED105BDCE70B4B5A
:1012880007A1D1E90001C3E91001D5E7AFF3008058
:10129800FCA9F1D24D62503F0000004010E07D40B3
:1012A8000000004010E07DC0E8020024580100243E
:1012B800C001002450010024594B012283F8582012
:1012C80083F8592083F85A2083F85B20554B564AF7
:1012D800C3F8FC203EA1D1E90001C3E94401534A07
:1012E800C3F8F820524AC3F80821524AC3F80C211F
:1012F800514AC3F80021514AC3F8042136A1D1E963
:101308000001C3E9020136A1D1E90001C3E90401E2
:101318004B49C3F8E0104B4AC3F8E420C3F8D8108F
:10132800C3F8DC20C3F8D010C3F8D4202EA1D1E92B
:101338000001C3E928019FED2E6B83ED2A6B002085
:101348004149C3E9180100204049C3E91A019FED4A
:101358002A7B83ED1C7B00203D49C3E91E019FEDDC
:10136800284B83ED304B9FED285B83ED325B9FED7F
:10137800283B83ED203BB1EE0C3B83ED223B83ED14
:10138800247BC3E9260183ED2C4B83ED2E5B9FED77
:10139800225B83ED105BB1EE085B83ED125B83ED9E
:1013A800147BC3E916014FF07E52C3F8EC20C3F852
:1013B800F420284AC3F8E820C3F8F0200020264982
:1013C800C3E9460183ED486B704700BFAFF3008067
:1013D80000000020166AC53F000000000088C340D6
:1013E80000000000D01263C10000004010E07D4002
:1013F800000000000000000000000080B5F8E43E96
:10140800000000803FBE4040000000803FBE40C05A
:10141800000000A09999B93F000000A09999C93F20
:1014280058010024C0010024000068420000404028
:1014380000007A4300007AC300009643000096C378
:101448000024F4480024F4C80000104000002040A4
:10145800000014406666663F0000F03FB5EEC00B22
:10146800F1EE10FA09DD4FF0010C83F800C081425B
:1014780094BF00210121117070471A7802B9704792
:1014880000221A70FBE7B5EEC00BF1EE10FA09DD89
:101498004FF0010C83F800C081422CBF00210121CC
:1014A800117070471A7802B9704700221A70FBE76A
:1014B800F8B53B4B93ED167B93ED182B87FE026B2B
:1014C80093ED1A3B86FE036B93ED0C4AD3ED0D5A50
:1014D800B7EEE51A87FE427B87FE437BB7EEC43A38
:1014E800B4EEC63BF1EE10FA0BD4B1EE444AB7EEB7
:1014F800C44AB4EEC74BF1EE10FACCBF012000206D
:1015080000E00120274B1870B4EEC61BF1EE10FA6C
:101518000BD4B1EE656AB7EEC66AB4EEC76BF1EEEE
:1015280010FACCBF0123002300E001231D4C637097
:101538001D4D1E4E05F18C03221D95F8881096ED61
:10154800000BFFF7A0FF274605F18D03621D95F8F4
:10155800881017F8020B96ED020BFFF77FFF05F1D5
:101568008A033A4695F88910607896ED040BFFF7E0
:101578008AFF05F18B03E21C95F88910607896EDD7
:10158800060BFFF76BFFA3780BB9E07800E00120AA
:1015980000F00100034B1B7953B9024B597908E05D
:1015A800400500246003002468030024106A010831
:1015B800012101F00101B84B93F88030002B40F075
:1015C8009381B54B012283F88020022283F8812081
:1015D800B24C002222715A611A61032583F88250A5
:1015E8005A621A6283F8845062705A631A6383F8E5
:1015F800855022705A651A65DA645A64052583F89D
:101608008650A2705A671A67DA665A6683F8875056
:10161800E27081F00102002940F08E869E4B1B6922
:1016280001339D4C2361002840F089862346646974
:1016380001345C61DC690134DC61002A00F08586D4
:10164800954B9B690133944A9361954B93ED126BCB
:1016580093ED017AB7EEC77AB4EEC76BF1EE10FAE4
:1016680040F37686136A01338B4A13628C4B93EDF1
:10167800005AB7EEC55AB4EEC56BF1EE10FA40F356
:101688006A86536A0133844A5362B4EEC56BF1EE3D
:1016980010FA40F16386936A01337F4A9362B4EE8D
:1016A800C76BF1EE10FA40F35C86D36A01337A4ACD
:1016B800D3627B4B93ED146B93ED037AB7EEC77A45
:1016C800B4EEC76BF1EE10FA40F34E86136B01339C
:1016D800714A1363724B93ED025AB7EEC55AB4EED2
:1016E800C56BF1EE10FA40F34286536B01336A4A38
:1016F8005363B4EEC56BF1EE10FA40F13B86936B81
:101708000133654A9363B4EEC76BF1EE10FA40F308
:101718003486D36B0133604AD363614B93ED1E7BF0
:1017280093ED096AB7EEC66AB4EEC67BF1EE10FA1D
:1017380040F12686136C0133574A1364584B93EDD6
:10174800085AB7EEC55AB4EEC57BF1EE10FA40F16F
:101758001A86536C0133504A5364B4EEC57BF1EEDC
:1017680010FA40F31386936C01334B4A9364B4EE3A
:10177800C67BF1EE10FA40F10C86D36C0133464A71
:10178800D364474B93ED0A6AB7EEC66AB4EEC67BDC
:10179800F1EE10FA40F30086136D01333E4A1365EB
:1017A8003F4B93ED0B5AB7EEC55AB4EEC57BF1EE3D
:1017B80010FA40F3F485536D01335365B4EEC67BDC
:1017C800F1EE10FA00F1F385334B00229A65324BA3
:1017D800DB6D0133304AD365314B93ED1C7B93EDC0
:1017E800056AB7EEC66AB4EEC67BF1EE10FA40F1B0
:1017F800EE85136E0133284A1366294B93ED045A7C
:10180800B7EEC55AB4EEC57BF1EE10FA40F1E285A9
:10181800536E0133204A5366B4EEC57BF1EE10FADD
:1018280040F3DB85936E01331B4A9366B4EEC67BA7
:10183800F1EE10FA40F1D485D36E0133164AD3661F
:10184800174B93ED066AB7EEC66AB4EEC67BF1EEA7
:1018580010FA40F3C885136F01330F4A1367104B12
:1018680093ED075AB7EEC55AB4EEC57BF1EE10FA00
:1018780040F3BC85536F01335367B4EEC67BF1EE7A
:1018880010FA00F1BB85044B00229A67024BDA6F0D
:101898000132014BDA6705E068030024C005002423
:1018A80040050024BB4A51701070BB4A117883F878
:1018B8008810527883F88920B84BD3F81021013268
:1018C800C3F81021D3F8281107EE902AB8EE677BE9
:1018D80093ED466B26EE077B81ED007BD3F8202144
:1018E8000132C3F82021F8BDAD4B93F88130012BAC
:1018F80018D0022B1AD0AA4B93ED027BB5EE407B91
:10190800F1EE10FA40F0BA80002283F88320022416
:1019180083F88140A34C22715A611A61032283F82B
:101928008220EFE09F4B02221A71EBE09C4B93ED73
:10193800026B9D4B93ED117AB7EEC77AB4EEC76B85
:10194800F1EE10FA0FDD964B002283F88220032473
:1019580083F88140934C01252571DA619A6102224E
:1019680083F88320CEE08E4B93ED005BB4EEC57B0D
:10197800F1EE10FA09D5002283F88220012283F8BB
:101988008120884B02221A71BCE0864B00221A7112
:10199800834B93F88230012B0DD0022B13D0D0B19A
:1019A8007F4B012283F88220B7EE007B35EE075B80
:1019B80083ED005BA6E07A4B00225A611A6103228C
:1019C80083F882209EE0764B00225A611A61032236
:1019D80083F8822096E051B1714B022283F882206D
:1019E800B7EE007B36EE076B83ED026B8AE0B5EE4F
:1019F800C06BF1EE10FA21DD694B93ED044AB8EEA5
:101A0800444B694B93ED107AF2EE047A27EE277A6D
:101A1800B7EEC77AB4EEC74BF1EE10FA0EDDB7EEAB
:101A2800007B36EE476B5E4B83ED026B5C4B00220E
:101A38005A611A61032283F8822063E0B5EEC05B25
:101A4800F1EE10FA5EDD564B93ED056AB8EE466B83
:101A5800554B93ED107AF2EE047A27EE277AB7EE1B
:101A6800C77AB4EEC76BF1EE10FA4BDDB7EE007B28
:101A780035EE475B4A4B83ED005BD7E7484B93ED68
:101A8800005B494B93ED116AB7EEC66AB4EEC65BCC
:101A9800F1EE10FA0ADD424B002283F8832001227E
:101AA80083F881203F4B02221A712BE03D4B012223
:101AB8001A713B4B93F88330934257D011B1384B8E
:101AC80000229A61384B93ED106AF2EE046A26EE12
:101AD800266AB7EEC66A324B93ED064AB8EE444B17
:101AE800B4EEC46BF1EE10FA48D5B7EE006B37EEE2
:101AF800467B83ED027B2A4B0022DA619A6102223F
:101B080083F88320264B93F88430012B64D0022B72
:101B180000F09A80234B00225A70234B93ED125BFE
:101B280093ED017AB7EEC77AB4EEC75BF1EE10FA1F
:101B380001DC1B4B1A621C4B93ED0F7AF2EE047A10
:101B480027EE277AB7EEC77A154B93ED086AB8EEF9
:101B5800466BB4EEC67BF1EE10FA40F1C28001226A
:101B680083F884200F4B02225A7038E00C4B002275
:101B7800DA619A61022283F88320C3E7B0B1084B87
:101B8800012283F88320B7EE007B35EE075B83EDF7
:101B9800005BB7E73805002460030024F80300243D
:101BA80068030024C005002440050024B5EEC05B8E
:101BB800F1EE10FAA6DDB94B93ED077AB8EE477B44
:101BC800B4EEC76BF1EE10FA9CD5B7EE007B35EE9C
:101BD800475B83ED005B8EE7B14B02225A70AF4B37
:101BE80093F88530012B00F09E80022B00F0AB802B
:101BF800AB4B00221A70AB4B93ED145B93ED037A59
:101C0800B7EEC77AB4EEC75BF1EE10FA01DCA34B6E
:101C18001A63A44B93ED0F7AF2EE047A27EE277A33
:101C2800B7EEC77A9D4B93ED0C6AB8EE466BB4EEEF
:101C3800C67BF1EE10FA40F1D380012283F88520AB
:101C4800974B02221A7071E0954B01225A70954BFE
:101C580093ED125B93ED017AB7EEC77AB4EEC75BEA
:101C6800F1EE10FA02DC8D4B0022DA628D4B93ED17
:101C78000F7AF2EE047A27EE277AB7EEC77A874B07
:101C880093ED0B6AB8EE466BB4EEC67BF1EE10FA34
:101C980006D5012283F88420814B02225A709EE7E0
:101CA800804B93ED006AB7EEC66AB4EEC65BF1EE00
:101CB80010FA02D4794B00229A62784B93ED0A6AA3
:101CC800B8EE466BB4EEC67BF1EE10FA87D51A462D
:101CD800002353621362032482F88440704A5370CD
:101CE8007DE7704B93ED006AB7EEC66AB4EEC65B4B
:101CF800F1EE10FA02DC694B00225A62674B93ED51
:101D0800096AB8EE466BB4EEC67BF1EE10FA7FF5C1
:101D180066AF0022DA629A62022283F88420604B5E
:101D280001225A705BE75E4B02221A705B4B93F8F4
:101D38008630013B032B00F22E81DFE813F072009E
:101D48008200D800DC00564B01221A70554B93EDE7
:101D5800145B93ED037AB7EEC77AB4EEC75BF1EE86
:101D680010FA02DC4D4B0022DA634E4B93ED0F7AEA
:101D7800F2EE047A27EE277AB7EEC77A474B93ED4F
:101D88000F6AB8EE466BB4EEC67BF1EE10FA06D5D4
:101D9800012283F88520424B02221A70C6E7414B84
:101DA80093ED026AB7EEC66AB4EEC65BF1EE10FABE
:101DB80002D43A4B00229A63384B93ED0E6AB8EE80
:101DC800466BB4EEC67BF1EE10FAAFD51A46002387
:101DD80053631363032482F88540314A1370A5E7DF
:101DE800304B93ED026AB7EEC66AB4EEC65BF1EE0D
:101DF80010FA02DC294B00225A63284B93ED0D6A36
:101E0800B8EE466BB4EEC67BF1EE10FA8ED5002222
:101E1800DA639A63022283F88520214B01221A7023
:101E280084E71F4B02229A701C4B93F88730013BC2
:101E3800032B00F2F181DFE813F03A013F01910131
:101E48009D01174B01229A70164B93ED1E5B93ED83
:101E58000B7AB7EEC77AB4EEC75BF1EE10FA02DC84
:101E68000E4B0022DA650F4B93ED0E7AF2EE047AF0
:101E780027EE277AB7EEC77A084B93ED176AB8EEC4
:101E8800466BB4EEC67BF1EE10FA0DD5012283F84D
:101E98008620034B02229A70C6E700BF680300241D
:101EA800C005002440050024AF4B93ED0A6AB7EE45
:101EB800C66AB4EEC65BF1EE10FA02D4AB4B002250
:101EC8009A65AA4B93ED166AB8EE466BB4EEC67BDC
:101ED800F1EE10FAA8D51A46002353651365D364AA
:101EE8005364052482F88640A14A93709CE7A04B6E
:101EF80004229A7098E79E4B03229A709A4B93EDAE
:101F08001E5B93ED097AB7EEC77AB4EEC75BF1EEC4
:101F180010FA02D4954B00221A64934B93ED0E7A73
:101F2800F2EE047A27EE277AB7EEC77A8F4B93ED55
:101F3800106AB8EE466BB4EEC67BF1EE10FA06D521
:101F4800032283F886208A4B04229A706CE7864B1A
:101F580093ED086AB7EEC66AB4EEC65BF1EE10FA06
:101F680002DC824B00229A64804B93ED126AB8EE31
:101F7800466BB4EEC67BF1EE10FA7FF555AF1A4604
:101F8800002353651365D3645364052482F886409F
:101F9800774A937048E7764B00229A70724B93ED1C
:101FA8001E6B93ED0B7AB7EEC77AB4EEC76BF1EE02
:101FB80010FA01DC6D4B5A656B4B93ED0E7AF2EE1D
:101FC800047A27EE277AB7EEC77A684B93ED155A4D
:101FD800B8EE455BB4EEC57BF1EE10FA06D50122EA
:101FE80083F88620624B02229A701DE75E4B93EDC0
:101FF800095AB7EEC55AB4EEC56BF1EE10FA02D421
:102008005A4B0022DA64594B93ED135AB8EE455BEC
:10201800B4EEC57BF1EE10FA06D5032283F88620CC
:10202800534B04229A70FFE64F4B93ED0A5AB7EED2
:10203800C55AB4EEC56BF1EE10FA02DC4B4B002228
:102048001A654A4B93ED145AB8EE455BB4EEC57B5E
:10205800F1EE10FA09D50022DA659A65022283F8B2
:102068008620434B01229A70DEE63F4B93ED085AD7
:10207800B7EEC55AB4EEC56BF1EE10FA02D43B4B7D
:1020880000225A64394B93ED116AB8EE466BB4EEF0
:10209800C67BF1EE10FA7FF5C7AE00229A641A6487
:1020A800042283F88620324B03229A70BCE6304B18
:1020B8000222DA70FFF7ADBA2D4B0122DA702A4BF3
:1020C80093ED1C5B93ED077AB7EEC77AB4EEC75B66
:1020D800F1EE10FA02DC254B0022DA67224B93ED71
:1020E8000E7AF2EE047A27EE277AB7EEC77A1F4BFC
:1020F80093ED1F6AB8EE466BB4EEC67BF1EE10FAAC
:1021080007D5012283F88720194B0222DA70FFF7DE
:1021180080BA154B93ED066AB7EEC66AB4EEC65B95
:10212800F1EE10FA02D4114B00229A670F4B93ED8F
:102138001E6AB8EE466BB4EEC67BF1EE10FA7FF578
:1021480068AA1A46002353671367D36653660524A3
:1021580082F88740064AD370FFF75BBA044B042223
:10216800DA70FFF756BA00BF400500246803002460
:10217800C0050024A94B0322DA70A94B93ED1C5B20
:1021880093ED057AB7EEC77AB4EEC75BF1EE10FAB5
:1021980002D4A44B00221A66A14B93ED0E7AF2EEFC
:1021A800047A27EE277AB7EEC77A9E4B93ED186A22
:1021B800B8EE466BB4EEC67BF1EE10FA07D50322F3
:1021C80083F88720954B0422DA70FFF722BA944BE4
:1021D80093ED046AB7EEC66AB4EEC65BF1EE10FA88
:1021E80002DC904B00229A668E4B93ED1A6AB8EE89
:1021F800466BB4EEC67BF1EE10FA7FF50AAA1A46D2
:10220800002353671367D3665366052482F8874013
:10221800824AD370FFF7FDB9804B0022DA70804BF9
:1022280093ED1C6B93ED077AB7EEC77AB4EEC76BE4
:10223800F1EE10FA01DC7B4B5A67794B93ED0E7A7D
:10224800F2EE047A27EE277AB7EEC77A754B93ED4C
:102258001D5AB8EE455BB4EEC57BF1EE10FA07D512
:10226800012283F887206D4B0222DA70FFF7D1B97B
:102278006B4B93ED055AB7EEC55AB4EEC56BF1EE4C
:1022880010FA02D4674B0022DA66664B93ED1B5AAC
:10229800B8EE455BB4EEC57BF1EE10FA07D5032224
:1022A80083F887205D4B0422DA70FFF7B2B95C4BE4
:1022B80093ED065AB7EEC55AB4EEC56BF1EE10FAB7
:1022C80002DC584B00221A67564B93ED1C5AB8EEA5
:1022D800455BB4EEC57BF1EE10FA0AD50022DA6749
:1022E8009A67022283F887204C4B0122DA70FFF7A5
:1022F80090B94B4B93ED045AB7EEC55AB4EEC56B83
:10230800F1EE10FA02D4474B00225A66454B93ED82
:10231800196AB8EE466BB4EEC67BF1EE10FA7FF59B
:1023280078A900229A661A66042283F887203B4B14
:102338000322DA70FFF76DB90023FFF772B9394B42
:1023480000245C61DC61FFF778B90023FFF77BB9F3
:102358000023FFF789B90023FFF795B90023FFF79A
:102368009CB90023FFF7A3B90023FFF7B1B90023F5
:10237800FFF7BDB90023FFF7C4B90023FFF7CBB9B6
:102388000023FFF7D9B90023FFF7E5B90023FFF7CA
:10239800ECB90023FFF7F3B90023FFF7FFB9214B8E
:1023A80000225A65B4EEC67BF1EE10FA0DD51D4B2E
:1023B8009B6D01331B4A9365B4EEC57BF1EE10FAB1
:1023C8003FF705AA0023FFF705BA0023F2E7002329
:1023D800FFF711BA0023FFF71DBA0023FFF724BA4D
:1023E8000023FFF72BBA0023FFF737BA0D4B002263
:1023F8005A67B4EEC67BF1EE10FA0DD5094B9B6F08
:102408000133084A9367B4EEC57BF1EE10FA3FF743
:102418003DAA0022FFF73DBA0023F2E7C0050024D9
:102428004005002468030024254B03F59272DA6006
:1024380003F59472C3F8842003F58C729A62C3F88A
:10244800D0309B60012283F82421002183F8FC10FE
:1024580083F80C111B49596103F59871C3F82811C9
:1024680015A1D1E90001C3E94601174B5A701A704A
:10247800164B174ADA62174A9A62174A1A62174ABB
:102488005A62174A1A60174A5A60174A9A601749D7
:10249800D96017491963174959635A64164A9A61EA
:1024A800164ADA61164A1A61164A5A61164A9A6336
:1024B800DA631A64704700BF2D431CEBE2361A3FFB
:1024C800F8030024F86901083805002440050024B1
:1024D80000009041000070410000204100000841C8
:1024E800000096420000AA420000C8420000F042E4
:1024F8000000C8430000E143000088420000904209
:10250800000048420000404200001643000000005E
:1025180008B507EE900AF8EEE77ADFED196A67EE7C
:10252800A66A9FED187A77EE677A86EEA77AB7EEF5
:10253800C77AB7EEC00A87EE000B0AF0A1FA9FED42
:102548000A6B80EE067B9FED0A6B37EE067BB7EED3
:10255800006B86EE070B9FED087B30EE470BB7EE5E
:10256800C00B08BDAFF30080000000000040AF4082
:1025780045A725E6E1796B3F666666666612714097
:1025880000401C460000804780ED000AC0ED010AAB
:1025980080ED021A0023C360002303747047037C94
:1025A800EBB1D0ED037A70EEE77AF5EEC07AF1EE92
:1025B80010FA1BD9D0ED026A30EE667AB5EEC07A11
:1025C800F1EE10FA15DD90ED006A67EE867AB4EE4A
:1025D800E77AF1EE10FA15DD36EEA70A17E0C0ED3E
:1025E800030A80ED020A01230374704790ED020A82
:1025F800704790ED016A66EE677AB5EEC07AF1EE43
:1026080010FAE4DCB5EEC07AF1EE10FA04D480EDED
:10261800020AC0ED030A7047B4EEE77AF1EE10FA49
:1026280048BF36EEA70AF2E70F4AD2ED007A70EEFD
:10263800277A9FED0E7A67EE877A0D4B93ED007A35
:10264800DFED0C6A27EE267A77EE877A0A49C1ED24
:10265800247ADFED0A6A87EEA67A81ED267A82ED82
:10266800000AC3ED007A7047E40500248B4B863CD2
:10267800E0050024489B773F04000024F46CD63D15
:1026880010B52DED048BB0EE409A0AF005FCF0EE83
:10269800408A204C94ED008A30EE488ADFED1E9A7D
:1026A80028EE298AB0EE490A0AF046F91B4BD3ED09
:1026B800007A70EE677A67EEA97AC4ED008A83ED36
:1026C800000A28EE008A28EEA70A38EE400ADFED55
:1026D800147AB4EEE70AF1EE10FA0ADB114BC3EDF7
:1026E800237A104B93ED230AFFF79EFFBDEC048B72
:1026F80010BDDFED0D7AB4EEE70AF1EE10FA03D95A
:10270800084B83ED230AECE7064B084AC3F88C20F4
:10271800E7E700BFE8050024FFFF7944DC05002453
:102728005A141D44040000245A141DC45A141DC40C
:102738002DE9F8432DED088B594B1B78012B03D05D
:10274800BDEC088BBDE8F88300224FF400415548E2
:1027580005F0C6FCDFED54BA9FED54BA9FED4C9BD3
:102768009FED4D8B9FED52AADFED52AADFF8508105
:10277800514F524E13E033680024DC639C635C6362
:102788000821304609F07EFC0421304609F082FF1A
:102798002146304609F07EFF3B78132B28D8B8F83D
:1027A8000230012BCCD13B7801333B7008213046F5
:1027B80009F0A4FB0421304609F0E2FE002130466E
:1027C80009F0DEFE33680022DA639A635A63042450
:1027D8004FF47A754FF032093368DD639D635D63AA
:1027E800484601F0C9FE631E13F0FF04F4D1C2E7A6
:1027F800334C0025A5700126E670324B1B685B6AD6
:10280800236194ED127A3BEEC77A27EE0B7A37EE06
:10281800077AB7EEC77AB0EE480B17EE090BB7EE9A
:10282800C00B84ED130AF0EE4A0A0AF0CDFB84EDE2
:10283800130AC0EE0A7A67EEAA7AFCEEE77A17EE78
:10284800903A9BB2A361F0EE087A20EE270A84ED55
:10285800080AF0EE4A0A0AF0B7FB84ED080A324685
:102868004FF400410F4805F03BFC174C2946204621
:1028780009F070FD0421204609F06CFD204608F09F
:1028880040FD204601F004FD054B03221A706DE758
:10289800182D4454FB21094000000040ED29993FC0
:1028A80000000024000C02580000C8420AD7233C4C
:1028B800DA0FC94000000045EC0500245008002448
:1028C80004000024E80800243409002408B504485A
:1028D80005F03AF800B908BD01F05CFAFBE700BF63
:1028E8005C07002400B58BB0029100210391019090
:1028F80005910691079108910991049301A9074848
:1029080005F03CF830B1054B1B6800221A65044BF2
:1029180001221A610BB05DF804FB00BF5C070024BC
:1029280000A800400000000000B583B02A4B93EDDA
:10293800007BB2EE046B27EE067BBCEEC77B17EE7E
:10294800103A98B2254BD3ED267A9FED257A77EE8B
:10295800877AB2EE047A67EE877AFCEEE77A17EEAA
:10296800903A9BB21F4A92ED066B9FED195B36EECB
:10297800056BBCEEC66B16EE101A89B292ED087B99
:1029880037EE057BBCEEC77B17EE102A92B28DF8A6
:102998000000000A8DF801008DF802301B0A8DF83E
:1029A80003308DF80410090A8DF805108DF80620FB
:1029B800120A8DF8072008236A46002140F20140D8
:1029C800FFF790FF03B05DF804FB00BFAFF3008092
:1029D8000000000000008040C00100240400002422
:1029E80000204B45E802002410B582B0264B93ED39
:1029F800146B9FED215B36EE056BFCEEC67B17EE84
:102A0800900A93ED167B37EE057BFCEEC77B17EE3D
:102A1800901A93ED0A6B9FED1A5B36EE056BBCEED0
:102A2800C66B16EE102A92B293ED0C7B37EE057B3F
:102A3800BCEEC77B17EE103A9BB2144C64698DF854
:102A48000020120A8DF801208DF802301B0A8DF83B
:102A580003308DF804008DF805108DF80640C4F396
:102A680007248DF8074008236A46002140F20240F7
:102A7800FFF738FF02B010BD000000803FBE4040A5
:102A88000000000000008040E80200240400002448
:102A980000B583B000210191204890ED167ADFED52
:102AA800206A27EE267ABCEEC77A17EE103A9AB259
:102AB800D0ED0A7A67EEA67AFCEEE77A17EE903A3E
:102AC8009BB290ED0B7ADFED176A37EE267AFCEEB3
:102AD800C77A17EE90CAD0ED0C7A77EEA67AFCEE9C
:102AE800E77A17EE900A8DF80020120A8DF8012077
:102AF8008DF802301B0A8DF803308DF804C08DF86C
:102B08000500094B1B788DF8063008236A4640F209
:102B18000340FFF7E7FE03B05DF804FB0400002460
:102B28000000C842000048421506002400B59DB0C8
:102B38004C22002109A809F0CBFE2022002101A87F
:102B480009F0C6FE022005F097FF00230093274BEB
:102B5800DA6A22F00102DA62DB6A03F00103009309
:102B6800234A936923F4404343F480439361936970
:102B780003F440430093009B936913F4005FFBD078
:102B88001C4A936A23F003039362022309930122E8
:102B98000C9240220D92129300221392042014905A
:102BA8000C21159116931790189319911A924FF4B6
:102BB80080531B9309A805F087FF98B93F23019319
:102BC8000323029300230393049305934022069260
:102BD80007930893022101A806F0C8FB20B91DB08D
:102BE8005DF804FB72B6FEE772B6FEE70004005813
:102BF800004802580044025800B5B1B0982200219C
:102C08000AA809F065FE4FF400220023CDE900234D
:102C18000423029309220392049302230593069343
:102C2800C0230793202308934FF440630993684611
:102C380006F02CFE10B931B05DF804FB72B6FEE761
:102C48000268604B9A4200D0704710B55E4A1388FC
:102C5800013313805D4C94ED1C0AFFF711FD5C4AAB
:102C680094ED247AB0EEC77AB7EEC77A82ED067B88
:102C7800584B1B8807EE903AF8EEE77A9FED567AA4
:102C880067EE877A77EEA77AC4ED2B7A534BD2E9B1
:102C98000E01C3E91601D2E90C01C3E91801D2E912
:102CA8000A01C3E91A0194ED0C7AB7EEC77A83EDED
:102CB800127B94ED0B7AB7EEC77A83ED147B94ED13
:102CC800167AB7EEC77A83ED1C7B94ED0A7AB7EED5
:102CD800C77A83ED1E7BFEF7EBFB414B9B78022BFB
:102CE8001ED0042B2CD03E4BDB78022B33D0042B88
:102CF8003CD03B4B1B78022B43D0394B5B78022BE3
:102D08004AD0374B1B79022B14D1364B0122DA7289
:102D18009A71354B07221A70344B06221A7009E053
:102D2800304B0122DA72DA702F4B04221A702F4BC3
:102D380006221A70244B1B88B3F5FA7F37D210BDD0
:102D4800284B0122DA721A71274B05221A70274B79
:102D580006221A70EEE7234B0122DA725A70224BD0
:102D680002221A70214B06221A70E3E71D4B01223A
:102D7800DA729A701C4B03221A701C4B06221A70C6
:102D8800D8E7184B0122DA72DA71174B08221A7049
:102D9800164B06221A70CDE7124B0122DA721A720C
:102DA800114B09221A70114B06221A70C2E7064B02
:102DB80000221A80FFF7B8FDFFF716FEFFF768FE3E
:102DC800BDE700BF00480140FE05002404000024C0
:102DD800C0010024F40500240A02533840050024E9
:102DE800C00500240806002415060024000000245D
:102DF800802800D070470D4B1A7882F001021A70B3
:102E08005B780133DBB2FF2B0BD0084A5370084BB9
:102E18001B78052BEED1074B1B685A6A034BDA6106
:102E2800E8E7024B00225A70F1E700BF04000024D3
:102E380000000024E808002402681F4B9A4200D0D2
:102E4800704710B52DED028B0446037F012B02D08D
:102E5800BDEC028B10BD002108F086FA07EE900A3F
:102E6800F8EE677A154BC3ED117AF5EE407AF1EE7C
:102E780010FAEDD00421204608F076FA07EE900A01
:102E88000E4CF8EE677A9FED0E8A67EE887AD4EDDD
:102E9800116A87EEA67A84ED127A06F06FF907EECA
:102EA800100AB8EE477AD4ED117A67EE887AC7EE41
:102EB800276AC4ED146ACBE7000C00400400002424
:102EC8000000C8421E4B1B7873B91D4B01221A70B3
:102ED8001C4B5B68BBB91C4B5B7853B901231A4A7E
:102EE8005370184A536014E0184B1B68184A1A604C
:102EF8007047134B00221A7001225A70134B1B683B
:102F0800134A1A6070475A1C092B0E4B08BF00223F
:102F18005A6010B5FDF718FD094B00221A705B784E
:102F280013B9094B5B7803B910BD054C01236370D5
:102F3800FEF73EF900236370034A5370F4E700BFBD
:102F4800F00500248C09002418060024D4DC0008AD
:102F5800306A01081F4B1B88A3F55A53313B9BB2BB
:102F680046F28E52934207D81A4B5B88A3F55A5300
:102F7800313B9BB2934205D9174A01231370174975
:102F88000B70D372164BD3ED167A164B93ED077A66
:102F9800F4EEC77AF1EE10FA06DB0F4B01225A70F5
:102FA8000E4902200870DA720E4B93ED057AF4EEA2
:102FB800C77AF1EE10FA06D8074B01229A70074932
:102FC80003200870DA72044BD87A003818BF012041
:102FD800704700BF8809002408060024150600244D
:102FE800040000244005002438B52DED028B02684A
:102FF800BF4B9A4202D0BDEC028B38BD0446092172
:1030080002F0CEFABB4D288040F20F11204602F0A4
:10301800C7FA6880B84B1B78042B26D0B64B1B78B0
:10302800052B00F09680B44B1B78062B74D0B24B5E
:103038001B78032BDFD1B14BD3ED087A9FEDB07A23
:1030480067EE877AFCEEE77A17EE903A98B2FDF7CA
:103058001DFB002840F0A581A74B02221A70A94841
:1030680008F0F4F802F0B4FEC5E72A88A64B196800
:103078000A441A60A54B196811FA80F01860A4492F
:103088000B8801339BB20B80B3F5805FCFD3A14B84
:10309800120B1A80000B588000239B4A13609B4A2E
:1030A80013600B809C4B196801228A6240F6C31298
:1030B800CA62DA60994B1B68904CA2695A62002375
:1030C800E367A3676367FFF745FFA071944B1A890D
:1030D80007EE902AF8EE677A9FED927A67EE877A84
:1030E800C4ED167ADB8807EE903AF8EE677A9FED22
:1030F8008E7A67EE877AC4ED0A7AF0B101288DD10D
:1031080001224FF40041894804F0EAFF7D4808F0A5
:103118009DF8794B06221A70854BDB7A002B40F01C
:1031280021814FF494720021824809F0D1FB782262
:103138000021814809F0CCFB79E700224FF40041D7
:103148007A4804F0CDFF6F4808F080F86A4B0522F2
:103158001A7068490B886F4A10881B1A07EE103AD4
:10316800B8EEC77ADFED756A27EE267AB7EEC77A2A
:10317800704D85ED0E7B4B8852889B1A06EE103AEF
:10318800B8EEC66A26EE266AB7EEC66A85ED0C6BFF
:103198009FED555B35EE466B36EE477B85ED0A7B3A
:1031A8005E4B1B685B6A554C636107EE903AB8EE5C
:1031B800670ADFED637A20EE270A84ED1C0A9FED8B
:1031C800618AF0EE480A09F0FFFE84ED1C0AF0EE71
:1031D800087A20EE270AD4ED087A30EE670A84EDE3
:1031E8001D0AF0EE480A09F0EFFE84ED1D0AB7EE5D
:1031F800C00A85ED080BFFF765FE4F4B93ED007B8A
:10320800F7EEC75BC4ED205A93ED026BB7EEC66BC1
:1032180084ED216A93ED047BB7EEC77B84ED227AB7
:10322800D4ED1B6AF4EEE65AF1EE10FA44DDC4ED73
:10323800206AB4EEE66AF1EE10FA48DD2F4BC3EDD2
:10324800216AB4EEE67AF1EE10FA7FDD2B4BC3ED7E
:10325800226A2A48D0ED207A87EEA67A9FED3A6A4C
:1032680027EE067A37EE067ABCEEC77A17EE103AE2
:1032780099B20181D0ED217A87EEA67A27EE067AF7
:1032880037EE067ABCEEC77A17EE103A9AB2428148
:1032980090ED227AC7EE267A67EE867A77EE867AFE
:1032A800FCEEE77A17EE903A9BB283811A480068E1
:1032B80041638263C363B6E6F1EE667AF4EEE75AD9
:1032C800F1EE10FAB5D50D4BC3ED207AB1E7F1EE6A
:1032D800667AB4EEE76AF1EE10FAB2D5074BC3EDA1
:1032E800217AAEE7AFF30080000000000000000084
:1032F8000021024088090024000000240400002462
:103308000000C8429C080024800900248409002485
:10331800000600240406002450080024E8080024BD
:10332800F40500241101073B7FD24539000C0258EF
:1033380008060024C0010024E8020024FDD8243D2A
:10334800DC0F493BDA0FC94000409C44F1EE667A35
:10335800B4EEE77AF1EE10FA7FF57BAF144BC3EDCC
:10336800227A76E70122134B1A734FF40041124870
:1033780004F0B6FE114B1B6800225A639A63DA63A5
:10338800196A41F2111211427FF4CBAE196A40F268
:10339800444211427FF4C5AE5A6C22F400425A648A
:1033A800BFE6044B01225A72054B0A221A7056E6F0
:1033B8000400002408060024000C025850080024C9
:1033C800150600240000000010B52DED028B2A4CD4
:1033D800D4ED127A9FED297A37EE677ADFED287AF5
:1033E80027EE277A37EE077AB7EEC77A9FED1E6B7E
:1033F8009FED1F0B17EE060BB7EEC00B84ED130AFB
:103408009FED208AF0EE480A09F0DEFD84ED130AEC
:10341800C0EE087A9FED1C7A67EE877AFCEEE77AB1
:1034280017EE903A9BB2A361642001F0A5F801223F
:103438004FF40041154804F053FE154C0021204676
:1034480008F088FF0421204608F084FF204607F092
:1034580058FF204600F01CFF0E4B04221A70BDECEA
:10346800028B10BDAFF30080182D4454FB21094096
:1034780000000040ED29993F040000240000C842E4
:103488000AD7233CDA0FC94000000045000C025857
:1034980034090024000000242DE9F0412DED068BAD
:1034A800A4B001F029F8FFF741FBFFF7A5FB0024C2
:1034B80015941694179418941994BB4DD5F8E030C8
:1034C80043F00103C5F8E030D5F8E03003F001031C
:1034D8000193019BD5F8E03043F00403C5F8E030D0
:1034E800D5F8E03003F004030293029BD5F8E030EE
:1034F80043F02003C5F8E030D5F8E03003F02003AE
:103508000393039BD5F8E03043F01003C5F8E0308F
:10351800D5F8E03003F010030493049BD5F8E030AD
:1035280043F00203C5F8E030D5F8E03003F00203B9
:103538000593059BD5F8E03043F00803C5F8E03063
:10354800D5F8E03003F008030693069B974E224611
:103558004FF4E051304604F0C3FD01224FF400411E
:10356800304604F0BDFD802715974FF48813169355
:10357800179415A98E4804F0D9FB4FF4E05315931E
:103588004FF00108CDF858801794189415A93046C3
:1035980004F0CCFB4FF400431593CDF858801794F2
:1035A8000323189315A9304604F0C0FB182315937C
:1035B8001694CDF85C8015A9304604F0B7FB224676
:1035C8000221172002F0AEFB172002F0DFFBD5F82E
:1035D800D83043EA0803C5F8D830D5F8D83003EA1C
:1035E80008030093009B224605210B2002F09AFB5A
:1035F8000B2002F0CBFB0A940B940C940D940794C7
:10360800089409940E940F9410941194129413949E
:1036180014942C22214615A809F05AF96548664BDE
:103628000360132343602023836040F6C313C36001
:1036380004614461876107F0EDFF002840F02E83A4
:103648004FF480530A930AA95A4808F09BFA0028B5
:1036580040F02683574808F00DF8002840F02283F0
:10366800002307934FF4E00308938023099307A9E5
:10367800504809F04BF8002840F0168360230E9359
:1036880000220F9210921192129213924FF400732B
:1036980014930EA9474808F0E9F8002840F006837B
:1036A80004220EA9434808F0E1F8002840F00083FE
:1036B80008220EA93F4808F0D9F8002840F0FA82FD
:1036C80040F2E2430F93002314930C220EA93948C9
:1036D80008F0CCF8002840F0EF82002315931693E9
:1036E80017936422189219934FF400521A921B935D
:1036F8001C934FF000721D921E931F9315A92D481D
:1037080009F062F8002840F0D9822A4800F092FDBA
:103718003C22002115A809F0DBF82848284B036053
:103728004FF400234360002383600122C260042118
:1037380001610375437582610377C3620363436361
:1037480080F8383001F01EFD002840F0B9821B4C8B
:10375800204602F0BFFA1B4B159309231693052345
:10376800179340F2FF7318930423199300231A93B5
:103778008DF8703002221D928DF878308DF87930EE
:103788008DF87A30A0221F92802220928DF8843002
:1037980015A9204601F024FF002840F093820A4B27
:1037A800159340F20F1311E000440258000C025820
:1037B8000010025850080024000001408006002430
:1037C800002102400800900C0000B84F169315A97C
:1037D800A54801F005FF002840F0768200230A93EF
:1037E8000B930C930D9315931693179318931993A2
:1037F8000E930F93109311930793089309939B4883
:103808009B4A02606322426083604FF0FF32C260CD
:103818000361836107F0FEFE002840F057824FF4F1
:1038280080530A930AA9914808F0ACF9002840F09F
:103838004F828E4807F04EFF002840F04B82042349
:103848001593502316930023179318930A2319935B
:1038580015A9864808F01AFB002840F03D8200228E
:103868000E9201230F9310920A2311930EA97F48F9
:1038780008F0D8F8002840F0318202230E930F9305
:1038880004220EA9794808F0CDF8002840F02882D3
:1038980000230793099307A9744808F037FF002805
:1038A80040F020820021714808F052FC002840F0C6
:1038B8001B8204216D4808F04BFC002840F016825A
:1038C8006C486D4B0360272343600023836040F6F8
:1038D800C312C260036143618023836107F09AFECB
:1038E800002840F0058200230E930F931093159340
:1038F80016931793189319931A931B935F48604A6A
:1039080002604FF40022426083600122C2600421F9
:103918000161037542750522826103774362836200
:103928000322C2620363436380F8383001F02AFC43
:10393800002840F0DF8100230E930EA94F4802F0C3
:1039480037F9002840F0D8814E4B1593062316937B
:103958000523179340F2FF73189304231993002348
:103968001A938DF86D3015A9444800F0D5FF00284A
:1039780040F0C48104231793434B15930C231693EB
:1039880015A93E4800F0C8FF002840F0B9813F4B18
:1039980015931223169315A9384800F0BDFF002887
:1039A80040F0B0813A4B15931823169303231793CD
:1039B80015A9324800F0B0FF002840F0A581354B2A
:1039C80015934FF48073169315A92C4800F0A4FFA3
:1039D800002840F09B810023169318931A931C9398
:1039E8000E930F9310932C484FF08042026043606F
:1039F800836040F2FF72C260036180238361032306
:103A08001593012217920A2319931B921D9315A946
:103A180007F090FE002840F07B8100230E9310935E
:103A28000EA91D4808F072FE002840F073813C2161
:103A3800194808F028FD002840F06E811748184BF7
:103A4800036000238360C36001220274437483749B
:103A58000A25456182611024C4610321016245621F
:103A68008262C46201631DE08006002434090024D8
:103A7800000C00409C080024004801401C0600245B
:103A880000200240400020191000C01000018021D1
:103A9800000052470080F03EE80800245C0700243C
:103AA80000A40040436308218163C36306240464BF
:103AB800042242648464C264046542658365C16506
:103AC80001664366826603F015FD002840F02681F2
:103AD8009B489C4B03609C4B4360002383600122FE
:103AE800C260036143618361C361036204F06EFCD9
:103AF800002840F015810021914804F063FF002858
:103B080040F0108100218E4804F08AFF002840F020
:103B18000B81642000F030FD8C4C0821204608F011
:103B2800B1FA0421204608F0ADFA0021204608F039
:103B3800A9FA0821204608F0ADFD0421204608F026
:103B4800A9FD0021204608F0A5FDFCF719FE804BD1
:103B58001B78002B00F0EA80022B00F0ED807B4CF4
:103B680023680025DD639D635D637A4E40F2FF7232
:103B78002946304601F01EFC774F40F2FF72294675
:103B8800384601F017FC4FF47A7000F0F5FC052276
:103B98007249384601F064F9FDF78EFBFEF744FCE4
:103BA8009FED6F1ADFED6F0A9FED6F0A6F48FEF702
:103BB800EBFC642000F0E0FCFEF788FE08236C4A6A
:103BC80029464FF48060FEF78DFE304601F046FC32
:103BD8000821204608F092F90421204608F08EF9C1
:103BE8002946204608F08AF90821204608F0C8FC32
:103BF8000421204608F0C4FC2946204608F0C0FCF1
:103C08000C21204608F07AF95A4EDFED5BAA9FEDA9
:103C18005BAADFED5B9A9FED5B9ADFED5B8A00F0B4
:103C2800A5FC08EE100A0821304604F053FA574C58
:103C380020711021304604F04DFA6071474DB0EE06
:103C48006A0A6888FEF764FC84ED0C0AB0EE4A0A3A
:103C5800A888FEF75DFC84ED0B0A2B8907EE903AE5
:103C6800F8EE677A67EEA97AC4ED167AEB8807EE64
:103C7800903AF8EE677A67EE897AC4ED0A7AF8EE38
:103C8800480A60EEA80A94ED090A3848FEF787FC4E
:103C9800B7EEC00A3E4B83ED000BC0E772B6FEE7F5
:103CA80072B6FEE772B6FEE772B6FEE772B6FEE7D8
:103CB80072B6FEE772B6FEE772B6FEE772B6FEE7C8
:103CC80072B6FEE772B6FEE772B6FEE772B6FEE7B8
:103CD80072B6FEE772B6FEE772B6FEE772B6FEE7A8
:103CE80072B6FEE772B6FEE772B6FEE772B6FEE798
:103CF80072B6FEE772B6FEE772B6FEE772B6FEE788
:103D080072B6FEE772B6FEE772B6FEE772B6FEE777
:103D180072B6FEE772B6FEE772B6FEE772B6FEE767
:103D280072B6FEE772B6FEE772B6FEE7084B0122EE
:103D38001A70FEF7FDFC12E7FFF746FB0FE700BF1E
:103D4800FC07002400580040FFECC0105008002475
:103D580000000024800600241C060024F40500242A
:103D6800000000000000C84200004842C8050024C6
:103D7800B4000024000C025800401C4600683F476D
:103D88001101073B7FD245396F12833A04000024A2
:103D9800C001002472B6FEE782B0074BD3F8F420C6
:103DA80042F00202C3F8F420D3F8F43003F002031F
:103DB8000193019B02B070470044025870B58CB063
:103DC80000230793089309930A930B9303685B4AAC
:103DD800934204D05A4A93427ED00CB070BD044638
:103DE800584A136801331360012B64D0564BD3F83B
:103DF800E02042F00102C3F8E020D3F8E02002F00E
:103E080001020292029AD3F8E02042F00402C3F8B9
:103E1800E020D3F8E02002F004020392039AD3F8DA
:103E2800E02042F02002C3F8E020D3F8E03003F0AD
:103E380020030493049B0A2307930326089607A9E3
:103E4800424803F073FF302307930896002509952D
:103E580007A93F4803F06AFF4FF480530793089679
:103E6800099507A93B4803F061FF3B483B4B0360BA
:103E7800092343608560C5604FF4806303614FF494
:103E8800006343614FF4005383614FF48073C3614F
:103E98004FF480330362456202F01EFAC8B92E4B14
:103EA800E3649C6300221146122001F03BFF1220BC
:103EB80001F06CFF91E7244BD3F8D82042F02002A0
:103EC800C3F8D820D3F8D83003F020030193019B1E
:103ED8008CE7FFF75FFFE2E71A4A136801331360C4
:103EE800012B1DD0184BD3F8E02042F00102C3F893
:103EF800E020D3F8E03003F001030693069B60232B
:103F080007930323089307A9104803F00FFF002223
:103F18001146122001F006FF122001F037FF5CE77E
:103F2800094BD3F8D82042F02002C3F8D820D3F8A0
:103F3800D83003F020030593059BD3E70020024007
:103F4800002102409409002400440258000002584D
:103F58000008025800140258E40600241000024029
:103F680010B5B8B00446002133913491359136919B
:103F78003791C02202A808F0ABFC2268214B9A4274
:103F880001D038B010BD4FF400420023CDE9022320
:103F98004FF080531E9302A805F078FC78BB1A4BAB
:103FA800D3F8EC2042F48072C3F8EC20D3F8EC206C
:103FB80002F480720092009AD3F8E02042F00202E4
:103FC800C3F8E020D3F8E03003F002030193019B2B
:103FD8004FF440533393022334930024359436949A
:103FE8000923379333A9094803F0A0FE2246214646
:103FF800162001F097FE162001F0C8FEC1E7FFF772
:10400800C9FECCE700A4004000440258000402584E
:1040180010B5B8B0044600213391349135913691EA
:104028003791C02202A808F053FC22681B4B9A4221
:1040380001D038B010BD08220023CDE9022302A820
:1040480005F024FC38BB164CD4F8E03043F00203EA
:10405800C4F8E030D4F8E03003F002030093009B8A
:104068004FF44063339312233493002335933693EC
:104078000423379333A90B4803F058FED4F8E830EB
:1040880043F48003C4F8E830D4F8E83003F480033C
:104098000193019BCDE7FFF77DFED4E70058004070
:1040A800004402580004025800B58BB00023059361
:1040B800069307930893099303682D4A934208D0FF
:1040C8002C4A934213D02C4A93423BD00BB05DF854
:1040D80004FB2A4BD3F8F02042F00102C3F8F02089
:1040E800D3F8F03003F001030193019BEEE7234B73
:1040F800D3F8E82042F00802C3F8E820D3F8E82013
:1041080002F008020292029AD3F8E02042F001027B
:10411800C3F8E020D3F8E03003F001030393039BD6
:104128000123059302230693099305A9144803F074
:10413800FDFD00220421322001F0F4FD322001F0BF
:1041480025FEC3E70D4BD3F8F02042F48022C3F8D4
:10415800F020D3F8F03003F480230493049B00226A
:104168000321762001F0DEFD762001F00FFEADE799
:1041780000000140000C0040004801400044025883
:104188000000025830B589B00023039304930593C7
:10419800069307930368B3F1804F01D009B030BD8F
:1041A800214BD3F8E82042F00102C3F8E820D3F805
:1041B800E82002F001020092009AD3F8E02042F0D1
:1041C8000102C3F8E020D3F8E02002F001020192D6
:1041D800019AD3F8E02042F00202C3F8E020D3F8B5
:1041E800E03003F002030293029B4FF40043039371
:1041F800022504950124079403A90C4803F096FDB1
:10420800082303930495002505950695079403A9AB
:10421800074803F08BFD2A4621461C2001F082FD49
:104228001C2001F0B3FDB9E7004402580000025811
:104238000004025800B587B000230193029303934A
:104248000493059302680F4B9A4202D007B05DF8B9
:1042580004FB0D4BD3F8E02042F01002C3F8E02035
:10426800D3F8E03003F010030093009B4FF47C5325
:104278000193022302930123059301A9034803F044
:1042880055FDE3E7000001400044025800100258C1
:1042980008B50368154A934206D0154A93420BD0D5
:1042A800144A934217D008BD134AD2F8F03023F0CD
:1042B8000103C2F8F030F6E70F4AD2F8E83023F0ED
:1042C8000803C2F8E83001210C4803F04DFE322003
:1042D80001F06AFDE7E7084AD2F8F03023F48023BA
:1042E800C2F8F030762001F05FFDDCE70000014005
:1042F800000C0040004801400044025800000258E9
:10430800FEE7FEE7FEE7FEE7FEE770477047704707
:1043180008B500F01FF908BD08B5024802F0E6FB31
:1043280008BD00BFE406002408B5034800F048F9BA
:10433800024800F045F908BD1C0600248006002448
:1043480008B5024803F066FB08BD00BF5C070024FF
:1043580008B5802003F0CAFE08BD000008B5024871
:1043680007F01EF808BD00BFE808002408B5024899
:1043780007F016F808BD00BF3409002408B5024844
:1043880007F00EF808BD00BF9C080024274AD2F8A1
:10439800883043F47003C2F88830254B1B6803F05B
:1043A8000F03062B06D8224A136823F00F0343F0A5
:1043B800070313601F4B1A6842F001021A600022BB
:1043C8001A6119681C4A0A401A60194B1B6813F0D5
:1043D800080F06D0164A136823F00F0343F00703AB
:1043E8001360144B00229A61DA611A6213499962C8
:1043F8001349D962134919635A639963DA631964D3
:104408005A64196821F4802119601A660E4B1A68DB
:104418000E4B1340B3F1005F03D20D4B0122C3F8DA
:1044280008210C4B43F2D2021A60704700ED00E0FD
:1044380000200052004402587FEDF6EA0002020212
:104448000000FF01800201010010005C0000FFFF76
:104458000080005100400052DFF834D0FFF796FF8B
:104468000C480D490D4A002302E0D458C4500433C7
:10447800C4188C42F9D30A4A0A4C002301E013609D
:104488000432A242FBD308F0F1F9FFF705F87047B0
:1044980000000824000000243001002418760108D8
:1044A800300100249C090024FEE700000F4B1B7814
:1044B8000BB90120704710B504464FF47A70B0FB71
:1044C800F3F30B4A1068B0FBF3F001F093FC0F2CE8
:1044D80000D808B1012010BD002221464FF0FF305E
:1044E80001F020FC034B1C600020F4E7C40000240A
:1044F800BC000024C800002410B5032001F000FC13
:1045080004F03CFE0F498B690F4AC3F30323D35CC5
:1045180003F01F03D8408B6903F00F03D35C03F04B
:104528001F0320FA03F3094A1360094B18600F2090
:10453800FFF7BCFF10B10124204610BD0446FFF769
:104548002BFCF9E700440258386A0108C00000242F
:10455800BC000024034A1168034B1B780B4413600A
:10456800704700BF98090024C4000024014B186854
:10457800704700BF9809002438B50446FFF7F6FFD6
:104588000546B4F1FF3F02D0044B1B781C44FFF7EB
:10459800EDFF401BA042FAD338BD00BFC400002481
:1045A800014B1868000C70470010005C704770479A
:1045B80008B5806BFFF7FBFF08BD70477047000028
:1045C800F8B5044603681D685E689F4A934255D053
:1045D80002F58072934251D09C4B9F6807F01F07E9
:1045E80015F0020F10D016F0020F0DD0636D13F006
:1045F800100F03D1636D43F400636365204600F038
:10460800EEFF236802221A6015F0040F02D016F09C
:10461800040F05D115F0080F40D016F0080F3DD053
:10462800636D13F0100F03D1636D43F4007363657A
:104638002368DA6812F4406F2AD1854A934200F061
:104648000B81DA6812F4005F22D11A6812F0080FA1
:104658001ED09A6812F0040F12D15A6822F00C0288
:104668005A60636D23F480736365636D13F4805F30
:104678000ED1636D43F00103636509E0754BACE748
:10468800636D43F010036365A36D43F00103A365F5
:104698002046FFF78BFF23680C221A6015F0200FC5
:1046A80002D016F0200F05D115F0400F48D016F0B3
:1046B800400F45D0636D13F0100F03D1636D43F4C1
:1046C800005363652368DA6C02F4C072D8686049E5
:1046D8008B4200F0AE80D96862BB11F0007F05D034
:1046E80001F4005200F44060024323D11A6812F02A
:1046F800400F1FD011F4001F1CD19A6812F0080F48
:1047080010D15A6822F060025A60636D23F4805316
:104718006365636D13F4807F0CD1636D43F001030F
:10472800636507E0636D43F010036365A36D43F0B1
:104738000103A3652046FEF757FC236860221A6030
:1047480015F0800F02D016F0800F37D115F4807F56
:1047580002D016F4807F3CD115F4007F02D016F405
:10476800007F42D115F0100F21D016F0100F1ED087
:10477800236B73B1002F46D02368334A934240D04D
:1047880002F5807293423CD0304B9B6813F4404F43
:104798000AD0636D43F480636365A36D43F002033D
:1047A800A3652046FFF70AFF236810221A6015F454
:1047B800806F02D016F4806F2BD1F8BD636D43F47F
:1047C800803363652046FFF7F8FE236880221A606D
:1047D800BCE7636D43F400336365204600F0FDFEDB
:1047E80023684FF480721A60B6E7636D43F4802340
:1047F8006365204600F0F2FE23684FF400721A60E9
:10480800B0E7144BC1E72368DB6813F0030FCBD084
:10481800BFE7636D43F480436365A36D43F008030A
:10482800A36523684FF480621A60204600F0D4FE26
:10483800C3E7B91F01297FF64EAF002F3FF44BAFF6
:104848000149C96848E700BF0020024000630258D8
:104858000021024000230240092F06D840F22122FD
:10486800FA4012F0010F7FF4ECAE014AD268E9E693
:104878000020024008B50346806B426D12F0500FCD
:1048880030D1436D43F40073436503681A6812F02E
:10489800080F14D0DA6812F4406F20D1DB6813F4E3
:1048A800005F1CD1436D23F480734365436D13F49B
:1048B800805F14D1436D43F0010343650FE0DB686B
:1048C80013F0030F0BD1436D23F480734365436DDD
:1048D80013F4805F03D1436D43F001034365FFF791
:1048E80065FE08BD426D12F0100F04D1C26CD26C87
:1048F80018469047F5E7FFF761FEF2E708B5806BC9
:10490800436D43F040034365836D43F004038365BF
:10491800FFF754FE08BD000070B582B00022019276
:1049280090F85020012A00F010820346012280F8F6
:1049380050200068826812F0040F09D05A6D42F0C6
:1049480020025A650120002283F8502002B070BD71
:104958000A68002A09DBC2F31304002C48D1920E1E
:1049680001249440C2692243C26148684FEA901EFC
:104978000EF00C0E1A6802F1300C5EF80C4000F0D4
:104988001F000A68C2F3846282401F2505FA00F0FE
:1049980024EA000002434EF80C201C68A268A068B4
:1049A80000F0080002F0040202432AD01868826866
:1049B80012F0010F40F0BF810C68D0F8C050CA68EF
:1049C80002F0180CB74A22FA0CF22240C4F313047E
:1049D80025EA04042243C0F8C020C868B24A9042BD
:1049E80000F0B0800A68002AC0F22E810020AAE7F1
:1049F80092FAA2F2B2FA82F202F01F020124944063
:104A0800B0E70D684FEAD55C0CF0040C14345CF880
:104A18000400C5F304554FF0070E0EFA05FE20EA10
:104A28000E008E6806FA05F528434CF804009F48E6
:104A3800006800F07040B0F1805F0CD01868C4685E
:104A480014F0100F41D1C468C4F3820464004869AB
:104A580000FA04F407E01868C468C4F38204640028
:104A6800486900FA04F40D69042D36D0186800F17D
:104A7800600C5CF82560086800F0F84006F0004E0D
:104A880040EA0E0020434CF825001C680D69487E5A
:104A9800012814BF16464FF00046603454F825002C
:104AA80020F00040304344F825001D680C69087E5A
:104AB800012808BF4FF40062286904F01F04A240CF
:104AC80020F4F04002432A6170E7C468640804F0E7
:104AD8000804486900FA04F4C5E71868026E02F091
:104AE800F8420C68B2EB846F1DD01868426E02F071
:104AF800F8420C68B2EB846F1AD01868826E02F024
:104B0800F8420C68B2EB846F17D01868C26E02F0D6
:104B1800F8420C68B2EB846F7FF448AFC26E22F0A3
:104B28000042C26642E7026E22F000420266DCE7FB
:104B3800426E22F000424266DFE7826E22F00042B7
:104B48008266E2E71C680A68C2F31300B8B9900EDF
:104B5800013000F01F05092D3ED9920E013202F0F6
:104B68001F00920602F0F84201258540154300EB2C
:104B780040021E3A120542F000722A4336E092FAC9
:104B8800A2F0002843D0B0FA80F0013000F01F00F6
:104B980009283CD992FAA2F5B5FA85F50135AD0692
:104BA80005F0F84092FAA2F5B5FA85F5013505F059
:104BB8001F05012606FA05F5054392FAA2F0B0FA98
:104BC80080F0304400F01F0000EB4000A0F11E020E
:104BD800120542F00072D0E7800600F0F84001228A
:104BE800AA40104305EB450212050243D50D05F016
:104BF800040514342859C2F304520726964020EAC3
:104C080006008E6806FA02F202432A51EAE692FA90
:104C1800A2F0B0FA80F00130800600F0F84592FA70
:104C2800A2F0B0FA80F0013000F01F060120B04079
:104C3800284392FAA2F2B2FA82F2013202F01F027B
:104C480002EB42021205D0E71968194881427ED06A
:104C580000F5807081427AD01648806800F0E075CF
:104C6800154CA46814F0010F7ED1124E00E0134ECB
:104C7800134CA2420DD0134CA24242D0124CA24275
:104C880061D110F4800F02D10B4A91424AD0002022
:104C980059E610F4000F50D1074A914216D000206F
:104CA80051E600BFFFFF0F000000FF470010005C47
:104CB80000200240006302580060025800230240AE
:104CC800000084CB000052C70000B8CFB26822F0C1
:104CD800E0722A4342F40002B260264A126892093E
:104CE8002549A1FB02129209013252000192019A50
:104CF8002AB3019A013A0192019A002AF9D10020B7
:104D080021E610F0807F1CD11C4A914201D000207E
:104D180019E6B26822F0E0722A4342F08072B2606B
:104D2800002010E6B26822F0E0722A4342F48002C2
:104D3800B260002007E6002005E6002003E6002018
:104D480001E60020FFE50020FDE50220FEE50C4815
:104D5800806800F0E0750B4CA66804F58074A468C0
:104D6800344314F0010F82D05A6D42F020025A6584
:104D78000120E8E5BC000024632D3E0500600258D0
:104D8800002302400020024003689A6812F0010FD5
:104D980057D170B5044699682C4A114209D0436D21
:104DA80043F010034365836D43F0010383650120DD
:104DB80070BD9968264A0A4042F001029A60FFF7DE
:104DC800D5FB05462368234A93420BD002F580722F
:104DD800934207D0204A92681A6812F0010F32D124
:104DE8001B4E0FE01D4A9168A2F500729342F3D161
:104DF80011F01F0FF0D00020DAE723681A6812F0CC
:104E0800010F1CD19A6812F0010F04D19A68324040
:104E180042F001029A60FFF7A9FB401B0228ECD977
:104E280023681B6813F0010FE7D1636D43F010038B
:104E38006365A36D43F00103A3650120B8E7002073
:104E4800B6E7002070470020B2E700BF3F000080AF
:104E5800C0FFFF7F00200240006302580023024089
:104E6800F8B504460D46164600683D49884262D0AA
:104E78003C4B98425FD001F1C05101F586418F68E3
:104E8800816811F0040F67D194F85020012A65D089
:104E980007F01F07012384F85030092F57D840F234
:104EA8002123FB4013F0010F51D02046FFF76CFF80
:104EB800002848D1626DA0F60273134043F4807352
:104EC80063652268274B9A4237D0636D23F48013B9
:104ED8006365636D13F4805F32D0A36D23F006031E
:104EE800A365E36C204ADA63E36C204A1A64E36C36
:104EF8001F4ADA6423681C221A60002384F85030A1
:104F08002268536843F0100353602268D36823F083
:104F18000303E16A0B43D360216833462A464031D4
:104F2800E06C01F003FC22689168124B0B4043F0DF
:104F38000403936011E01049A1E7002FC9D1C4E729
:104F48000023A365CDE7002384F8503005E0002353
:104F580084F85030012000E00220F8BD0220FCE770
:104F680000200240002102407D480008B9450008A1
:104F780005490008C0FFFF7F0023024038B50368D9
:104F88009A68996812F0020F03D1044611F0010FD4
:104F980001D1002038BD9A6802F00D02012A09D01B
:104FA800436D43F010034365836D43F0010383654C
:104FB8000120EFE79968164A0A4042F002029A6017
:104FC800036803221A60FFF7D1FA054623689B6835
:104FD80013F0010F06D10020DCE723689B6813F06B
:104FE800010F13D0FFF7C2FA401B0228F5D9236836
:104FF8009B6813F0010FF0D0636D43F010036365F5
:10500800A36D43F00103A3650120C3E70020C1E7B6
:10501800C0FFFF7F38B504460368524A93420BD05D
:1050280002F58072934207D04F4B9B6813F4403FC0
:1050380014BF0123002306E04C4B9B6813F4403F48
:1050480014BF012300239BB94FF40020002105F071
:105058006FFC05466368B3F5101F57D042D8B3F507
:10506800E01F51D026D9B3F5001F0ED145090CE039
:1050780004F0D4FA05466368B3F5003F14D0B3F5DD
:10508800403F15D0B3F5803F0ED0FFF789FA41F2C3
:105098000303984249D8364B9D422FD9226893681A
:1050A80043F48073936038BD1B0CB5FBF3F5ECE754
:1050B8008508EAE7B3F5801F0FD006D9B3F5A01F1E
:1050C8000BD0B3F5C01F08D0DFE7B3F5002F04D02D
:1050D80023F40022B2F5802FD7D19B0C5B00B5FBDF
:1050E800F3F5D2E7B3F5201F12D0B3F5301FCCD1BA
:1050F800FFF756FA41F2030398420BD822689368E7
:1051080023F480739360CEE70509BEE78509BCE701
:10511800C509BAE7174B9D420AD92268936823F458
:10512800407343F480739360BDE7134B9D4205D8E9
:105138002268936823F440739360B4E70F4B9D4251
:10514800EBD90F4B9D4207D82268936823F440732C
:1051580043F400739360A6E72268936843F44073AE
:105168009360A0E700200240006302580023024039
:10517800002D3101FF21BCBE21BCBE0041787D015C
:1051880081F0FA0270B582B000230193002800F084
:10519800F8800446436D002B42D023689A6812F0C9
:1051A800005F03D09968784A0A409A6023689A6831
:1051B80012F0805F16D19968744A0A4042F0805212
:1051C8009A60734B1B689B09724AA2FB03239B09D5
:1051D80001330193019B2BB1019B013B0193019B7F
:1051E800002BF9D121688B6813F0805F1FD1636DA4
:1051F80043F010036365A36D43F00103A365012524
:105208008B68626D02F0100203F00403134310D0A0
:10521800636D43F0100363650125284602B070BD35
:10522800FEF7CCFD0023A36584F85030B5E70025D0
:10523800E6E7636D23F4817343F0020363658B68CB
:1052480013F0010F12D1544B994265D003F58073C6
:10525800994261D0514B9B6813F0010F06D1504A17
:10526800936823F47C1361680B439360FFF798F904
:1052780041F20303984202D9A368102B57D0236B3D
:10528800A2681343627D43EA4233227F43EA024322
:10529800227F012A55D0626A22B102F47872A16A8B
:1052A8000A4313432168C8683E4A02401343CB604F
:1052B80021688B688A6802F0080203F0040313432C
:1052C8001BD1C868227D384B034043EA8233E26A27
:1052D8001343CB6094F83830012B37D02268136918
:1052E80023F0010313612268136923F07043616B93
:1052F8000B4313612046FFF78DFEE368012B37D07F
:105308002268136B23F00F031363636D23F0030309
:1053180043F00103636580E71F4B9A6803F58073C8
:105328009B68134313F0010FA0D1204A98E7627DD0
:10533800237F1B0443EA4233226B134343F01C03CD
:10534800A6E7226A013A43EA4243A4E721680869CA
:10535800E36B5A1E236C666C334343EA0243A26C28
:105368001343134A0240134343F001030B61BAE7A6
:1053780021680A6BA369013B22F00F0213430B63F8
:10538800C3E7012549E700BFC0FFFF5FC0FFFF6F0C
:10539800BC000024632D3E05002002400060025836
:1053A8000063025803C0F0FFFCBFFFFF0023024068
:1053B8001EF800FC70B582B00023019390F85030BD
:1053C800012B42D004460D461646012380F8503082
:1053D800FFF7D4FD00282FD1626D1D4B134043F019
:1053E80002036365226891681A4B0B4006F08046F9
:1053F800334305F480352B4343F000439360226820
:1054080015499368002B06DB636D23F0030343F013
:105418000103636514E0019B01330193019B8B42F7
:10542800EFD3636D23F0120343F010036365002389
:1054380084F85030012006E0636D43F01003636583
:10544800002384F8503002B070BD0220FBE700BF93
:10545800FDEEFFFFC0FFFE3F00F8C32538B5044648
:1054680003684A4A934264D002F58072934260D03E
:1054780002F1C05202F5844295689A6812F0080F4A
:1054880076D1DA68DB6C13F4C07F01D1002A52DAD6
:1054980094F85030012B6DD0012384F85030204609
:1054A800FFF772FC00285FD1636D13F4807F48D04A
:1054B800A36D23F00803A36505F01F05626D344B47
:1054C800134043F4805363652368324A93423BD0C8
:1054D800B5FA85F25209616D21F480116165602188
:1054E8001960002384F850302368D96811F4001F2C
:1054F80003D0596841F4806159602369082B28D08A
:1055080021684B6823F040034B6021684B6843F0E7
:1055180020034B6023681F498B422DD0DA6812F0B4
:10552800007F26D199681C4A0A4042F008029A6016
:105538001FE01A4AA0E7636D43F02003636501206A
:1055480017E00023A365B7E70DB10022C7E70122E2
:10555800C1E721684B6823F020034B6021684B6842
:1055680043F040034B60D5E7002384F8503000E057
:10557800022038BD0220FCE7063D012DCED9002AC5
:10558800CCD1636D43F480136365F2E700200240D9
:10559800FECFFFFF00210240C0FFFF7F0023024033
:1055A80040F2152399420FD040F21B33994207D09D
:1055B80040F20F1399420BD00368D3F8800070476C
:1055C8000368D3F88C0070470368D3F888007047E5
:1055D8000368D3F884007047704770477047704776
:1055E800F0B583B0034600220192C06893F85020BA
:1055F800012A00F0C882012283F85020A8B10A6A63
:10560800012A12D0186E002840F0A8801A660022DD
:10561800DA658D6A002D00F09E800A6A013A05F06D
:105628007C052A43CD6A154399E04A68092A74D053
:105638001868826812F0080F1FD10A68002A0ADB6E
:10564800C2F31304002C40F0A980920E0124944068
:10565800C2692243C26191F82520002A40F0A78040
:105668001C68E06891F8265091F82420120542EA57
:10567800455220F440100243E2601C68A268A0680A
:1056880000F0080002F00402024340F05581886AE5
:1056980018B1C86A002840F0948091F825000128C4
:1056A800E0680CBF40F0007020F00070E06000205F
:1056B80091F83040012C00F093801D682C6924F08B
:1056C80002042C610D684FEAD55E0EF0040E1C68CA
:1056D80004F1140C5EF80C40C5F304550726AE40DF
:1056E80024EA06048E6806FA05F52C434EF80C40A9
:1056F800B44C246804F07044B4F1805F7ED01C6818
:10570800E56815F0100F40F0A380E568C5F3820541
:105718006D004C6904FA05F578E0886AB0B10A684A
:10572800520C02F4785200F07C00CC6A2043024309
:105738001C68E06C20F07B4020F46F0020F43F40B0
:1057480020F0FF001043E064DA6571E70A68520C44
:1057580002F47852ECE70A6A551E00E00025086852
:10576800C0F384604A6802F01F0200FA02F21C6E5D
:10577800013C1C66D86D02432A43DA65002C7FF48D
:1057880057AF1C68E06C20F07B4020F46F0020F4D9
:105798003F4020F0FF000243E26449E792FAA2F298
:1057A800B2FA82F202F01F020124944050E718680E
:1057B800C26891F8264022F4401242EA4452C2607C
:1057C8005BE791F82500012805D0E06820F000701B
:1057D800E06000206CE75C6D44F020045C6567E7DE
:1057E8001E6837694C6B651E774C3C408F6B3C4399
:1057F80044EA054444F00204346163E71C68E56840
:10580800C5F382056D004C6904FA05F50E69042E8E
:1058180026D01C6804F1600C5CF826700C6804F053
:10582800F84407F0004E44EA0E042C434CF8264096
:105838001D680E690C7F012C08BF4FF000426035CF
:1058480055F8264024F00044224345F8262074E009
:10585800E5686D0805F008054C6904FA05F5D5E713
:105868001E68326E356EC5F384650A68C2F3130488
:10587800002C35D1C2F38464A54236D01E68726EFE
:10588800756EC5F384650A68C2F31304002C34D11D
:10589800C2F38464A54235D01A6802F16006946E9A
:1058A800956EC5F384650A68C2F3130494BBC2F30A
:1058B8008464A54233D01E68F26EF56EC5F3846524
:1058C8000A68C2F3130494BBC2F38464A54234D1BA
:1058D800F46E04F0004402F0F8422243F2662CE031
:1058E80092FAA2F4B4FA84F4C6E7346E04F00044E1
:1058F80002F0F84222433266C0E792FAA2F4B4FA00
:1059080084F4C7E7746E04F0004402F0F8422243BE
:105918007266C1E792FAA2F4B4FA84F4C9E7F468AB
:1059280004F0004402F0F8422243F260C3E792FA1E
:10593800A2F4B4FA84F4C9E700201C68A26812F043
:10594800010F18D10D68D4F8C060CA6802F0180CAD
:105958001E4A22FA0CF22A40C5F3130526EA050569
:105968002A43C4F8C020CC68194A944208D00A686F
:10597800002AC0F29880002283F8502003B0F0BDBE
:105988001D680A68C2F3130424BB940E013404F0A2
:105998001F06092E4FD9920E013202F01F049206FB
:1059A80002F0F8424FF0010C0CFA04FC42EA0C0C2D
:1059B80004EB44021E3A120542F0007242EA0C025D
:1059C80043E000BF0010005C1DFE00FCFFFF0F005D
:1059D8000000FF4792FAA2F4002C47D0B4FA84F4EE
:1059E800013404F01F04092C40D992FAA2FCBCFA35
:1059F8008CFC0CF1010C4FEA8C6C0CF0F84492FA18
:105A0800A2F6B6FA86F6013606F01F064FF0010C2C
:105A18000CFA06FC4CEA040C92FAA2F4B4FA84F4E8
:105A2800013404F01F0404EB4404A4F11E0212051F
:105A380042F00072C2E7A40604F0F8440122B24022
:105A4800144306EB460212052243D60D06F004065F
:105A580014357459C2F304520727974024EA0704FF
:105A68008F6807FA02F22243725180E792FAA2F491
:105A7800B4FA84F40134A40604F0F84692FAA2F4C5
:105A8800B4FA84F4013404F01F070124BC40344301
:105A980092FAA2F2B2FA82F2013202F01F0202EB8B
:105AA80042021205D0E71968384CA14226D004F505
:105AB8008074A14222D0364CA46814F0010F26D17C
:105AC800344DAC6804F0E077334EB24227D0334E01
