:020000040800F2
:100000000000082409380008C1360008C33600087B
:10001000C5360008C7360008C936000800000000D1
:10002000000000000000000000000000CB360008C7
:10003000CD36000800000000CF360008D136000899
:10004000593800085938000859380008593800084C
:10005000593800085938000859380008593800083C
:10006000593800085938000859380008D9360008AE
:10007000593800085938000859380008593800081C
:100080005938000859380008E9360008593800087E
:100090005938000859380008593800080137000855
:1000A00059380008593800085938000859380008EC
:1000B0000D37000859380008593800085938000829
:1000C00059380008593800085938000859380008CC
:1000D00059380008593800085938000859380008BC
:1000E0005938000859380008000000005938000845
:1000F000593800085938000859380008593800089C
:1001000059380008593800081D37000859380008C8
:10011000593800085938000859380008593800087B
:10012000593800085938000859380008593800086B
:10013000593800085938000859380008593800085B
:1001400000000000000000000000000000000000AF
:10015000593800085938000859380008593800083B
:10016000593800085938000859380008593800082B
:1001700059380008593800085938000800000000B4
:10018000593800085938000859380008593800080B
:1001900059380008593800085938000859380008FB
:1001A00059380008593800085938000859380008EB
:1001B00059380008593800085938000859380008DB
:1001C00059380008593800085938000859380008CB
:1001D00059380008593800085938000859380008BB
:1001E00059380008593800085938000859380008AB
:1001F000593800085938000859380008593800089B
:10020000593800085938000859380008593800088A
:1002100059380008593800082D37000859380008A7
:100220005938000859380008593800080000000003
:1002300059380008593800080000000059380008F3
:10024000593800085938000859380008593800084A
:10025000593800085938000859380008593800083A
:10026000593800085938000859380008593800082A
:1002700059380008593800085938000800000000B3
:1002800059380008593800085938000800000000A3
:080290000000000059380008CD
:1002980010B5054C237833B9044B13B10448AFF3B8
:1002A80000800123237010BD180100240000000005
:1002B8009CBD000808B5034B1BB103490348AFF3C5
:1002C800008008BD000000001C0100249CBD00083F
:1002D80081F0004102E000BF83F0004330B54FEAEF
:1002E80041044FEA430594EA050F08BF90EA020F5C
:1002F8001FBF54EA000C55EA020C7FEA645C7FEAEF
:10030800655C00F0E2804FEA5454D4EB5555B8BF11
:100318006D420CDD2C4480EA020281EA030382EA82
:10032800000083EA010180EA020281EA0303362D14
:1003380088BF30BD11F0004F4FEA01314FF4801CE7
:100348004CEA113102D0404261EB410113F0004FF9
:100358004FEA03334CEA133302D0524263EB4303B0
:1003680094EA050F00F0A780A4F10104D5F1200E4E
:100378000DDB02FA0EFC22FA05F2801841F10001A9
:1003880003FA0EF2801843FA05F359410EE0A5F17D
:1003980020050EF1200E012A03FA0EFC28BF4CF0AE
:1003A800020C43FA05F3C01851EBE37101F0004564
:1003B80007D54FF0000EDCF1000C7EEB00006EEB71
:1003C8000101B1F5801F1BD3B1F5001F0CD34908FB
:1003D8005FEA30004FEA3C0C04F101044FEA445252
:1003E80012F5800F80F09A80BCF1004F08BF5FEAD9
:1003F800500C50F1000041EB045141EA050130BDB9
:100408005FEA4C0C404141EB0101013C28BFB1F5CA
:10041800801FE9D291F0000F04BF01460020B1FA15
:1004280081F308BF2033A3F10B03B3F120020CDAE8
:100438000C3208DD02F1140CC2F10C0201FA0CF0C6
:1004480021FA02F10CE002F11402D8BFC2F1200C2B
:1004580001FA02F120FA0CFCDCBF41EA0C019040E1
:10046800E41AA2BF01EB0451294330BD6FEA04042A
:100478001F3C1CDA0C340EDC04F11404C4F1200215
:1004880020FA04F001FA02F340EA030021FA04F327
:1004980045EA030130BDC4F10C04C4F1200220FA7E
:1004A80002F001FA04F340EA0300294630BD21FABC
:1004B80004F0294630BD94F0000F83F4801306BF82
:1004C80081F480110134013D4EE77FEA645C18BF76
:1004D8007FEA655C29D094EA050F08BF90EA020F0D
:1004E80005D054EA000C04BF1946104630BD91EA05
:1004F800030F1EBF0021002030BD5FEA545C05D108
:100508004000494128BF41F0004130BD14F5800446
:100518003CBF01F5801130BD01F0004545F0FE41BA
:1005280041F470014FF0000030BD7FEA645C1ABFEF
:10053800194610467FEA655C1CBF0B46024650EA26
:10054800013406BF52EA033591EA030F41F4002152
:1005580030BD00BF90F0000F04BF0021704730B5D8
:100568004FF4806404F132044FF000054FF00001AD
:1005780050E700BF90F0000F04BF0021704730B56E
:100588004FF4806404F1320410F0004548BF404243
:100598004FF000013EE700BF42004FEAE2014FEA98
:1005A80031014FEA02701FBF12F07F4393F07F4F73
:1005B80081F06051704732F07F4208BF704793F076
:1005C8007F4F04BF41F40021704730B54FF4607489
:1005D80001F0004521F000411CE700BF50EA01028C
:1005E80008BF704730B54FF000050AE050EA010235
:1005F80008BF704730B511F0004502D5404261EBA5
:1006080041014FF4806404F132045FEA915C3FF4E5
:10061800D8AE4FF003025FEADC0C18BF03325FEA82
:10062800DC0C18BF033202EBDC02C2F1200300FA33
:1006380003FC20FA02F001FA03FE40EA0E0021FA58
:1006480002F11444BDE600BF10B52DED108B84B047
:10065800044B1B790133DBB2092B05D8014A13710E
:1006680005E000BF90010024E54B00221A71E54B1C
:1006780093ED1E7AB7EEC77AE34A82ED107B93EDCD
:10068800324B93ED307B93ED2E6B37EE467BB1EE1C
:10069800006B27EE067B84EE075BD94B1B79012B99
:1006A80000F07F82D74B93ED3C7BB5EEC07BF1EE3B
:1006B80010FA40F37C82D44B93ED0A7BD14B93ED37
:1006C8003A6B27EE067B37EE077BB0EEC77BCD4B48
:1006D80093ED346AB7EEC66A26EE046BB0EE084BAB
:1006E80026EE046B87EE064BB7EEC44B93ED389AB3
:1006F800B4EEC49AF1EE10FA07D493ED399AB4EE39
:10070800C49AF1EE10FA39FE049A29EE099AB6EE67
:10071800007A29EE077AB7EEC77A05EE057BB0EEC8
:10072800C77BB1EEC76B35EE465BB74B83ED0C5B11
:10073800B44B93ED367AB7EEC77AB4EEC75BF1EEF9
:1007480010FA40F33882B04B83ED0C7BAD4C94ED3E
:100758000ACB94ED0C7B3CEE07AB3AEE07AB9FED72
:10076800A47B2AEE07AB94ED08BBB0EE4B0B0AF066
:10077800B3FBB0EE408BB0EE4B0B0AF061FB2AEEF8
:10078800087B0CEE007BF7EEC77B2CEE08CB1AEE4D
:1007980000CBB7EECCCB94ED287AB7EE006A36EEF4
:1007A800476A9A4BD3ED126A26EE266A27EE277A15
:1007B80036EE076A83ED126A94ED297AB5EEC07AAF
:1007C800F1EE10FA36FE276A8F4B93ED0C5BB7EE0D
:1007D800C66A35EE466B83ED186B94ED124AB7EE98
:1007E800C44A8A4A92ED02EB14EE06EB94ED134AE2
:1007F800B7EEC44A2EEE04EB94ED104AB7EEC44AA5
:1008080092ED00AB04EE06AB3AEE0EAB94ED1E6A29
:10081800B7EEC66AB4EECA6BF1EE10FA0CD494EDDA
:100828001F6AB7EEC66AB4EECA6BF1EE10FA40F36F
:10083800D181754B83ED106B724BD3ED356A9FED0B
:10084800747A26EE877AB7EEC99A05EE459BB0EE24
:10085800C99BB1EEC92B93ED06DBB0EE089B2DEEDC
:10086800099B93ED305B22EE055B29EE455BB7EE05
:10087800C76AB4EEC56BF1EE10FA00F1AF81B1EEC4
:10088800474AB7EEC44AB4EE454BF1EE10FA34FECF
:10089800055B5D4B93ED101B31EE055B83ED145B3F
:1008A800584B93ED1E4AB7EEC44AB4EEC45BF1EE62
:1008B80010FA40F39681544B83ED144B514B524A36
:1008C80093ED2E3B92ED0C4B93ED325B03EE045B04
:1008D80025EE095B93ED204AB7EEC44A82ED124B30
:1008E80093ED2A3AF7EE003A73EEC33A474A92ED8F
:1008F800139A63EE893A23EE0C3A73EE833AC2ED0B
:10090800133A93ED2B3AB5EE403AF1EE10FA33FE76
:100918008CCAB7EECCCA32EE4C2B3B4B83ED1A2B6C
:1009280092ED069B8DED009B364B93ED1A3AB7EE90
:10093800C33A13EE029B93ED1B3AB7EEC33A29EE86
:1009480003BB8DED02BB92ED04FB93ED189AB7EE55
:10095800C99AB0EE4F3B09EE023B33EE0B3BB4EEC7
:10096800C34BF1EE10FA0CD493ED219AB7EEC99A65
:10097800B4EEC39BF1EE10FA40F34281224B83EDB3
:10098800129BB4EEC56BF1EE10FA09D4B1EE477ABA
:10099800B7EEC76AB4EEC56BF1EE10FA36FE056B1A
:1009A800194B93ED125B35EE066B83ED166BB4EEC7
:1009B800C64BF1EE10FA40F1278183ED164B124B2E
:1009C80093ED144B93ED16BB2BEE086B14EE006BF6
:1009D800B6EE009B26EE099B24EE084B0BEE004B6F
:1009E8009FED058B24EE084B34EE49BB12E000BFA7
:1009F8001D339045A779E23FAA4C58E87AB6EB3FF9
:100A08009001002498010024980200243801002451
:100A18003ACD133F9FED960B30EE499B39EE449B40
:100A280086FE0B0B80FE090B86FE4B4B84FE494B62
:100A380030EE044BBEEE000B24EE004B36EE046B9A
:100A48009FED8D0B26EE006B83ED006B3BEE04BB38
:100A58002BEE00BB83ED02BB39EE049B29EE009B15
:100A680083ED049B83ED08CB8D4B93ED297AB5EE8E
:100A7800C07AF1EE10FAC4BF8A4BD3ED127AB7EE02
:100A8800E77A894B83ED067B854B93ED020B9FED4F
:100A98007C7B20EE077B834B93F850302BB1804B47
:100AA800D3E900017F4BC3E908017E4B93ED084B66
:100AB8007B4B93ED006B36EE446BB4EEC67BF1EEE8
:100AC80010FA0CD493ED040B9FED6D7B20EE077BA1
:100AD800B4EEC76BF1EE10FA58BFB0EE467B34EEB9
:100AE800077B704B83ED087B6F4A9FED676B17EEB2
:100AF80006DB82ED1CDB6A4991ED116AB7EEC66A26
:100B080092ED184B31EE417B06EE047B31EE4A1B29
:100B180037EE011B93ED006B9FED597B01EE076BE0
:100B28009FED5B7BB4EEC76BF1EE10FA7BDD83EDD6
:100B3800007B5C4B9FED526B93ED027B0EEE067BC8
:100B480083ED027B35EE454B554B93ED197AB7EEA5
:100B5800C77A27EE022BBAEE047B04EE072B35EE9C
:100B6800435B32EE055B05EE06FB9FED497BB4EE79
:100B7800C7FBF1EE10FA68DD4A4B83ED047B494B65
:100B88009FED3F6B9DED007B9DED025B05EE067BC7
:100B980083ED067B002283F8502004B0BDEC108B57
:100BA80010BD404BD3E91001C2E90A017AE53C4B7C
:100BB80093ED3E7B87E53A4B93ED377AB7EEC77AEC
:100BC800B4EEC75BF1EE10FA7FF5C0AD364B83ED9E
:100BD8000C7BBBE5344B83ED10AB2DE6B0EE465BEA
:100BE80057E62F4B93ED1F4AB7EEC44AB4EEC45BE9
:100BF800F1EE10FA7FF562AE2B4B83ED144B5DE6F8
:100C0800294B83ED123BBCE6254B93ED214AB7EE09
:100C1800C44AB4EEC46BF1EE10FA7FF5D0AE224BA5
:100C280083ED164BCBE69FED1C7BB4EEC76BF1EE64
:100C380010FA03D41B4B83ED006B7AE7194B16A10E
:100C4800D1E90001C3E9000173E79FED137BB4EE1E
:100C5800C7FBF1EE10FA03D4124B83ED04FB8EE7C9
:100C6800104B0DA1D1E90001C3E9040187E700BFDA
:100C780000000000000000001D339045A779F23FF6
:100C88002D431CEBE2361A3FD5EB7BF3E9CEBA3F96
:100C9800000000803FBE4040000000803FBE40C0D2
:100CA8009801002438010024980200240000000064
:100CB8002DED048B664B93ED1C0B664A92ED0C2BC5
:100CC800654B93ED167AB7EEC77AB0EE421B17EE76
:100CD800001B93ED177AB7EEC77A21EE071B92ED4A
:100CE8000A4B93ED147AB7EEC77AB0EE443B07EEA1
:100CF800003B33EE013B93ED1C7AB7EEC77AB4EEB6
:100D0800C37BF1EE10FA6AD5514B83ED0E7B534B42
:100D18009B88B3F5807F06D0012B72D04C4B002006
:100D28000021C3E90E014B4B93F851302BB1484BCE
:100D3800D3E90E01474BC3E90E01454B93ED0E6B0A
:100D4800444B93ED0E5B36EE458B434B93ED267A81
:100D5800B7EEC77A9FED389B27EE097BB4EEC78BB9
:100D6800F1EE10FA0CDC93ED277AB7EEC77A27EE8E
:100D7800097BB4EEC78BF1EE10FA58BFB0EE487B92
:100D880035EE077B334B83ED0E7B83ED107B324BC7
:100D980093ED155AB7EEC55A36EE467B05EE007B45
:100DA80036EE436B37EE066B9FED237B06EE074B63
:100DB8009FED237BB4EEC74BF1EE10FA29DD254BEE
:100DC80083ED0A7B234B9FED1C7B01EE072B83ED04
:100DD8000C2B002283F85120BDEC048B70471E4B6E
:100DE80093ED1D7AB7EEC77AB4EEC37BF1EE10FA35
:100DF80003DD174B83ED0E7B89E7154B83ED0E3B27
:100E080085E7134B93ED0E7BB1EE477B83ED0E7BAD
:100E180089E79FED0D7BB4EEC74BF1EE10FA03D4D2
:100E28000C4B83ED0A4BCDE70A4B07A1D1E9000132
:100E3800C3E90A01C6E700BFFCA9F1D24D62503FE1
:100E48000000000000407F400000000000407FC01C
:100E5800980200243801002498010024000000248E
:100E680000B54D4B012283F8502083F851204B4B9D
:100E78004B4AC3F8D4204B4AC3F8D02038A1D1E953
:100E88000001C3E9300138A1D1E90001C3E92E010D
:100E980037A1D1E90001C3E9320137A1D1E9000145
:100EA800C3E92C0136A1D1E90001C3E93A0136A111
:100EB800D1E90001C3E9040135A1D1E90001C3E981
:100EC8000201394AC3F89C20384AC3F89820384AA6
:100ED8001A6700225A674FF081421A65354A5A65E7
:100EE80035499965354ADA65DFF8F4C0C3F880C03A
:100EF8003348C3F88400DFF8ECE0C3F860E0DFF8BB
:100F0800E8E0C3F864E09966DA66C3F878C0D867A1
:100F18002C4818644FF0824058649964DA642A4A6D
:100F2800C3F8E020294AC3F8E420294AC3F8D820A6
:100F3800284AC3F8DC2000202749C3E93C010020E7
:100F48000021C3E93E01254AC3F8A820C3F8A02020
:100F58004FF07E52C3F8AC20C3F8A4205DF804FB20
:100F6800000000004A27323F00000020812F1A3F6E
:100F7800000000203B36A23F0000006005A3823F2E
:100F8800000000E09AE6C53F00000000D01263C1EF
:100F980000000000006AF84038010024980100248D
:100FA80000006842000040400024F4C80024F448CF
:100FB8000000FA4300001041ACC527370000A040EC
:100FC800FCF105C2CDCC4C3E00007A4300007AC348
:100FD80000001643000016C30000F03F6666663F37
:100FE800FCF10542CDCCCC3D0000C040B5EEC00BB5
:100FF800F1EE10FA09DD4FF0010C83F800C08142D0
:1010080094BF00210121117070471A7802B9704706
:1010180000221A70FBE7B5EEC00BF1EE10FA09DDFD
:101028004FF0010C83F800C081422CBF0021012140
:10103800117070471A7802B9704700221A70FBE7DE
:10104800F8B53B4B93ED167B93ED182B87FE026B9F
:1010580093ED1A3B86FE036B93ED0C4AD3ED0D5AC4
:10106800B7EEE51A87FE427B87FE437BB7EEC43AAC
:10107800B4EEC63BF1EE10FA0BD4B1EE444AB7EE2B
:10108800C44AB4EEC74BF1EE10FACCBF01200020E1
:1010980000E00120274B1870B4EEC61BF1EE10FAE1
:1010A8000BD4B1EE656AB7EEC66AB4EEC76BF1EE63
:1010B80010FACCBF0123002300E001231D4C63700C
:1010C8001D4D1E4E05F18C03221D95F8881096EDD6
:1010D800000BFFF7A0FF274605F18D03621D95F869
:1010E800881017F8020B96ED020BFFF77FFF05F14A
:1010F8008A033A4695F88910607896ED040BFFF755
:101108008AFF05F18B03E21C95F88910607896ED4B
:10111800060BFFF76BFFA3780BB9E07800E001201E
:1011280000F00100034B1B7953B9024B597908E0D1
:10113800F00400241003002418030024D0BD000884
:10114800012101F00101B84B93F88030002B40F0E9
:101158009381B54B012283F88020022283F88120F5
:10116800B24C002222715A611A61032583F8825019
:101178005A621A6283F8845062705A631A6383F859
:10118800855022705A651A65DA645A64052583F811
:101198008650A2705A671A67DA665A6683F88750CB
:1011A800E27081F00102002940F08E869E4B1B6997
:1011B80001339D4C2361002840F0898623466469E9
:1011C80001345C61DC690134DC61002A00F0858649
:1011D800954B9B690133944A9361954B93ED126B40
:1011E80093ED017AB7EEC77AB4EEC76BF1EE10FA59
:1011F80040F37686136A01338B4A13628C4B93ED66
:10120800005AB7EEC55AB4EEC56BF1EE10FA40F3CA
:101218006A86536A0133844A5362B4EEC56BF1EEB1
:1012280010FA40F16386936A01337F4A9362B4EE01
:10123800C76BF1EE10FA40F35C86D36A01337A4A41
:10124800D3627B4B93ED146B93ED037AB7EEC77AB9
:10125800B4EEC76BF1EE10FA40F34E86136B013310
:10126800714A1363724B93ED025AB7EEC55AB4EE46
:10127800C56BF1EE10FA40F34286536B01336A4AAC
:101288005363B4EEC56BF1EE10FA40F13B86936BF5
:101298000133654A9363B4EEC76BF1EE10FA40F37D
:1012A8003486D36B0133604AD363614B93ED1E7B65
:1012B80093ED096AB7EEC66AB4EEC67BF1EE10FA92
:1012C80040F12686136C0133574A1364584B93ED4B
:1012D800085AB7EEC55AB4EEC57BF1EE10FA40F1E4
:1012E8001A86536C0133504A5364B4EEC57BF1EE51
:1012F80010FA40F31386936C01334B4A9364B4EEAF
:10130800C67BF1EE10FA40F10C86D36C0133464AE5
:10131800D364474B93ED0A6AB7EEC66AB4EEC67B50
:10132800F1EE10FA40F30086136D01333E4A13655F
:101338003F4B93ED0B5AB7EEC55AB4EEC57BF1EEB1
:1013480010FA40F3F485536D01335365B4EEC67B50
:10135800F1EE10FA00F1F385334B00229A65324B17
:10136800DB6D0133304AD365314B93ED1C7B93ED34
:10137800056AB7EEC66AB4EEC67BF1EE10FA40F124
:10138800EE85136E0133284A1366294B93ED045AF0
:10139800B7EEC55AB4EEC57BF1EE10FA40F1E2851E
:1013A800536E0133204A5366B4EEC57BF1EE10FA52
:1013B80040F3DB85936E01331B4A9366B4EEC67B1C
:1013C800F1EE10FA40F1D485D36E0133164AD36694
:1013D800174B93ED066AB7EEC66AB4EEC67BF1EE1C
:1013E80010FA40F3C885136F01330F4A1367104B87
:1013F80093ED075AB7EEC55AB4EEC57BF1EE10FA75
:1014080040F3BC85536F01335367B4EEC67BF1EEEE
:1014180010FA00F1BB85044B00229A67024BDA6F81
:101428000132014BDA6705E0180300247005002437
:10143800F0040024BB4A51701070BB4A117883F83D
:101448008810527883F88920B84BD3F810210132DC
:10145800C3F81021D3F8281107EE902AB8EE677B5D
:1014680093ED466B26EE077B81ED007BD3F82021B8
:101478000132C3F82021F8BDAD4B93F88130012B20
:1014880018D0022B1AD0AA4B93ED027BB5EE407B05
:10149800F1EE10FA40F0BA80002283F8832002248B
:1014A80083F88140A34C22715A611A61032283F8A0
:1014B8008220EFE09F4B02221A71EBE09C4B93EDE8
:1014C800026B9D4B93ED117AB7EEC77AB4EEC76BFA
:1014D800F1EE10FA0FDD964B002283F882200324E8
:1014E80083F88140934C01252571DA619A610222C3
:1014F80083F88320CEE08E4B93ED005BB4EEC57B82
:10150800F1EE10FA09D5002283F88220012283F82F
:101518008120884B02221A71BCE0864B00221A7186
:10152800834B93F88230012B0DD0022B13D0D0B10E
:101538007F4B012283F88220B7EE007B35EE075BF4
:1015480083ED005BA6E07A4B00225A611A61032200
:1015580083F882209EE0764B00225A611A610322AA
:1015680083F8822096E051B1714B022283F88220E1
:10157800B7EE007B36EE076B83ED026B8AE0B5EEC3
:10158800C06BF1EE10FA21DD694B93ED044AB8EE19
:10159800444B694B93ED107AF2EE047A27EE277AE2
:1015A800B7EEC77AB4EEC74BF1EE10FA0EDDB7EE20
:1015B800007B36EE476B5E4B83ED026B5C4B002283
:1015C8005A611A61032283F8822063E0B5EEC05B9A
:1015D800F1EE10FA5EDD564B93ED056AB8EE466BF8
:1015E800554B93ED107AF2EE047A27EE277AB7EE90
:1015F800C77AB4EEC76BF1EE10FA4BDDB7EE007B9D
:1016080035EE475B4A4B83ED005BD7E7484B93EDDC
:10161800005B494B93ED116AB7EEC66AB4EEC65B40
:10162800F1EE10FA0ADD424B002283F883200122F2
:1016380083F881203F4B02221A712BE03D4B012297
:101648001A713B4B93F88330934257D011B1384B02
:1016580000229A61384B93ED106AF2EE046A26EE86
:10166800266AB7EEC66A324B93ED064AB8EE444B8B
:10167800B4EEC46BF1EE10FA48D5B7EE006B37EE56
:10168800467B83ED027B2A4B0022DA619A610222B3
:1016980083F88320264B93F88430012B64D0022BE7
:1016A80000F09A80234B00225A70234B93ED125B73
:1016B80093ED017AB7EEC77AB4EEC75BF1EE10FA94
:1016C80001DC1B4B1A621C4B93ED0F7AF2EE047A85
:1016D80027EE277AB7EEC77A154B93ED086AB8EE6E
:1016E800466BB4EEC67BF1EE10FA40F1C2800122DF
:1016F80083F884200F4B02225A7038E00C4B0022EA
:10170800DA619A61022283F88320C3E7B0B1084BFB
:10171800012283F88320B7EE007B35EE075B83ED6B
:10172800005BB7E7E804002410030024A8030024A2
:101738001803002470050024F0040024B5EEC05BF3
:10174800F1EE10FAA6DDB94B93ED077AB8EE477BB8
:10175800B4EEC76BF1EE10FA9CD5B7EE007B35EE10
:10176800475B83ED005B8EE7B14B02225A70AF4BAB
:1017780093F88530012B00F09E80022B00F0AB809F
:10178800AB4B00221A70AB4B93ED145B93ED037ACD
:10179800B7EEC77AB4EEC75BF1EE10FA01DCA34BE3
:1017A8001A63A44B93ED0F7AF2EE047A27EE277AA8
:1017B800B7EEC77A9D4B93ED0C6AB8EE466BB4EE64
:1017C800C67BF1EE10FA40F1D380012283F8852020
:1017D800974B02221A7071E0954B01225A70954B73
:1017E80093ED125B93ED017AB7EEC77AB4EEC75B5F
:1017F800F1EE10FA02DC8D4B0022DA628D4B93ED8C
:101808000F7AF2EE047A27EE277AB7EEC77A874B7B
:1018180093ED0B6AB8EE466BB4EEC67BF1EE10FAA8
:1018280006D5012283F88420814B02225A709EE754
:10183800804B93ED006AB7EEC66AB4EEC65BF1EE74
:1018480010FA02D4794B00229A62784B93ED0A6A17
:10185800B8EE466BB4EEC67BF1EE10FA87D51A46A1
:10186800002353621362032482F88440704A537041
:101878007DE7704B93ED006AB7EEC66AB4EEC65BBF
:10188800F1EE10FA02DC694B00225A62674B93EDC5
:10189800096AB8EE466BB4EEC67BF1EE10FA7FF536
:1018A80066AF0022DA629A62022283F88420604BD3
:1018B80001225A705BE75E4B02221A705B4B93F869
:1018C8008630013B032B00F22E81DFE813F0720013
:1018D8008200D800DC00564B01221A70554B93ED5C
:1018E800145B93ED037AB7EEC77AB4EEC75BF1EEFB
:1018F80010FA02DC4D4B0022DA634E4B93ED0F7A5F
:10190800F2EE047A27EE277AB7EEC77A474B93EDC3
:101918000F6AB8EE466BB4EEC67BF1EE10FA06D548
:10192800012283F88520424B02221A70C6E7414BF8
:1019380093ED026AB7EEC66AB4EEC65BF1EE10FA32
:1019480002D43A4B00229A63384B93ED0E6AB8EEF4
:10195800466BB4EEC67BF1EE10FAAFD51A460023FB
:1019680053631363032482F88540314A1370A5E753
:10197800304B93ED026AB7EEC66AB4EEC65BF1EE81
:1019880010FA02DC294B00225A63284B93ED0D6AAA
:10199800B8EE466BB4EEC67BF1EE10FA8ED5002297
:1019A800DA639A63022283F88520214B01221A7098
:1019B80084E71F4B02229A701C4B93F88730013B37
:1019C800032B00F2F181DFE813F03A013F019101A6
:1019D8009D01174B01229A70164B93ED1E5B93EDF8
:1019E8000B7AB7EEC77AB4EEC75BF1EE10FA02DCF9
:1019F8000E4B0022DA650F4B93ED0E7AF2EE047A65
:101A080027EE277AB7EEC77A084B93ED176AB8EE38
:101A1800466BB4EEC67BF1EE10FA0DD5012283F8C1
:101A28008620034B02229A70C6E700BF18030024E1
:101A380070050024F0040024AF4B93ED0A6AB7EE5A
:101A4800C66AB4EEC65BF1EE10FA02D4AB4B0022C4
:101A58009A65AA4B93ED166AB8EE466BB4EEC67B50
:101A6800F1EE10FAA8D51A46002353651365D3641E
:101A78005364052482F88640A14A93709CE7A04BE2
:101A880004229A7098E79E4B03229A709A4B93ED22
:101A98001E5B93ED097AB7EEC77AB4EEC75BF1EE39
:101AA80010FA02D4954B00221A64934B93ED0E7AE8
:101AB800F2EE047A27EE277AB7EEC77A8F4B93EDCA
:101AC800106AB8EE466BB4EEC67BF1EE10FA06D596
:101AD800032283F886208A4B04229A706CE7864B8F
:101AE80093ED086AB7EEC66AB4EEC65BF1EE10FA7B
:101AF80002DC824B00229A64804B93ED126AB8EEA6
:101B0800466BB4EEC67BF1EE10FA7FF555AF1A4678
:101B1800002353651365D3645364052482F8864013
:101B2800774A937048E7764B00229A70724B93ED90
:101B38001E6B93ED0B7AB7EEC77AB4EEC76BF1EE76
:101B480010FA01DC6D4B5A656B4B93ED0E7AF2EE91
:101B5800047A27EE277AB7EEC77A684B93ED155AC1
:101B6800B8EE455BB4EEC57BF1EE10FA06D501225E
:101B780083F88620624B02229A701DE75E4B93ED34
:101B8800095AB7EEC55AB4EEC56BF1EE10FA02D495
:101B98005A4B0022DA64594B93ED135AB8EE455B61
:101BA800B4EEC57BF1EE10FA06D5032283F8862041
:101BB800534B04229A70FFE64F4B93ED0A5AB7EE47
:101BC800C55AB4EEC56BF1EE10FA02DC4B4B00229D
:101BD8001A654A4B93ED145AB8EE455BB4EEC57BD3
:101BE800F1EE10FA09D50022DA659A65022283F827
:101BF8008620434B01229A70DEE63F4B93ED085A4C
:101C0800B7EEC55AB4EEC56BF1EE10FA02D43B4BF1
:101C180000225A64394B93ED116AB8EE466BB4EE64
:101C2800C67BF1EE10FA7FF5C7AE00229A641A64FB
:101C3800042283F88620324B03229A70BCE6304B8C
:101C48000222DA70FFF7ADBA2D4B0122DA702A4B67
:101C580093ED1C5B93ED077AB7EEC77AB4EEC75BDA
:101C6800F1EE10FA02DC254B0022DA67224B93EDE5
:101C78000E7AF2EE047A27EE277AB7EEC77A1F4B70
:101C880093ED1F6AB8EE466BB4EEC67BF1EE10FA20
:101C980007D5012283F88720194B0222DA70FFF753
:101CA80080BA154B93ED066AB7EEC66AB4EEC65B0A
:101CB800F1EE10FA02D4114B00229A670F4B93ED04
:101CC8001E6AB8EE466BB4EEC67BF1EE10FA7FF5ED
:101CD80068AA1A46002353671367D3665366052418
:101CE80082F88740064AD370FFF75BBA044B042298
:101CF800DA70FFF756BA00BFF00400241803002476
:101D080070050024A94B0322DA70A94B93ED1C5BE4
:101D180093ED057AB7EEC77AB4EEC75BF1EE10FA29
:101D280002D4A44B00221A66A14B93ED0E7AF2EE70
:101D3800047A27EE277AB7EEC77A9E4B93ED186A96
:101D4800B8EE466BB4EEC67BF1EE10FA07D5032267
:101D580083F88720954B0422DA70FFF722BA944B58
:101D680093ED046AB7EEC66AB4EEC65BF1EE10FAFC
:101D780002DC904B00229A668E4B93ED1A6AB8EEFD
:101D8800466BB4EEC67BF1EE10FA7FF50AAA1A4646
:101D9800002353671367D3665366052482F8874088
:101DA800824AD370FFF7FDB9804B0022DA70804B6E
:101DB80093ED1C6B93ED077AB7EEC77AB4EEC76B59
:101DC800F1EE10FA01DC7B4B5A67794B93ED0E7AF2
:101DD800F2EE047A27EE277AB7EEC77A754B93EDC1
:101DE8001D5AB8EE455BB4EEC57BF1EE10FA07D587
:101DF800012283F887206D4B0222DA70FFF7D1B9F0
:101E08006B4B93ED055AB7EEC55AB4EEC56BF1EEC0
:101E180010FA02D4674B0022DA66664B93ED1B5A20
:101E2800B8EE455BB4EEC57BF1EE10FA07D5032298
:101E380083F887205D4B0422DA70FFF7B2B95C4B58
:101E480093ED065AB7EEC55AB4EEC56BF1EE10FA2B
:101E580002DC584B00221A67564B93ED1C5AB8EE19
:101E6800455BB4EEC57BF1EE10FA0AD50022DA67BD
:101E78009A67022283F887204C4B0122DA70FFF719
:101E880090B94B4B93ED045AB7EEC55AB4EEC56BF7
:101E9800F1EE10FA02D4474B00225A66454B93EDF7
:101EA800196AB8EE466BB4EEC67BF1EE10FA7FF510
:101EB80078A900229A661A66042283F887203B4B89
:101EC8000322DA70FFF76DB90023FFF772B9394BB7
:101ED80000245C61DC61FFF778B90023FFF77BB968
:101EE8000023FFF789B90023FFF795B90023FFF70F
:101EF8009CB90023FFF7A3B90023FFF7B1B900236A
:101F0800FFF7BDB90023FFF7C4B90023FFF7CBB92A
:101F18000023FFF7D9B90023FFF7E5B90023FFF73E
:101F2800ECB90023FFF7F3B90023FFF7FFB9214B02
:101F380000225A65B4EEC67BF1EE10FA0DD51D4BA2
:101F48009B6D01331B4A9365B4EEC57BF1EE10FA25
:101F58003FF705AA0023FFF705BA0023F2E700239D
:101F6800FFF711BA0023FFF71DBA0023FFF724BAC1
:101F78000023FFF72BBA0023FFF737BA0D4B0022D7
:101F88005A67B4EEC67BF1EE10FA0DD5094B9B6F7C
:101F98000133084A9367B4EEC57BF1EE10FA3FF7B8
:101FA8003DAA0022FFF73DBA0023F2E7700500249E
:101FB800F004002418030024254B03F59272DA601C
:101FC80003F59472C3F8842003F58C729A62C3F8FF
:101FD800D0309B60012283F82421002183F8FC1073
:101FE80083F80C111B49596103F59871C3F828113E
:101FF80015A1D1E90001C3E94601174B5A701A70BF
:10200800164B174ADA62174A9A62174A1A62174A2F
:102018005A62174A1A60174A5A60174A9A6017494B
:10202800D96017491963174959635A64164A9A615E
:10203800164ADA61164A1A61164A5A61164A9A63AA
:10204800DA631A64704700BF2D431CEBE2361A3F6F
:10205800A8030024BCBD0008E8040024F004002400
:10206800000090410000704100002041000008413C
:10207800000096420000AA420000C8420000F04258
:102088000000C8430000E14300008842000090427D
:1020980000004842000040420000164300000000D3
:1020A80008B507EE900AF8EEE77ADFED196A67EEF1
:1020B800A66A9FED187A77EE677A86EEA77AB7EE6A
:1020C800C77AB7EEC00A87EE000B08F071FD9FEDE6
:1020D8000A6B80EE067B9FED0A6B37EE067BB7EE48
:1020E800006B86EE070B9FED087B30EE470BB7EED3
:1020F800C00B08BDAFF30080000000000040AF40F7
:1021080045A725E6E1796B3F66666666661271400B
:1021180000401C46000080470F4AD2ED007A70EE5E
:10212800277A9FED0E7A67EE877A0D4B93ED007A4A
:10213800DFED0C6A27EE267A77EE877A0A49C1ED39
:10214800217ADFED0A6A87EEA67A81ED237A82ED9D
:10215800000AC3ED007A7047800500248B4B863C4B
:102168007C050024489B773F00000024F46CD63D92
:1021780010B52DED048BB0EE409A08F025FFF0EE77
:10218800408A204C94ED008A30EE488ADFED1E9A92
:1021980028EE298AB0EE490A08F066FC1B4BD3EDFD
:1021A800007A70EE677A67EEA97AC4ED008A83ED4B
:1021B800000A28EE008A28EEA70A38EE400ADFED6A
:1021C800147AB4EEE70AF1EE10FA0ADB114BC3ED0C
:1021D800207A104B93ED200AFFF79EFFBDEC048B8D
:1021E80010BDDFED0D7AB4EEE70AF1EE10FA03D96F
:1021F800084B83ED200AECE7064B084AC3F8802019
:10220800E7E700BF84050024FFFF79447805002430
:102218005A141D44000000245A141DC45A141DC425
:1022280000B59DB04C22002109A808F0EBFB202244
:10223800002101A808F0E6FB022004F0C5FC0023F9
:102248000093274BDA6A22F00102DA62DB6A03F0B4
:1022580001030093234A936923F4404343F48043E2
:102268009361936903F440430093009B936913F4CB
:10227800005FFBD01C4A936A23F003039362022396
:10228800099301220C9240220D921293002213927C
:10229800042114910C2115911693179318931991F1
:1022A8001A924FF480531B9309A804F0B5FC90B917
:1022B8003F2301930323029300230393049305937D
:1022C800069307930893022101A805F0F7F820B9AF
:1022D8001DB05DF804FB72B6FEE772B6FEE700BFFC
:1022E80000040058004802580044025800B5B1B034
:1022F800982200210AA808F085FB4FF40022002349
:10230800CDE90023042302930922039204930223B4
:1023180005930693C0230793202308934FF4406343
:102328000993684605F05AFB10B931B05DF804FB13
:1023380072B6FEE7000000002DE9F0432DED068B94
:10234800A5B001F0ADFAFFF76BFFFFF7CFFF002450
:1023580015941694179418941994BA4DD5F8E0303A
:1023680043F00103C5F8E030D5F8E03003F001038D
:102378000193019BD5F8E03043F00403C5F8E03041
:10238800D5F8E03003F004030293029BD5F8E0305F
:1023980043F02003C5F8E030D5F8E03003F020031F
:1023A8000393039BD5F8E03043F01003C5F8E03001
:1023B800D5F8E03003F010030493049BD5F8E0301F
:1023C80043F00803C5F8E030D5F8E03003F008031F
:1023D8000593059BD5F8E03043F00203C5F8E030DB
:1023E800D5F8E03003F002030693069B964E22468A
:1023F8004FF4E051304604F0D1FB01224FF4004184
:10240800304604F0CBFB802715974FF488131693BA
:10241800179415A98D4804F0E7F94FF4E053159384
:102428004FF00108CDF858801794189415A9304634
:1024380004F0DAF94FF400431593CDF85880179457
:102448000323189315A9304604F0CEF918231593E1
:102458001694CDF85C8015A9304604F0C5F92246DB
:102468000221172002F032FE172002F063FED5F891
:10247800D83043EA0803C5F8D830D5F8D83003EA8D
:1024880008030093009B224605210B2002F01EFE44
:102498000B2002F04FFE0A940B940C940D940794B1
:1024A800089409940E940F94109411941294139410
:1024B80014942C22214615A808F0A4FA6448654B08
:1024C8000360132343602023836040F6C313C36073
:1024D80004614461876107F045F9002840F0BA8239
:1024E8004FF480530A930AA9594807F0F3FB0028D0
:1024F80040F0B282564807F065F9002840F0AE82F5
:10250800002307934FF4E00308938023099307A956
:102518004F4808F0A3F9002840F0A28260230E93E8
:1025280000220F9210921192129213924FF400739C
:1025380014930EA9464807F041FA002840F0928209
:1025480004220EA9424807F039FA002840F08C828C
:1025580008220EA93E4807F031FA002840F086828A
:1025680040F2E2430F93002314930C220EA938483B
:1025780007F024FA002840F07B8200231593169375
:1025880017936422189219934FF400521A921B93CE
:102598001C934FF000721D921E931F9315A92C488F
:1025A80008F0BAF9002840F06582294801F01EF8C1
:1025B8003C22002115A808F025FA2748274B03607C
:1025C8004FF400234360002383600122C26004218A
:1025D80001610375437582610377C36203634363D3
:1025E80080F8383001F0A2FF002840F045821A4CEC
:1025F800204602F043FD1A4B159309231693052331
:10260800179340F2FF7318930423199300231A9326
:102618008DF8703002221D928DF878308DF879305F
:102628008DF87A30A0221F92802220928DF8843073
:1026380015A9204602F0A8F9002840F01F82094B8E
:10264800159311E000440258000C0258001002587B
:10265800F006002400000140140600240021024076
:102668000800900C0000B84F40F20F13169315A9FC
:10267800A94802F089F9002840F0028200230A9351
:102688000B930C930D931593169317931893199313
:102698000E930F93109311930793089309939F48F0
:1026A8009F4A02606322426083604FF0FF32C2603B
:1026B8000361836107F056F8002840F0E3814FF486
:1026C80080530A930AA9954807F004FB002840F0B4
:1026D800DB81924807F0A6F8002840F0D781042350
:1026E8001593502316930023179318930A231993CD
:1026F80015A98A4807F072FC002840F0C981002219
:102708000E9201230F9310920A2311930EA9834866
:1027180007F030FA002840F0BD8102230E930F9392
:1027280004220EA97D4807F025FA002840F0B4815C
:1027380000230793099307A9784808F08FF8002821
:1027480040F0AC810021754807F0AAFD002840F050
:10275800A7810421714807F0A3FD002840F0A28159
:102768007048714B0360272343600023836040F661
:10277800C312C260036143618023836106F0F2FFE4
:10278800002840F0918100230E930F931093159326
:1027980016931793189319931A931B936348644AD3
:1027A80002604FF40022426083600122C26004216B
:1027B8000161037542750522826103774362836272
:1027C8000322C2620363436380F8383001F0AEFE2F
:1027D800002840F06B8100230E930EA9534802F0A5
:1027E800BBFB002840F06481524B159306231693D7
:1027F8000523179340F2FF731893042319930023BA
:102808001A938DF86D3015A9484801F059FA002837
:1028180040F0508104231793474B15930C231693CC
:1028280015A9424801F04CFA002840F04581434B75
:1028380015931223169315A93C4801F041FA002874
:1028480040F03C813E4B15931823169303231793AE
:1028580015A9364801F034FA002840F03181394B87
:1028680015934FF48073169315A9304801F028FA90
:10287800002840F027810023169318931A931C937D
:102888000E930F93109330484FF0804202604360DC
:10289800836040F6FF72C260036180238361032373
:1028A8001593012217920A2319931B921D9315A9B8
:1028B80006F0E8FF002840F0078100230E931093EC
:1028C8000EA9214807F0CAFF002840F0FF803C21EC
:1028D8001D4807F080FE002840F0FA80642001F0CF
:1028E8001FF81A4C0821204607F074FC04212046E2
:1028F80007F070FC0021204607F06CFC08212046F8
:1029080007F070FF0421204607F06CFF00212046E5
:1029180007F068FF1CE000BF14060024D407002459
:10292800000C00403C07002400480140B00500248A
:1029380000200240400020191000C0100001802132
:10294800000052470080F03E88070024F00600246B
:10295800B14B1B78002B00F0BD80B04C23680025DC
:10296800DD639D635D63AE4E40F2FF7229463046DB
:1029780001F0F4FEAB4F40F2FF722946384601F0F1
:10298800EDFE4FF47A7000F0CBFF0522A6493846D9
:1029980001F03AFCFEF764FAFFF70EFB642000F042
:1029A800BFFF304601F02EFF0821204607F04EFBFE
:1029B8000421204607F04AFB2946204607F046FB3B
:1029C8000821204607F084FE0421204607F080FEF7
:1029D8002946204607F07CFE0C21204607F036FBEE
:1029E800924E934CDFED939A9FED939ADFED938A85
:1029F8009FED938A0821304604F0CAF8207110210F
:102A0800304604F0C5F86071874DB0EE690A6888F1
:102A1800FFF746FB84ED090AB0EE490AA888FFF7DC
:102A28003FFB84ED080A2B8907EE903AF8EE677AA7
:102A380067EEA87AC4ED137AEB8807EE903AF8EEC1
:102A4800677A67EE887AB0EE0E7A67EE877AC4ED19
:102A5800077ACFE772B6FEE772B6FEE772B6FEE710
:102A680072B6FEE772B6FEE772B6FEE772B6FEE72A
:102A780072B6FEE772B6FEE772B6FEE772B6FEE71A
:102A880072B6FEE772B6FEE772B6FEE772B6FEE70A
:102A980072B6FEE772B6FEE772B6FEE772B6FEE7FA
:102AA80072B6FEE772B6FEE772B6FEE772B6FEE7EA
:102AB80072B6FEE772B6FEE772B6FEE772B6FEE7DA
:102AC80072B6FEE772B6FEE772B6FEE772B6FEE7CA
:102AD80072B6FEE700224FF40041544804F05EF855
:102AE800584F26469FED489B9FED498BDFF8408164
:102AF80013E033680024DC639C635C630821304680
:102B080007F068FB0421304607F06CFE214630468A
:102B180007F068FE3B78092B29D8B8F80230012B5A
:102B28007FF41BAF3B7801333B700821304607F038
:102B38008DFA0421304607F0CBFD0021304607F01E
:102B4800C7FD33680022DA639A635A63042440F2AB
:102B5800EE254FF02E093368DD639D635D634846BB
:102B680000F0DEFE631E13F0FF04F4D1C1E7304C21
:102B78004FF0000884F802800125E570324B1B688D
:102B88005B6A2361D4ED0F7A9FED307A37EE677A6E
:102B9800DFED2F7A27EE277A37EE077AB7EEC77A76
:102BA800B0EE480B17EE090BB7EEC00B84ED100A18
:102BB8009FED28AAF0EE4A0A08F09EFA84ED100A62
:102BC800C0EE0A7A9FED247A67EE877AFCEEE77A00
:102BD80017EE903A9BB2A3612A464FF4004113487E
:102BE80003F0DCFF1D4C4146204607F05BFC042146
:102BF800204607F057FC204606F02BFC204600F044
:102C080023FD054B1D7071E7182D4454FB21094025
:102C180000000040ED29993F96050024F0060024A5
:102C280014060024B00500248C050024000C02586A
:102C38000000002400401C4600E02B471101073B20
:102C4800F303533897050024880700240000C8427E
:102C58000AD7233CDA0FC94000008045D407002476
:102C68000268334B9A4200D0704710B5314C94ED4E
:102C7800190AFFF77DFA304A94ED217AB0EEC77A47
:102C8800B7EEC77A82ED067B2C4B1B8807EE903A8D
:102C9800F8EEE77A9FED2A7A67EE877A77EEA77AD9
:102CA800C4ED287A274BD2E90E01C3E91601D2E90F
:102CB8000C01C3E91801D2E90A01C3E91A0194ED2C
:102CC800097AB7EEC77A83ED127B94ED087AB7EEEE
:102CD800C77A83ED147B94ED137AB7EEC77A83ED48
:102CE8001C7B94ED077AB7EEC77A83ED1E7BFEF75F
:102CF800A7F9154B9B78022B13D0042B11D0124B3C
:102D0800DB78042B0DD0022B0BD00F4B1B79022B39
:102D180007D00D4B5B78022B03D00B4B1B78022B93
:102D280005D10A4B0122DA71094B03221A7010BD32
:102D38000048014000000024980100248C0500246C
:102D48000A025338F004002470050024A00500246A
:102D580096050024802800D070470E4B1A7882F020
:102D680001021A705B780133DBB2FF2B0DD0094AE0
:102D78005370094B1B78022BEED1064B00225A6682
:102D8800064B1B6800225A62E6E7024B00225A7083
:102D9800EFE700BF00000024960500248807002400
:102DA800037F012B00D0704710B50446002106F0C0
:102DB80083FB07EE900AF8EE677A114BC3ED0E7AA3
:102DC800F5EE407AF1EE10FA00D110BD042120464C
:102DD80006F072FB0A4B93ED0E7A642202FB00F0B8
:102DE80007EE900AF8EE677AC7EE876AC3ED0F6AB6
:102DF800DFED046AC6EE877AC3ED117AE5E700BF16
:102E080000000024002474491E4B1B7873B91D4B25
:102E180001221A701C4B5B68BBB91C4B5B7853B919
:102E280001231A4A5370184A536014E0184B1B6860
:102E3800184A1A607047134B00221A7001225A7000
:102E4800134B1B68134A1A6070475A1C092B0E4B08
:102E580008BF00225A6010B5FDF7F6FB094B0022A7
:102E68001A705B7813B9094B5B7803B910BD054C30
:102E780001236370FDF71CFF00236370034A53703E
:102E8800F4E700BF880500242C080024AC050024C2
:102E9800B8BD0008F0BD00081B4B1B88A3F55A53AA
:102EA800313B9BB246F28E52934207D8164B5B8851
:102EB800A3F55A53313B9BB2934203D9134B0122DA
:102EC8001A70DA71124BD3ED137A124B93ED077A1D
:102ED800F4EEC77AF1EE10FA03DB0C4B01225A70BC
:102EE800DA710C4B93ED057AF4EEC77AF1EE10FA2D
:102EF80003D8064B01229A70DA71044BD87900384E
:102F080018BF0120704700BF28080024A00500242E
:102F180000000024F004002438B52DED028B02686F
:102F2800B34B9A4202D0BDEC028B38BD044609214E
:102F380001F00AFDAF4D288040F20F11204601F044
:102F480003FD6880AC4B1B78012B18D0AA4B1B786B
:102F5800022B79D0A84B1B78032BE4D1A74BDB7944
:102F6800002B40F071814FF480720021A44807F0D3
:102F780049FD78220021A34807F044FDD3E72A88B9
:102F8800A14B19680A441A60A04B196811FA80F01D
:102F980018609F490B8801339BB20B80B3F5805FA3
:102FA800C1D39C4B120B1A80000B58800023964A01
:102FB8001360964A13600B80974B196801228A6246
:102FC80040F6C312CA62DA60944B1B68944CA2693B
:102FD8005A6200232367E366A366FFF75DFFA071CB
:102FE800904B1A8907EE902AF8EE677A9FED8E7A51
:102FF80067EE877AC4ED137ADB8807EE903AF8EE2D
:10300800677A9FED8A7A67EE877AB0EE0E7A67EE76
:10301800877AC4ED077A58B1012897D101224FF475
:103028000041834803F0BAFD734B03221A7095E7F9
:1030380000224FF400417E4803F0B0FD7D4806F0C1
:10304800ADF96D4B02221A706A490B88714A1088D3
:103058001B1A07EE103AB8EEC77ADFED776A27EE4B
:10306800267AB7EEC77A664D85ED0E7B4B88528877
:103078009B1A06EE103AB8EEC66A26EE266AB7EE36
:10308800C66A85ED0C6B9FED585B35EE466B36EEE8
:10309800477B85ED0A7B614B1B685B6A604C63610B
:1030A80007EE903AB8EE670ADFED647A20EE270A59
:1030B80084ED190A9FED628AF0EE480A08F01CF8C0
:1030C80084ED190AF0EE087A20EE270A84ED1A0A30
:1030D800F0EE480A08F010F884ED1A0AB7EEC00AB4
:1030E80085ED080BFFF790FE464B93ED007BF7EE5E
:1030F800C75BC4ED1D5A93ED026BB7EEC66B84ED4A
:103108001E6A93ED047BB7EEC77B84ED1F7AD4ED7E
:10311800186AF4EEE65AF1EE10FA44DDC4ED1D6AC1
:10312800B4EEE66AF1EE10FA48DD3D4BC3ED1E6AD7
:10313800B4EEE67AF1EE10FA4BDD394BC3ED1F6AB7
:103148003748D0ED1D7A87EEA67A9FED3E6A27EEC6
:10315800067A37EE067ABCEEC77A17EE103A99B2BD
:103168000181D0ED1E7A87EEA67A27EE067A37EE31
:10317800067ABCEEC77A17EE103A9AB2428190ED01
:103188001F7AC7EE267A67EE867A77EE867AFCEEA5
:10319800E77A17EE903A9BB283811F480068416333
:1031A8008263C363D6E6F1EE667AF4EEE75AF1EE8F
:1031B80010FAB5D51A4BC3ED1D7AB1E7F1EE667A70
:1031C800B4EEE76AF1EE10FAB2D5154BC3ED1E7AEC
:1031D800AEE7F1EE667AB4EEE77AF1EE10FAAFD523
:1031E8000F4BC3ED1F7AABE70000000000000000A2
:1031F800002102402808002496050024A005002488
:10320800980100249802002420080024240800249F
:10321800980500249C050024F00600248807002453
:10322800000000248C0500241101073BF3035338E8
:10323800000C02583C070024FDD8243DDC0FC93A95
:10324800DA0FC94000409C4401220F4B1A724FF418
:1032580000410E4803F0A2FC0D4B1B6800225A6384
:103268009A63DA63196A41F2111211427FF47BAE54
:10327800196A40F2444211427FF475AE5A6C22F446
:1032880000425A646FE600BFA0050024000C0258F3
:10329800F006002472B6FEE782B0074BD3F8F4209C
:1032A80042F00202C3F8F420D3F8F43003F002032A
:1032B8000193019B02B070470044025870B58CB06E
:1032C80000230793089309930A930B9303685B4AB7
:1032D800934204D05A4A93427ED00CB070BD044643
:1032E800584A136801331360012B64D0564BD3F846
:1032F800E02042F00102C3F8E020D3F8E02002F019
:1033080001020292029AD3F8E02042F00402C3F8C4
:10331800E020D3F8E02002F004020392039AD3F8E5
:10332800E02042F02002C3F8E020D3F8E03003F0B8
:1033380020030493049B0A2307930326089607A9EE
:10334800424803F051FA302307930896002509955F
:1033580007A93F4803F048FA4FF4805307930896AB
:10336800099507A93B4803F03FFA3B483B4B0360EC
:10337800092343608560C5604FF4806303614FF49F
:10338800006343614FF4005383614FF48073C3615A
:103398004FF480330362456202F060F9C8B92E4BDE
:1033A800E3649C6300221146122001F08FFE122074
:1033B80001F0C0FE91E7244BD3F8D82042F0200258
:1033C800C3F8D820D3F8D83003F020030193019B29
:1033D8008CE7FFF75FFFE2E71A4A136801331360CF
:1033E800012B1DD0184BD3F8E02042F00102C3F89E
:1033F800E020D3F8E03003F001030693069B602336
:1034080007930323089307A9104803F0EDF9002256
:103418001146122001F05AFE122001F08BFE5CE7E3
:10342800094BD3F8D82042F02002C3F8D820D3F8AB
:10343800D83003F020030593059BD3E70020024012
:1034480000210240340800240044025800000258B9
:1034580000080258001402587806002410000240A0
:1034680000B58BB00023059306930793089309933F
:1034780003682D4A934208D02C4A934213D02C4A11
:1034880093423BD00BB05DF804FB2A4BD3F8F020F5
:1034980042F00102C3F8F020D3F8F03003F0010342
:1034A8000193019BEEE7234BD3F8E82042F0080292
:1034B800C3F8E820D3F8E82002F008020292029A42
:1034C800D3F8E02042F00102C3F8E020D3F8E0305E
:1034D80003F001030393039B01230593022306933F
:1034E800099305A9144803F07FF90022042132202A
:1034F80001F0ECFD322001F01DFEC3E70D4BD3F8BF
:10350800F02042F48022C3F8F020D3F8F03003F41E
:1035180080230493049B00220321762001F0D6FD2A
:10352800762001F007FEADE700000140000C0040E6
:1035380000480140004402580000025830B589B0E4
:103548000023039304930593069307930368B3F149
:10355800804F01D009B030BD214BD3F8E82042F0AC
:103568000102C3F8E820D3F8E82002F00102009233
:10357800009AD3F8E02042F00102C3F8E020D3F823
:10358800E02002F001020192019AD3F8E02042F013
:103598000202C3F8E020D3F8E03003F002030293FC
:1035A800029B4FF4004303930225049501240794DA
:1035B80003A90C4803F018F9082303930495002580
:1035C80005950695079403A9074803F00DF92A46BF
:1035D80021461C2001F07AFD1C2001F0ABFDB9E763
:1035E80000440258000002580004025800B587B091
:1035F80000230193029303930493059302680F4BEE
:103608009A4202D007B05DF804FB0D4BD3F8E020D6
:1036180042F01002C3F8E020D3F8E03003F01003C2
:103628000093009B4FF47C530193022302930123E0
:10363800059301A9034803F0D7F8E3E70000014028
:10364800004402580010025808B50368154A93420E
:1036580006D0154A93420BD0144A934217D008BD9E
:10366800134AD2F8F03023F00103C2F8F030F6E73D
:103678000F4AD2F8E83023F00803C2F8E8300121F5
:103688000C4803F0CFF9322001F062FDE7E7084A61
:10369800D2F8F03023F48023C2F8F030762001F01D
:1036A80057FDDCE700000140000C004000480140E5
:1036B8000044025800000258FEE7FEE7FEE7FEE776
:1036C800FEE770477047704708B500F017F908BD66
:1036D80008B5024802F0CCFB08BD00BF78060024FC
:1036E80008B5034800F040F9024800F03DF908BD6C
:1036F800B00500241406002408B5802003F054FA0D
:1037080008BD000008B5024805F0F2FE08BD00BF7C
:103718008807002408B5024805F0EAFE08BD00BF86
:10372800D407002408B5024805F0E2FE08BD00BF32
:103738003C070024274AD2F8883043F47003C2F8C3
:103748008830254B1B6803F00F03062B06D8224A46
:10375800136823F00F0343F0070313601F4B1A6825
:1037680042F001021A6000221A6119681C4A0A40D4
:103778001A60194B1B6813F0080F06D0164A136815
:1037880023F00F0343F007031360144B00229A61E0
:10379800DA611A62134999621349D96213491963A4
:1037A8005A639963DA6319645A64196821F48021A9
:1037B80019601A660E4B1A680E4B1340B3F1005F7E
:1037C80003D20D4B0122C3F808210C4B43F2D2025D
:1037D8001A60704700ED00E00020005200440258D3
:1037E8007FEDF6EA000202020000FF0180020101FB
:1037F8000010005C0000FFFF0080005100400052F4
:10380800DFF834D0FFF796FF0C480D490D4A002326
:1038180002E0D458C4500433C4188C42F9D30A4A7D
:103828000A4C002301E013600432A242FBD307F0E4
:10383800C5F8FEF781FD7047000008240000002449
:1038480018010024C8C90008180100243C080024F5
:10385800FEE700000F4B1B780BB90120704710B52D
:1038680004464FF47A70B0FBF3F30B4A1068B0FBD0
:10387800F3F001F081FC0F2C00D808B1012010BD35
:10388800002221464FF0FF3001F020FC034B1C6062
:103898000020F4E7AC000024A4000024B0000024B9
:1038A80010B5032001F000FC03F010FD0F498B69EF
:1038B8000F4AC3F30323D35C03F01F03D8408B697B
:1038C80003F00F03D35C03F01F0320FA03F3094A44
:1038D8001360094B18600F20FFF7BCFF10B10124DB
:1038E800204610BD0446FFF7D7FCF9E7004402580C
:1038F800F8BD0008A8000024A4000024034A1168A9
:10390800034B1B780B441360704700BF3808002432
:10391800AC000024014B1868704700BF3808002429
:1039280038B50446FFF7F6FF0546B4F1FF3F02D06D
:10393800044B1B781C44FFF7EDFF401BA042FAD351
:1039480038BD00BFAC000024014B1868000C70475C
:103958000010005C7047704708B5806BFFF7FBFFED
:1039680008BD704770470000F8B5044603681D6835
:103978005E689F4A934255D002F58072934251D0B7
:103988009C4B9F6807F01F0715F0020F10D016F028
:10399800020F0DD0636D13F0100F03D1636D43F464
:1039A80000636365204600F0EEFF236802221A6078
:1039B80015F0040F02D016F0040F05D115F0080F0A
:1039C80040D016F0080F3DD0636D13F0100F03D1EF
:1039D800636D43F4007363652368DA6812F4406F1B
:1039E8002AD1854A934200F00B81DA6812F4005F0D
:1039F80022D11A6812F0080F1ED09A6812F0040F2C
:103A080012D15A6822F00C025A60636D23F4807355
:103A18006365636D13F4805F0ED1636D43F001033A
:103A2800636509E0754BACE7636D43F010036365AC
:103A3800A36D43F00103A3652046FFF78BFF2368BE
:103A48000C221A6015F0200F02D016F0200F05D1B5
:103A580015F0400F48D016F0400F45D0636D13F0B5
:103A6800100F03D1636D43F4005363652368DA6C68
:103A780002F4C072D86860498B4200F0AE80D96801
:103A880062BB11F0007F05D001F4005200F44060E1
:103A9800024323D11A6812F0400F1FD011F4001FFF
:103AA8001CD19A6812F0080F10D15A6822F06002EF
:103AB8005A60636D23F480536365636D13F4807FEC
:103AC8000CD1636D43F00103636507E0636D43F058
:103AD80010036365A36D43F00103A3652046FFF758
:103AE8001BFA236860221A6015F0800F02D016F0C6
:103AF800800F37D115F4807F02D016F4807F3CD137
:103B080015F4007F02D016F4007F42D115F0100F93
:103B180021D016F0100F1ED0236B73B1002F46D0A2
:103B28002368334A934240D002F5807293423CD0D6
:103B3800304B9B6813F4404F0AD0636D43F48063A5
:103B48006365A36D43F00203A3652046FFF70AFFF0
:103B5800236810221A6015F4806F02D016F4806F63
:103B68002BD1F8BD636D43F4803363652046FFF7BE
:103B7800F8FE236880221A60BCE7636D43F40033C3
:103B88006365204600F0FDFE23684FF480721A60DA
:103B9800B6E7636D43F480236365204600F0F2FEC8
:103BA80023684FF400721A60B0E7144BC1E723682A
:103BB800DB6813F0030FCBD0BFE7636D43F480439A
:103BC8006365A36D43F00803A36523684FF480621F
:103BD8001A60204600F0D4FEC3E7B91F01297FF61A
:103BE8004EAF002F3FF44BAF0149C96848E700BF0B
:103BF80000200240006302580021024000230240D6
:103C0800092F06D840F22122FA4012F0010F7FF462
:103C1800ECAE014AD268E9E60020024008B5034646
:103C2800806B426D12F0500F30D1436D43F4007336
:103C3800436503681A6812F0080F14D0DA6812F4A2
:103C4800406F20D1DB6813F4005F1CD1436D23F46F
:103C580080734365436D13F4805F14D1436D43F063
:103C6800010343650FE0DB6813F0030F0BD1436DCD
:103C780023F480734365436D13F4805F03D1436D70
:103C880043F001034365FFF765FE08BD426D12F07E
:103C9800100F04D1C26CD26C18469047F5E7FFF7B5
:103CA80061FEF2E708B5806B436D43F0400343655E
:103CB800836D43F004038365FFF754FE08BD0000DD
:103CC80070B582B00022019290F85020012A00F0CD
:103CD80010820346012280F850200068826812F0A2
:103CE800040F09D05A6D42F020025A6501200022C3
:103CF80083F8502002B070BD0A68002A09DBC2F3BD
:103D08001304002C48D1920E01249440C269224326
:103D1800C26148684FEA901E0EF00C0E1A6802F154
:103D2800300C5EF80C4000F01F000A68C2F3846291
:103D380082401F2505FA00F024EA000002434EF8ED
:103D48000C201C68A268A06800F0080002F00402B9
:103D580002432AD01868826812F0010F40F0BF8130
:103D68000C68D0F8C050CA6802F0180CB74A22FA9A
:103D78000CF22240C4F3130425EA04042243C0F8D9
:103D8800C020C868B24A904200F0B0800A68002A91
:103D9800C0F22E810020AAE792FAA2F2B2FA82F2C9
:103DA80002F01F0201249440B0E70D684FEAD55C89
:103DB8000CF0040C14345CF80400C5F304554FF0FF
:103DC800070E0EFA05FE20EA0E008E6806FA05F5C3
:103DD80028434CF804009F48006800F07040B0F198
:103DE800805F0CD01868C46814F0100F41D1C46803
:103DF800C4F382046400486900FA04F407E0186810
:103E0800C468C4F382046400486900FA04F40D69C4
:103E1800042D36D0186800F1600C5CF8256008683D
:103E280000F0F84006F0004E40EA0E0020434CF83F
:103E380025001C680D69487E012814BF16464FF0FE
:103E48000046603454F8250020F00040304344F820
:103E580025001D680C69087E012808BF4FF4006220
:103E6800286904F01F04A24020F4F04002432A61AC
:103E780070E7C468640804F00804486900FA04F4A8
:103E8800C5E71868026E02F0F8420C68B2EB846F5E
:103E98001DD01868426E02F0F8420C68B2EB846FCD
:103EA8001AD01868826E02F0F8420C68B2EB846F80
:103EB80017D01868C26E02F0F8420C68B2EB846F33
:103EC8007FF448AFC26E22F00042C26642E7026E3B
:103ED80022F000420266DCE7426E22F000424266AF
:103EE800DFE7826E22F000428266E2E71C680A6819
:103EF800C2F31300B8B9900E013000F01F05092D68
:103F08003ED9920E013202F01F00920602F0F842EA
:103F180001258540154300EB40021E3A120542F088
:103F280000722A4336E092FAA2F0002843D0B0FA91
:103F380080F0013000F01F0009283CD992FAA2F560
:103F4800B5FA85F50135AD0605F0F84092FAA2F507
:103F5800B5FA85F5013505F01F05012606FA05F5C0
:103F6800054392FAA2F0B0FA80F0304400F01F0046
:103F780000EB4000A0F11E02120542F00072D0E7EB
:103F8800800600F0F8400122AA40104305EB4502E4
:103F980012050243D50D05F0040514342859C2F35F
:103FA80004520726964020EA06008E6806FA02F2B6
:103FB80002432A51EAE692FAA2F0B0FA80F0013000
:103FC800800600F0F84592FAA2F0B0FA80F00130CD
:103FD80000F01F060120B040284392FAA2F2B2FA7C
:103FE80082F2013202F01F0202EB42021205D0E710
:103FF8001968194881427ED000F5807081427AD0D4
:104008001648806800F0E075154CA46814F0010F9C
:104018007ED1124E00E0134E134CA2420DD0134C29
:10402800A24242D0124CA24261D110F4800F02D1B8
:104038000B4A91424AD0002059E610F4000F50D1A3
:10404800074A914216D0002051E600BFFFFF0F003B
:104058000000FF470010005C002002400063025887
:104068000060025800230240000084CB000052C7C1
:104078000000B8CFB26822F0E0722A4342F400028E
:10408800B260264A126892092549A1FB02129209D8
:10409800013252000192019A2AB3019A013A01921F
:1040A800019A002AF9D1002021E610F0807F1CD166
:1040B8001C4A914201D0002019E6B26822F0E07251
:1040C8002A4342F08072B260002010E6B26822F003
:1040D800E0722A4342F48002B260002007E6002022
:1040E80005E6002003E6002001E60020FFE50020A9
:1040F800FDE50220FEE50C48806800F0E0750B4CF9
:10410800A66804F58074A468344314F0010F82D0C3
:104118005A6D42F020025A650120E8E5A400002407
:10412800632D3E0500600258002302400020024033
:1041380003689A6812F0010F57D170B50446996860
:104148002C4A114209D0436D43F010034365836D37
:1041580043F001038365012070BD9968264A0A402F
:1041680042F001029A60FFF7D5FB05462368234A0F
:1041780093420BD002F58072934207D0204A92688E
:104188001A6812F0010F32D11B4E0FE01D4A9168D8
:10419800A2F500729342F3D111F01F0FF0D0002066
:1041A800DAE723681A6812F0010F1CD19A6812F036
:1041B800010F04D19A68324042F001029A60FFF779
:1041C800A9FB401B0228ECD923681B6813F0010FD8
:1041D800E7D1636D43F010036365A36D43F00103FA
:1041E800A3650120B8E70020B6E70020704700204B
:1041F800B2E700BF3F000080C0FFFF7F0020024001
:104208000063025800230240F8B504460D461646DE
:1042180000683D49884262D03C4B98425FD001F12A
:10422800C05101F586418F68816811F0040F67D18C
:1042380094F85020012A65D007F01F07012384F85D
:104248005030092F57D840F22123FB4013F0010FBB
:1042580051D02046FFF76CFF002848D1626DA0F6C8
:104268000273134043F4807363652268274B9A42B4
:1042780037D0636D23F480136365636D13F4805F37
:1042880032D0A36D23F00603A365E36C204ADA63FA
:10429800E36C204A1A64E36C1F4ADA6423681C2220
:1042A8001A60002384F850302268536843F01003E2
:1042B80053602268D36823F00303E16A0B43D36099
:1042C800216833462A464031E06C01F0F1FB226850
:1042D8009168124B0B4043F00403936011E01049BE
:1042E800A1E7002FC9D1C4E70023A365CDE70023C8
:1042F80084F8503005E0002384F85030012000E0B5
:104308000220F8BD0220FCE7002002400021024004
:10431800253C000861390008AD3C0008C0FFFF7F5C
:104328000023024038B503689A68996812F0020FB2
:1043380003D1044611F0010F01D1002038BD9A685D
:1043480002F00D02012A09D0436D43F010034365C2
:10435800836D43F0010383650120EFE79968164AEE
:104368000A4042F002029A60036803221A60FFF7CB
:10437800D1FA054623689B6813F0010F06D1002087
:10438800DCE723689B6813F0010F13D0FFF7C2FA2C
:10439800401B0228F5D923689B6813F0010FF0D061
:1043A800636D43F010036365A36D43F00103A365D8
:1043B8000120C3E70020C1E7C0FFFF7F38B50446EE
:1043C8000368524A93420BD002F58072934207D099
:1043D8004F4B9B6813F4403F14BF0123002306E0B2
:1043E8004C4B9B6813F4403F14BF012300239BB937
:1043F8004FF40020002104F043FB05466368B3F541
:10440800101F57D042D8B3F5E01F51D026D9B3F5C5
:10441800001F0ED145090CE003F0A8F905466368B2
:10442800B3F5003F14D0B3F5403F15D0B3F5803F46
:104438000ED0FFF789FA41F20303984249D8364B68
:104448009D422FD92268936843F48073936038BDE6
:104458001B0CB5FBF3F5ECE78508EAE7B3F5801F1D
:104468000FD006D9B3F5A01F0BD0B3F5C01F08D0E5
:10447800DFE7B3F5002F04D023F40022B2F5802F34
:10448800D7D19B0C5B00B5FBF3F5D2E7B3F5201F42
:1044980012D0B3F5301FCCD1FFF756FA41F203031F
:1044A80098420BD82268936823F480739360CEE710
:1044B8000509BEE78509BCE7C509BAE7174B9D4260
:1044C8000AD92268936823F4407343F48073936095
:1044D800BDE7134B9D4205D82268936823F44073C7
:1044E8009360B4E70F4B9D42EBD90F4B9D4207D821
:1044F8002268936823F4407343F400739360A6E73B
:104508002268936843F440739360A0E70020024058
:104518000063025800230240002D3101FF21BCBE78
:1045280021BCBE0041787D0181F0FA0270B582B0ED
:1045380000230193002800F0F8800446436D002B07
:1045480042D023689A6812F0005F03D09968784ACD
:104558000A409A6023689A6812F0805F16D19968B9
:10456800744A0A4042F080529A60734B1B689B0958
:10457800724AA2FB03239B0901330193019B2BB1D0
:10458800019B013B0193019B002BF9D121688B68AA
:1045980013F0805F1FD1636D43F010036365A36D53
:1045A80043F00103A36501258B68626D02F01002D8
:1045B80003F00403134310D0636D43F010036365E5
:1045C8000125284602B070BDFEF778FE0023A365DA
:1045D80084F85030B5E70025E6E7636D23F481736E
:1045E80043F0020363658B6813F0010F12D1544B3B
:1045F800994265D003F58073994261D0514B9B680D
:1046080013F0010F06D1504A936823F47C136168B4
:104618000B439360FFF798F941F20303984202D9DC
:10462800A368102B57D0236BA2681343627D43EA1B
:104638004233227F43EA0243227F012A55D0626A2D
:1046480022B102F47872A16A0A4313432168C86848
:104658003E4A02401343CB6021688B688A6802F0A7
:10466800080203F0040313431BD1C868227D384BAA
:10467800034043EA8233E26A1343CB6094F838304C
:10468800012B37D02268136923F0010313612268D4
:10469800136923F07043616B0B4313612046FFF7E6
:1046A8008DFEE368012B37D02268136B23F00F03CC
:1046B8001363636D23F0030343F00103636580E72D
:1046C8001F4B9A6803F580739B68134313F0010F1F
:1046D800A0D1204A98E7627D237F1B0443EA423336
:1046E800226B134343F01C03A6E7226A013A43EA0C
:1046F8004243A4E721680869E36B5A1E236C666C81
:10470800334343EA0243A26C1343134A0240134360
:1047180043F001030B61BAE721680A6BA369013B07
:1047280022F00F0213430B63C3E7012549E700BFDB
:10473800C0FFFF5FC0FFFF6FA4000024632D3E058C
:1047480000200240006002580063025803C0F0FFD6
:10475800FCBFFFFF002302401EF800FC70B582B0CA
:104768000023019390F85030012B42D004460D46A7
:104778001646012380F85030FFF7D4FD00282FD1CA
:10478800626D1D4B134043F0020363652268916814
:104798001A4B0B4006F08046334305F480352B4313
:1047A80043F000439360226815499368002B06DBA9
:1047B800636D23F0030343F00103636514E0019B79
:1047C80001330193019B8B42EFD3636D23F01203F6
:1047D80043F010036365002384F85030012006E09D
:1047E800636D43F010036365002384F8503002B012
:1047F80070BD0220FBE700BFFDEEFFFFC0FFFE3FDC
:1048080000F8C32538B5044603684A4A934264D081
:1048180002F58072934260D002F1C05202F58442E0
:1048280095689A6812F0080F76D1DA68DB6C13F491
:10483800C07F01D1002A52DA94F85030012B6DD094
:10484800012384F850302046FFF772FC00285FD11E
:10485800636D13F4807F48D0A36D23F00803A3652C
:1048680005F01F05626D344B134043F480536365B4
:104878002368324A93423BD0B5FA85F25209616DFA
:1048880021F48011616560211960002384F850309B
:104898002368D96811F4001F03D0596841F4806176
:1048A80059602369082B28D021684B6823F04003FE
:1048B8004B6021684B6843F020034B6023681F4915
:1048C8008B422DD0DA6812F0007F26D199681C4AF5
:1048D8000A4042F008029A601FE01A4AA0E7636D96
:1048E80043F020036365012017E00023A365B7E7C1
:1048F8000DB10022C7E70122C1E721684B6823F008
:1049080020034B6021684B6843F040034B60D5E7B8
:10491800002384F8503000E0022038BD0220FCE774
:10492800063D012DCED9002ACCD1636D43F4801306
:104938006365F2E700200240FECFFFFF002102403E
:10494800C0FFFF7F0023024040F2152399420FD099
:1049580040F21B33994207D040F20F1399420BD013
:104968000368D3F8800070470368D3F88C00704759
:104978000368D3F8880070470368D3F88400704749
:104988007047704770477047F0B583B00346002200
:104998000192C06893F85020012A00F0C8820122D1
:1049A80083F85020A8B10A6A012A12D0186E00288C
:1049B80040F0A8801A660022DA658D6A002D00F0A2
:1049C8009E800A6A013A05F07C052A43CD6A1543A0
:1049D80099E04A68092A74D01868826812F0080FAA
:1049E8001FD10A68002A0ADBC2F31304002C40F026
:1049F800A980920E01249440C2692243C26191F8B1
:104A08002520002A40F0A7801C68E06891F826500D
:104A180091F82420120542EA455220F4401002433E
:104A2800E2601C68A268A06800F0080002F00402B6
:104A3800024340F05581886A18B1C86A002840F0DE
:104A4800948091F825000128E0680CBF40F00070C0
:104A580020F00070E060002091F83040012C00F058
:104A680093801D682C6924F002042C610D684FEABC
:104A7800D55E0EF0040E1C6804F1140C5EF80C40B0
:104A8800C5F304550726AE4024EA06048E6806FAE4
:104A980005F52C434EF80C40B44C246804F07044DF
:104AA800B4F1805F7ED01C68E56815F0100F40F007
:104AB800A380E568C5F382056D004C6904FA05F525
:104AC80078E0886AB0B10A68520C02F4785200F0B3
:104AD8007C00CC6A204302431C68E06C20F07B40D9
:104AE80020F46F0020F43F4020F0FF001043E06402
:104AF800DA6571E70A68520C02F47852ECE70A6A40
:104B0800551E00E000250868C0F384604A6802F07A
:104B18001F0200FA02F21C6E013C1C66D86D0243AB
:104B28002A43DA65002C7FF457AF1C68E06C20F04C
:104B38007B4020F46F0020F43F4020F0FF00024348
:104B4800E26449E792FAA2F2B2FA82F202F01F0294
:104B58000124944050E71868C26891F8264022F46E
:104B6800401242EA4452C2605BE791F825000128EE
:104B780005D0E06820F00070E06000206CE75C6D14
:104B880044F020045C6567E71E6837694C6B651E56
:104B9800774C3C408F6B3C4344EA054444F00204A4
:104BA800346163E71C68E568C5F382056D004C69EC
:104BB80004FA05F50E69042E26D01C6804F1600C71
:104BC8005CF826700C6804F0F84407F0004E44EADC
:104BD8000E042C434CF826401D680E690C7F012CEE
:104BE80008BF4FF00042603555F8264024F00044D5
:104BF800224345F8262074E0E5686D0805F00805AD
:104C08004C6904FA05F5D5E71E68326E356EC5F3B2
:104C180084650A68C2F31304002C35D1C2F3846496
:104C2800A54236D01E68726E756EC5F384650A6833
:104C3800C2F31304002C34D1C2F38464A54235D0E6
:104C48001A6802F16006946E956EC5F384650A6869
:104C5800C2F3130494BBC2F38464A54233D01E6824
:104C6800F26EF56EC5F384650A68C2F3130494BB4B
:104C7800C2F38464A54234D1F46E04F0004402F017
:104C8800F8422243F2662CE092FAA2F4B4FA84F4D1
:104C9800C6E7346E04F0004402F0F842224332665C
:104CA800C0E792FAA2F4B4FA84F4C7E7746E04F089
:104CB800004402F0F84222437266C1E792FAA2F475
:104CC800B4FA84F4C9E7F46804F0004402F0F84246
:104CD8002243F260C3E792FAA2F4B4FA84F4C9E773
:104CE80000201C68A26812F0010F18D10D68D4F8D2
:104CF800C060CA6802F0180C1E4A22FA0CF22A4058
:104D0800C5F3130526EA05052A43C4F8C020CC6874
:104D1800194A944208D00A68002AC0F298800022F2
:104D280083F8502003B0F0BD1D680A68C2F313046D
:104D380024BB940E013404F01F06092E4FD9920E9D
:104D4800013202F01F04920602F0F8424FF0010C03
:104D58000CFA04FC42EA0C0C04EB44021E3A12055D
:104D680042F0007242EA0C0243E000BF0010005C0F
:104D78001DFE00FCFFFF0F000000FF4792FAA2F49F
:104D8800002C47D0B4FA84F4013404F01F04092C31
:104D980040D992FAA2FCBCFA8CFC0CF1010C4FEA47
:104DA8008C6C0CF0F84492FAA2F6B6FA86F6013644
:104DB80006F01F064FF0010C0CFA06FC4CEA040C36
:104DC80092FAA2F4B4FA84F4013404F01F0404EB58
:104DD8004404A4F11E02120542F00072C2E7A406C0
:104DE80004F0F8440122B240144306EB46021205CF
:104DF8002243D60D06F0040614357459C2F3045242
:104E08000727974024EA07048F6807FA02F222432B
:104E1800725180E792FAA2F4B4FA84F40134A40639
:104E280004F0F84692FAA2F4B4FA84F4013404F0D7
:104E38001F070124BC40344392FAA2F2B2FA82F26C
:104E4800013202F01F0202EB42021205D0E7196894
:104E5800384CA14226D004F58074A14222D0364CA9
:104E6800A46814F0010F26D1344DAC6804F0E07743
:104E7800334EB24227D0334EB24248D0324EB242BD
:104E88007FF44DAF14F4800F7FF449AF2A4A914262
:104E98007FF445AFAA6822F0E0723A4342F48002F8
:104EA800AA603CE7234CA56804F58074A4682C43E9
:104EB80014F0010F05D05A6D42F020025A65012006
:104EC8002DE7224DD1E714F4000F7FF428AF1A4ADA
:104ED80091427FF424AFAA6822F0E0723A4342F488
:104EE8000002AA601A4A126892091A49A1FB021222
:104EF8009209013252000192019A002A3FF40FAF41
:104F0800019A013A0192019A002AF9D107E714F0AF
:104F1800807F7FF404AF084A91427FF400AFAA680B
:104F280022F0E0723A4342F08072AA60F7E602206B
:104F3800F8E600BF002002400060025800630258F3
:104F4800000084CB000052C70000B8CF0023024005
:104F5800A4000024632D3E0590F85020012A6BD050
:104F680010B49BB00346012280F85020002216920C
:104F7800179200683C4A904260D05A6D42F0200275
:104F88005A65002283F85020012068E00A6852B36D
:104F98003648826822F440424C68224382601A688C
:104FA800A0F54070824213D000F5807082420FD085
:104FB8002F4A926812F0010F3AD12C4884680A6887
:104FC80089680A432B4921400A438260002043E054
:104FD800254A906802F580729268024312F0010F28
:104FE800EBD0002038E021498A6822F440428A60E8
:104FF8001A68A1F540718A420FD001F580718A4282
:105008000BD01B4A926812F0010F13D11749886818
:10501800184A02408A6000201EE0134A916802F58F
:10502800807292680A4312F0010FEFD0002013E05B
:10503800002011E000200FE0022070470E4A90681F
:10504800A2F580729268024312F0040F9ED05A6D46
:1050580042F020025A650120002283F850201BB03C
:105068005DF8044B704700BF002002400023024057
:1050780000600258E0F0FFFF0021024003689A68D0
:10508800996801F0080102F004020A4307D1D968BF
:10509800044A0A4042F00042DA60002070470120CA
:1050A800704700BFFFFFDF7F064AD368000200F4A5
:1050B800E06023F4E0631B041B0C1843024B03431A
:1050C800D360704700ED00E00000FA0500B5164B0C
:1050D800DB68C3F30223C3F1070CBCF1040F28BF3C
:1050E8004FF0040C03F1040EBEF1060F8CBF033B16
:1050F80000234FF0FF3E0EFA0CFC21EA0C01994008
:105108000EFA03F322EA03021143002805DB090122
:10511800C9B2064B19545DF804FB00F00F000901F1
:10512800C9B2034B1954F6E700ED00E000E400E0D3
:1051380014ED00E0002808DB420900F01F000123FD
:1051480003FA00F0014B43F82200704700E100E049
:1051580000280DDB430900F01F00012202FA00F0CD
:105168002033044A42F82300BFF34F8FBFF36F8FF9
:10517800704700BF00E100E00138B0F1807F0BD23A
:105188004FF0E0235861054AF02182F823100020EF
:10519800986107221A6170470120704700ED00E00E
:1051A800F0B4866D0568914C914FBD4218BFA54279
:1051B8000CBF012400241837BD4208BF44F0010485
:1051C8001837BD4208BF44F001041837BD4208BF74
:1051D80044F001041837BD4208BF44F001041837F1
:1051E800BD4208BF44F001041837BD4208BF44F06F
:1051F800010407F55677BD4208BF44F0010418378B
:10520800BD4208BF44F001041837BD4208BF44F04E
:1052180001041837BD4208BF44F001041837BD42E5
:1052280008BF44F001041837BD4208BF44F0010428
:105238001837BD4208BF44F001041837BD4208BF03
:1052480044F001046B4FBD4208BF44F00104143719
:10525800BD4208BF44F001041437BD4208BF44F002
:1052680001041437BD4208BF44F001041437BD429D
:1052780008BF44F001041437BD4208BF44F00104DC
:105288001437BD4208BF44F0010414B95A4CA54272
:1052980007D1446E856E6560C46E14B1046F456FA6
:1052A80065600568514C524FBD4218BFA5420CBFFE
:1052B800012400241837BD4208BF44F00104183700
:1052C800BD4208BF44F001041837BD4208BF44F08E
:1052D80001041837BD4208BF44F001041837BD4225
:1052E80008BF44F001041837BD4208BF44F0010468
:1052F80007F55677BD4208BF44F001041837BD4290
:1053080008BF44F001041837BD4208BF44F0010447
:105318001837BD4208BF44F001041837BD4208BF22
:1053280044F001041837BD4208BF44F0010418379F
:10533800BD4208BF44F0010414B9304CA54215D150
:10534800C46D04F01F053F24AC40B46005682C68A8
:1053580024F480242C60046863608368402B3AD06E
:10536800036899600368DA60F0BC7047214C244FE9
:10537800BD4218BFA5420CBF012400241437BD420A
:1053880008BF44F001041437BD4208BF44F00104CB
:105398001437BD4208BF44F001041437BD4208BFAA
:1053A80044F001041437BD4208BF44F0010414B9A5
:1053B800114CA542D8D1C46D04F01F050124AC409E
:1053C8007460046863608368402B09D0036899603F
:1053D8000368DA60C8E703689A600368D960C3E7BE
:1053E80003689A600368D960BEE700BF10000240F6
:1053F800280002400854025894540258B804024045
:105408001C5402580268344B34498A4218BF9A42E5
:105418000CBF0123002318318A4208BF43F001035F
:1054280018318A4208BF43F0010318318A4208BF85
:1054380043F0010318318A4208BF43F001031831D1
:105448008A4208BF43F0010318318A4208BF43F07B
:10545800010301F556718A4208BF43F00103183170
:105468008A4208BF43F0010318318A4208BF43F05B
:10547800010318318A4208BF43F0010318318A42F8
:1054880008BF43F0010318318A4208BF43F0010303
:1054980018318A4208BF43F0010313B9104B9A42EE
:1054A80015D110B4D1B210390E4BA3FB0143C3F38D
:1054B80002130D4CE35CC3655F290C4B03EA02033E
:1054C80088BF04338365806D5DF8044B704722F014
:1054D800FF028265806D704710000240280002407C
:1054E800B8040240ABAAAAAA08BE000800FCFFFF45
:1054F8000368284A28498B4218BF93420CBF0122EF
:10550800002214318B4208BF42F0010214318B4251
:1055180008BF42F0010214318B4208BF42F0010279
:1055280014318B4208BF42F0010214318B4208BF8C
:1055380042F0010212B9194A934212D1DBB2083B78
:10554800174AA2FB0323174A02EB131292000266C2
:10555800154A4266C3F30413012202FA03F3836671
:105568007047DAB2103A1149A1FB02121209104928
:105578001944A8290CD90F4B13449B0003660E4B02
:10558800436602F01F02012303FA02F282667047A3
:105598000832F0E7085402581C5402589454025830
:1055A800CDCCCCCC0096001680580258ABAAAAAA3B
:1055B800F0FBFDBF008200108008024090F804C094
:1055C8000CF1FF3107293AD810B402681C4B1D4C66
:1055D800A24218BF9A420CBF012300231434A242EE
:1055E80008BF43F001031434A24208BF43F001038B
:1055F8001434A24208BF43F001031434A24208BF86
:1056080043F001031434A24208BF43F0010313B965
:105618000D4B9A420CD10D4B63449B00C3660C4B57
:105628000367012303FA01F141675DF8044B7047F2
:10563800084B63449B00C366074B0367F1E7704759
:10564800085402581C540258945402583F960016A5
:10565800405902583F8200104009024038B50446BC
:10566800FEF758F9002C00F00C8205462268644BBE
:1056780064498A4218BF9A420CBF0123002318319B
:105688008A4208BF43F0010318318A4208BF43F039
:10569800010318318A4208BF43F0010318318A42D6
:1056A80008BF43F0010318318A4208BF43F00103E1
:1056B80018318A4208BF43F0010301F556718A4246
:1056C80008BF43F0010318318A4208BF43F00103C1
:1056D80018318A4208BF43F0010318318A4208BFD3
:1056E80043F0010318318A4208BF43F0010318311F
:1056F8008A4208BF43F0010318318A4208BF43F0C9
:10570800010313B9404B9A421AD1022384F8353069
:10571800002384F83430136823F0010313602368EE
:105728001A6812F0010F7DD0FEF7F4F8431B052B21
:10573800F5D920236365032384F83530012038BD6B
:10574800324B33498A4218BF9A420CBF01230023C7
:1057580014318A4208BF43F0010314318A4208BF5A
:1057680043F0010314318A4208BF43F001031431A6
:105778008A4208BF43F0010314318A4208BF43F04C
:1057880001031BB9234B9A4240F06581022384F838
:105798003530002384F8343013681F481840A36854
:1057A800402B00F05F81802B0CBF4FF4804100211B
:1057B800E5682369DB0843EAD503656943EAD5034D
:1057C800A56943EAD503E56943EAD503256A43EAAF
:1057D800151303430B4313602268104B1344104AFC
:1057E800A2FB03231B099B00E3652046FFF70AFE83
:1057F800E26D02F01F0101228A4042605EE000BFB4
:105808001000024028000240B80402400854025820
:105818001C540258945402580F00FEFFF8ABFDA721
:10582800CDCCCCCC1A689A481040A168E2680A43EB
:1058380021690A4361690A43A1690A43E1690A4384
:10584800216A0A430243616A042900F0C880914929
:10585800086891490140B1F1005F0DD36168A1F179
:1058680029001F2800F20F818C4921FA00F010F05E
:10587800010F01D042F480121A6021684A6922F0AF
:105888000702636A1A43042B0ED1A06A0243E36A33
:1058980053B1A569002D40F0B880012800F0AF8011
:1058A80030F0020000F0A0804A612046FFF7AAFD10
:1058B800E36D03F01F023F23934083602268784B17
:1058C80078498A4218BF9A420CBF01230023183135
:1058D8008A4208BF43F0010318318A4208BF43F0E7
:1058E800010318318A4208BF43F0010318318A4284
:1058F80008BF43F0010318318A4208BF43F001038F
:1059080018318A4208BF43F0010301F556718A42F3
:1059180008BF43F0010318318A4208BF43F001036E
:1059280018318A4208BF43F0010318318A4208BF80
:1059380043F0010318318A4208BF43F001031831CC
:105948008A4208BF43F0010318318A4208BF43F076
:10595800010318318A4208BF43F0010352498A42C1
:1059680008BF43F0010314318A4208BF43F0010322
:1059780014318A4208BF43F0010314318A4208BF38
:1059880043F0010314318A4208BF43F00103143184
:105998008A4208BF43F0010314318A4208BF43F02A
:1059A800010313B9414B9A4213D12046FFF7A0FDDA
:1059B800A368802B58D0236E22791A60636EA26E7A
:1059C8005A606368013B072B51D90023E3662367BC
:1059D800636700206065012384F83530AFE6E16A2B
:1059E800206B01430A4332E7C3F30063002B3FF403
:1059F8005BAF40236365012084F835009FE6B3F16F
:105A0800C07F14BF00230123F0E7B5F5005F0AD07B
:105A18000228EED903287FF447AFC3F30063002BB5
:105A28003FF442AFE5E703283FF63EAF01A555F83E
:105A380020F000BFFB5900084D5A0008FB59000828
:105A4800535A0008C3F30063E9E7B3F1C07F14BFFA
:105A580000230123E3E740236365032384F83530FB
:105A680001206CE61021A3E600236360A3E720462B
:105A7800FFF7A4FDE36E00221A60236F626F5A607D
:105A8800A7E701205BE64F3903297FF6F3AEF3E67B
:105A98003F8010FE0010005C0000FFFF3F00C0C305
:105AA800100002402800024008540258945402583A
:105AB800002800F0D28170B5044690F8340001281F
:105AC80000F0CD81012084F8340094F83500C0B28C
